{
  "_format": "hh-sol-artifact-1",
  "contractName": "InvestorV1Pool",
  "sourceName": "contracts/InvestorV1Pool.sol",
  "abi": [
    {
      "inputs": [],
      "stateMutability": "nonpayable",
      "type": "constructor"
    },
    {
      "anonymous": false,
      "inputs": [
        {
          "indexed": false,
          "internalType": "address",
          "name": "from",
          "type": "address"
        },
        {
          "indexed": false,
          "internalType": "address",
          "name": "to",
          "type": "address"
        },
        {
          "indexed": false,
          "internalType": "uint256",
          "name": "amount",
          "type": "uint256"
        }
      ],
      "name": "Claim",
      "type": "event"
    },
    {
      "anonymous": false,
      "inputs": [
        {
          "indexed": false,
          "internalType": "string",
          "name": "oldHash",
          "type": "string"
        },
        {
          "indexed": false,
          "internalType": "string",
          "name": "newHash",
          "type": "string"
        }
      ],
      "name": "ColletralHashChanged",
      "type": "event"
    },
    {
      "anonymous": false,
      "inputs": [
        {
          "indexed": false,
          "internalType": "string",
          "name": "oldLink",
          "type": "string"
        },
        {
          "indexed": false,
          "internalType": "string",
          "name": "newLink",
          "type": "string"
        }
      ],
      "name": "ColletralLinkChanged",
      "type": "event"
    },
    {
      "anonymous": false,
      "inputs": [
        {
          "indexed": false,
          "internalType": "address",
          "name": "token",
          "type": "address"
        },
        {
          "indexed": false,
          "internalType": "address",
          "name": "from",
          "type": "address"
        },
        {
          "indexed": false,
          "internalType": "uint256",
          "name": "amount",
          "type": "uint256"
        }
      ],
      "name": "Deposit",
      "type": "event"
    },
    {
      "anonymous": false,
      "inputs": [
        {
          "indexed": false,
          "internalType": "address",
          "name": "from",
          "type": "address"
        },
        {
          "indexed": false,
          "internalType": "address",
          "name": "to",
          "type": "address"
        },
        {
          "indexed": false,
          "internalType": "uint256",
          "name": "amount",
          "type": "uint256"
        }
      ],
      "name": "Exited",
      "type": "event"
    },
    {
      "anonymous": false,
      "inputs": [
        {
          "indexed": false,
          "internalType": "uint256",
          "name": "oraclePrice",
          "type": "uint256"
        }
      ],
      "name": "OraclePriceChanged",
      "type": "event"
    },
    {
      "anonymous": false,
      "inputs": [
        {
          "indexed": false,
          "internalType": "uint256",
          "name": "funded",
          "type": "uint256"
        }
      ],
      "name": "PoolActiviated",
      "type": "event"
    },
    {
      "anonymous": false,
      "inputs": [
        {
          "indexed": false,
          "internalType": "uint256",
          "name": "requiredFund",
          "type": "uint256"
        },
        {
          "indexed": false,
          "internalType": "uint256",
          "name": "liquidityFund",
          "type": "uint256"
        }
      ],
      "name": "PoolDishonored",
      "type": "event"
    },
    {
      "anonymous": false,
      "inputs": [
        {
          "indexed": false,
          "internalType": "uint256",
          "name": "liquidityFund",
          "type": "uint256"
        }
      ],
      "name": "PoolLiquidated",
      "type": "event"
    },
    {
      "anonymous": false,
      "inputs": [
        {
          "indexed": false,
          "internalType": "address",
          "name": "operator",
          "type": "address"
        },
        {
          "indexed": false,
          "internalType": "uint256",
          "name": "startTime",
          "type": "uint256"
        },
        {
          "indexed": false,
          "internalType": "uint256",
          "name": "tokenDeposit",
          "type": "uint256"
        }
      ],
      "name": "PoolOpened",
      "type": "event"
    },
    {
      "anonymous": false,
      "inputs": [
        {
          "indexed": false,
          "internalType": "uint256",
          "name": "minCapacity",
          "type": "uint256"
        },
        {
          "indexed": false,
          "internalType": "uint256",
          "name": "funded",
          "type": "uint256"
        }
      ],
      "name": "PoolReverted",
      "type": "event"
    },
    {
      "anonymous": false,
      "inputs": [
        {
          "indexed": false,
          "internalType": "address",
          "name": "token",
          "type": "address"
        },
        {
          "indexed": false,
          "internalType": "address",
          "name": "from",
          "type": "address"
        },
        {
          "indexed": false,
          "internalType": "address",
          "name": "to",
          "type": "address"
        },
        {
          "indexed": false,
          "internalType": "uint256",
          "name": "amount",
          "type": "uint256"
        }
      ],
      "name": "Withdrawal",
      "type": "event"
    },
    {
      "inputs": [],
      "name": "HSF",
      "outputs": [
        {
          "internalType": "address",
          "name": "",
          "type": "address"
        }
      ],
      "stateMutability": "view",
      "type": "function"
    },
    {
      "inputs": [],
      "name": "USDT",
      "outputs": [
        {
          "internalType": "address",
          "name": "",
          "type": "address"
        }
      ],
      "stateMutability": "view",
      "type": "function"
    },
    {
      "inputs": [
        {
          "internalType": "address",
          "name": "to",
          "type": "address"
        }
      ],
      "name": "claim",
      "outputs": [
        {
          "internalType": "bool",
          "name": "",
          "type": "bool"
        }
      ],
      "stateMutability": "nonpayable",
      "type": "function"
    },
    {
      "inputs": [
        {
          "internalType": "address",
          "name": "",
          "type": "address"
        }
      ],
      "name": "claimed",
      "outputs": [
        {
          "internalType": "bool",
          "name": "",
          "type": "bool"
        }
      ],
      "stateMutability": "view",
      "type": "function"
    },
    {
      "inputs": [],
      "name": "closePool",
      "outputs": [
        {
          "internalType": "bool",
          "name": "",
          "type": "bool"
        }
      ],
      "stateMutability": "nonpayable",
      "type": "function"
    },
    {
      "inputs": [],
      "name": "collateralDocument",
      "outputs": [
        {
          "internalType": "string",
          "name": "",
          "type": "string"
        }
      ],
      "stateMutability": "view",
      "type": "function"
    },
    {
      "inputs": [],
      "name": "collateralHash",
      "outputs": [
        {
          "internalType": "string",
          "name": "",
          "type": "string"
        }
      ],
      "stateMutability": "view",
      "type": "function"
    },
    {
      "inputs": [
        {
          "internalType": "uint256",
          "name": "amount",
          "type": "uint256"
        }
      ],
      "name": "deposit",
      "outputs": [
        {
          "internalType": "bool",
          "name": "",
          "type": "bool"
        }
      ],
      "stateMutability": "nonpayable",
      "type": "function"
    },
    {
      "inputs": [],
      "name": "endTime",
      "outputs": [
        {
          "internalType": "uint256",
          "name": "",
          "type": "uint256"
        }
      ],
      "stateMutability": "view",
      "type": "function"
    },
    {
      "inputs": [
        {
          "internalType": "uint256",
          "name": "amount",
          "type": "uint256"
        },
        {
          "internalType": "address",
          "name": "to",
          "type": "address"
        }
      ],
      "name": "exit",
      "outputs": [
        {
          "internalType": "bool",
          "name": "",
          "type": "bool"
        }
      ],
      "stateMutability": "nonpayable",
      "type": "function"
    },
    {
      "inputs": [],
      "name": "exited",
      "outputs": [
        {
          "internalType": "uint256",
          "name": "",
          "type": "uint256"
        }
      ],
      "stateMutability": "view",
      "type": "function"
    },
    {
      "inputs": [
        {
          "internalType": "uint256",
          "name": "amount",
          "type": "uint256"
        }
      ],
      "name": "expectedRestakeRevenue",
      "outputs": [
        {
          "internalType": "uint256",
          "name": "",
          "type": "uint256"
        }
      ],
      "stateMutability": "view",
      "type": "function"
    },
    {
      "inputs": [],
      "name": "factory",
      "outputs": [
        {
          "internalType": "address",
          "name": "",
          "type": "address"
        }
      ],
      "stateMutability": "view",
      "type": "function"
    },
    {
      "inputs": [],
      "name": "fee",
      "outputs": [
        {
          "internalType": "uint24",
          "name": "",
          "type": "uint24"
        }
      ],
      "stateMutability": "view",
      "type": "function"
    },
    {
      "inputs": [],
      "name": "funded",
      "outputs": [
        {
          "internalType": "uint256",
          "name": "",
          "type": "uint256"
        }
      ],
      "stateMutability": "view",
      "type": "function"
    },
    {
      "inputs": [],
      "name": "getPoolState",
      "outputs": [
        {
          "internalType": "string",
          "name": "",
          "type": "string"
        }
      ],
      "stateMutability": "view",
      "type": "function"
    },
    {
      "inputs": [],
      "name": "interestRate",
      "outputs": [
        {
          "internalType": "uint24",
          "name": "",
          "type": "uint24"
        }
      ],
      "stateMutability": "view",
      "type": "function"
    },
    {
      "inputs": [],
      "name": "liquidate",
      "outputs": [
        {
          "internalType": "bool",
          "name": "",
          "type": "bool"
        }
      ],
      "stateMutability": "nonpayable",
      "type": "function"
    },
    {
      "inputs": [],
      "name": "maxCapacity",
      "outputs": [
        {
          "internalType": "uint256",
          "name": "",
          "type": "uint256"
        }
      ],
      "stateMutability": "view",
      "type": "function"
    },
    {
      "inputs": [],
      "name": "minCapacity",
      "outputs": [
        {
          "internalType": "uint256",
          "name": "",
          "type": "uint256"
        }
      ],
      "stateMutability": "view",
      "type": "function"
    },
    {
      "inputs": [],
      "name": "name",
      "outputs": [
        {
          "internalType": "string",
          "name": "",
          "type": "string"
        }
      ],
      "stateMutability": "view",
      "type": "function"
    },
    {
      "inputs": [],
      "name": "openPool",
      "outputs": [
        {
          "internalType": "bool",
          "name": "",
          "type": "bool"
        }
      ],
      "stateMutability": "nonpayable",
      "type": "function"
    },
    {
      "inputs": [],
      "name": "operator",
      "outputs": [
        {
          "internalType": "address",
          "name": "",
          "type": "address"
        }
      ],
      "stateMutability": "view",
      "type": "function"
    },
    {
      "inputs": [],
      "name": "oraclePrice",
      "outputs": [
        {
          "internalType": "uint256",
          "name": "",
          "type": "uint256"
        }
      ],
      "stateMutability": "view",
      "type": "function"
    },
    {
      "inputs": [
        {
          "internalType": "address",
          "name": "",
          "type": "address"
        }
      ],
      "name": "pooledAmt",
      "outputs": [
        {
          "internalType": "uint256",
          "name": "",
          "type": "uint256"
        }
      ],
      "stateMutability": "view",
      "type": "function"
    },
    {
      "inputs": [],
      "name": "pullDeposit",
      "outputs": [
        {
          "internalType": "bool",
          "name": "",
          "type": "bool"
        }
      ],
      "stateMutability": "nonpayable",
      "type": "function"
    },
    {
      "inputs": [
        {
          "internalType": "address",
          "name": "target",
          "type": "address"
        }
      ],
      "name": "rescue",
      "outputs": [
        {
          "internalType": "bool",
          "name": "",
          "type": "bool"
        }
      ],
      "stateMutability": "nonpayable",
      "type": "function"
    },
    {
      "inputs": [
        {
          "internalType": "uint256",
          "name": "amount",
          "type": "uint256"
        }
      ],
      "name": "restake",
      "outputs": [
        {
          "internalType": "bool",
          "name": "",
          "type": "bool"
        }
      ],
      "stateMutability": "nonpayable",
      "type": "function"
    },
    {
      "inputs": [
        {
          "internalType": "address",
          "name": "",
          "type": "address"
        }
      ],
      "name": "restakeAmt",
      "outputs": [
        {
          "internalType": "uint256",
          "name": "",
          "type": "uint256"
        }
      ],
      "stateMutability": "view",
      "type": "function"
    },
    {
      "inputs": [],
      "name": "restaked",
      "outputs": [
        {
          "internalType": "uint256",
          "name": "",
          "type": "uint256"
        }
      ],
      "stateMutability": "view",
      "type": "function"
    },
    {
      "inputs": [],
      "name": "revertPool",
      "outputs": [
        {
          "internalType": "bool",
          "name": "",
          "type": "bool"
        }
      ],
      "stateMutability": "nonpayable",
      "type": "function"
    },
    {
      "inputs": [
        {
          "internalType": "uint256",
          "name": "_oraclePrice",
          "type": "uint256"
        }
      ],
      "name": "setOraclePrice",
      "outputs": [
        {
          "internalType": "bool",
          "name": "",
          "type": "bool"
        }
      ],
      "stateMutability": "nonpayable",
      "type": "function"
    },
    {
      "inputs": [],
      "name": "stageTime",
      "outputs": [
        {
          "internalType": "uint256",
          "name": "",
          "type": "uint256"
        }
      ],
      "stateMutability": "view",
      "type": "function"
    },
    {
      "inputs": [],
      "name": "startTime",
      "outputs": [
        {
          "internalType": "uint256",
          "name": "",
          "type": "uint256"
        }
      ],
      "stateMutability": "view",
      "type": "function"
    },
    {
      "inputs": [
        {
          "internalType": "uint256",
          "name": "amount",
          "type": "uint256"
        },
        {
          "internalType": "address",
          "name": "to",
          "type": "address"
        }
      ],
      "name": "unstake",
      "outputs": [
        {
          "internalType": "bool",
          "name": "",
          "type": "bool"
        }
      ],
      "stateMutability": "nonpayable",
      "type": "function"
    },
    {
      "inputs": [],
      "name": "update",
      "outputs": [
        {
          "internalType": "bool",
          "name": "",
          "type": "bool"
        }
      ],
      "stateMutability": "nonpayable",
      "type": "function"
    },
    {
      "inputs": [
        {
          "internalType": "uint256",
          "name": "amount",
          "type": "uint256"
        },
        {
          "internalType": "address",
          "name": "to",
          "type": "address"
        }
      ],
      "name": "withdraw",
      "outputs": [
        {
          "internalType": "bool",
          "name": "",
          "type": "bool"
        }
      ],
      "stateMutability": "nonpayable",
      "type": "function"
    }
  ],
  "bytecode": "0x6101a0604052600060058190556006819055600755600a805460ff191690553480156200002b57600080fd5b50336001600160a01b031663857eee1b6040518163ffffffff1660e01b815260040160006040518083038186803b1580156200006657600080fd5b505afa1580156200007b573d6000803e3d6000fd5b505050506040513d6000823e601f3d908101601f19168201604052620000a591908101906200025e565b60e081905260c08290528251620000c490600090602086019062000187565b50505050606090811b6001600160601b031990811660a05291901b16608052604080516310e1877160e01b8152905133916310e187719160048083019260c0929190829003018186803b1580156200011b57600080fd5b505afa15801562000130573d6000803e3d6000fd5b505050506040513d601f19601f8201168201806040525081019062000156919062000373565b6001600160e81b031960e891821b81166101805291901b166101605261014052610120526101005260015562000423565b8280546200019590620003d0565b90600052602060002090601f016020900481019282620001b9576000855562000204565b82601f10620001d457805160ff191683800117855562000204565b8280016001018555821562000204579182015b8281111562000204578251825591602001919060010190620001e7565b506200021292915062000216565b5090565b5b8082111562000212576000815560010162000217565b80516001600160a01b03811681146200024557600080fd5b919050565b805162ffffff811681146200024557600080fd5b600080600080600060a086880312156200027757600080fd5b62000282866200022d565b94506020620002938188016200022d565b60408801519095506001600160401b0380821115620002b157600080fd5b818901915089601f830112620002c657600080fd5b815181811115620002db57620002db6200040d565b604051601f8201601f19908116603f011681019083821181831017156200030657620003066200040d565b816040528281528c868487010111156200031f57600080fd5b600093505b8284101562000343578484018601518185018701529285019262000324565b82841115620003555760008684830101525b60608c01516080909c01519a9d999c509a9998975050505050505050565b60008060008060008060c087890312156200038d57600080fd5b86519550602087015194506040870151935060608701519250620003b4608088016200024a565b9150620003c460a088016200024a565b90509295509295509295565b600181811c90821680620003e557607f821691505b602082108114156200040757634e487b7160e01b600052602260045260246000fd5b50919050565b634e487b7160e01b600052604160045260246000fd5b60805160601c60a05160601c60c05160e0516101005161012051610140516101605160e81c6101805160e81c6135f26200058e6000396000818161042401528181610a8e0152818161105f015281816121030152612fa301526000818161058101528181610a5b0152818161102c015281816120d00152612f57015260008181610315015261201b0152600081816102e00152611ebf0152600081816103fd01528181610687015281816122b10152612eed0152600081816105a80152818161149501528181611ee80152611f9d0152600081816103ab01528181610acb01528181610b3e01528181610bbe015281816110c701528181611f250152818161216b01528181612374015281816127da0152818161280601528181612ddb0152612e1201526000818161036c01528181610f4001528181611254015281816114f60152818161191f01528181611cb4015281816126550152612cec015260006104f601526135f26000f3fe608060405234801561001057600080fd5b50600436106102765760003560e01c80637c3a00fd11610160578063c45a0155116100d8578063ddca3f431161008c578063eb5797a411610071578063eb5797a4146105ca578063f3a504f2146105d2578063ff9d1128146105db57600080fd5b8063ddca3f431461057c578063e1b0b706146105a357600080fd5b8063c65cd86d116100bd578063c65cd86d14610533578063c884ef8314610546578063cff407591461056957600080fd5b8063c45a0155146104f1578063c54e44eb1461051857600080fd5b80639f8280cc1161012f578063b6b55f2511610114578063b6b55f25146104b0578063bce1b520146104c3578063c0695af1146104d657600080fd5b80639f8280cc14610488578063a2e62045146104a857600080fd5b80637c3a00fd1461041f5780638381e1821461045a578063839006f21461046d57806399d7a0f41461048057600080fd5b80634178bb3b116101f35780635ce6c327116101c257806366805de5116101a757806366805de5146103e7578063668aa824146103ef57806378e97925146103f857600080fd5b80635ce6c327146103d65780636603b86f146103df57600080fd5b80634178bb3b1461035f578063570ca7351461036757806359b6a0c9146103a65780635c0428b8146103cd57600080fd5b806328a070251161024a5780633197cbb61161022f5780633197cbb6146103105780633d289376146103375780633e5e89be1461035757600080fd5b806328a07025146102d357806329942ed4146102db57600080fd5b8062f714ce1461027b57806306fdde03146102a35780631e83409a146102b8578063217ac237146102cb575b600080fd5b61028e6102893660046133d7565b6105ee565b60405190151581526020015b60405180910390f35b6102ab610889565b60405161029a919061341f565b61028e6102c6366004613368565b610917565b6102ab610cf8565b61028e610f3c565b6103027f000000000000000000000000000000000000000000000000000000000000000081565b60405190815260200161029a565b6103027f000000000000000000000000000000000000000000000000000000000000000081565b610302610345366004613368565b60026020526000908152604090205481565b6102ab611236565b6102ab611243565b61038e7f000000000000000000000000000000000000000000000000000000000000000081565b6040516001600160a01b03909116815260200161029a565b6103027f000000000000000000000000000000000000000000000000000000000000000081565b61030260075481565b61030260065481565b61028e611250565b61028e6114f2565b61030260015481565b6103027f000000000000000000000000000000000000000000000000000000000000000081565b6104467f000000000000000000000000000000000000000000000000000000000000000081565b60405162ffffff909116815260200161029a565b61028e6104683660046133d7565b6116e7565b61028e61047b366004613368565b61191b565b61028e611cb0565b610302610496366004613368565b60036020526000908152604090205481565b61028e611e9a565b61028e6104be3660046133a5565b61223e565b61028e6104d13660046133a5565b6124bd565b61038e7310701139142cf9812deb4792d2ae2733d47f570881565b61038e7f000000000000000000000000000000000000000000000000000000000000000081565b61038e739f29715ea731a34bd7411056643e36cbe7b9745881565b61028e6105413660046133a5565b612651565b61028e610554366004613368565b60046020526000908152604090205460ff1681565b61028e6105773660046133d7565b612ab5565b6104467f000000000000000000000000000000000000000000000000000000000000000081565b6103027f000000000000000000000000000000000000000000000000000000000000000081565b61028e612ce8565b61030260055481565b6103026105e93660046133a5565b612f41565b60006105f8611e9a565b506001600a5460ff166005811115610612576106126135a6565b148061063457506003600a5460ff166005811115610632576106326135a6565b145b6106855760405162461bcd60e51b815260206004820152601f60248201527f496e766573746f725631506f6f6c3a20706f6f6c206e6f74206f70656e65640060448201526064015b60405180910390fd5b7f00000000000000000000000000000000000000000000000000000000000000004210156106f55760405162461bcd60e51b815260206004820152601f60248201527f496e766573746f725631506f6f6c3a206e6f7420737461727465642079657400604482015260640161067c565b3360009081526002602052604090205483111561075f5760405162461bcd60e51b815260206004820152602260248201527f496e766573746f725631506f6f6c3a206e6f7420656e6f756768206465706f736044820152611a5d60f21b606482015260840161067c565b6001600160a01b0382166107c05760405162461bcd60e51b815260206004820152602260248201527f496e766573746f725631506f6f6c3a20746f2061646472657373206973207a65604482015261726f60f01b606482015260840161067c565b336000908152600260205260409020546107da9084613019565b336000908152600260205260409020556005546107f79084613019565b600555610819739f29715ea731a34bd7411056643e36cbe7b97458838561302c565b60408051739f29715ea731a34bd7411056643e36cbe7b9745881523360208201526001600160a01b03841691810191909152606081018490527f342e7ff505a8a0364cd0dc2ff195c315e43bce86b204846ecd36913e117b109e906080015b60405180910390a150600192915050565b600080546108969061352b565b80601f01602080910402602001604051908101604052809291908181526020018280546108c29061352b565b801561090f5780601f106108e45761010080835404028352916020019161090f565b820191906000526020600020905b8154815290600101906020018083116108f257829003601f168201915b505050505081565b6000610921611e9a565b506004600a5460ff16600581111561093b5761093b6135a6565b146109935760405162461bcd60e51b815260206004820152602260248201527f496e766573746f725631506f6f6c3a20706f6f6c206e6f742066696e616c697a604482015261195960f21b606482015260840161067c565b3360009081526004602052604090205460ff16156109f35760405162461bcd60e51b815260206004820152601f60248201527f496e766573746f725631506f6f6c3a20616c726561647920636c61696d656400604482015260640161067c565b6001600160a01b038216610a545760405162461bcd60e51b815260206004820152602260248201527f496e766573746f725631506f6f6c3a20746f2061646472657373206973207a65604482015261726f60f01b606482015260840161067c565b6000610a827f00000000000000000000000000000000000000000000000000000000000000006127106134c4565b62ffffff169050610ab57f0000000000000000000000000000000000000000000000000000000000000000612710613452565b610ac49062ffffff16826134a5565b9050610af07f0000000000000000000000000000000000000000000000000000000000000000826130da565b9050610b00816305f5e1006130e6565b3360009081526002602052604081205491925090819015610b655733600090815260026020526040902054610b369084906130da565b9150610b62827f00000000000000000000000000000000000000000000000000000000000000006130e6565b91505b3360009081526003602052604090205415801590610b8557506000600654115b15610bfc57600654610b989084906130da565b33600090815260036020526040902054909150610bb69082906130da565b9050610be2817f00000000000000000000000000000000000000000000000000000000000000006130e6565b9050610bf9600754826130e690919063ffffffff16565b90505b336000908152600460205260408120805460ff19166001179055610c2083836130f2565b11610c6d5760405162461bcd60e51b815260206004820181905260248201527f496e766573746f725631506f6f6c3a206e6f20636c61696d20666f7220796f75604482015260640161067c565b610c9785610c7b84846130f2565b739f29715ea731a34bd7411056643e36cbe7b97458919061302c565b7f70eb43c4a8ae8c40502dcf22436c509c28d6ff421cf07c491be56984bd9870683386610cc485856130f2565b604080516001600160a01b0394851681529390921660208401529082015260600160405180910390a1506001949350505050565b60606001600a5460ff166005811115610d1357610d136135a6565b1415610d51575060408051808201909152600681527f4f70656e65640000000000000000000000000000000000000000000000000000602082015290565b6002600a5460ff166005811115610d6a57610d6a6135a6565b1415610da8575060408051808201909152600681527f4163746976650000000000000000000000000000000000000000000000000000602082015290565b6000600a5460ff166005811115610dc157610dc16135a6565b1415610dff575060408051808201909152600781527f4372656174656400000000000000000000000000000000000000000000000000602082015290565b6005600a5460ff166005811115610e1857610e186135a6565b1415610e56575060408051808201909152600a81527f446973686f6e6f72656400000000000000000000000000000000000000000000602082015290565b6004600a5460ff166005811115610e6f57610e6f6135a6565b1415610ead575060408051808201909152600a81527f4c69717569646174656400000000000000000000000000000000000000000000602082015290565b6003600a5460ff166005811115610ec657610ec66135a6565b1415610f04575060408051808201909152600881527f5265766572746564000000000000000000000000000000000000000000000000602082015290565b5060408051808201909152600a81527f496d706f737369626c6500000000000000000000000000000000000000000000602082015290565b60007f00000000000000000000000000000000000000000000000000000000000000006001600160a01b03163314610fb65760405162461bcd60e51b815260206004820152601c60248201527f496e766573746f725631506f6f6c3a206e6f74206f70657261746f7200000000604482015260640161067c565b610fbe611e9a565b506002600a5460ff166005811115610fd857610fd86135a6565b146110255760405162461bcd60e51b815260206004820152601f60248201527f496e766573746f725631506f6f6c3a20706f6f6c206e6f742061637469766500604482015260640161067c565b60006110537f00000000000000000000000000000000000000000000000000000000000000006127106134c4565b62ffffff1690506110867f0000000000000000000000000000000000000000000000000000000000000000612710613452565b6110959062ffffff16826134a5565b905060006006541180156110a95750600754155b156110c2576005546110bb90826130da565b90506110ef565b6110ec7f0000000000000000000000000000000000000000000000000000000000000000826130da565b90505b6110fd816305f5e1006130e6565b6040516370a0823160e01b8152306004820152909150600090739f29715ea731a34bd7411056643e36cbe7b97458906370a082319060240160206040518083038186803b15801561114d57600080fd5b505afa158015611161573d6000803e3d6000fd5b505050506040513d601f19601f8201168201806040525081019061118591906133be565b90508082116111975760019250505090565b6111c333306111a68585613019565b739f29715ea731a34bd7411056643e36cbe7b974589291906130fe565b7f5548c837ab068cf56a2c2479df0882a4922fd203edb7517321831d95078c5f62739f29715ea731a34bd7411056643e36cbe7b97458336112048585613019565b604080516001600160a01b0394851681529390921660208401529082015260600160405180910390a160019250505090565b600880546108969061352b565b600980546108969061352b565b60007f00000000000000000000000000000000000000000000000000000000000000006001600160a01b031633146112ca5760405162461bcd60e51b815260206004820152601c60248201527f496e766573746f725631506f6f6c3a206e6f74206f70657261746f7200000000604482015260640161067c565b6112d2611e9a565b506001600a5460ff1660058111156112ec576112ec6135a6565b148061130e57506000600a5460ff16600581111561130c5761130c6135a6565b145b61137f5760405162461bcd60e51b8152602060048201526024808201527f496e766573746f725631506f6f6c3a206e6f742072657665727461626c65207360448201527f7461746500000000000000000000000000000000000000000000000000000000606482015260840161067c565b600a805460ff191660031790556040516370a0823160e01b81523060048201526000907310701139142cf9812deb4792d2ae2733d47f5708906370a082319060240160206040518083038186803b1580156113d957600080fd5b505afa1580156113ed573d6000803e3d6000fd5b505050506040513d601f19601f8201168201806040525081019061141191906133be565b90506114327310701139142cf9812deb4792d2ae2733d47f5708338361302c565b604080517310701139142cf9812deb4792d2ae2733d47f570881523360208201819052818301526060810183905290517f342e7ff505a8a0364cd0dc2ff195c315e43bce86b204846ecd36913e117b109e9181900360800190a1600554604080517f0000000000000000000000000000000000000000000000000000000000000000815260208101929092527f7c64d86d5ba045525890af71998709b40afa070fe3680693c0899aeb5926568491015b60405180910390a1600191505090565b60007f00000000000000000000000000000000000000000000000000000000000000006001600160a01b0316331461156c5760405162461bcd60e51b815260206004820152601c60248201527f496e766573746f725631506f6f6c3a206e6f74206f70657261746f7200000000604482015260640161067c565b611574611e9a565b506004600a5460ff16600581111561158e5761158e6135a6565b146115e65760405162461bcd60e51b815260206004820152602260248201527f496e766573746f725631506f6f6c3a20706f6f6c206e6f742066696e616c697a604482015261195960f21b606482015260840161067c565b6040516370a0823160e01b81523060048201526000907310701139142cf9812deb4792d2ae2733d47f5708906370a082319060240160206040518083038186803b15801561163357600080fd5b505afa158015611647573d6000803e3d6000fd5b505050506040513d601f19601f8201168201806040525081019061166b91906133be565b905061168c7310701139142cf9812deb4792d2ae2733d47f5708338361302c565b604080517310701139142cf9812deb4792d2ae2733d47f57088152336020820181905291810191909152606081018290527f342e7ff505a8a0364cd0dc2ff195c315e43bce86b204846ecd36913e117b109e906080016114e2565b60006116f1611e9a565b506002600a5460ff16600581111561170b5761170b6135a6565b148061172d57506005600a5460ff16600581111561172b5761172b6135a6565b145b6117795760405162461bcd60e51b815260206004820152601f60248201527f496e766573746f725631506f6f6c3a20706f6f6c206e6f742061637469766500604482015260640161067c565b336000908152600360205260409020548311156117fe5760405162461bcd60e51b815260206004820152602260248201527f496e766573746f725631506f6f6c3a206e6f7420656e6f75676820726573746160448201527f6b65000000000000000000000000000000000000000000000000000000000000606482015260840161067c565b6001600160a01b03821661185f5760405162461bcd60e51b815260206004820152602260248201527f496e766573746f725631506f6f6c3a20746f2061646472657373206973207a65604482015261726f60f01b606482015260840161067c565b336000908152600360205260409020546118799084613019565b336000908152600360205260409020556007546118969084613019565b6007556118b87310701139142cf9812deb4792d2ae2733d47f5708838561302c565b604080517310701139142cf9812deb4792d2ae2733d47f570881523360208201526001600160a01b03841691810191909152606081018490527f342e7ff505a8a0364cd0dc2ff195c315e43bce86b204846ecd36913e117b109e90608001610878565b60007f00000000000000000000000000000000000000000000000000000000000000006001600160a01b031633146119955760405162461bcd60e51b815260206004820152601c60248201527f496e766573746f725631506f6f6c3a206e6f74206f70657261746f7200000000604482015260640161067c565b6001600160a01b038216739f29715ea731a34bd7411056643e36cbe7b97458148015906119df57506001600160a01b0382167310701139142cf9812deb4792d2ae2733d47f570814155b611a515760405162461bcd60e51b815260206004820152602e60248201527f496e766573746f725631506f6f6c3a205553445420616e64204853462063616e60448201527f6e6f742062652072657363756564000000000000000000000000000000000000606482015260840161067c565b6040516370a0823160e01b81523060048201526000906001600160a01b038416906370a082319060240160206040518083038186803b158015611a9357600080fd5b505afa158015611aa7573d6000803e3d6000fd5b505050506040513d601f19601f82011682018060405250810190611acb91906133be565b11611b3d5760405162461bcd60e51b8152602060048201526024808201527f496e766573746f725631506f6f6c3a206e6f2074617267657420746f6b656e2060448201527f6865726500000000000000000000000000000000000000000000000000000000606482015260840161067c565b6040516370a0823160e01b8152306004820152611bcb9033906001600160a01b038516906370a082319060240160206040518083038186803b158015611b8257600080fd5b505afa158015611b96573d6000803e3d6000fd5b505050506040513d601f19601f82011682018060405250810190611bba91906133be565b6001600160a01b038516919061302c565b6040516370a0823160e01b81523060048201527f342e7ff505a8a0364cd0dc2ff195c315e43bce86b204846ecd36913e117b109e908390339081906001600160a01b038416906370a082319060240160206040518083038186803b158015611c3257600080fd5b505afa158015611c46573d6000803e3d6000fd5b505050506040513d601f19601f82011682018060405250810190611c6a91906133be565b604051611c9f94939291906001600160a01b039485168152928416602084015292166040820152606081019190915260800190565b60405180910390a15060015b919050565b60007f00000000000000000000000000000000000000000000000000000000000000006001600160a01b03163314611d2a5760405162461bcd60e51b815260206004820152601c60248201527f496e766573746f725631506f6f6c3a206e6f74206f70657261746f7200000000604482015260640161067c565b611d32611e9a565b506002600a5460ff166005811115611d4c57611d4c6135a6565b14611d995760405162461bcd60e51b815260206004820152601f60248201527f496e766573746f725631506f6f6c3a20706f6f6c206e6f742061637469766500604482015260640161067c565b6040516370a0823160e01b8152306004820152600090739f29715ea731a34bd7411056643e36cbe7b97458906370a082319060240160206040518083038186803b158015611de657600080fd5b505afa158015611dfa573d6000803e3d6000fd5b505050506040513d601f19601f82011682018060405250810190611e1e91906133be565b9050611e3f739f29715ea731a34bd7411056643e36cbe7b97458338361302c565b60408051739f29715ea731a34bd7411056643e36cbe7b974588152336020820181905291810191909152606081018290527f342e7ff505a8a0364cd0dc2ff195c315e43bce86b204846ecd36913e117b109e906080016114e2565b60006001600a5460ff166005811115611eb557611eb56135a6565b148015611ee157507f000000000000000000000000000000000000000000000000000000000000000042115b15611ff8577f000000000000000000000000000000000000000000000000000000000000000060055410611f8757600a805460ff19166002179055600554611f49907f00000000000000000000000000000000000000000000000000000000000000006134e8565b6006556005546040519081527ff4e709ae88b8c450ce2b6f255aece15d83282f77351735003b4b091a79e972f29060200160405180910390a1611ff2565b600a805460ff19166003179055600554604080517f0000000000000000000000000000000000000000000000000000000000000000815260208101929092527f7c64d86d5ba045525890af71998709b40afa070fe3680693c0899aeb59265684910160405180910390a15b50600190565b6002600a5460ff166005811115612011576120116135a6565b14801561203d57507f000000000000000000000000000000000000000000000000000000000000000042115b15611ff2576040516370a0823160e01b8152306004820152600090739f29715ea731a34bd7411056643e36cbe7b97458906370a082319060240160206040518083038186803b15801561208f57600080fd5b505afa1580156120a3573d6000803e3d6000fd5b505050506040513d601f19601f820116820180604052508101906120c791906133be565b905060006120f77f00000000000000000000000000000000000000000000000000000000000000006127106134c4565b62ffffff16905061212a7f0000000000000000000000000000000000000000000000000000000000000000612710613452565b6121399062ffffff16826134a5565b9050600060065411801561214d5750600754155b156121665760055461215f90826130da565b9050612193565b6121907f0000000000000000000000000000000000000000000000000000000000000000826130da565b90505b6121a1816305f5e1006130e6565b90508082106121ef57600a805460ff191660041790556040518281527ff22938d29944010ebbf93c4b810b830fcb603d4de90ac510080e10d59f2a46c89060200160405180910390a1612236565b600a805460ff1916600517905560408051828152602081018490527f773d8dddcb5934119d33dfd68c32aa3b9b74369d9c96eca4749311b1678517d3910160405180910390a15b505050600190565b6000612248611e9a565b506001600a5460ff166005811115612262576122626135a6565b146122af5760405162461bcd60e51b815260206004820152601f60248201527f496e766573746f725631506f6f6c3a20706f6f6c206e6f74206f70656e656400604482015260640161067c565b7f000000000000000000000000000000000000000000000000000000000000000042101561231f5760405162461bcd60e51b815260206004820152601f60248201527f496e766573746f725631506f6f6c3a206e6f7420737461727465642079657400604482015260640161067c565b6000821161236f5760405162461bcd60e51b815260206004820152601e60248201527f496e766573746f725631506f6f6c3a20616d6f756e74206973207a65726f0000604482015260640161067c565b6005547f00000000000000000000000000000000000000000000000000000000000000009061239e90846130f2565b11156124125760405162461bcd60e51b815260206004820152602560248201527f496e766573746f725631506f6f6c3a206465706f736974206f7665722063617060448201527f6163697479000000000000000000000000000000000000000000000000000000606482015260840161067c565b3360009081526002602052604090205461242c90836130f2565b3360009081526002602052604090205560055461244990836130f2565b60055561246c739f29715ea731a34bd7411056643e36cbe7b974583330856130fe565b60408051739f29715ea731a34bd7411056643e36cbe7b9745881523360208201529081018390527f5548c837ab068cf56a2c2479df0882a4922fd203edb7517321831d95078c5f6290606001611c9f565b60006124c7611e9a565b506002600a5460ff1660058111156124e1576124e16135a6565b1461252e5760405162461bcd60e51b815260206004820152601f60248201527f496e766573746f725631506f6f6c3a20706f6f6c206e6f742061637469766500604482015260640161067c565b6000600654116125a65760405162461bcd60e51b815260206004820152602760248201527f496e766573746f725631506f6f6c3a206e6f20636170616369747920666f722060448201527f72657374616b6500000000000000000000000000000000000000000000000000606482015260840161067c565b336000908152600360205260409020546125c090836130f2565b336000908152600360205260409020556007546125dd90836130f2565b6007556126007310701139142cf9812deb4792d2ae2733d47f57083330856130fe565b604080517310701139142cf9812deb4792d2ae2733d47f570881523360208201529081018390527f5548c837ab068cf56a2c2479df0882a4922fd203edb7517321831d95078c5f6290606001611c9f565b60007f00000000000000000000000000000000000000000000000000000000000000006001600160a01b031633146126cb5760405162461bcd60e51b815260206004820152601c60248201527f496e766573746f725631506f6f6c3a206e6f74206f70657261746f7200000000604482015260640161067c565b6126d3611e9a565b506001600a5460ff1660058111156126ed576126ed6135a6565b148061270f57506000600a5460ff16600581111561270d5761270d6135a6565b145b61275b5760405162461bcd60e51b815260206004820152601d60248201527f496e766573746f725631506f6f6c3a20706f6f6c206e6f74206f70656e000000604482015260640161067c565b6001548214156127d35760405162461bcd60e51b815260206004820152602760248201527f496e766573746f725631506f6f6c3a206f7261636c655072696365206e6f742060448201527f6368616e67656400000000000000000000000000000000000000000000000000606482015260840161067c565b60006127ff7f0000000000000000000000000000000000000000000000000000000000000000846130e6565b905061282b7f000000000000000000000000000000000000000000000000000000000000000084613155565b1561283e5761283b8160016130f2565b90505b61284d8164e8d4a510006130da565b9050826001541115612966576040516370a0823160e01b81523060048201526128e6907310701139142cf9812deb4792d2ae2733d47f5708906370a082319060240160206040518083038186803b1580156128a757600080fd5b505afa1580156128bb573d6000803e3d6000fd5b505050506040513d601f19601f820116820180604052508101906128df91906133be565b8290613019565b6001849055905061290d7310701139142cf9812deb4792d2ae2733d47f57083330846130fe565b604080517310701139142cf9812deb4792d2ae2733d47f570881523360208201529081018290527f5548c837ab068cf56a2c2479df0882a4922fd203edb7517321831d95078c5f629060600160405180910390a1612a79565b6040516370a0823160e01b81523060048201526000907310701139142cf9812deb4792d2ae2733d47f5708906370a082319060240160206040518083038186803b1580156129b357600080fd5b505afa1580156129c7573d6000803e3d6000fd5b505050506040513d601f19601f820116820180604052508101906129eb91906133be565b90506129f78183613019565b60018590559150612a1d7310701139142cf9812deb4792d2ae2733d47f5708338461302c565b604080517310701139142cf9812deb4792d2ae2733d47f570881523360208201819052818301526060810184905290517f342e7ff505a8a0364cd0dc2ff195c315e43bce86b204846ecd36913e117b109e9181900360800190a1505b6040518381527f51c6eaaaa11f3a57f136cd3fbce664dfa4da3c42210ab46757f048532068e0ce9060200160405180910390a150600192915050565b6000612abf611e9a565b506002600a5460ff166005811115612ad957612ad96135a6565b1480612afb57506005600a5460ff166005811115612af957612af96135a6565b145b612b475760405162461bcd60e51b815260206004820152601f60248201527f496e766573746f725631506f6f6c3a20706f6f6c206e6f742061637469766500604482015260640161067c565b33600090815260026020526040902054831115612bb15760405162461bcd60e51b815260206004820152602260248201527f496e766573746f725631506f6f6c3a206e6f7420656e6f756768206465706f736044820152611a5d60f21b606482015260840161067c565b6001600160a01b038216612c125760405162461bcd60e51b815260206004820152602260248201527f496e766573746f725631506f6f6c3a20746f2061646472657373206973207a65604482015261726f60f01b606482015260840161067c565b33600090815260026020526040902054612c2c9084613019565b33600090815260026020526040902055600654612c4990846130f2565b6006556000612c5d8464e8d4a510006130da565b9050612c74600154826130e690919063ffffffff16565b9050612c957310701139142cf9812deb4792d2ae2733d47f5708848361302c565b604080513381526001600160a01b03851660208201529081018290527f104ad9ab27213fcc307f2308fc015959def8986f04d9475d82c5f32ab9c8d83b9060600160405180910390a15060019392505050565b60007f00000000000000000000000000000000000000000000000000000000000000006001600160a01b03163314612d625760405162461bcd60e51b815260206004820152601c60248201527f496e766573746f725631506f6f6c3a206e6f74206f70657261746f7200000000604482015260640161067c565b612d6a611e9a565b506000600a5460ff166005811115612d8457612d846135a6565b14612dd15760405162461bcd60e51b815260206004820181905260248201527f496e766573746f725631506f6f6c3a206e6f7420637265617465207374617465604482015260640161067c565b6000612e086001547f00000000000000000000000000000000000000000000000000000000000000006130e690919063ffffffff16565b9050612e3f6001547f000000000000000000000000000000000000000000000000000000000000000061315590919063ffffffff16565b15612e5257612e4f8160016130f2565b90505b612e618164e8d4a510006130da565b600a805460ff191660011790559050612e907310701139142cf9812deb4792d2ae2733d47f57083330846130fe565b604080517310701139142cf9812deb4792d2ae2733d47f570881523360208201529081018290527f5548c837ab068cf56a2c2479df0882a4922fd203edb7517321831d95078c5f629060600160405180910390a1604080513381527f000000000000000000000000000000000000000000000000000000000000000060208201529081018290527ff9d60b8197870d29952728aa5990c3e1a21ca5bd20ba5ba4ca2610cd2530dfa4906060016114e2565b600081612f5057506000919050565b6000612f7e7f00000000000000000000000000000000000000000000000000000000000000006127106134c4565b62ffffff1690506000612f9c846007546130f290919063ffffffff16565b9050612fca7f0000000000000000000000000000000000000000000000000000000000000000612710613452565b612fd99062ffffff16836134a5565b600654909250612fe990836130da565b9150612ff9826305f5e1006130e6565b915061300582856130da565b915061301182826130e6565b949350505050565b600061302582846134e8565b9392505050565b6040516001600160a01b0383166024820152604481018290526130d59084907fa9059cbb00000000000000000000000000000000000000000000000000000000906064015b60408051601f198184030181529190526020810180517bffffffffffffffffffffffffffffffffffffffffffffffffffffffff167fffffffff0000000000000000000000000000000000000000000000000000000090931692909217909152613161565b505050565b600061302582846134a5565b60006130258284613491565b60006130258284613479565b6040516001600160a01b038085166024830152831660448201526064810182905261314f9085907f23b872dd0000000000000000000000000000000000000000000000000000000090608401613071565b50505050565b60006130258284613566565b60006131b6826040518060400160405280602081526020017f5361666545524332303a206c6f772d6c6576656c2063616c6c206661696c6564815250856001600160a01b03166132469092919063ffffffff16565b8051909150156130d557808060200190518101906131d49190613383565b6130d55760405162461bcd60e51b815260206004820152602a60248201527f5361666545524332303a204552433230206f7065726174696f6e20646964206e60448201527f6f74207375636365656400000000000000000000000000000000000000000000606482015260840161067c565b6060613011848460008585843b61329f5760405162461bcd60e51b815260206004820152601d60248201527f416464726573733a2063616c6c20746f206e6f6e2d636f6e7472616374000000604482015260640161067c565b600080866001600160a01b031685876040516132bb9190613403565b60006040518083038185875af1925050503d80600081146132f8576040519150601f19603f3d011682016040523d82523d6000602084013e6132fd565b606091505b509150915061330d828286613318565b979650505050505050565b60608315613327575081613025565b8251156133375782518084602001fd5b8160405162461bcd60e51b815260040161067c919061341f565b80356001600160a01b0381168114611cab57600080fd5b60006020828403121561337a57600080fd5b61302582613351565b60006020828403121561339557600080fd5b8151801515811461302557600080fd5b6000602082840312156133b757600080fd5b5035919050565b6000602082840312156133d057600080fd5b5051919050565b600080604083850312156133ea57600080fd5b823591506133fa60208401613351565b90509250929050565b600082516134158184602087016134ff565b9190910192915050565b602081526000825180602084015261343e8160408501602087016134ff565b601f01601f19169190910160400192915050565b600062ffffff8083168185168083038211156134705761347061357a565b01949350505050565b6000821982111561348c5761348c61357a565b500190565b6000826134a0576134a0613590565b500490565b60008160001904831182151516156134bf576134bf61357a565b500290565b600062ffffff838116908316818110156134e0576134e061357a565b039392505050565b6000828210156134fa576134fa61357a565b500390565b60005b8381101561351a578181015183820152602001613502565b8381111561314f5750506000910152565b600181811c9082168061353f57607f821691505b6020821081141561356057634e487b7160e01b600052602260045260246000fd5b50919050565b60008261357557613575613590565b500690565b634e487b7160e01b600052601160045260246000fd5b634e487b7160e01b600052601260045260246000fd5b634e487b7160e01b600052602160045260246000fdfea2646970667358221220736725d48ce35c473efda034b929cb4f9dbcddec88171aa60a74bdd59c2099e164736f6c63430008070033",
  "linkReferences": {},
  "deployedLinkReferences": {}
}