{
  "contracts/TokenVesting.sol": {
    "TokenVesting": {
      "abi": [
        {
          "inputs": [
            {
              "internalType": "address",
              "name": "hsf_",
              "type": "address"
            },
            {
              "internalType": "address",
              "name": "recipient_",
              "type": "address"
            },
            {
              "internalType": "uint256",
              "name": "vestingAmount_",
              "type": "uint256"
            },
            {
              "internalType": "uint256",
              "name": "vestingBegin_",
              "type": "uint256"
            },
            {
              "internalType": "uint256",
              "name": "vestingCliff_",
              "type": "uint256"
            },
            {
              "internalType": "uint256",
              "name": "vestingEnd_",
              "type": "uint256"
            }
          ],
          "stateMutability": "nonpayable",
          "type": "constructor"
        },
        {
          "anonymous": false,
          "inputs": [
            {
              "indexed": false,
              "internalType": "uint256",
              "name": "amount",
              "type": "uint256"
            }
          ],
          "name": "TokenClaimed",
          "type": "event"
        },
        {
          "inputs": [],
          "name": "claim",
          "outputs": [],
          "stateMutability": "nonpayable",
          "type": "function"
        },
        {
          "inputs": [],
          "name": "hsf",
          "outputs": [
            {
              "internalType": "address",
              "name": "",
              "type": "address"
            }
          ],
          "stateMutability": "view",
          "type": "function"
        },
        {
          "inputs": [],
          "name": "lastUpdate",
          "outputs": [
            {
              "internalType": "uint256",
              "name": "",
              "type": "uint256"
            }
          ],
          "stateMutability": "view",
          "type": "function"
        },
        {
          "inputs": [],
          "name": "recipient",
          "outputs": [
            {
              "internalType": "address",
              "name": "",
              "type": "address"
            }
          ],
          "stateMutability": "view",
          "type": "function"
        },
        {
          "inputs": [
            {
              "internalType": "address",
              "name": "recipient_",
              "type": "address"
            }
          ],
          "name": "setRecipient",
          "outputs": [],
          "stateMutability": "nonpayable",
          "type": "function"
        },
        {
          "inputs": [],
          "name": "vestingAmount",
          "outputs": [
            {
              "internalType": "uint256",
              "name": "",
              "type": "uint256"
            }
          ],
          "stateMutability": "view",
          "type": "function"
        },
        {
          "inputs": [],
          "name": "vestingBegin",
          "outputs": [
            {
              "internalType": "uint256",
              "name": "",
              "type": "uint256"
            }
          ],
          "stateMutability": "view",
          "type": "function"
        },
        {
          "inputs": [],
          "name": "vestingCliff",
          "outputs": [
            {
              "internalType": "uint256",
              "name": "",
              "type": "uint256"
            }
          ],
          "stateMutability": "view",
          "type": "function"
        },
        {
          "inputs": [],
          "name": "vestingEnd",
          "outputs": [
            {
              "internalType": "uint256",
              "name": "",
              "type": "uint256"
            }
          ],
          "stateMutability": "view",
          "type": "function"
        }
      ],
      "devdoc": {
        "kind": "dev",
        "methods": {},
        "version": 1
      },
      "evm": {
        "bytecode": {
          "linkReferences": {},
          "object": "608060405234801561001057600080fd5b5060405161070438038061070483398101604081905261002f916101d0565b4283101561009f5760405162461bcd60e51b815260206004820152603260248201527f546f6b656e56657374696e673a3a636f6e7374727563746f723a2076657374696044820152716e6720626567696e20746f6f206561726c7960701b60648201526084015b60405180910390fd5b828210156101055760405162461bcd60e51b815260206004820152602d60248201527f546f6b656e56657374696e673a3a636f6e7374727563746f723a20636c69666660448201526c20697320746f6f206561726c7960981b6064820152608401610096565b8181116101685760405162461bcd60e51b815260206004820152602b60248201527f546f6b656e56657374696e673a3a636f6e7374727563746f723a20656e64206960448201526a7320746f6f206561726c7960a81b6064820152608401610096565b600080546001600160a01b039788166001600160a01b03199182161790915560018054969097169516949094179094556002919091556003819055600492909255600555600655610228565b80516001600160a01b03811681146101cb57600080fd5b919050565b60008060008060008060c087890312156101e957600080fd5b6101f2876101b4565b9550610200602088016101b4565b945060408701519350606087015192506080870151915060a087015190509295509295509295565b6104cd806102376000396000f3fe608060405234801561001057600080fd5b50600436106100925760003560e01c806366d003ac1161006657806366d003ac146100fb57806384a1931f1461010e578063c046371114610117578063e29bc68b14610120578063f3640e741461012957600080fd5b8062728f76146100975780633bbed4a0146100b357806344288f81146100c85780634e71d92d146100f3575b600080fd5b6100a060025481565b6040519081526020015b60405180910390f35b6100c66100c13660046103c5565b610132565b005b6000546100db906001600160a01b031681565b6040516001600160a01b0390911681526020016100aa565b6100c66101c4565b6001546100db906001600160a01b031681565b6100a060055481565b6100a060065481565b6100a060035481565b6100a060045481565b6001546001600160a01b031633146101a25760405162461bcd60e51b815260206004820152602860248201527f546f6b656e56657374696e673a3a736574526563697069656e743a20756e61756044820152671d1a1bdc9a5e995960c21b60648201526084015b60405180910390fd5b600180546001600160a01b0319166001600160a01b0392909216919091179055565b6004544210156102205760405162461bcd60e51b815260206004820152602160248201527f546f6b656e56657374696e673a3a636c61696d3a206e6f742074696d652079656044820152601d60fa1b6064820152608401610199565b600060055442106102ad576000546040516370a0823160e01b81523060048201526001600160a01b03909116906370a082319060240160206040518083038186803b15801561026e57600080fd5b505afa158015610282573d6000803e3d6000fd5b505050506040513d601f19601f820116820180604052508101906102a69190610410565b90506102e7565b6102e06003546005546102c0919061046a565b6102da600654426102d1919061046a565b600254906103a6565b906103b9565b4260065590505b60005460015460405163a9059cbb60e01b81526001600160a01b0391821660048201526024810184905291169063a9059cbb90604401602060405180830381600087803b15801561033757600080fd5b505af115801561034b573d6000803e3d6000fd5b505050506040513d601f19601f8201168201806040525081019061036f91906103ee565b506040518181527f97212d5af6cf1ddbeedea7e5f9a18970d2dde6bcc4583898856a241144c4877f9060200160405180910390a150565b60006103b2828461044b565b9392505050565b60006103b28284610429565b6000602082840312156103d757600080fd5b81356001600160a01b03811681146103b257600080fd5b60006020828403121561040057600080fd5b815180151581146103b257600080fd5b60006020828403121561042257600080fd5b5051919050565b60008261044657634e487b7160e01b600052601260045260246000fd5b500490565b600081600019048311821515161561046557610465610481565b500290565b60008282101561047c5761047c610481565b500390565b634e487b7160e01b600052601160045260246000fdfea264697066735822122077b6114fb5e42cda0a81e176d7e209d5801e7c9cdca73cdf32298717d57a810f64736f6c63430008070033",
          "opcodes": "PUSH1 0x80 PUSH1 0x40 MSTORE CALLVALUE DUP1 ISZERO PUSH2 0x10 JUMPI PUSH1 0x0 DUP1 REVERT JUMPDEST POP PUSH1 0x40 MLOAD PUSH2 0x704 CODESIZE SUB DUP1 PUSH2 0x704 DUP4 CODECOPY DUP2 ADD PUSH1 0x40 DUP2 SWAP1 MSTORE PUSH2 0x2F SWAP2 PUSH2 0x1D0 JUMP JUMPDEST TIMESTAMP DUP4 LT ISZERO PUSH2 0x9F JUMPI PUSH1 0x40 MLOAD PUSH3 0x461BCD PUSH1 0xE5 SHL DUP2 MSTORE PUSH1 0x20 PUSH1 0x4 DUP3 ADD MSTORE PUSH1 0x32 PUSH1 0x24 DUP3 ADD MSTORE PUSH32 0x546F6B656E56657374696E673A3A636F6E7374727563746F723A207665737469 PUSH1 0x44 DUP3 ADD MSTORE PUSH18 0x6E6720626567696E20746F6F206561726C79 PUSH1 0x70 SHL PUSH1 0x64 DUP3 ADD MSTORE PUSH1 0x84 ADD JUMPDEST PUSH1 0x40 MLOAD DUP1 SWAP2 SUB SWAP1 REVERT JUMPDEST DUP3 DUP3 LT ISZERO PUSH2 0x105 JUMPI PUSH1 0x40 MLOAD PUSH3 0x461BCD PUSH1 0xE5 SHL DUP2 MSTORE PUSH1 0x20 PUSH1 0x4 DUP3 ADD MSTORE PUSH1 0x2D PUSH1 0x24 DUP3 ADD MSTORE PUSH32 0x546F6B656E56657374696E673A3A636F6E7374727563746F723A20636C696666 PUSH1 0x44 DUP3 ADD MSTORE PUSH13 0x20697320746F6F206561726C79 PUSH1 0x98 SHL PUSH1 0x64 DUP3 ADD MSTORE PUSH1 0x84 ADD PUSH2 0x96 JUMP JUMPDEST DUP2 DUP2 GT PUSH2 0x168 JUMPI PUSH1 0x40 MLOAD PUSH3 0x461BCD PUSH1 0xE5 SHL DUP2 MSTORE PUSH1 0x20 PUSH1 0x4 DUP3 ADD MSTORE PUSH1 0x2B PUSH1 0x24 DUP3 ADD MSTORE PUSH32 0x546F6B656E56657374696E673A3A636F6E7374727563746F723A20656E642069 PUSH1 0x44 DUP3 ADD MSTORE PUSH11 0x7320746F6F206561726C79 PUSH1 0xA8 SHL PUSH1 0x64 DUP3 ADD MSTORE PUSH1 0x84 ADD PUSH2 0x96 JUMP JUMPDEST PUSH1 0x0 DUP1 SLOAD PUSH1 0x1 PUSH1 0x1 PUSH1 0xA0 SHL SUB SWAP8 DUP9 AND PUSH1 0x1 PUSH1 0x1 PUSH1 0xA0 SHL SUB NOT SWAP2 DUP3 AND OR SWAP1 SWAP2 SSTORE PUSH1 0x1 DUP1 SLOAD SWAP7 SWAP1 SWAP8 AND SWAP6 AND SWAP5 SWAP1 SWAP5 OR SWAP1 SWAP5 SSTORE PUSH1 0x2 SWAP2 SWAP1 SWAP2 SSTORE PUSH1 0x3 DUP2 SWAP1 SSTORE PUSH1 0x4 SWAP3 SWAP1 SWAP3 SSTORE PUSH1 0x5 SSTORE PUSH1 0x6 SSTORE PUSH2 0x228 JUMP JUMPDEST DUP1 MLOAD PUSH1 0x1 PUSH1 0x1 PUSH1 0xA0 SHL SUB DUP2 AND DUP2 EQ PUSH2 0x1CB JUMPI PUSH1 0x0 DUP1 REVERT JUMPDEST SWAP2 SWAP1 POP JUMP JUMPDEST PUSH1 0x0 DUP1 PUSH1 0x0 DUP1 PUSH1 0x0 DUP1 PUSH1 0xC0 DUP8 DUP10 SUB SLT ISZERO PUSH2 0x1E9 JUMPI PUSH1 0x0 DUP1 REVERT JUMPDEST PUSH2 0x1F2 DUP8 PUSH2 0x1B4 JUMP JUMPDEST SWAP6 POP PUSH2 0x200 PUSH1 0x20 DUP9 ADD PUSH2 0x1B4 JUMP JUMPDEST SWAP5 POP PUSH1 0x40 DUP8 ADD MLOAD SWAP4 POP PUSH1 0x60 DUP8 ADD MLOAD SWAP3 POP PUSH1 0x80 DUP8 ADD MLOAD SWAP2 POP PUSH1 0xA0 DUP8 ADD MLOAD SWAP1 POP SWAP3 SWAP6 POP SWAP3 SWAP6 POP SWAP3 SWAP6 JUMP JUMPDEST PUSH2 0x4CD DUP1 PUSH2 0x237 PUSH1 0x0 CODECOPY PUSH1 0x0 RETURN INVALID PUSH1 0x80 PUSH1 0x40 MSTORE CALLVALUE DUP1 ISZERO PUSH2 0x10 JUMPI PUSH1 0x0 DUP1 REVERT JUMPDEST POP PUSH1 0x4 CALLDATASIZE LT PUSH2 0x92 JUMPI PUSH1 0x0 CALLDATALOAD PUSH1 0xE0 SHR DUP1 PUSH4 0x66D003AC GT PUSH2 0x66 JUMPI DUP1 PUSH4 0x66D003AC EQ PUSH2 0xFB JUMPI DUP1 PUSH4 0x84A1931F EQ PUSH2 0x10E JUMPI DUP1 PUSH4 0xC0463711 EQ PUSH2 0x117 JUMPI DUP1 PUSH4 0xE29BC68B EQ PUSH2 0x120 JUMPI DUP1 PUSH4 0xF3640E74 EQ PUSH2 0x129 JUMPI PUSH1 0x0 DUP1 REVERT JUMPDEST DUP1 PUSH3 0x728F76 EQ PUSH2 0x97 JUMPI DUP1 PUSH4 0x3BBED4A0 EQ PUSH2 0xB3 JUMPI DUP1 PUSH4 0x44288F81 EQ PUSH2 0xC8 JUMPI DUP1 PUSH4 0x4E71D92D EQ PUSH2 0xF3 JUMPI JUMPDEST PUSH1 0x0 DUP1 REVERT JUMPDEST PUSH2 0xA0 PUSH1 0x2 SLOAD DUP2 JUMP JUMPDEST PUSH1 0x40 MLOAD SWAP1 DUP2 MSTORE PUSH1 0x20 ADD JUMPDEST PUSH1 0x40 MLOAD DUP1 SWAP2 SUB SWAP1 RETURN JUMPDEST PUSH2 0xC6 PUSH2 0xC1 CALLDATASIZE PUSH1 0x4 PUSH2 0x3C5 JUMP JUMPDEST PUSH2 0x132 JUMP JUMPDEST STOP JUMPDEST PUSH1 0x0 SLOAD PUSH2 0xDB SWAP1 PUSH1 0x1 PUSH1 0x1 PUSH1 0xA0 SHL SUB AND DUP2 JUMP JUMPDEST PUSH1 0x40 MLOAD PUSH1 0x1 PUSH1 0x1 PUSH1 0xA0 SHL SUB SWAP1 SWAP2 AND DUP2 MSTORE PUSH1 0x20 ADD PUSH2 0xAA JUMP JUMPDEST PUSH2 0xC6 PUSH2 0x1C4 JUMP JUMPDEST PUSH1 0x1 SLOAD PUSH2 0xDB SWAP1 PUSH1 0x1 PUSH1 0x1 PUSH1 0xA0 SHL SUB AND DUP2 JUMP JUMPDEST PUSH2 0xA0 PUSH1 0x5 SLOAD DUP2 JUMP JUMPDEST PUSH2 0xA0 PUSH1 0x6 SLOAD DUP2 JUMP JUMPDEST PUSH2 0xA0 PUSH1 0x3 SLOAD DUP2 JUMP JUMPDEST PUSH2 0xA0 PUSH1 0x4 SLOAD DUP2 JUMP JUMPDEST PUSH1 0x1 SLOAD PUSH1 0x1 PUSH1 0x1 PUSH1 0xA0 SHL SUB AND CALLER EQ PUSH2 0x1A2 JUMPI PUSH1 0x40 MLOAD PUSH3 0x461BCD PUSH1 0xE5 SHL DUP2 MSTORE PUSH1 0x20 PUSH1 0x4 DUP3 ADD MSTORE PUSH1 0x28 PUSH1 0x24 DUP3 ADD MSTORE PUSH32 0x546F6B656E56657374696E673A3A736574526563697069656E743A20756E6175 PUSH1 0x44 DUP3 ADD MSTORE PUSH8 0x1D1A1BDC9A5E9959 PUSH1 0xC2 SHL PUSH1 0x64 DUP3 ADD MSTORE PUSH1 0x84 ADD JUMPDEST PUSH1 0x40 MLOAD DUP1 SWAP2 SUB SWAP1 REVERT JUMPDEST PUSH1 0x1 DUP1 SLOAD PUSH1 0x1 PUSH1 0x1 PUSH1 0xA0 SHL SUB NOT AND PUSH1 0x1 PUSH1 0x1 PUSH1 0xA0 SHL SUB SWAP3 SWAP1 SWAP3 AND SWAP2 SWAP1 SWAP2 OR SWAP1 SSTORE JUMP JUMPDEST PUSH1 0x4 SLOAD TIMESTAMP LT ISZERO PUSH2 0x220 JUMPI PUSH1 0x40 MLOAD PUSH3 0x461BCD PUSH1 0xE5 SHL DUP2 MSTORE PUSH1 0x20 PUSH1 0x4 DUP3 ADD MSTORE PUSH1 0x21 PUSH1 0x24 DUP3 ADD MSTORE PUSH32 0x546F6B656E56657374696E673A3A636C61696D3A206E6F742074696D65207965 PUSH1 0x44 DUP3 ADD MSTORE PUSH1 0x1D PUSH1 0xFA SHL PUSH1 0x64 DUP3 ADD MSTORE PUSH1 0x84 ADD PUSH2 0x199 JUMP JUMPDEST PUSH1 0x0 PUSH1 0x5 SLOAD TIMESTAMP LT PUSH2 0x2AD JUMPI PUSH1 0x0 SLOAD PUSH1 0x40 MLOAD PUSH4 0x70A08231 PUSH1 0xE0 SHL DUP2 MSTORE ADDRESS PUSH1 0x4 DUP3 ADD MSTORE PUSH1 0x1 PUSH1 0x1 PUSH1 0xA0 SHL SUB SWAP1 SWAP2 AND SWAP1 PUSH4 0x70A08231 SWAP1 PUSH1 0x24 ADD PUSH1 0x20 PUSH1 0x40 MLOAD DUP1 DUP4 SUB DUP2 DUP7 DUP1 EXTCODESIZE ISZERO DUP1 ISZERO PUSH2 0x26E JUMPI PUSH1 0x0 DUP1 REVERT JUMPDEST POP GAS STATICCALL ISZERO DUP1 ISZERO PUSH2 0x282 JUMPI RETURNDATASIZE PUSH1 0x0 DUP1 RETURNDATACOPY RETURNDATASIZE PUSH1 0x0 REVERT JUMPDEST POP POP POP POP PUSH1 0x40 MLOAD RETURNDATASIZE PUSH1 0x1F NOT PUSH1 0x1F DUP3 ADD AND DUP3 ADD DUP1 PUSH1 0x40 MSTORE POP DUP2 ADD SWAP1 PUSH2 0x2A6 SWAP2 SWAP1 PUSH2 0x410 JUMP JUMPDEST SWAP1 POP PUSH2 0x2E7 JUMP JUMPDEST PUSH2 0x2E0 PUSH1 0x3 SLOAD PUSH1 0x5 SLOAD PUSH2 0x2C0 SWAP2 SWAP1 PUSH2 0x46A JUMP JUMPDEST PUSH2 0x2DA PUSH1 0x6 SLOAD TIMESTAMP PUSH2 0x2D1 SWAP2 SWAP1 PUSH2 0x46A JUMP JUMPDEST PUSH1 0x2 SLOAD SWAP1 PUSH2 0x3A6 JUMP JUMPDEST SWAP1 PUSH2 0x3B9 JUMP JUMPDEST TIMESTAMP PUSH1 0x6 SSTORE SWAP1 POP JUMPDEST PUSH1 0x0 SLOAD PUSH1 0x1 SLOAD PUSH1 0x40 MLOAD PUSH4 0xA9059CBB PUSH1 0xE0 SHL DUP2 MSTORE PUSH1 0x1 PUSH1 0x1 PUSH1 0xA0 SHL SUB SWAP2 DUP3 AND PUSH1 0x4 DUP3 ADD MSTORE PUSH1 0x24 DUP2 ADD DUP5 SWAP1 MSTORE SWAP2 AND SWAP1 PUSH4 0xA9059CBB SWAP1 PUSH1 0x44 ADD PUSH1 0x20 PUSH1 0x40 MLOAD DUP1 DUP4 SUB DUP2 PUSH1 0x0 DUP8 DUP1 EXTCODESIZE ISZERO DUP1 ISZERO PUSH2 0x337 JUMPI PUSH1 0x0 DUP1 REVERT JUMPDEST POP GAS CALL ISZERO DUP1 ISZERO PUSH2 0x34B JUMPI RETURNDATASIZE PUSH1 0x0 DUP1 RETURNDATACOPY RETURNDATASIZE PUSH1 0x0 REVERT JUMPDEST POP POP POP POP PUSH1 0x40 MLOAD RETURNDATASIZE PUSH1 0x1F NOT PUSH1 0x1F DUP3 ADD AND DUP3 ADD DUP1 PUSH1 0x40 MSTORE POP DUP2 ADD SWAP1 PUSH2 0x36F SWAP2 SWAP1 PUSH2 0x3EE JUMP JUMPDEST POP PUSH1 0x40 MLOAD DUP2 DUP2 MSTORE PUSH32 0x97212D5AF6CF1DDBEEDEA7E5F9A18970D2DDE6BCC4583898856A241144C4877F SWAP1 PUSH1 0x20 ADD PUSH1 0x40 MLOAD DUP1 SWAP2 SUB SWAP1 LOG1 POP JUMP JUMPDEST PUSH1 0x0 PUSH2 0x3B2 DUP3 DUP5 PUSH2 0x44B JUMP JUMPDEST SWAP4 SWAP3 POP POP POP JUMP JUMPDEST PUSH1 0x0 PUSH2 0x3B2 DUP3 DUP5 PUSH2 0x429 JUMP JUMPDEST PUSH1 0x0 PUSH1 0x20 DUP3 DUP5 SUB SLT ISZERO PUSH2 0x3D7 JUMPI PUSH1 0x0 DUP1 REVERT JUMPDEST DUP2 CALLDATALOAD PUSH1 0x1 PUSH1 0x1 PUSH1 0xA0 SHL SUB DUP2 AND DUP2 EQ PUSH2 0x3B2 JUMPI PUSH1 0x0 DUP1 REVERT JUMPDEST PUSH1 0x0 PUSH1 0x20 DUP3 DUP5 SUB SLT ISZERO PUSH2 0x400 JUMPI PUSH1 0x0 DUP1 REVERT JUMPDEST DUP2 MLOAD DUP1 ISZERO ISZERO DUP2 EQ PUSH2 0x3B2 JUMPI PUSH1 0x0 DUP1 REVERT JUMPDEST PUSH1 0x0 PUSH1 0x20 DUP3 DUP5 SUB SLT ISZERO PUSH2 0x422 JUMPI PUSH1 0x0 DUP1 REVERT JUMPDEST POP MLOAD SWAP2 SWAP1 POP JUMP JUMPDEST PUSH1 0x0 DUP3 PUSH2 0x446 JUMPI PUSH4 0x4E487B71 PUSH1 0xE0 SHL PUSH1 0x0 MSTORE PUSH1 0x12 PUSH1 0x4 MSTORE PUSH1 0x24 PUSH1 0x0 REVERT JUMPDEST POP DIV SWAP1 JUMP JUMPDEST PUSH1 0x0 DUP2 PUSH1 0x0 NOT DIV DUP4 GT DUP3 ISZERO ISZERO AND ISZERO PUSH2 0x465 JUMPI PUSH2 0x465 PUSH2 0x481 JUMP JUMPDEST POP MUL SWAP1 JUMP JUMPDEST PUSH1 0x0 DUP3 DUP3 LT ISZERO PUSH2 0x47C JUMPI PUSH2 0x47C PUSH2 0x481 JUMP JUMPDEST POP SUB SWAP1 JUMP JUMPDEST PUSH4 0x4E487B71 PUSH1 0xE0 SHL PUSH1 0x0 MSTORE PUSH1 0x11 PUSH1 0x4 MSTORE PUSH1 0x24 PUSH1 0x0 REVERT INVALID LOG2 PUSH5 0x6970667358 0x22 SLT KECCAK256 PUSH24 0xB6114FB5E42CDA0A81E176D7E209D5801E7C9CDCA73CDF32 0x29 DUP8 OR 0xD5 PUSH27 0x810F64736F6C634300080700330000000000000000000000000000 "
        },
        "gasEstimates": {
          "creation": {
            "codeDepositCost": "245800",
            "executionCost": "infinite",
            "totalCost": "infinite"
          },
          "external": {
            "claim()": "infinite",
            "hsf()": "2382",
            "lastUpdate()": "2328",
            "recipient()": "2337",
            "setRecipient(address)": "26699",
            "vestingAmount()": "2285",
            "vestingBegin()": "2350",
            "vestingCliff()": "2372",
            "vestingEnd()": "2306"
          }
        },
        "methodIdentifiers": {
          "claim()": "4e71d92d",
          "hsf()": "44288f81",
          "lastUpdate()": "c0463711",
          "recipient()": "66d003ac",
          "setRecipient(address)": "3bbed4a0",
          "vestingAmount()": "00728f76",
          "vestingBegin()": "e29bc68b",
          "vestingCliff()": "f3640e74",
          "vestingEnd()": "84a1931f"
        }
      },
      "storageLayout": {
        "storage": [
          {
            "astId": 1213,
            "contract": "contracts/TokenVesting.sol:TokenVesting",
            "label": "hsf",
            "offset": 0,
            "slot": "0",
            "type": "t_address"
          },
          {
            "astId": 1215,
            "contract": "contracts/TokenVesting.sol:TokenVesting",
            "label": "recipient",
            "offset": 0,
            "slot": "1",
            "type": "t_address"
          },
          {
            "astId": 1217,
            "contract": "contracts/TokenVesting.sol:TokenVesting",
            "label": "vestingAmount",
            "offset": 0,
            "slot": "2",
            "type": "t_uint256"
          },
          {
            "astId": 1219,
            "contract": "contracts/TokenVesting.sol:TokenVesting",
            "label": "vestingBegin",
            "offset": 0,
            "slot": "3",
            "type": "t_uint256"
          },
          {
            "astId": 1221,
            "contract": "contracts/TokenVesting.sol:TokenVesting",
            "label": "vestingCliff",
            "offset": 0,
            "slot": "4",
            "type": "t_uint256"
          },
          {
            "astId": 1223,
            "contract": "contracts/TokenVesting.sol:TokenVesting",
            "label": "vestingEnd",
            "offset": 0,
            "slot": "5",
            "type": "t_uint256"
          },
          {
            "astId": 1225,
            "contract": "contracts/TokenVesting.sol:TokenVesting",
            "label": "lastUpdate",
            "offset": 0,
            "slot": "6",
            "type": "t_uint256"
          }
        ],
        "types": {
          "t_address": {
            "encoding": "inplace",
            "label": "address",
            "numberOfBytes": "20"
          },
          "t_uint256": {
            "encoding": "inplace",
            "label": "uint256",
            "numberOfBytes": "32"
          }
        }
      },
      "userdoc": {
        "kind": "user",
        "methods": {},
        "version": 1
      }
    }
  }
}