{
  "contracts/test/TetherToken.sol": {
    "TetherToken": {
      "abi": [
        {
          "constant": true,
          "inputs": [],
          "name": "name",
          "outputs": [
            {
              "name": "",
              "type": "string"
            }
          ],
          "payable": false,
          "stateMutability": "view",
          "type": "function"
        },
        {
          "constant": false,
          "inputs": [
            {
              "name": "_upgradedAddress",
              "type": "address"
            }
          ],
          "name": "deprecate",
          "outputs": [],
          "payable": false,
          "stateMutability": "nonpayable",
          "type": "function"
        },
        {
          "constant": false,
          "inputs": [
            {
              "name": "_spender",
              "type": "address"
            },
            {
              "name": "_value",
              "type": "uint256"
            }
          ],
          "name": "approve",
          "outputs": [],
          "payable": false,
          "stateMutability": "nonpayable",
          "type": "function"
        },
        {
          "constant": true,
          "inputs": [],
          "name": "deprecated",
          "outputs": [
            {
              "name": "",
              "type": "bool"
            }
          ],
          "payable": false,
          "stateMutability": "view",
          "type": "function"
        },
        {
          "constant": false,
          "inputs": [
            {
              "name": "_evilUser",
              "type": "address"
            }
          ],
          "name": "addBlackList",
          "outputs": [],
          "payable": false,
          "stateMutability": "nonpayable",
          "type": "function"
        },
        {
          "constant": true,
          "inputs": [],
          "name": "totalSupply",
          "outputs": [
            {
              "name": "",
              "type": "uint256"
            }
          ],
          "payable": false,
          "stateMutability": "view",
          "type": "function"
        },
        {
          "constant": false,
          "inputs": [
            {
              "name": "_from",
              "type": "address"
            },
            {
              "name": "_to",
              "type": "address"
            },
            {
              "name": "_value",
              "type": "uint256"
            }
          ],
          "name": "transferFrom",
          "outputs": [],
          "payable": false,
          "stateMutability": "nonpayable",
          "type": "function"
        },
        {
          "constant": true,
          "inputs": [],
          "name": "upgradedAddress",
          "outputs": [
            {
              "name": "",
              "type": "address"
            }
          ],
          "payable": false,
          "stateMutability": "view",
          "type": "function"
        },
        {
          "constant": true,
          "inputs": [
            {
              "name": "",
              "type": "address"
            }
          ],
          "name": "balances",
          "outputs": [
            {
              "name": "",
              "type": "uint256"
            }
          ],
          "payable": false,
          "stateMutability": "view",
          "type": "function"
        },
        {
          "constant": true,
          "inputs": [],
          "name": "decimals",
          "outputs": [
            {
              "name": "",
              "type": "uint256"
            }
          ],
          "payable": false,
          "stateMutability": "view",
          "type": "function"
        },
        {
          "constant": true,
          "inputs": [],
          "name": "maximumFee",
          "outputs": [
            {
              "name": "",
              "type": "uint256"
            }
          ],
          "payable": false,
          "stateMutability": "view",
          "type": "function"
        },
        {
          "constant": true,
          "inputs": [],
          "name": "_totalSupply",
          "outputs": [
            {
              "name": "",
              "type": "uint256"
            }
          ],
          "payable": false,
          "stateMutability": "view",
          "type": "function"
        },
        {
          "constant": false,
          "inputs": [],
          "name": "unpause",
          "outputs": [],
          "payable": false,
          "stateMutability": "nonpayable",
          "type": "function"
        },
        {
          "constant": true,
          "inputs": [
            {
              "name": "_maker",
              "type": "address"
            }
          ],
          "name": "getBlackListStatus",
          "outputs": [
            {
              "name": "",
              "type": "bool"
            }
          ],
          "payable": false,
          "stateMutability": "view",
          "type": "function"
        },
        {
          "constant": true,
          "inputs": [
            {
              "name": "",
              "type": "address"
            },
            {
              "name": "",
              "type": "address"
            }
          ],
          "name": "allowed",
          "outputs": [
            {
              "name": "",
              "type": "uint256"
            }
          ],
          "payable": false,
          "stateMutability": "view",
          "type": "function"
        },
        {
          "constant": true,
          "inputs": [],
          "name": "paused",
          "outputs": [
            {
              "name": "",
              "type": "bool"
            }
          ],
          "payable": false,
          "stateMutability": "view",
          "type": "function"
        },
        {
          "constant": true,
          "inputs": [
            {
              "name": "who",
              "type": "address"
            }
          ],
          "name": "balanceOf",
          "outputs": [
            {
              "name": "",
              "type": "uint256"
            }
          ],
          "payable": false,
          "stateMutability": "view",
          "type": "function"
        },
        {
          "constant": false,
          "inputs": [],
          "name": "pause",
          "outputs": [],
          "payable": false,
          "stateMutability": "nonpayable",
          "type": "function"
        },
        {
          "constant": true,
          "inputs": [],
          "name": "getOwner",
          "outputs": [
            {
              "name": "",
              "type": "address"
            }
          ],
          "payable": false,
          "stateMutability": "view",
          "type": "function"
        },
        {
          "constant": true,
          "inputs": [],
          "name": "owner",
          "outputs": [
            {
              "name": "",
              "type": "address"
            }
          ],
          "payable": false,
          "stateMutability": "view",
          "type": "function"
        },
        {
          "constant": true,
          "inputs": [],
          "name": "symbol",
          "outputs": [
            {
              "name": "",
              "type": "string"
            }
          ],
          "payable": false,
          "stateMutability": "view",
          "type": "function"
        },
        {
          "constant": false,
          "inputs": [
            {
              "name": "_to",
              "type": "address"
            },
            {
              "name": "_value",
              "type": "uint256"
            }
          ],
          "name": "transfer",
          "outputs": [],
          "payable": false,
          "stateMutability": "nonpayable",
          "type": "function"
        },
        {
          "constant": false,
          "inputs": [
            {
              "name": "newBasisPoints",
              "type": "uint256"
            },
            {
              "name": "newMaxFee",
              "type": "uint256"
            }
          ],
          "name": "setParams",
          "outputs": [],
          "payable": false,
          "stateMutability": "nonpayable",
          "type": "function"
        },
        {
          "constant": false,
          "inputs": [
            {
              "name": "amount",
              "type": "uint256"
            }
          ],
          "name": "issue",
          "outputs": [],
          "payable": false,
          "stateMutability": "nonpayable",
          "type": "function"
        },
        {
          "constant": false,
          "inputs": [
            {
              "name": "amount",
              "type": "uint256"
            }
          ],
          "name": "redeem",
          "outputs": [],
          "payable": false,
          "stateMutability": "nonpayable",
          "type": "function"
        },
        {
          "constant": true,
          "inputs": [
            {
              "name": "_owner",
              "type": "address"
            },
            {
              "name": "_spender",
              "type": "address"
            }
          ],
          "name": "allowance",
          "outputs": [
            {
              "name": "remaining",
              "type": "uint256"
            }
          ],
          "payable": false,
          "stateMutability": "view",
          "type": "function"
        },
        {
          "constant": true,
          "inputs": [],
          "name": "basisPointsRate",
          "outputs": [
            {
              "name": "",
              "type": "uint256"
            }
          ],
          "payable": false,
          "stateMutability": "view",
          "type": "function"
        },
        {
          "constant": true,
          "inputs": [
            {
              "name": "",
              "type": "address"
            }
          ],
          "name": "isBlackListed",
          "outputs": [
            {
              "name": "",
              "type": "bool"
            }
          ],
          "payable": false,
          "stateMutability": "view",
          "type": "function"
        },
        {
          "constant": false,
          "inputs": [
            {
              "name": "_clearedUser",
              "type": "address"
            }
          ],
          "name": "removeBlackList",
          "outputs": [],
          "payable": false,
          "stateMutability": "nonpayable",
          "type": "function"
        },
        {
          "constant": true,
          "inputs": [],
          "name": "MAX_UINT",
          "outputs": [
            {
              "name": "",
              "type": "uint256"
            }
          ],
          "payable": false,
          "stateMutability": "view",
          "type": "function"
        },
        {
          "constant": false,
          "inputs": [
            {
              "name": "newOwner",
              "type": "address"
            }
          ],
          "name": "transferOwnership",
          "outputs": [],
          "payable": false,
          "stateMutability": "nonpayable",
          "type": "function"
        },
        {
          "constant": false,
          "inputs": [
            {
              "name": "_blackListedUser",
              "type": "address"
            }
          ],
          "name": "destroyBlackFunds",
          "outputs": [],
          "payable": false,
          "stateMutability": "nonpayable",
          "type": "function"
        },
        {
          "inputs": [
            {
              "name": "_initialSupply",
              "type": "uint256"
            },
            {
              "name": "_name",
              "type": "string"
            },
            {
              "name": "_symbol",
              "type": "string"
            },
            {
              "name": "_decimals",
              "type": "uint256"
            }
          ],
          "payable": false,
          "stateMutability": "nonpayable",
          "type": "constructor"
        },
        {
          "anonymous": false,
          "inputs": [
            {
              "indexed": false,
              "name": "amount",
              "type": "uint256"
            }
          ],
          "name": "Issue",
          "type": "event"
        },
        {
          "anonymous": false,
          "inputs": [
            {
              "indexed": false,
              "name": "amount",
              "type": "uint256"
            }
          ],
          "name": "Redeem",
          "type": "event"
        },
        {
          "anonymous": false,
          "inputs": [
            {
              "indexed": false,
              "name": "newAddress",
              "type": "address"
            }
          ],
          "name": "Deprecate",
          "type": "event"
        },
        {
          "anonymous": false,
          "inputs": [
            {
              "indexed": false,
              "name": "feeBasisPoints",
              "type": "uint256"
            },
            {
              "indexed": false,
              "name": "maxFee",
              "type": "uint256"
            }
          ],
          "name": "Params",
          "type": "event"
        },
        {
          "anonymous": false,
          "inputs": [
            {
              "indexed": false,
              "name": "_blackListedUser",
              "type": "address"
            },
            {
              "indexed": false,
              "name": "_balance",
              "type": "uint256"
            }
          ],
          "name": "DestroyedBlackFunds",
          "type": "event"
        },
        {
          "anonymous": false,
          "inputs": [
            {
              "indexed": false,
              "name": "_user",
              "type": "address"
            }
          ],
          "name": "AddedBlackList",
          "type": "event"
        },
        {
          "anonymous": false,
          "inputs": [
            {
              "indexed": false,
              "name": "_user",
              "type": "address"
            }
          ],
          "name": "RemovedBlackList",
          "type": "event"
        },
        {
          "anonymous": false,
          "inputs": [
            {
              "indexed": true,
              "name": "owner",
              "type": "address"
            },
            {
              "indexed": true,
              "name": "spender",
              "type": "address"
            },
            {
              "indexed": false,
              "name": "value",
              "type": "uint256"
            }
          ],
          "name": "Approval",
          "type": "event"
        },
        {
          "anonymous": false,
          "inputs": [
            {
              "indexed": true,
              "name": "from",
              "type": "address"
            },
            {
              "indexed": true,
              "name": "to",
              "type": "address"
            },
            {
              "indexed": false,
              "name": "value",
              "type": "uint256"
            }
          ],
          "name": "Transfer",
          "type": "event"
        },
        {
          "anonymous": false,
          "inputs": [],
          "name": "Pause",
          "type": "event"
        },
        {
          "anonymous": false,
          "inputs": [],
          "name": "Unpause",
          "type": "event"
        }
      ],
      "devdoc": {
        "methods": {
          "pause()": {
            "details": "called by the owner to pause, triggers stopped state"
          },
          "transferOwnership(address)": {
            "details": "Allows the current owner to transfer control of the contract to a newOwner.",
            "params": {
              "newOwner": "The address to transfer ownership to."
            }
          },
          "unpause()": {
            "details": "called by the owner to unpause, returns to normal state"
          }
        }
      },
      "evm": {
        "assembly": "    /* \"contracts/test/TetherToken.sol\":9693:14474  contract TetherToken is Pausable, StandardToken, BlackList {... */\n  mstore(0x40, 0x60)\n    /* \"contracts/test/TetherToken.sol\":7370:7375  false */\n  0x0\n    /* \"contracts/test/TetherToken.sol\":7349:7375  bool public paused = false */\n  dup1\n  exp(0x100, 0x14)\n  dup2\n  sload\n  dup2\n  0xff\n  mul\n  not\n  and\n  swap1\n  dup4\n  iszero\n  iszero\n  mul\n  or\n  swap1\n  sstore\n  pop\n    /* \"contracts/test/TetherToken.sol\":3036:3037  0 */\n  0x0\n    /* \"contracts/test/TetherToken.sol\":3006:3037  uint public basisPointsRate = 0 */\n  0x3\n  sstore\n    /* \"contracts/test/TetherToken.sol\":3068:3069  0 */\n  0x0\n    /* \"contracts/test/TetherToken.sol\":3043:3069  uint public maximumFee = 0 */\n  0x4\n  sstore\n    /* \"contracts/test/TetherToken.sol\":10188:10477  function TetherToken(uint _initialSupply, string _name, string _symbol, uint _decimals) public {... */\n  jumpi(tag_1, iszero(callvalue))\n  0x0\n  dup1\n  revert\ntag_1:\n  mload(0x40)\n  sub(codesize, bytecodeSize)\n  dup1\n  bytecodeSize\n  dup4\n  codecopy\n  dup2\n  add\n  0x40\n  mstore\n  dup1\n  dup1\n  mload\n  swap1\n  0x20\n  add\n  swap1\n  swap2\n  swap1\n  dup1\n  mload\n  dup3\n  add\n  swap2\n  swap1\n  0x20\n  add\n  dup1\n  mload\n  dup3\n  add\n  swap2\n  swap1\n  0x20\n  add\n  dup1\n  mload\n  swap1\n  0x20\n  add\n  swap1\n  swap2\n  swap1\n  pop\n  pop\n    /* \"contracts/test/TetherToken.sol\":1351:1361  msg.sender */\n  caller\n    /* \"contracts/test/TetherToken.sol\":1343:1348  owner */\n  0x0\n  dup1\n    /* \"contracts/test/TetherToken.sol\":1343:1361  owner = msg.sender */\n  0x100\n  exp\n  dup2\n  sload\n  dup2\n  0xffffffffffffffffffffffffffffffffffffffff\n  mul\n  not\n  and\n  swap1\n  dup4\n  0xffffffffffffffffffffffffffffffffffffffff\n  and\n  mul\n  or\n  swap1\n  sstore\n  pop\n    /* \"contracts/test/TetherToken.sol\":10308:10322  _initialSupply */\n  dup4\n    /* \"contracts/test/TetherToken.sol\":10293:10305  _totalSupply */\n  0x1\n    /* \"contracts/test/TetherToken.sol\":10293:10322  _totalSupply = _initialSupply */\n  dup2\n  swap1\n  sstore\n  pop\n    /* \"contracts/test/TetherToken.sol\":10339:10344  _name */\n  dup3\n    /* \"contracts/test/TetherToken.sol\":10332:10336  name */\n  0x7\n    /* \"contracts/test/TetherToken.sol\":10332:10344  name = _name */\n  swap1\n  dup1\n  mload\n  swap1\n  0x20\n  add\n  swap1\n  tag_6\n  swap3\n  swap2\n  swap1\n  jump\t// in(tag_7)\ntag_6:\n  pop\n    /* \"contracts/test/TetherToken.sol\":10363:10370  _symbol */\n  dup2\n    /* \"contracts/test/TetherToken.sol\":10354:10360  symbol */\n  0x8\n    /* \"contracts/test/TetherToken.sol\":10354:10370  symbol = _symbol */\n  swap1\n  dup1\n  mload\n  swap1\n  0x20\n  add\n  swap1\n  tag_8\n  swap3\n  swap2\n  swap1\n  jump\t// in(tag_7)\ntag_8:\n  pop\n    /* \"contracts/test/TetherToken.sol\":10391:10400  _decimals */\n  dup1\n    /* \"contracts/test/TetherToken.sol\":10380:10388  decimals */\n  0x9\n    /* \"contracts/test/TetherToken.sol\":10380:10400  decimals = _decimals */\n  dup2\n  swap1\n  sstore\n  pop\n    /* \"contracts/test/TetherToken.sol\":10428:10442  _initialSupply */\n  dup4\n    /* \"contracts/test/TetherToken.sol\":10410:10418  balances */\n  0x2\n    /* \"contracts/test/TetherToken.sol\":10410:10425  balances[owner] */\n  0x0\n    /* \"contracts/test/TetherToken.sol\":10419:10424  owner */\n  dup1\n  0x0\n  swap1\n  sload\n  swap1\n  0x100\n  exp\n  swap1\n  div\n  0xffffffffffffffffffffffffffffffffffffffff\n  and\n    /* \"contracts/test/TetherToken.sol\":10410:10425  balances[owner] */\n  0xffffffffffffffffffffffffffffffffffffffff\n  and\n  0xffffffffffffffffffffffffffffffffffffffff\n  and\n  dup2\n  mstore\n  0x20\n  add\n  swap1\n  dup2\n  mstore\n  0x20\n  add\n  0x0\n  keccak256\n    /* \"contracts/test/TetherToken.sol\":10410:10442  balances[owner] = _initialSupply */\n  dup2\n  swap1\n  sstore\n  pop\n    /* \"contracts/test/TetherToken.sol\":10465:10470  false */\n  0x0\n    /* \"contracts/test/TetherToken.sol\":10452:10462  deprecated */\n  0xa\n  0x14\n    /* \"contracts/test/TetherToken.sol\":10452:10470  deprecated = false */\n  0x100\n  exp\n  dup2\n  sload\n  dup2\n  0xff\n  mul\n  not\n  and\n  swap1\n  dup4\n  iszero\n  iszero\n  mul\n  or\n  swap1\n  sstore\n  pop\n    /* \"contracts/test/TetherToken.sol\":10188:10477  function TetherToken(uint _initialSupply, string _name, string _symbol, uint _decimals) public {... */\n  pop\n  pop\n  pop\n  pop\n    /* \"contracts/test/TetherToken.sol\":9693:14474  contract TetherToken is Pausable, StandardToken, BlackList {... */\n  jump(tag_9)\ntag_7:\n  dup3\n  dup1\n  sload\n  0x1\n  dup2\n  0x1\n  and\n  iszero\n  0x100\n  mul\n  sub\n  and\n  0x2\n  swap1\n  div\n  swap1\n  0x0\n  mstore\n  keccak256(0x0, 0x20)\n  swap1\n  0x1f\n  add\n  0x20\n  swap1\n  div\n  dup2\n  add\n  swap3\n  dup3\n  0x1f\n  lt\n  tag_11\n  jumpi\n  dup1\n  mload\n  not(0xff)\n  and\n  dup4\n  dup1\n  add\n  or\n  dup6\n  sstore\n  jump(tag_10)\ntag_11:\n  dup3\n  dup1\n  add\n  0x1\n  add\n  dup6\n  sstore\n  dup3\n  iszero\n  tag_10\n  jumpi\n  swap2\n  dup3\n  add\ntag_12:\n  dup3\n  dup2\n  gt\n  iszero\n  tag_13\n  jumpi\n  dup3\n  mload\n  dup3\n  sstore\n  swap2\n  0x20\n  add\n  swap2\n  swap1\n  0x1\n  add\n  swap1\n  jump(tag_12)\ntag_13:\ntag_10:\n  pop\n  swap1\n  pop\n  tag_14\n  swap2\n  swap1\n  jump\t// in(tag_15)\ntag_14:\n  pop\n  swap1\n  jump\t// out\ntag_15:\n  tag_16\n  swap2\n  swap1\ntag_17:\n  dup1\n  dup3\n  gt\n  iszero\n  tag_18\n  jumpi\n  0x0\n  dup2\n  0x0\n  swap1\n  sstore\n  pop\n  0x1\n  add\n  jump(tag_17)\ntag_18:\n  pop\n  swap1\n  jump\ntag_16:\n  swap1\n  jump\t// out\ntag_9:\n  dataSize(sub_0)\n  dup1\n  dataOffset(sub_0)\n  0x0\n  codecopy\n  0x0\n  return\nstop\n\nsub_0: assembly {\n        /* \"contracts/test/TetherToken.sol\":9693:14474  contract TetherToken is Pausable, StandardToken, BlackList {... */\n      mstore(0x40, 0x60)\n      jumpi(tag_1, iszero(calldatasize))\n      calldataload(0x0)\n      0x100000000000000000000000000000000000000000000000000000000\n      swap1\n      div\n      0xffffffff\n      and\n      dup1\n      0x6fdde03\n      eq\n      tag_2\n      jumpi\n      dup1\n      0x753c30c\n      eq\n      tag_3\n      jumpi\n      dup1\n      0x95ea7b3\n      eq\n      tag_4\n      jumpi\n      dup1\n      0xe136b19\n      eq\n      tag_5\n      jumpi\n      dup1\n      0xecb93c0\n      eq\n      tag_6\n      jumpi\n      dup1\n      0x18160ddd\n      eq\n      tag_7\n      jumpi\n      dup1\n      0x23b872dd\n      eq\n      tag_8\n      jumpi\n      dup1\n      0x26976e3f\n      eq\n      tag_9\n      jumpi\n      dup1\n      0x27e235e3\n      eq\n      tag_10\n      jumpi\n      dup1\n      0x313ce567\n      eq\n      tag_11\n      jumpi\n      dup1\n      0x35390714\n      eq\n      tag_12\n      jumpi\n      dup1\n      0x3eaaf86b\n      eq\n      tag_13\n      jumpi\n      dup1\n      0x3f4ba83a\n      eq\n      tag_14\n      jumpi\n      dup1\n      0x59bf1abe\n      eq\n      tag_15\n      jumpi\n      dup1\n      0x5c658165\n      eq\n      tag_16\n      jumpi\n      dup1\n      0x5c975abb\n      eq\n      tag_17\n      jumpi\n      dup1\n      0x70a08231\n      eq\n      tag_18\n      jumpi\n      dup1\n      0x8456cb59\n      eq\n      tag_19\n      jumpi\n      dup1\n      0x893d20e8\n      eq\n      tag_20\n      jumpi\n      dup1\n      0x8da5cb5b\n      eq\n      tag_21\n      jumpi\n      dup1\n      0x95d89b41\n      eq\n      tag_22\n      jumpi\n      dup1\n      0xa9059cbb\n      eq\n      tag_23\n      jumpi\n      dup1\n      0xc0324c77\n      eq\n      tag_24\n      jumpi\n      dup1\n      0xcc872b66\n      eq\n      tag_25\n      jumpi\n      dup1\n      0xdb006a75\n      eq\n      tag_26\n      jumpi\n      dup1\n      0xdd62ed3e\n      eq\n      tag_27\n      jumpi\n      dup1\n      0xdd644f72\n      eq\n      tag_28\n      jumpi\n      dup1\n      0xe47d6060\n      eq\n      tag_29\n      jumpi\n      dup1\n      0xe4997dc5\n      eq\n      tag_30\n      jumpi\n      dup1\n      0xe5b5019a\n      eq\n      tag_31\n      jumpi\n      dup1\n      0xf2fde38b\n      eq\n      tag_32\n      jumpi\n      dup1\n      0xf3bdc228\n      eq\n      tag_33\n      jumpi\n    tag_1:\n      0x0\n      dup1\n      revert\n        /* \"contracts/test/TetherToken.sol\":9759:9777  string public name */\n    tag_2:\n      jumpi(tag_34, iszero(callvalue))\n      0x0\n      dup1\n      revert\n    tag_34:\n      tag_35\n      jump(tag_36)\n    tag_35:\n      mload(0x40)\n      dup1\n      dup1\n      0x20\n      add\n      dup3\n      dup2\n      sub\n      dup3\n      mstore\n      dup4\n      dup2\n      dup2\n      mload\n      dup2\n      mstore\n      0x20\n      add\n      swap2\n      pop\n      dup1\n      mload\n      swap1\n      0x20\n      add\n      swap1\n      dup1\n      dup4\n      dup4\n        /* \"--CODEGEN--\":23:24   */\n      0x0\n        /* \"--CODEGEN--\":8:108   */\n    tag_37:\n        /* \"--CODEGEN--\":33:36   */\n      dup4\n        /* \"--CODEGEN--\":30:31   */\n      dup2\n        /* \"--CODEGEN--\":27:29   */\n      lt\n        /* \"--CODEGEN--\":8:108   */\n      iszero\n      tag_38\n      jumpi\n        /* \"--CODEGEN--\":99:100   */\n      dup1\n        /* \"--CODEGEN--\":94:97   */\n      dup3\n        /* \"--CODEGEN--\":90:93   */\n      add\n        /* \"--CODEGEN--\":84:89   */\n      mload\n        /* \"--CODEGEN--\":80:81   */\n      dup2\n        /* \"--CODEGEN--\":75:78   */\n      dup5\n        /* \"--CODEGEN--\":71:74   */\n      add\n        /* \"--CODEGEN--\":64:70   */\n      mstore\n        /* \"--CODEGEN--\":52:54   */\n      0x20\n        /* \"--CODEGEN--\":49:50   */\n      dup2\n        /* \"--CODEGEN--\":45:48   */\n      add\n        /* \"--CODEGEN--\":40:55   */\n      swap1\n      pop\n        /* \"--CODEGEN--\":8:108   */\n      jump(tag_37)\n    tag_38:\n        /* \"--CODEGEN--\":12:26   */\n      pop\n        /* \"--CODEGEN--\":3:112   */\n      pop\n      pop\n      pop\n      swap1\n      pop\n      swap1\n      dup2\n      add\n      swap1\n      0x1f\n      and\n      dup1\n      iszero\n      tag_40\n      jumpi\n      dup1\n      dup3\n      sub\n      dup1\n      mload\n      0x1\n      dup4\n      0x20\n      sub\n      0x100\n      exp\n      sub\n      not\n      and\n      dup2\n      mstore\n      0x20\n      add\n      swap2\n      pop\n    tag_40:\n      pop\n      swap3\n      pop\n      pop\n      pop\n      mload(0x40)\n      dup1\n      swap2\n      sub\n      swap1\n      return\n        /* \"contracts/test/TetherToken.sol\":12445:12622  function deprecate(address _upgradedAddress) public onlyOwner {... */\n    tag_3:\n      jumpi(tag_41, iszero(callvalue))\n      0x0\n      dup1\n      revert\n    tag_41:\n      tag_42\n      0x4\n      dup1\n      dup1\n      calldataload\n      0xffffffffffffffffffffffffffffffffffffffff\n      and\n      swap1\n      0x20\n      add\n      swap1\n      swap2\n      swap1\n      pop\n      pop\n      jump(tag_43)\n    tag_42:\n      stop\n        /* \"contracts/test/TetherToken.sol\":11717:12013  function approve(address _spender, uint _value) public onlyPayloadSize(2 * 32) {... */\n    tag_4:\n      jumpi(tag_44, iszero(callvalue))\n      0x0\n      dup1\n      revert\n    tag_44:\n      tag_45\n      0x4\n      dup1\n      dup1\n      calldataload\n      0xffffffffffffffffffffffffffffffffffffffff\n      and\n      swap1\n      0x20\n      add\n      swap1\n      swap2\n      swap1\n      dup1\n      calldataload\n      swap1\n      0x20\n      add\n      swap1\n      swap2\n      swap1\n      pop\n      pop\n      jump(tag_46)\n    tag_45:\n      stop\n        /* \"contracts/test/TetherToken.sol\":9871:9893  bool public deprecated */\n    tag_5:\n      jumpi(tag_47, iszero(callvalue))\n      0x0\n      dup1\n      revert\n    tag_47:\n      tag_48\n      jump(tag_49)\n    tag_48:\n      mload(0x40)\n      dup1\n      dup3\n      iszero\n      iszero\n      iszero\n      iszero\n      dup2\n      mstore\n      0x20\n      add\n      swap2\n      pop\n      pop\n      mload(0x40)\n      dup1\n      swap2\n      sub\n      swap1\n      return\n        /* \"contracts/test/TetherToken.sol\":8470:8612  function addBlackList (address _evilUser) public onlyOwner {... */\n    tag_6:\n      jumpi(tag_50, iszero(callvalue))\n      0x0\n      dup1\n      revert\n    tag_50:\n      tag_51\n      0x4\n      dup1\n      dup1\n      calldataload\n      0xffffffffffffffffffffffffffffffffffffffff\n      and\n      swap1\n      0x20\n      add\n      swap1\n      swap2\n      swap1\n      pop\n      pop\n      jump(tag_52)\n    tag_51:\n      stop\n        /* \"contracts/test/TetherToken.sol\":12685:12897  function totalSupply() public constant returns (uint) {... */\n    tag_7:\n      jumpi(tag_53, iszero(callvalue))\n      0x0\n      dup1\n      revert\n    tag_53:\n      tag_54\n      jump(tag_55)\n    tag_54:\n      mload(0x40)\n      dup1\n      dup3\n      dup2\n      mstore\n      0x20\n      add\n      swap2\n      pop\n      pop\n      mload(0x40)\n      dup1\n      swap2\n      sub\n      swap1\n      return\n        /* \"contracts/test/TetherToken.sol\":10960:11315  function transferFrom(address _from, address _to, uint _value) public whenNotPaused {... */\n    tag_8:\n      jumpi(tag_56, iszero(callvalue))\n      0x0\n      dup1\n      revert\n    tag_56:\n      tag_57\n      0x4\n      dup1\n      dup1\n      calldataload\n      0xffffffffffffffffffffffffffffffffffffffff\n      and\n      swap1\n      0x20\n      add\n      swap1\n      swap2\n      swap1\n      dup1\n      calldataload\n      0xffffffffffffffffffffffffffffffffffffffff\n      and\n      swap1\n      0x20\n      add\n      swap1\n      swap2\n      swap1\n      dup1\n      calldataload\n      swap1\n      0x20\n      add\n      swap1\n      swap2\n      swap1\n      pop\n      pop\n      jump(tag_58)\n    tag_57:\n      stop\n        /* \"contracts/test/TetherToken.sol\":9835:9865  address public upgradedAddress */\n    tag_9:\n      jumpi(tag_59, iszero(callvalue))\n      0x0\n      dup1\n      revert\n    tag_59:\n      tag_60\n      jump(tag_61)\n    tag_60:\n      mload(0x40)\n      dup1\n      dup3\n      0xffffffffffffffffffffffffffffffffffffffff\n      and\n      0xffffffffffffffffffffffffffffffffffffffff\n      and\n      dup2\n      mstore\n      0x20\n      add\n      swap2\n      pop\n      pop\n      mload(0x40)\n      dup1\n      swap2\n      sub\n      swap1\n      return\n        /* \"contracts/test/TetherToken.sol\":2881:2921  mapping(address => uint) public balances */\n    tag_10:\n      jumpi(tag_62, iszero(callvalue))\n      0x0\n      dup1\n      revert\n    tag_62:\n      tag_63\n      0x4\n      dup1\n      dup1\n      calldataload\n      0xffffffffffffffffffffffffffffffffffffffff\n      and\n      swap1\n      0x20\n      add\n      swap1\n      swap2\n      swap1\n      pop\n      pop\n      jump(tag_64)\n    tag_63:\n      mload(0x40)\n      dup1\n      dup3\n      dup2\n      mstore\n      0x20\n      add\n      swap2\n      pop\n      pop\n      mload(0x40)\n      dup1\n      swap2\n      sub\n      swap1\n      return\n        /* \"contracts/test/TetherToken.sol\":9809:9829  uint public decimals */\n    tag_11:\n      jumpi(tag_65, iszero(callvalue))\n      0x0\n      dup1\n      revert\n    tag_65:\n      tag_66\n      jump(tag_67)\n    tag_66:\n      mload(0x40)\n      dup1\n      dup3\n      dup2\n      mstore\n      0x20\n      add\n      swap2\n      pop\n      pop\n      mload(0x40)\n      dup1\n      swap2\n      sub\n      swap1\n      return\n        /* \"contracts/test/TetherToken.sol\":3043:3069  uint public maximumFee = 0 */\n    tag_12:\n      jumpi(tag_68, iszero(callvalue))\n      0x0\n      dup1\n      revert\n    tag_68:\n      tag_69\n      jump(tag_70)\n    tag_69:\n      mload(0x40)\n      dup1\n      dup3\n      dup2\n      mstore\n      0x20\n      add\n      swap2\n      pop\n      pop\n      mload(0x40)\n      dup1\n      swap2\n      sub\n      swap1\n      return\n        /* \"contracts/test/TetherToken.sol\":2008:2032  uint public _totalSupply */\n    tag_13:\n      jumpi(tag_71, iszero(callvalue))\n      0x0\n      dup1\n      revert\n    tag_71:\n      tag_72\n      jump(tag_73)\n    tag_72:\n      mload(0x40)\n      dup1\n      dup3\n      dup2\n      mstore\n      0x20\n      add\n      swap2\n      pop\n      pop\n      mload(0x40)\n      dup1\n      swap2\n      sub\n      swap1\n      return\n        /* \"contracts/test/TetherToken.sol\":7935:8022  function unpause() onlyOwner whenPaused public {... */\n    tag_14:\n      jumpi(tag_74, iszero(callvalue))\n      0x0\n      dup1\n      revert\n    tag_74:\n      tag_75\n      jump(tag_76)\n    tag_75:\n      stop\n        /* \"contracts/test/TetherToken.sol\":8194:8316  function getBlackListStatus(address _maker) external constant returns (bool) {... */\n    tag_15:\n      jumpi(tag_77, iszero(callvalue))\n      0x0\n      dup1\n      revert\n    tag_77:\n      tag_78\n      0x4\n      dup1\n      dup1\n      calldataload\n      0xffffffffffffffffffffffffffffffffffffffff\n      and\n      swap1\n      0x20\n      add\n      swap1\n      swap2\n      swap1\n      pop\n      pop\n      jump(tag_79)\n    tag_78:\n      mload(0x40)\n      dup1\n      dup3\n      iszero\n      iszero\n      iszero\n      iszero\n      dup2\n      mstore\n      0x20\n      add\n      swap2\n      pop\n      pop\n      mload(0x40)\n      dup1\n      swap2\n      sub\n      swap1\n      return\n        /* \"contracts/test/TetherToken.sol\":4617:4678  mapping (address => mapping (address => uint)) public allowed */\n    tag_16:\n      jumpi(tag_80, iszero(callvalue))\n      0x0\n      dup1\n      revert\n    tag_80:\n      tag_81\n      0x4\n      dup1\n      dup1\n      calldataload\n      0xffffffffffffffffffffffffffffffffffffffff\n      and\n      swap1\n      0x20\n      add\n      swap1\n      swap2\n      swap1\n      dup1\n      calldataload\n      0xffffffffffffffffffffffffffffffffffffffff\n      and\n      swap1\n      0x20\n      add\n      swap1\n      swap2\n      swap1\n      pop\n      pop\n      jump(tag_82)\n    tag_81:\n      mload(0x40)\n      dup1\n      dup3\n      dup2\n      mstore\n      0x20\n      add\n      swap2\n      pop\n      pop\n      mload(0x40)\n      dup1\n      swap2\n      sub\n      swap1\n      return\n        /* \"contracts/test/TetherToken.sol\":7349:7375  bool public paused = false */\n    tag_17:\n      jumpi(tag_83, iszero(callvalue))\n      0x0\n      dup1\n      revert\n    tag_83:\n      tag_84\n      jump(tag_85)\n    tag_84:\n      mload(0x40)\n      dup1\n      dup3\n      iszero\n      iszero\n      iszero\n      iszero\n      dup2\n      mstore\n      0x20\n      add\n      swap2\n      pop\n      pop\n      mload(0x40)\n      dup1\n      swap2\n      sub\n      swap1\n      return\n        /* \"contracts/test/TetherToken.sol\":11397:11635  function balanceOf(address who) public constant returns (uint) {... */\n    tag_18:\n      jumpi(tag_86, iszero(callvalue))\n      0x0\n      dup1\n      revert\n    tag_86:\n      tag_87\n      0x4\n      dup1\n      dup1\n      calldataload\n      0xffffffffffffffffffffffffffffffffffffffff\n      and\n      swap1\n      0x20\n      add\n      swap1\n      swap2\n      swap1\n      pop\n      pop\n      jump(tag_88)\n    tag_87:\n      mload(0x40)\n      dup1\n      dup3\n      dup2\n      mstore\n      0x20\n      add\n      swap2\n      pop\n      pop\n      mload(0x40)\n      dup1\n      swap2\n      sub\n      swap1\n      return\n        /* \"contracts/test/TetherToken.sol\":7768:7853  function pause() onlyOwner whenNotPaused public {... */\n    tag_19:\n      jumpi(tag_89, iszero(callvalue))\n      0x0\n      dup1\n      revert\n    tag_89:\n      tag_90\n      jump(tag_91)\n    tag_90:\n      stop\n        /* \"contracts/test/TetherToken.sol\":8322:8407  function getOwner() external constant returns (address) {... */\n    tag_20:\n      jumpi(tag_92, iszero(callvalue))\n      0x0\n      dup1\n      revert\n    tag_92:\n      tag_93\n      jump(tag_94)\n    tag_93:\n      mload(0x40)\n      dup1\n      dup3\n      0xffffffffffffffffffffffffffffffffffffffff\n      and\n      0xffffffffffffffffffffffffffffffffffffffff\n      and\n      dup2\n      mstore\n      0x20\n      add\n      swap2\n      pop\n      pop\n      mload(0x40)\n      dup1\n      swap2\n      sub\n      swap1\n      return\n        /* \"contracts/test/TetherToken.sol\":1153:1173  address public owner */\n    tag_21:\n      jumpi(tag_95, iszero(callvalue))\n      0x0\n      dup1\n      revert\n    tag_95:\n      tag_96\n      jump(tag_97)\n    tag_96:\n      mload(0x40)\n      dup1\n      dup3\n      0xffffffffffffffffffffffffffffffffffffffff\n      and\n      0xffffffffffffffffffffffffffffffffffffffff\n      and\n      dup2\n      mstore\n      0x20\n      add\n      swap2\n      pop\n      pop\n      mload(0x40)\n      dup1\n      swap2\n      sub\n      swap1\n      return\n        /* \"contracts/test/TetherToken.sol\":9783:9803  string public symbol */\n    tag_22:\n      jumpi(tag_98, iszero(callvalue))\n      0x0\n      dup1\n      revert\n    tag_98:\n      tag_99\n      jump(tag_100)\n    tag_99:\n      mload(0x40)\n      dup1\n      dup1\n      0x20\n      add\n      dup3\n      dup2\n      sub\n      dup3\n      mstore\n      dup4\n      dup2\n      dup2\n      mload\n      dup2\n      mstore\n      0x20\n      add\n      swap2\n      pop\n      dup1\n      mload\n      swap1\n      0x20\n      add\n      swap1\n      dup1\n      dup4\n      dup4\n        /* \"--CODEGEN--\":23:24   */\n      0x0\n        /* \"--CODEGEN--\":8:108   */\n    tag_101:\n        /* \"--CODEGEN--\":33:36   */\n      dup4\n        /* \"--CODEGEN--\":30:31   */\n      dup2\n        /* \"--CODEGEN--\":27:29   */\n      lt\n        /* \"--CODEGEN--\":8:108   */\n      iszero\n      tag_102\n      jumpi\n        /* \"--CODEGEN--\":99:100   */\n      dup1\n        /* \"--CODEGEN--\":94:97   */\n      dup3\n        /* \"--CODEGEN--\":90:93   */\n      add\n        /* \"--CODEGEN--\":84:89   */\n      mload\n        /* \"--CODEGEN--\":80:81   */\n      dup2\n        /* \"--CODEGEN--\":75:78   */\n      dup5\n        /* \"--CODEGEN--\":71:74   */\n      add\n        /* \"--CODEGEN--\":64:70   */\n      mstore\n        /* \"--CODEGEN--\":52:54   */\n      0x20\n        /* \"--CODEGEN--\":49:50   */\n      dup2\n        /* \"--CODEGEN--\":45:48   */\n      add\n        /* \"--CODEGEN--\":40:55   */\n      swap1\n      pop\n        /* \"--CODEGEN--\":8:108   */\n      jump(tag_101)\n    tag_102:\n        /* \"--CODEGEN--\":12:26   */\n      pop\n        /* \"--CODEGEN--\":3:112   */\n      pop\n      pop\n      pop\n      swap1\n      pop\n      swap1\n      dup2\n      add\n      swap1\n      0x1f\n      and\n      dup1\n      iszero\n      tag_104\n      jumpi\n      dup1\n      dup3\n      sub\n      dup1\n      mload\n      0x1\n      dup4\n      0x20\n      sub\n      0x100\n      exp\n      sub\n      not\n      and\n      dup2\n      mstore\n      0x20\n      add\n      swap2\n      pop\n    tag_104:\n      pop\n      swap3\n      pop\n      pop\n      pop\n      mload(0x40)\n      dup1\n      swap2\n      sub\n      swap1\n      return\n        /* \"contracts/test/TetherToken.sol\":10559:10878  function transfer(address _to, uint _value) public whenNotPaused {... */\n    tag_23:\n      jumpi(tag_105, iszero(callvalue))\n      0x0\n      dup1\n      revert\n    tag_105:\n      tag_106\n      0x4\n      dup1\n      dup1\n      calldataload\n      0xffffffffffffffffffffffffffffffffffffffff\n      and\n      swap1\n      0x20\n      add\n      swap1\n      swap2\n      swap1\n      dup1\n      calldataload\n      swap1\n      0x20\n      add\n      swap1\n      swap2\n      swap1\n      pop\n      pop\n      jump(tag_107)\n    tag_106:\n      stop\n        /* \"contracts/test/TetherToken.sol\":13774:14152  function setParams(uint newBasisPoints, uint newMaxFee) public onlyOwner {... */\n    tag_24:\n      jumpi(tag_108, iszero(callvalue))\n      0x0\n      dup1\n      revert\n    tag_108:\n      tag_109\n      0x4\n      dup1\n      dup1\n      calldataload\n      swap1\n      0x20\n      add\n      swap1\n      swap2\n      swap1\n      dup1\n      calldataload\n      swap1\n      0x20\n      add\n      swap1\n      swap2\n      swap1\n      pop\n      pop\n      jump(tag_110)\n    tag_109:\n      stop\n        /* \"contracts/test/TetherToken.sol\":13055:13314  function issue(uint amount) public onlyOwner {... */\n    tag_25:\n      jumpi(tag_111, iszero(callvalue))\n      0x0\n      dup1\n      revert\n    tag_111:\n      tag_112\n      0x4\n      dup1\n      dup1\n      calldataload\n      swap1\n      0x20\n      add\n      swap1\n      swap2\n      swap1\n      pop\n      pop\n      jump(tag_113)\n    tag_112:\n      stop\n        /* \"contracts/test/TetherToken.sol\":13538:13768  function redeem(uint amount) public onlyOwner {... */\n    tag_26:\n      jumpi(tag_114, iszero(callvalue))\n      0x0\n      dup1\n      revert\n    tag_114:\n      tag_115\n      0x4\n      dup1\n      dup1\n      calldataload\n      swap1\n      0x20\n      add\n      swap1\n      swap2\n      swap1\n      pop\n      pop\n      jump(tag_116)\n    tag_115:\n      stop\n        /* \"contracts/test/TetherToken.sol\":12095:12382  function allowance(address _owner, address _spender) public constant returns (uint remaining) {... */\n    tag_27:\n      jumpi(tag_117, iszero(callvalue))\n      0x0\n      dup1\n      revert\n    tag_117:\n      tag_118\n      0x4\n      dup1\n      dup1\n      calldataload\n      0xffffffffffffffffffffffffffffffffffffffff\n      and\n      swap1\n      0x20\n      add\n      swap1\n      swap2\n      swap1\n      dup1\n      calldataload\n      0xffffffffffffffffffffffffffffffffffffffff\n      and\n      swap1\n      0x20\n      add\n      swap1\n      swap2\n      swap1\n      pop\n      pop\n      jump(tag_119)\n    tag_118:\n      mload(0x40)\n      dup1\n      dup3\n      dup2\n      mstore\n      0x20\n      add\n      swap2\n      pop\n      pop\n      mload(0x40)\n      dup1\n      swap2\n      sub\n      swap1\n      return\n        /* \"contracts/test/TetherToken.sol\":3006:3037  uint public basisPointsRate = 0 */\n    tag_28:\n      jumpi(tag_120, iszero(callvalue))\n      0x0\n      dup1\n      revert\n    tag_120:\n      tag_121\n      jump(tag_122)\n    tag_121:\n      mload(0x40)\n      dup1\n      dup3\n      dup2\n      mstore\n      0x20\n      add\n      swap2\n      pop\n      pop\n      mload(0x40)\n      dup1\n      swap2\n      sub\n      swap1\n      return\n        /* \"contracts/test/TetherToken.sol\":8413:8459  mapping (address => bool) public isBlackListed */\n    tag_29:\n      jumpi(tag_123, iszero(callvalue))\n      0x0\n      dup1\n      revert\n    tag_123:\n      tag_124\n      0x4\n      dup1\n      dup1\n      calldataload\n      0xffffffffffffffffffffffffffffffffffffffff\n      and\n      swap1\n      0x20\n      add\n      swap1\n      swap2\n      swap1\n      pop\n      pop\n      jump(tag_125)\n    tag_124:\n      mload(0x40)\n      dup1\n      dup3\n      iszero\n      iszero\n      iszero\n      iszero\n      dup2\n      mstore\n      0x20\n      add\n      swap2\n      pop\n      pop\n      mload(0x40)\n      dup1\n      swap2\n      sub\n      swap1\n      return\n        /* \"contracts/test/TetherToken.sol\":8618:8775  function removeBlackList (address _clearedUser) public onlyOwner {... */\n    tag_30:\n      jumpi(tag_126, iszero(callvalue))\n      0x0\n      dup1\n      revert\n    tag_126:\n      tag_127\n      0x4\n      dup1\n      dup1\n      calldataload\n      0xffffffffffffffffffffffffffffffffffffffff\n      and\n      swap1\n      0x20\n      add\n      swap1\n      swap2\n      swap1\n      pop\n      pop\n      jump(tag_128)\n    tag_127:\n      stop\n        /* \"contracts/test/TetherToken.sol\":4685:4727  uint public constant MAX_UINT = 2**256 - 1 */\n    tag_31:\n      jumpi(tag_129, iszero(callvalue))\n      0x0\n      dup1\n      revert\n    tag_129:\n      tag_130\n      jump(tag_131)\n    tag_130:\n      mload(0x40)\n      dup1\n      dup3\n      dup2\n      mstore\n      0x20\n      add\n      swap2\n      pop\n      pop\n      mload(0x40)\n      dup1\n      swap2\n      sub\n      swap1\n      return\n        /* \"contracts/test/TetherToken.sol\":1703:1850  function transferOwnership(address newOwner) public onlyOwner {... */\n    tag_32:\n      jumpi(tag_132, iszero(callvalue))\n      0x0\n      dup1\n      revert\n    tag_132:\n      tag_133\n      0x4\n      dup1\n      dup1\n      calldataload\n      0xffffffffffffffffffffffffffffffffffffffff\n      and\n      swap1\n      0x20\n      add\n      swap1\n      swap2\n      swap1\n      pop\n      pop\n      jump(tag_134)\n    tag_133:\n      stop\n        /* \"contracts/test/TetherToken.sol\":8781:9099  function destroyBlackFunds (address _blackListedUser) public onlyOwner {... */\n    tag_33:\n      jumpi(tag_135, iszero(callvalue))\n      0x0\n      dup1\n      revert\n    tag_135:\n      tag_136\n      0x4\n      dup1\n      dup1\n      calldataload\n      0xffffffffffffffffffffffffffffffffffffffff\n      and\n      swap1\n      0x20\n      add\n      swap1\n      swap2\n      swap1\n      pop\n      pop\n      jump(tag_137)\n    tag_136:\n      stop\n        /* \"contracts/test/TetherToken.sol\":9759:9777  string public name */\n    tag_36:\n      0x7\n      dup1\n      sload\n      0x1\n      dup2\n      0x1\n      and\n      iszero\n      0x100\n      mul\n      sub\n      and\n      0x2\n      swap1\n      div\n      dup1\n      0x1f\n      add\n      0x20\n      dup1\n      swap2\n      div\n      mul\n      0x20\n      add\n      mload(0x40)\n      swap1\n      dup2\n      add\n      0x40\n      mstore\n      dup1\n      swap3\n      swap2\n      swap1\n      dup2\n      dup2\n      mstore\n      0x20\n      add\n      dup3\n      dup1\n      sload\n      0x1\n      dup2\n      0x1\n      and\n      iszero\n      0x100\n      mul\n      sub\n      and\n      0x2\n      swap1\n      div\n      dup1\n      iszero\n      tag_138\n      jumpi\n      dup1\n      0x1f\n      lt\n      tag_139\n      jumpi\n      0x100\n      dup1\n      dup4\n      sload\n      div\n      mul\n      dup4\n      mstore\n      swap2\n      0x20\n      add\n      swap2\n      jump(tag_138)\n    tag_139:\n      dup3\n      add\n      swap2\n      swap1\n      0x0\n      mstore\n      keccak256(0x0, 0x20)\n      swap1\n    tag_140:\n      dup2\n      sload\n      dup2\n      mstore\n      swap1\n      0x1\n      add\n      swap1\n      0x20\n      add\n      dup1\n      dup4\n      gt\n      tag_140\n      jumpi\n      dup3\n      swap1\n      sub\n      0x1f\n      and\n      dup3\n      add\n      swap2\n    tag_138:\n      pop\n      pop\n      pop\n      pop\n      pop\n      dup2\n      jump\t// out\n        /* \"contracts/test/TetherToken.sol\":12445:12622  function deprecate(address _upgradedAddress) public onlyOwner {... */\n    tag_43:\n        /* \"contracts/test/TetherToken.sol\":1511:1516  owner */\n      0x0\n      dup1\n      swap1\n      sload\n      swap1\n      0x100\n      exp\n      swap1\n      div\n      0xffffffffffffffffffffffffffffffffffffffff\n      and\n        /* \"contracts/test/TetherToken.sol\":1497:1516  msg.sender == owner */\n      0xffffffffffffffffffffffffffffffffffffffff\n      and\n        /* \"contracts/test/TetherToken.sol\":1497:1507  msg.sender */\n      caller\n        /* \"contracts/test/TetherToken.sol\":1497:1516  msg.sender == owner */\n      0xffffffffffffffffffffffffffffffffffffffff\n      and\n      eq\n        /* \"contracts/test/TetherToken.sol\":1489:1517  require(msg.sender == owner) */\n      iszero\n      iszero\n      tag_142\n      jumpi\n      0x0\n      dup1\n      revert\n    tag_142:\n        /* \"contracts/test/TetherToken.sol\":12530:12534  true */\n      0x1\n        /* \"contracts/test/TetherToken.sol\":12517:12527  deprecated */\n      0xa\n      0x14\n        /* \"contracts/test/TetherToken.sol\":12517:12534  deprecated = true */\n      0x100\n      exp\n      dup2\n      sload\n      dup2\n      0xff\n      mul\n      not\n      and\n      swap1\n      dup4\n      iszero\n      iszero\n      mul\n      or\n      swap1\n      sstore\n      pop\n        /* \"contracts/test/TetherToken.sol\":12562:12578  _upgradedAddress */\n      dup1\n        /* \"contracts/test/TetherToken.sol\":12544:12559  upgradedAddress */\n      0xa\n      0x0\n        /* \"contracts/test/TetherToken.sol\":12544:12578  upgradedAddress = _upgradedAddress */\n      0x100\n      exp\n      dup2\n      sload\n      dup2\n      0xffffffffffffffffffffffffffffffffffffffff\n      mul\n      not\n      and\n      swap1\n      dup4\n      0xffffffffffffffffffffffffffffffffffffffff\n      and\n      mul\n      or\n      swap1\n      sstore\n      pop\n        /* \"contracts/test/TetherToken.sol\":12588:12615  Deprecate(_upgradedAddress) */\n      0xcc358699805e9a8b7f77b522628c7cb9abd07d9efb86b6fb616af1609036a99e\n        /* \"contracts/test/TetherToken.sol\":12598:12614  _upgradedAddress */\n      dup2\n        /* \"contracts/test/TetherToken.sol\":12588:12615  Deprecate(_upgradedAddress) */\n      mload(0x40)\n      dup1\n      dup3\n      0xffffffffffffffffffffffffffffffffffffffff\n      and\n      0xffffffffffffffffffffffffffffffffffffffff\n      and\n      dup2\n      mstore\n      0x20\n      add\n      swap2\n      pop\n      pop\n      mload(0x40)\n      dup1\n      swap2\n      sub\n      swap1\n      log1\n        /* \"contracts/test/TetherToken.sol\":12445:12622  function deprecate(address _upgradedAddress) public onlyOwner {... */\n      pop\n      jump\t// out\n        /* \"contracts/test/TetherToken.sol\":11717:12013  function approve(address _spender, uint _value) public onlyPayloadSize(2 * 32) {... */\n    tag_46:\n        /* \"contracts/test/TetherToken.sol\":11788:11794  2 * 32 */\n      0x40\n        /* \"contracts/test/TetherToken.sol\":3223:3224  4 */\n      0x4\n        /* \"contracts/test/TetherToken.sol\":3216:3220  size */\n      dup2\n        /* \"contracts/test/TetherToken.sol\":3216:3224  size + 4 */\n      add\n        /* \"contracts/test/TetherToken.sol\":3198:3206  msg.data */\n      0x0\n      calldatasize\n        /* \"contracts/test/TetherToken.sol\":3198:3213  msg.data.length */\n      swap1\n      pop\n        /* \"contracts/test/TetherToken.sol\":3198:3224  msg.data.length < size + 4 */\n      lt\n        /* \"contracts/test/TetherToken.sol\":3196:3225  !(msg.data.length < size + 4) */\n      iszero\n        /* \"contracts/test/TetherToken.sol\":3188:3226  require(!(msg.data.length < size + 4)) */\n      iszero\n      iszero\n      tag_145\n      jumpi\n      0x0\n      dup1\n      revert\n    tag_145:\n        /* \"contracts/test/TetherToken.sol\":11810:11820  deprecated */\n      0xa\n      0x14\n      swap1\n      sload\n      swap1\n      0x100\n      exp\n      swap1\n      div\n      0xff\n      and\n        /* \"contracts/test/TetherToken.sol\":11806:12007  if (deprecated) {... */\n      iszero\n      tag_147\n      jumpi\n        /* \"contracts/test/TetherToken.sol\":11865:11880  upgradedAddress */\n      0xa\n      0x0\n      swap1\n      sload\n      swap1\n      0x100\n      exp\n      swap1\n      div\n      0xffffffffffffffffffffffffffffffffffffffff\n      and\n        /* \"contracts/test/TetherToken.sol\":11843:11897  UpgradedStandardToken(upgradedAddress).approveByLegacy */\n      0xffffffffffffffffffffffffffffffffffffffff\n      and\n      0xaee92d33\n        /* \"contracts/test/TetherToken.sol\":11898:11908  msg.sender */\n      caller\n        /* \"contracts/test/TetherToken.sol\":11910:11918  _spender */\n      dup6\n        /* \"contracts/test/TetherToken.sol\":11920:11926  _value */\n      dup6\n        /* \"contracts/test/TetherToken.sol\":11843:11927  UpgradedStandardToken(upgradedAddress).approveByLegacy(msg.sender, _spender, _value) */\n      mload(0x40)\n      dup5\n      0xffffffff\n      and\n      0x100000000000000000000000000000000000000000000000000000000\n      mul\n      dup2\n      mstore\n      0x4\n      add\n      dup1\n      dup5\n      0xffffffffffffffffffffffffffffffffffffffff\n      and\n      0xffffffffffffffffffffffffffffffffffffffff\n      and\n      dup2\n      mstore\n      0x20\n      add\n      dup4\n      0xffffffffffffffffffffffffffffffffffffffff\n      and\n      0xffffffffffffffffffffffffffffffffffffffff\n      and\n      dup2\n      mstore\n      0x20\n      add\n      dup3\n      dup2\n      mstore\n      0x20\n      add\n      swap4\n      pop\n      pop\n      pop\n      pop\n      0x0\n      mload(0x40)\n      dup1\n      dup4\n      sub\n      dup2\n      0x0\n      dup8\n      dup1\n      extcodesize\n      iszero\n      iszero\n      tag_148\n      jumpi\n      0x0\n      dup1\n      revert\n    tag_148:\n      sub(gas, 0x2c6)\n      call\n      iszero\n      iszero\n      tag_149\n      jumpi\n      0x0\n      dup1\n      revert\n    tag_149:\n      pop\n      pop\n      pop\n        /* \"contracts/test/TetherToken.sol\":11836:11927  return UpgradedStandardToken(upgradedAddress).approveByLegacy(msg.sender, _spender, _value) */\n      jump(tag_146)\n        /* \"contracts/test/TetherToken.sol\":11806:12007  if (deprecated) {... */\n    tag_147:\n        /* \"contracts/test/TetherToken.sol\":11965:11996  super.approve(_spender, _value) */\n      tag_151\n        /* \"contracts/test/TetherToken.sol\":11979:11987  _spender */\n      dup4\n        /* \"contracts/test/TetherToken.sol\":11989:11995  _value */\n      dup4\n        /* \"contracts/test/TetherToken.sol\":11965:11978  super.approve */\n      tag_152\n        /* \"contracts/test/TetherToken.sol\":11965:11996  super.approve(_spender, _value) */\n      jump\t// in\n    tag_151:\n        /* \"contracts/test/TetherToken.sol\":3236:3237  _ */\n    tag_146:\n        /* \"contracts/test/TetherToken.sol\":11717:12013  function approve(address _spender, uint _value) public onlyPayloadSize(2 * 32) {... */\n      pop\n      pop\n      pop\n      jump\t// out\n        /* \"contracts/test/TetherToken.sol\":9871:9893  bool public deprecated */\n    tag_49:\n      0xa\n      0x14\n      swap1\n      sload\n      swap1\n      0x100\n      exp\n      swap1\n      div\n      0xff\n      and\n      dup2\n      jump\t// out\n        /* \"contracts/test/TetherToken.sol\":8470:8612  function addBlackList (address _evilUser) public onlyOwner {... */\n    tag_52:\n        /* \"contracts/test/TetherToken.sol\":1511:1516  owner */\n      0x0\n      dup1\n      swap1\n      sload\n      swap1\n      0x100\n      exp\n      swap1\n      div\n      0xffffffffffffffffffffffffffffffffffffffff\n      and\n        /* \"contracts/test/TetherToken.sol\":1497:1516  msg.sender == owner */\n      0xffffffffffffffffffffffffffffffffffffffff\n      and\n        /* \"contracts/test/TetherToken.sol\":1497:1507  msg.sender */\n      caller\n        /* \"contracts/test/TetherToken.sol\":1497:1516  msg.sender == owner */\n      0xffffffffffffffffffffffffffffffffffffffff\n      and\n      eq\n        /* \"contracts/test/TetherToken.sol\":1489:1517  require(msg.sender == owner) */\n      iszero\n      iszero\n      tag_154\n      jumpi\n      0x0\n      dup1\n      revert\n    tag_154:\n        /* \"contracts/test/TetherToken.sol\":8566:8570  true */\n      0x1\n        /* \"contracts/test/TetherToken.sol\":8539:8552  isBlackListed */\n      0x6\n        /* \"contracts/test/TetherToken.sol\":8539:8563  isBlackListed[_evilUser] */\n      0x0\n        /* \"contracts/test/TetherToken.sol\":8553:8562  _evilUser */\n      dup4\n        /* \"contracts/test/TetherToken.sol\":8539:8563  isBlackListed[_evilUser] */\n      0xffffffffffffffffffffffffffffffffffffffff\n      and\n      0xffffffffffffffffffffffffffffffffffffffff\n      and\n      dup2\n      mstore\n      0x20\n      add\n      swap1\n      dup2\n      mstore\n      0x20\n      add\n      0x0\n      keccak256\n      0x0\n        /* \"contracts/test/TetherToken.sol\":8539:8570  isBlackListed[_evilUser] = true */\n      0x100\n      exp\n      dup2\n      sload\n      dup2\n      0xff\n      mul\n      not\n      and\n      swap1\n      dup4\n      iszero\n      iszero\n      mul\n      or\n      swap1\n      sstore\n      pop\n        /* \"contracts/test/TetherToken.sol\":8580:8605  AddedBlackList(_evilUser) */\n      0x42e160154868087d6bfdc0ca23d96a1c1cfa32f1b72ba9ba27b69b98a0d819dc\n        /* \"contracts/test/TetherToken.sol\":8595:8604  _evilUser */\n      dup2\n        /* \"contracts/test/TetherToken.sol\":8580:8605  AddedBlackList(_evilUser) */\n      mload(0x40)\n      dup1\n      dup3\n      0xffffffffffffffffffffffffffffffffffffffff\n      and\n      0xffffffffffffffffffffffffffffffffffffffff\n      and\n      dup2\n      mstore\n      0x20\n      add\n      swap2\n      pop\n      pop\n      mload(0x40)\n      dup1\n      swap2\n      sub\n      swap1\n      log1\n        /* \"contracts/test/TetherToken.sol\":8470:8612  function addBlackList (address _evilUser) public onlyOwner {... */\n      pop\n      jump\t// out\n        /* \"contracts/test/TetherToken.sol\":12685:12897  function totalSupply() public constant returns (uint) {... */\n    tag_55:\n        /* \"contracts/test/TetherToken.sol\":12733:12737  uint */\n      0x0\n        /* \"contracts/test/TetherToken.sol\":12753:12763  deprecated */\n      0xa\n      0x14\n      swap1\n      sload\n      swap1\n      0x100\n      exp\n      swap1\n      div\n      0xff\n      and\n        /* \"contracts/test/TetherToken.sol\":12749:12891  if (deprecated) {... */\n      iszero\n      tag_157\n      jumpi\n        /* \"contracts/test/TetherToken.sol\":12800:12815  upgradedAddress */\n      0xa\n      0x0\n      swap1\n      sload\n      swap1\n      0x100\n      exp\n      swap1\n      div\n      0xffffffffffffffffffffffffffffffffffffffff\n      and\n        /* \"contracts/test/TetherToken.sol\":12786:12828  StandardToken(upgradedAddress).totalSupply */\n      0xffffffffffffffffffffffffffffffffffffffff\n      and\n      0x18160ddd\n        /* \"contracts/test/TetherToken.sol\":12786:12830  StandardToken(upgradedAddress).totalSupply() */\n      mstore(add(0x20, mload(0x40)), 0x0)\n      mload(0x40)\n      dup2\n      0xffffffff\n      and\n      0x100000000000000000000000000000000000000000000000000000000\n      mul\n      dup2\n      mstore\n      0x4\n      add\n      0x20\n      mload(0x40)\n      dup1\n      dup4\n      sub\n      dup2\n      0x0\n      dup8\n      dup1\n      extcodesize\n      iszero\n      iszero\n      tag_158\n      jumpi\n      0x0\n      dup1\n      revert\n    tag_158:\n      sub(gas, 0x2c6)\n      call\n      iszero\n      iszero\n      tag_159\n      jumpi\n      0x0\n      dup1\n      revert\n    tag_159:\n      pop\n      pop\n      pop\n      mload(0x40)\n      dup1\n      mload\n      swap1\n      pop\n        /* \"contracts/test/TetherToken.sol\":12779:12830  return StandardToken(upgradedAddress).totalSupply() */\n      swap1\n      pop\n      jump(tag_156)\n        /* \"contracts/test/TetherToken.sol\":12749:12891  if (deprecated) {... */\n    tag_157:\n        /* \"contracts/test/TetherToken.sol\":12868:12880  _totalSupply */\n      sload(0x1)\n        /* \"contracts/test/TetherToken.sol\":12861:12880  return _totalSupply */\n      swap1\n      pop\n        /* \"contracts/test/TetherToken.sol\":12685:12897  function totalSupply() public constant returns (uint) {... */\n    tag_156:\n      swap1\n      jump\t// out\n        /* \"contracts/test/TetherToken.sol\":10960:11315  function transferFrom(address _from, address _to, uint _value) public whenNotPaused {... */\n    tag_58:\n        /* \"contracts/test/TetherToken.sol\":7518:7524  paused */\n      0x0\n      0x14\n      swap1\n      sload\n      swap1\n      0x100\n      exp\n      swap1\n      div\n      0xff\n      and\n        /* \"contracts/test/TetherToken.sol\":7517:7524  !paused */\n      iszero\n        /* \"contracts/test/TetherToken.sol\":7509:7525  require(!paused) */\n      iszero\n      iszero\n      tag_162\n      jumpi\n      0x0\n      dup1\n      revert\n    tag_162:\n        /* \"contracts/test/TetherToken.sol\":11063:11076  isBlackListed */\n      0x6\n        /* \"contracts/test/TetherToken.sol\":11063:11083  isBlackListed[_from] */\n      0x0\n        /* \"contracts/test/TetherToken.sol\":11077:11082  _from */\n      dup5\n        /* \"contracts/test/TetherToken.sol\":11063:11083  isBlackListed[_from] */\n      0xffffffffffffffffffffffffffffffffffffffff\n      and\n      0xffffffffffffffffffffffffffffffffffffffff\n      and\n      dup2\n      mstore\n      0x20\n      add\n      swap1\n      dup2\n      mstore\n      0x20\n      add\n      0x0\n      keccak256\n      0x0\n      swap1\n      sload\n      swap1\n      0x100\n      exp\n      swap1\n      div\n      0xff\n      and\n        /* \"contracts/test/TetherToken.sol\":11062:11083  !isBlackListed[_from] */\n      iszero\n        /* \"contracts/test/TetherToken.sol\":11054:11084  require(!isBlackListed[_from]) */\n      iszero\n      iszero\n      tag_164\n      jumpi\n      0x0\n      dup1\n      revert\n    tag_164:\n        /* \"contracts/test/TetherToken.sol\":11098:11108  deprecated */\n      0xa\n      0x14\n      swap1\n      sload\n      swap1\n      0x100\n      exp\n      swap1\n      div\n      0xff\n      and\n        /* \"contracts/test/TetherToken.sol\":11094:11309  if (deprecated) {... */\n      iszero\n      tag_165\n      jumpi\n        /* \"contracts/test/TetherToken.sol\":11153:11168  upgradedAddress */\n      0xa\n      0x0\n      swap1\n      sload\n      swap1\n      0x100\n      exp\n      swap1\n      div\n      0xffffffffffffffffffffffffffffffffffffffff\n      and\n        /* \"contracts/test/TetherToken.sol\":11131:11190  UpgradedStandardToken(upgradedAddress).transferFromByLegacy */\n      0xffffffffffffffffffffffffffffffffffffffff\n      and\n      0x8b477adb\n        /* \"contracts/test/TetherToken.sol\":11191:11201  msg.sender */\n      caller\n        /* \"contracts/test/TetherToken.sol\":11203:11208  _from */\n      dup6\n        /* \"contracts/test/TetherToken.sol\":11210:11213  _to */\n      dup6\n        /* \"contracts/test/TetherToken.sol\":11215:11221  _value */\n      dup6\n        /* \"contracts/test/TetherToken.sol\":11131:11222  UpgradedStandardToken(upgradedAddress).transferFromByLegacy(msg.sender, _from, _to, _value) */\n      mload(0x40)\n      dup6\n      0xffffffff\n      and\n      0x100000000000000000000000000000000000000000000000000000000\n      mul\n      dup2\n      mstore\n      0x4\n      add\n      dup1\n      dup6\n      0xffffffffffffffffffffffffffffffffffffffff\n      and\n      0xffffffffffffffffffffffffffffffffffffffff\n      and\n      dup2\n      mstore\n      0x20\n      add\n      dup5\n      0xffffffffffffffffffffffffffffffffffffffff\n      and\n      0xffffffffffffffffffffffffffffffffffffffff\n      and\n      dup2\n      mstore\n      0x20\n      add\n      dup4\n      0xffffffffffffffffffffffffffffffffffffffff\n      and\n      0xffffffffffffffffffffffffffffffffffffffff\n      and\n      dup2\n      mstore\n      0x20\n      add\n      dup3\n      dup2\n      mstore\n      0x20\n      add\n      swap5\n      pop\n      pop\n      pop\n      pop\n      pop\n      0x0\n      mload(0x40)\n      dup1\n      dup4\n      sub\n      dup2\n      0x0\n      dup8\n      dup1\n      extcodesize\n      iszero\n      iszero\n      tag_166\n      jumpi\n      0x0\n      dup1\n      revert\n    tag_166:\n      sub(gas, 0x2c6)\n      call\n      iszero\n      iszero\n      tag_167\n      jumpi\n      0x0\n      dup1\n      revert\n    tag_167:\n      pop\n      pop\n      pop\n        /* \"contracts/test/TetherToken.sol\":11124:11222  return UpgradedStandardToken(upgradedAddress).transferFromByLegacy(msg.sender, _from, _to, _value) */\n      jump(tag_163)\n        /* \"contracts/test/TetherToken.sol\":11094:11309  if (deprecated) {... */\n    tag_165:\n        /* \"contracts/test/TetherToken.sol\":11260:11298  super.transferFrom(_from, _to, _value) */\n      tag_169\n        /* \"contracts/test/TetherToken.sol\":11279:11284  _from */\n      dup4\n        /* \"contracts/test/TetherToken.sol\":11286:11289  _to */\n      dup4\n        /* \"contracts/test/TetherToken.sol\":11291:11297  _value */\n      dup4\n        /* \"contracts/test/TetherToken.sol\":11260:11278  super.transferFrom */\n      tag_170\n        /* \"contracts/test/TetherToken.sol\":11260:11298  super.transferFrom(_from, _to, _value) */\n      jump\t// in\n    tag_169:\n        /* \"contracts/test/TetherToken.sol\":7531:7532  _ */\n    tag_163:\n        /* \"contracts/test/TetherToken.sol\":10960:11315  function transferFrom(address _from, address _to, uint _value) public whenNotPaused {... */\n      pop\n      pop\n      pop\n      jump\t// out\n        /* \"contracts/test/TetherToken.sol\":9835:9865  address public upgradedAddress */\n    tag_61:\n      0xa\n      0x0\n      swap1\n      sload\n      swap1\n      0x100\n      exp\n      swap1\n      div\n      0xffffffffffffffffffffffffffffffffffffffff\n      and\n      dup2\n      jump\t// out\n        /* \"contracts/test/TetherToken.sol\":2881:2921  mapping(address => uint) public balances */\n    tag_64:\n      mstore(0x20, 0x2)\n      dup1\n      0x0\n      mstore\n      keccak256(0x0, 0x40)\n      0x0\n      swap2\n      pop\n      swap1\n      pop\n      sload\n      dup2\n      jump\t// out\n        /* \"contracts/test/TetherToken.sol\":9809:9829  uint public decimals */\n    tag_67:\n      sload(0x9)\n      dup2\n      jump\t// out\n        /* \"contracts/test/TetherToken.sol\":3043:3069  uint public maximumFee = 0 */\n    tag_70:\n      sload(0x4)\n      dup2\n      jump\t// out\n        /* \"contracts/test/TetherToken.sol\":2008:2032  uint public _totalSupply */\n    tag_73:\n      sload(0x1)\n      dup2\n      jump\t// out\n        /* \"contracts/test/TetherToken.sol\":7935:8022  function unpause() onlyOwner whenPaused public {... */\n    tag_76:\n        /* \"contracts/test/TetherToken.sol\":1511:1516  owner */\n      0x0\n      dup1\n      swap1\n      sload\n      swap1\n      0x100\n      exp\n      swap1\n      div\n      0xffffffffffffffffffffffffffffffffffffffff\n      and\n        /* \"contracts/test/TetherToken.sol\":1497:1516  msg.sender == owner */\n      0xffffffffffffffffffffffffffffffffffffffff\n      and\n        /* \"contracts/test/TetherToken.sol\":1497:1507  msg.sender */\n      caller\n        /* \"contracts/test/TetherToken.sol\":1497:1516  msg.sender == owner */\n      0xffffffffffffffffffffffffffffffffffffffff\n      and\n      eq\n        /* \"contracts/test/TetherToken.sol\":1489:1517  require(msg.sender == owner) */\n      iszero\n      iszero\n      tag_172\n      jumpi\n      0x0\n      dup1\n      revert\n    tag_172:\n        /* \"contracts/test/TetherToken.sol\":7670:7676  paused */\n      0x0\n      0x14\n      swap1\n      sload\n      swap1\n      0x100\n      exp\n      swap1\n      div\n      0xff\n      and\n        /* \"contracts/test/TetherToken.sol\":7662:7677  require(paused) */\n      iszero\n      iszero\n      tag_174\n      jumpi\n      0x0\n      dup1\n      revert\n    tag_174:\n        /* \"contracts/test/TetherToken.sol\":7997:8002  false */\n      0x0\n        /* \"contracts/test/TetherToken.sol\":7988:7994  paused */\n      dup1\n      0x14\n        /* \"contracts/test/TetherToken.sol\":7988:8002  paused = false */\n      0x100\n      exp\n      dup2\n      sload\n      dup2\n      0xff\n      mul\n      not\n      and\n      swap1\n      dup4\n      iszero\n      iszero\n      mul\n      or\n      swap1\n      sstore\n      pop\n        /* \"contracts/test/TetherToken.sol\":8008:8017  Unpause() */\n      0x7805862f689e2f13df9f062ff482ad3ad112aca9e0847911ed832e158c525b33\n      mload(0x40)\n      mload(0x40)\n      dup1\n      swap2\n      sub\n      swap1\n      log1\n        /* \"contracts/test/TetherToken.sol\":7935:8022  function unpause() onlyOwner whenPaused public {... */\n      jump\t// out\n        /* \"contracts/test/TetherToken.sol\":8194:8316  function getBlackListStatus(address _maker) external constant returns (bool) {... */\n    tag_79:\n        /* \"contracts/test/TetherToken.sol\":8265:8269  bool */\n      0x0\n        /* \"contracts/test/TetherToken.sol\":8288:8301  isBlackListed */\n      0x6\n        /* \"contracts/test/TetherToken.sol\":8288:8309  isBlackListed[_maker] */\n      0x0\n        /* \"contracts/test/TetherToken.sol\":8302:8308  _maker */\n      dup4\n        /* \"contracts/test/TetherToken.sol\":8288:8309  isBlackListed[_maker] */\n      0xffffffffffffffffffffffffffffffffffffffff\n      and\n      0xffffffffffffffffffffffffffffffffffffffff\n      and\n      dup2\n      mstore\n      0x20\n      add\n      swap1\n      dup2\n      mstore\n      0x20\n      add\n      0x0\n      keccak256\n      0x0\n      swap1\n      sload\n      swap1\n      0x100\n      exp\n      swap1\n      div\n      0xff\n      and\n        /* \"contracts/test/TetherToken.sol\":8281:8309  return isBlackListed[_maker] */\n      swap1\n      pop\n        /* \"contracts/test/TetherToken.sol\":8194:8316  function getBlackListStatus(address _maker) external constant returns (bool) {... */\n      swap2\n      swap1\n      pop\n      jump\t// out\n        /* \"contracts/test/TetherToken.sol\":4617:4678  mapping (address => mapping (address => uint)) public allowed */\n    tag_82:\n      mstore(0x20, 0x5)\n      dup2\n      0x0\n      mstore\n      mstore(0x20, keccak256(0x0, 0x40))\n      dup1\n      0x0\n      mstore\n      keccak256(0x0, 0x40)\n      0x0\n      swap2\n      pop\n      swap2\n      pop\n      pop\n      sload\n      dup2\n      jump\t// out\n        /* \"contracts/test/TetherToken.sol\":7349:7375  bool public paused = false */\n    tag_85:\n      0x0\n      0x14\n      swap1\n      sload\n      swap1\n      0x100\n      exp\n      swap1\n      div\n      0xff\n      and\n      dup2\n      jump\t// out\n        /* \"contracts/test/TetherToken.sol\":11397:11635  function balanceOf(address who) public constant returns (uint) {... */\n    tag_88:\n        /* \"contracts/test/TetherToken.sol\":11454:11458  uint */\n      0x0\n        /* \"contracts/test/TetherToken.sol\":11474:11484  deprecated */\n      0xa\n      0x14\n      swap1\n      sload\n      swap1\n      0x100\n      exp\n      swap1\n      div\n      0xff\n      and\n        /* \"contracts/test/TetherToken.sol\":11470:11629  if (deprecated) {... */\n      iszero\n      tag_178\n      jumpi\n        /* \"contracts/test/TetherToken.sol\":11529:11544  upgradedAddress */\n      0xa\n      0x0\n      swap1\n      sload\n      swap1\n      0x100\n      exp\n      swap1\n      div\n      0xffffffffffffffffffffffffffffffffffffffff\n      and\n        /* \"contracts/test/TetherToken.sol\":11507:11555  UpgradedStandardToken(upgradedAddress).balanceOf */\n      0xffffffffffffffffffffffffffffffffffffffff\n      and\n      0x70a08231\n        /* \"contracts/test/TetherToken.sol\":11556:11559  who */\n      dup4\n        /* \"contracts/test/TetherToken.sol\":11507:11560  UpgradedStandardToken(upgradedAddress).balanceOf(who) */\n      mstore(add(0x20, mload(0x40)), 0x0)\n      mload(0x40)\n      dup3\n      0xffffffff\n      and\n      0x100000000000000000000000000000000000000000000000000000000\n      mul\n      dup2\n      mstore\n      0x4\n      add\n      dup1\n      dup3\n      0xffffffffffffffffffffffffffffffffffffffff\n      and\n      0xffffffffffffffffffffffffffffffffffffffff\n      and\n      dup2\n      mstore\n      0x20\n      add\n      swap2\n      pop\n      pop\n      0x20\n      mload(0x40)\n      dup1\n      dup4\n      sub\n      dup2\n      0x0\n      dup8\n      dup1\n      extcodesize\n      iszero\n      iszero\n      tag_179\n      jumpi\n      0x0\n      dup1\n      revert\n    tag_179:\n      sub(gas, 0x2c6)\n      call\n      iszero\n      iszero\n      tag_180\n      jumpi\n      0x0\n      dup1\n      revert\n    tag_180:\n      pop\n      pop\n      pop\n      mload(0x40)\n      dup1\n      mload\n      swap1\n      pop\n        /* \"contracts/test/TetherToken.sol\":11500:11560  return UpgradedStandardToken(upgradedAddress).balanceOf(who) */\n      swap1\n      pop\n      jump(tag_177)\n        /* \"contracts/test/TetherToken.sol\":11470:11629  if (deprecated) {... */\n    tag_178:\n        /* \"contracts/test/TetherToken.sol\":11598:11618  super.balanceOf(who) */\n      tag_182\n        /* \"contracts/test/TetherToken.sol\":11614:11617  who */\n      dup3\n        /* \"contracts/test/TetherToken.sol\":11598:11613  super.balanceOf */\n      tag_183\n        /* \"contracts/test/TetherToken.sol\":11598:11618  super.balanceOf(who) */\n      jump\t// in\n    tag_182:\n        /* \"contracts/test/TetherToken.sol\":11591:11618  return super.balanceOf(who) */\n      swap1\n      pop\n        /* \"contracts/test/TetherToken.sol\":11397:11635  function balanceOf(address who) public constant returns (uint) {... */\n    tag_177:\n      swap2\n      swap1\n      pop\n      jump\t// out\n        /* \"contracts/test/TetherToken.sol\":7768:7853  function pause() onlyOwner whenNotPaused public {... */\n    tag_91:\n        /* \"contracts/test/TetherToken.sol\":1511:1516  owner */\n      0x0\n      dup1\n      swap1\n      sload\n      swap1\n      0x100\n      exp\n      swap1\n      div\n      0xffffffffffffffffffffffffffffffffffffffff\n      and\n        /* \"contracts/test/TetherToken.sol\":1497:1516  msg.sender == owner */\n      0xffffffffffffffffffffffffffffffffffffffff\n      and\n        /* \"contracts/test/TetherToken.sol\":1497:1507  msg.sender */\n      caller\n        /* \"contracts/test/TetherToken.sol\":1497:1516  msg.sender == owner */\n      0xffffffffffffffffffffffffffffffffffffffff\n      and\n      eq\n        /* \"contracts/test/TetherToken.sol\":1489:1517  require(msg.sender == owner) */\n      iszero\n      iszero\n      tag_185\n      jumpi\n      0x0\n      dup1\n      revert\n    tag_185:\n        /* \"contracts/test/TetherToken.sol\":7518:7524  paused */\n      0x0\n      0x14\n      swap1\n      sload\n      swap1\n      0x100\n      exp\n      swap1\n      div\n      0xff\n      and\n        /* \"contracts/test/TetherToken.sol\":7517:7524  !paused */\n      iszero\n        /* \"contracts/test/TetherToken.sol\":7509:7525  require(!paused) */\n      iszero\n      iszero\n      tag_187\n      jumpi\n      0x0\n      dup1\n      revert\n    tag_187:\n        /* \"contracts/test/TetherToken.sol\":7831:7835  true */\n      0x1\n        /* \"contracts/test/TetherToken.sol\":7822:7828  paused */\n      0x0\n      0x14\n        /* \"contracts/test/TetherToken.sol\":7822:7835  paused = true */\n      0x100\n      exp\n      dup2\n      sload\n      dup2\n      0xff\n      mul\n      not\n      and\n      swap1\n      dup4\n      iszero\n      iszero\n      mul\n      or\n      swap1\n      sstore\n      pop\n        /* \"contracts/test/TetherToken.sol\":7841:7848  Pause() */\n      0x6985a02210a168e66602d3235cb6db0e70f92b3ba4d376a33c0f3d9434bff625\n      mload(0x40)\n      mload(0x40)\n      dup1\n      swap2\n      sub\n      swap1\n      log1\n        /* \"contracts/test/TetherToken.sol\":7768:7853  function pause() onlyOwner whenNotPaused public {... */\n      jump\t// out\n        /* \"contracts/test/TetherToken.sol\":8322:8407  function getOwner() external constant returns (address) {... */\n    tag_94:\n        /* \"contracts/test/TetherToken.sol\":8369:8376  address */\n      0x0\n        /* \"contracts/test/TetherToken.sol\":8395:8400  owner */\n      dup1\n      0x0\n      swap1\n      sload\n      swap1\n      0x100\n      exp\n      swap1\n      div\n      0xffffffffffffffffffffffffffffffffffffffff\n      and\n        /* \"contracts/test/TetherToken.sol\":8388:8400  return owner */\n      swap1\n      pop\n        /* \"contracts/test/TetherToken.sol\":8322:8407  function getOwner() external constant returns (address) {... */\n      swap1\n      jump\t// out\n        /* \"contracts/test/TetherToken.sol\":1153:1173  address public owner */\n    tag_97:\n      0x0\n      dup1\n      swap1\n      sload\n      swap1\n      0x100\n      exp\n      swap1\n      div\n      0xffffffffffffffffffffffffffffffffffffffff\n      and\n      dup2\n      jump\t// out\n        /* \"contracts/test/TetherToken.sol\":9783:9803  string public symbol */\n    tag_100:\n      0x8\n      dup1\n      sload\n      0x1\n      dup2\n      0x1\n      and\n      iszero\n      0x100\n      mul\n      sub\n      and\n      0x2\n      swap1\n      div\n      dup1\n      0x1f\n      add\n      0x20\n      dup1\n      swap2\n      div\n      mul\n      0x20\n      add\n      mload(0x40)\n      swap1\n      dup2\n      add\n      0x40\n      mstore\n      dup1\n      swap3\n      swap2\n      swap1\n      dup2\n      dup2\n      mstore\n      0x20\n      add\n      dup3\n      dup1\n      sload\n      0x1\n      dup2\n      0x1\n      and\n      iszero\n      0x100\n      mul\n      sub\n      and\n      0x2\n      swap1\n      div\n      dup1\n      iszero\n      tag_190\n      jumpi\n      dup1\n      0x1f\n      lt\n      tag_191\n      jumpi\n      0x100\n      dup1\n      dup4\n      sload\n      div\n      mul\n      dup4\n      mstore\n      swap2\n      0x20\n      add\n      swap2\n      jump(tag_190)\n    tag_191:\n      dup3\n      add\n      swap2\n      swap1\n      0x0\n      mstore\n      keccak256(0x0, 0x20)\n      swap1\n    tag_192:\n      dup2\n      sload\n      dup2\n      mstore\n      swap1\n      0x1\n      add\n      swap1\n      0x20\n      add\n      dup1\n      dup4\n      gt\n      tag_192\n      jumpi\n      dup3\n      swap1\n      sub\n      0x1f\n      and\n      dup3\n      add\n      swap2\n    tag_190:\n      pop\n      pop\n      pop\n      pop\n      pop\n      dup2\n      jump\t// out\n        /* \"contracts/test/TetherToken.sol\":10559:10878  function transfer(address _to, uint _value) public whenNotPaused {... */\n    tag_107:\n        /* \"contracts/test/TetherToken.sol\":7518:7524  paused */\n      0x0\n      0x14\n      swap1\n      sload\n      swap1\n      0x100\n      exp\n      swap1\n      div\n      0xff\n      and\n        /* \"contracts/test/TetherToken.sol\":7517:7524  !paused */\n      iszero\n        /* \"contracts/test/TetherToken.sol\":7509:7525  require(!paused) */\n      iszero\n      iszero\n      tag_194\n      jumpi\n      0x0\n      dup1\n      revert\n    tag_194:\n        /* \"contracts/test/TetherToken.sol\":10643:10656  isBlackListed */\n      0x6\n        /* \"contracts/test/TetherToken.sol\":10643:10668  isBlackListed[msg.sender] */\n      0x0\n        /* \"contracts/test/TetherToken.sol\":10657:10667  msg.sender */\n      caller\n        /* \"contracts/test/TetherToken.sol\":10643:10668  isBlackListed[msg.sender] */\n      0xffffffffffffffffffffffffffffffffffffffff\n      and\n      0xffffffffffffffffffffffffffffffffffffffff\n      and\n      dup2\n      mstore\n      0x20\n      add\n      swap1\n      dup2\n      mstore\n      0x20\n      add\n      0x0\n      keccak256\n      0x0\n      swap1\n      sload\n      swap1\n      0x100\n      exp\n      swap1\n      div\n      0xff\n      and\n        /* \"contracts/test/TetherToken.sol\":10642:10668  !isBlackListed[msg.sender] */\n      iszero\n        /* \"contracts/test/TetherToken.sol\":10634:10669  require(!isBlackListed[msg.sender]) */\n      iszero\n      iszero\n      tag_196\n      jumpi\n      0x0\n      dup1\n      revert\n    tag_196:\n        /* \"contracts/test/TetherToken.sol\":10683:10693  deprecated */\n      0xa\n      0x14\n      swap1\n      sload\n      swap1\n      0x100\n      exp\n      swap1\n      div\n      0xff\n      and\n        /* \"contracts/test/TetherToken.sol\":10679:10872  if (deprecated) {... */\n      iszero\n      tag_197\n      jumpi\n        /* \"contracts/test/TetherToken.sol\":10738:10753  upgradedAddress */\n      0xa\n      0x0\n      swap1\n      sload\n      swap1\n      0x100\n      exp\n      swap1\n      div\n      0xffffffffffffffffffffffffffffffffffffffff\n      and\n        /* \"contracts/test/TetherToken.sol\":10716:10771  UpgradedStandardToken(upgradedAddress).transferByLegacy */\n      0xffffffffffffffffffffffffffffffffffffffff\n      and\n      0x6e18980a\n        /* \"contracts/test/TetherToken.sol\":10772:10782  msg.sender */\n      caller\n        /* \"contracts/test/TetherToken.sol\":10784:10787  _to */\n      dup5\n        /* \"contracts/test/TetherToken.sol\":10789:10795  _value */\n      dup5\n        /* \"contracts/test/TetherToken.sol\":10716:10796  UpgradedStandardToken(upgradedAddress).transferByLegacy(msg.sender, _to, _value) */\n      mload(0x40)\n      dup5\n      0xffffffff\n      and\n      0x100000000000000000000000000000000000000000000000000000000\n      mul\n      dup2\n      mstore\n      0x4\n      add\n      dup1\n      dup5\n      0xffffffffffffffffffffffffffffffffffffffff\n      and\n      0xffffffffffffffffffffffffffffffffffffffff\n      and\n      dup2\n      mstore\n      0x20\n      add\n      dup4\n      0xffffffffffffffffffffffffffffffffffffffff\n      and\n      0xffffffffffffffffffffffffffffffffffffffff\n      and\n      dup2\n      mstore\n      0x20\n      add\n      dup3\n      dup2\n      mstore\n      0x20\n      add\n      swap4\n      pop\n      pop\n      pop\n      pop\n      0x0\n      mload(0x40)\n      dup1\n      dup4\n      sub\n      dup2\n      0x0\n      dup8\n      dup1\n      extcodesize\n      iszero\n      iszero\n      tag_198\n      jumpi\n      0x0\n      dup1\n      revert\n    tag_198:\n      sub(gas, 0x2c6)\n      call\n      iszero\n      iszero\n      tag_199\n      jumpi\n      0x0\n      dup1\n      revert\n    tag_199:\n      pop\n      pop\n      pop\n        /* \"contracts/test/TetherToken.sol\":10709:10796  return UpgradedStandardToken(upgradedAddress).transferByLegacy(msg.sender, _to, _value) */\n      jump(tag_195)\n        /* \"contracts/test/TetherToken.sol\":10679:10872  if (deprecated) {... */\n    tag_197:\n        /* \"contracts/test/TetherToken.sol\":10834:10861  super.transfer(_to, _value) */\n      tag_201\n        /* \"contracts/test/TetherToken.sol\":10849:10852  _to */\n      dup3\n        /* \"contracts/test/TetherToken.sol\":10854:10860  _value */\n      dup3\n        /* \"contracts/test/TetherToken.sol\":10834:10848  super.transfer */\n      tag_202\n        /* \"contracts/test/TetherToken.sol\":10834:10861  super.transfer(_to, _value) */\n      jump\t// in\n    tag_201:\n        /* \"contracts/test/TetherToken.sol\":7531:7532  _ */\n    tag_195:\n        /* \"contracts/test/TetherToken.sol\":10559:10878  function transfer(address _to, uint _value) public whenNotPaused {... */\n      pop\n      pop\n      jump\t// out\n        /* \"contracts/test/TetherToken.sol\":13774:14152  function setParams(uint newBasisPoints, uint newMaxFee) public onlyOwner {... */\n    tag_110:\n        /* \"contracts/test/TetherToken.sol\":1511:1516  owner */\n      0x0\n      dup1\n      swap1\n      sload\n      swap1\n      0x100\n      exp\n      swap1\n      div\n      0xffffffffffffffffffffffffffffffffffffffff\n      and\n        /* \"contracts/test/TetherToken.sol\":1497:1516  msg.sender == owner */\n      0xffffffffffffffffffffffffffffffffffffffff\n      and\n        /* \"contracts/test/TetherToken.sol\":1497:1507  msg.sender */\n      caller\n        /* \"contracts/test/TetherToken.sol\":1497:1516  msg.sender == owner */\n      0xffffffffffffffffffffffffffffffffffffffff\n      and\n      eq\n        /* \"contracts/test/TetherToken.sol\":1489:1517  require(msg.sender == owner) */\n      iszero\n      iszero\n      tag_204\n      jumpi\n      0x0\n      dup1\n      revert\n    tag_204:\n        /* \"contracts/test/TetherToken.sol\":13970:13972  20 */\n      0x14\n        /* \"contracts/test/TetherToken.sol\":13953:13967  newBasisPoints */\n      dup3\n        /* \"contracts/test/TetherToken.sol\":13953:13972  newBasisPoints < 20 */\n      lt\n        /* \"contracts/test/TetherToken.sol\":13945:13973  require(newBasisPoints < 20) */\n      iszero\n      iszero\n      tag_206\n      jumpi\n      0x0\n      dup1\n      revert\n    tag_206:\n        /* \"contracts/test/TetherToken.sol\":14003:14005  50 */\n      0x32\n        /* \"contracts/test/TetherToken.sol\":13991:14000  newMaxFee */\n      dup2\n        /* \"contracts/test/TetherToken.sol\":13991:14005  newMaxFee < 50 */\n      lt\n        /* \"contracts/test/TetherToken.sol\":13983:14006  require(newMaxFee < 50) */\n      iszero\n      iszero\n      tag_207\n      jumpi\n      0x0\n      dup1\n      revert\n    tag_207:\n        /* \"contracts/test/TetherToken.sol\":14035:14049  newBasisPoints */\n      dup2\n        /* \"contracts/test/TetherToken.sol\":14017:14032  basisPointsRate */\n      0x3\n        /* \"contracts/test/TetherToken.sol\":14017:14049  basisPointsRate = newBasisPoints */\n      dup2\n      swap1\n      sstore\n      pop\n        /* \"contracts/test/TetherToken.sol\":14072:14099  newMaxFee.mul(10**decimals) */\n      tag_208\n        /* \"contracts/test/TetherToken.sol\":14090:14098  decimals */\n      sload(0x9)\n        /* \"contracts/test/TetherToken.sol\":14086:14088  10 */\n      0xa\n        /* \"contracts/test/TetherToken.sol\":14086:14098  10**decimals */\n      exp\n        /* \"contracts/test/TetherToken.sol\":14072:14081  newMaxFee */\n      dup3\n        /* \"contracts/test/TetherToken.sol\":14072:14085  newMaxFee.mul */\n      tag_209\n      swap1\n        /* \"contracts/test/TetherToken.sol\":14072:14099  newMaxFee.mul(10**decimals) */\n      swap2\n      swap1\n      0xffffffff\n      and\n      jump\t// in\n    tag_208:\n        /* \"contracts/test/TetherToken.sol\":14059:14069  maximumFee */\n      0x4\n        /* \"contracts/test/TetherToken.sol\":14059:14099  maximumFee = newMaxFee.mul(10**decimals) */\n      dup2\n      swap1\n      sstore\n      pop\n        /* \"contracts/test/TetherToken.sol\":14110:14145  Params(basisPointsRate, maximumFee) */\n      0xb044a1e409eac5c48e5af22d4af52670dd1a99059537a78b31b48c6500a6354e\n        /* \"contracts/test/TetherToken.sol\":14117:14132  basisPointsRate */\n      sload(0x3)\n        /* \"contracts/test/TetherToken.sol\":14134:14144  maximumFee */\n      sload(0x4)\n        /* \"contracts/test/TetherToken.sol\":14110:14145  Params(basisPointsRate, maximumFee) */\n      mload(0x40)\n      dup1\n      dup4\n      dup2\n      mstore\n      0x20\n      add\n      dup3\n      dup2\n      mstore\n      0x20\n      add\n      swap3\n      pop\n      pop\n      pop\n      mload(0x40)\n      dup1\n      swap2\n      sub\n      swap1\n      log1\n        /* \"contracts/test/TetherToken.sol\":13774:14152  function setParams(uint newBasisPoints, uint newMaxFee) public onlyOwner {... */\n      pop\n      pop\n      jump\t// out\n        /* \"contracts/test/TetherToken.sol\":13055:13314  function issue(uint amount) public onlyOwner {... */\n    tag_113:\n        /* \"contracts/test/TetherToken.sol\":1511:1516  owner */\n      0x0\n      dup1\n      swap1\n      sload\n      swap1\n      0x100\n      exp\n      swap1\n      div\n      0xffffffffffffffffffffffffffffffffffffffff\n      and\n        /* \"contracts/test/TetherToken.sol\":1497:1516  msg.sender == owner */\n      0xffffffffffffffffffffffffffffffffffffffff\n      and\n        /* \"contracts/test/TetherToken.sol\":1497:1507  msg.sender */\n      caller\n        /* \"contracts/test/TetherToken.sol\":1497:1516  msg.sender == owner */\n      0xffffffffffffffffffffffffffffffffffffffff\n      and\n      eq\n        /* \"contracts/test/TetherToken.sol\":1489:1517  require(msg.sender == owner) */\n      iszero\n      iszero\n      tag_211\n      jumpi\n      0x0\n      dup1\n      revert\n    tag_211:\n        /* \"contracts/test/TetherToken.sol\":13142:13154  _totalSupply */\n      sload(0x1)\n        /* \"contracts/test/TetherToken.sol\":13133:13139  amount */\n      dup2\n        /* \"contracts/test/TetherToken.sol\":13118:13130  _totalSupply */\n      sload(0x1)\n        /* \"contracts/test/TetherToken.sol\":13118:13139  _totalSupply + amount */\n      add\n        /* \"contracts/test/TetherToken.sol\":13118:13154  _totalSupply + amount > _totalSupply */\n      gt\n        /* \"contracts/test/TetherToken.sol\":13110:13155  require(_totalSupply + amount > _totalSupply) */\n      iszero\n      iszero\n      tag_213\n      jumpi\n      0x0\n      dup1\n      revert\n    tag_213:\n        /* \"contracts/test/TetherToken.sol\":13200:13208  balances */\n      0x2\n        /* \"contracts/test/TetherToken.sol\":13200:13215  balances[owner] */\n      0x0\n        /* \"contracts/test/TetherToken.sol\":13209:13214  owner */\n      dup1\n      0x0\n      swap1\n      sload\n      swap1\n      0x100\n      exp\n      swap1\n      div\n      0xffffffffffffffffffffffffffffffffffffffff\n      and\n        /* \"contracts/test/TetherToken.sol\":13200:13215  balances[owner] */\n      0xffffffffffffffffffffffffffffffffffffffff\n      and\n      0xffffffffffffffffffffffffffffffffffffffff\n      and\n      dup2\n      mstore\n      0x20\n      add\n      swap1\n      dup2\n      mstore\n      0x20\n      add\n      0x0\n      keccak256\n      sload\n        /* \"contracts/test/TetherToken.sol\":13191:13197  amount */\n      dup2\n        /* \"contracts/test/TetherToken.sol\":13173:13181  balances */\n      0x2\n        /* \"contracts/test/TetherToken.sol\":13173:13188  balances[owner] */\n      0x0\n        /* \"contracts/test/TetherToken.sol\":13182:13187  owner */\n      dup1\n      0x0\n      swap1\n      sload\n      swap1\n      0x100\n      exp\n      swap1\n      div\n      0xffffffffffffffffffffffffffffffffffffffff\n      and\n        /* \"contracts/test/TetherToken.sol\":13173:13188  balances[owner] */\n      0xffffffffffffffffffffffffffffffffffffffff\n      and\n      0xffffffffffffffffffffffffffffffffffffffff\n      and\n      dup2\n      mstore\n      0x20\n      add\n      swap1\n      dup2\n      mstore\n      0x20\n      add\n      0x0\n      keccak256\n      sload\n        /* \"contracts/test/TetherToken.sol\":13173:13197  balances[owner] + amount */\n      add\n        /* \"contracts/test/TetherToken.sol\":13173:13215  balances[owner] + amount > balances[owner] */\n      gt\n        /* \"contracts/test/TetherToken.sol\":13165:13216  require(balances[owner] + amount > balances[owner]) */\n      iszero\n      iszero\n      tag_214\n      jumpi\n      0x0\n      dup1\n      revert\n    tag_214:\n        /* \"contracts/test/TetherToken.sol\":13246:13252  amount */\n      dup1\n        /* \"contracts/test/TetherToken.sol\":13227:13235  balances */\n      0x2\n        /* \"contracts/test/TetherToken.sol\":13227:13242  balances[owner] */\n      0x0\n        /* \"contracts/test/TetherToken.sol\":13236:13241  owner */\n      dup1\n      0x0\n      swap1\n      sload\n      swap1\n      0x100\n      exp\n      swap1\n      div\n      0xffffffffffffffffffffffffffffffffffffffff\n      and\n        /* \"contracts/test/TetherToken.sol\":13227:13242  balances[owner] */\n      0xffffffffffffffffffffffffffffffffffffffff\n      and\n      0xffffffffffffffffffffffffffffffffffffffff\n      and\n      dup2\n      mstore\n      0x20\n      add\n      swap1\n      dup2\n      mstore\n      0x20\n      add\n      0x0\n      keccak256\n      0x0\n        /* \"contracts/test/TetherToken.sol\":13227:13252  balances[owner] += amount */\n      dup3\n      dup3\n      sload\n      add\n      swap3\n      pop\n      pop\n      dup2\n      swap1\n      sstore\n      pop\n        /* \"contracts/test/TetherToken.sol\":13278:13284  amount */\n      dup1\n        /* \"contracts/test/TetherToken.sol\":13262:13274  _totalSupply */\n      0x1\n      0x0\n        /* \"contracts/test/TetherToken.sol\":13262:13284  _totalSupply += amount */\n      dup3\n      dup3\n      sload\n      add\n      swap3\n      pop\n      pop\n      dup2\n      swap1\n      sstore\n      pop\n        /* \"contracts/test/TetherToken.sol\":13294:13307  Issue(amount) */\n      0xcb8241adb0c3fdb35b70c24ce35c5eb0c17af7431c99f827d44a445ca624176a\n        /* \"contracts/test/TetherToken.sol\":13300:13306  amount */\n      dup2\n        /* \"contracts/test/TetherToken.sol\":13294:13307  Issue(amount) */\n      mload(0x40)\n      dup1\n      dup3\n      dup2\n      mstore\n      0x20\n      add\n      swap2\n      pop\n      pop\n      mload(0x40)\n      dup1\n      swap2\n      sub\n      swap1\n      log1\n        /* \"contracts/test/TetherToken.sol\":13055:13314  function issue(uint amount) public onlyOwner {... */\n      pop\n      jump\t// out\n        /* \"contracts/test/TetherToken.sol\":13538:13768  function redeem(uint amount) public onlyOwner {... */\n    tag_116:\n        /* \"contracts/test/TetherToken.sol\":1511:1516  owner */\n      0x0\n      dup1\n      swap1\n      sload\n      swap1\n      0x100\n      exp\n      swap1\n      div\n      0xffffffffffffffffffffffffffffffffffffffff\n      and\n        /* \"contracts/test/TetherToken.sol\":1497:1516  msg.sender == owner */\n      0xffffffffffffffffffffffffffffffffffffffff\n      and\n        /* \"contracts/test/TetherToken.sol\":1497:1507  msg.sender */\n      caller\n        /* \"contracts/test/TetherToken.sol\":1497:1516  msg.sender == owner */\n      0xffffffffffffffffffffffffffffffffffffffff\n      and\n      eq\n        /* \"contracts/test/TetherToken.sol\":1489:1517  require(msg.sender == owner) */\n      iszero\n      iszero\n      tag_216\n      jumpi\n      0x0\n      dup1\n      revert\n    tag_216:\n        /* \"contracts/test/TetherToken.sol\":13618:13624  amount */\n      dup1\n        /* \"contracts/test/TetherToken.sol\":13602:13614  _totalSupply */\n      sload(0x1)\n        /* \"contracts/test/TetherToken.sol\":13602:13624  _totalSupply >= amount */\n      lt\n      iszero\n        /* \"contracts/test/TetherToken.sol\":13594:13625  require(_totalSupply >= amount) */\n      iszero\n      iszero\n      tag_218\n      jumpi\n      0x0\n      dup1\n      revert\n    tag_218:\n        /* \"contracts/test/TetherToken.sol\":13662:13668  amount */\n      dup1\n        /* \"contracts/test/TetherToken.sol\":13643:13651  balances */\n      0x2\n        /* \"contracts/test/TetherToken.sol\":13643:13658  balances[owner] */\n      0x0\n        /* \"contracts/test/TetherToken.sol\":13652:13657  owner */\n      dup1\n      0x0\n      swap1\n      sload\n      swap1\n      0x100\n      exp\n      swap1\n      div\n      0xffffffffffffffffffffffffffffffffffffffff\n      and\n        /* \"contracts/test/TetherToken.sol\":13643:13658  balances[owner] */\n      0xffffffffffffffffffffffffffffffffffffffff\n      and\n      0xffffffffffffffffffffffffffffffffffffffff\n      and\n      dup2\n      mstore\n      0x20\n      add\n      swap1\n      dup2\n      mstore\n      0x20\n      add\n      0x0\n      keccak256\n      sload\n        /* \"contracts/test/TetherToken.sol\":13643:13668  balances[owner] >= amount */\n      lt\n      iszero\n        /* \"contracts/test/TetherToken.sol\":13635:13669  require(balances[owner] >= amount) */\n      iszero\n      iszero\n      tag_219\n      jumpi\n      0x0\n      dup1\n      revert\n    tag_219:\n        /* \"contracts/test/TetherToken.sol\":13696:13702  amount */\n      dup1\n        /* \"contracts/test/TetherToken.sol\":13680:13692  _totalSupply */\n      0x1\n      0x0\n        /* \"contracts/test/TetherToken.sol\":13680:13702  _totalSupply -= amount */\n      dup3\n      dup3\n      sload\n      sub\n      swap3\n      pop\n      pop\n      dup2\n      swap1\n      sstore\n      pop\n        /* \"contracts/test/TetherToken.sol\":13731:13737  amount */\n      dup1\n        /* \"contracts/test/TetherToken.sol\":13712:13720  balances */\n      0x2\n        /* \"contracts/test/TetherToken.sol\":13712:13727  balances[owner] */\n      0x0\n        /* \"contracts/test/TetherToken.sol\":13721:13726  owner */\n      dup1\n      0x0\n      swap1\n      sload\n      swap1\n      0x100\n      exp\n      swap1\n      div\n      0xffffffffffffffffffffffffffffffffffffffff\n      and\n        /* \"contracts/test/TetherToken.sol\":13712:13727  balances[owner] */\n      0xffffffffffffffffffffffffffffffffffffffff\n      and\n      0xffffffffffffffffffffffffffffffffffffffff\n      and\n      dup2\n      mstore\n      0x20\n      add\n      swap1\n      dup2\n      mstore\n      0x20\n      add\n      0x0\n      keccak256\n      0x0\n        /* \"contracts/test/TetherToken.sol\":13712:13737  balances[owner] -= amount */\n      dup3\n      dup3\n      sload\n      sub\n      swap3\n      pop\n      pop\n      dup2\n      swap1\n      sstore\n      pop\n        /* \"contracts/test/TetherToken.sol\":13747:13761  Redeem(amount) */\n      0x702d5967f45f6513a38ffc42d6ba9bf230bd40e8f53b16363c7eb4fd2deb9a44\n        /* \"contracts/test/TetherToken.sol\":13754:13760  amount */\n      dup2\n        /* \"contracts/test/TetherToken.sol\":13747:13761  Redeem(amount) */\n      mload(0x40)\n      dup1\n      dup3\n      dup2\n      mstore\n      0x20\n      add\n      swap2\n      pop\n      pop\n      mload(0x40)\n      dup1\n      swap2\n      sub\n      swap1\n      log1\n        /* \"contracts/test/TetherToken.sol\":13538:13768  function redeem(uint amount) public onlyOwner {... */\n      pop\n      jump\t// out\n        /* \"contracts/test/TetherToken.sol\":12095:12382  function allowance(address _owner, address _spender) public constant returns (uint remaining) {... */\n    tag_119:\n        /* \"contracts/test/TetherToken.sol\":12173:12187  uint remaining */\n      0x0\n        /* \"contracts/test/TetherToken.sol\":12203:12213  deprecated */\n      0xa\n      0x14\n      swap1\n      sload\n      swap1\n      0x100\n      exp\n      swap1\n      div\n      0xff\n      and\n        /* \"contracts/test/TetherToken.sol\":12199:12376  if (deprecated) {... */\n      iszero\n      tag_221\n      jumpi\n        /* \"contracts/test/TetherToken.sol\":12250:12265  upgradedAddress */\n      0xa\n      0x0\n      swap1\n      sload\n      swap1\n      0x100\n      exp\n      swap1\n      div\n      0xffffffffffffffffffffffffffffffffffffffff\n      and\n        /* \"contracts/test/TetherToken.sol\":12236:12276  StandardToken(upgradedAddress).allowance */\n      0xffffffffffffffffffffffffffffffffffffffff\n      and\n      0xdd62ed3e\n        /* \"contracts/test/TetherToken.sol\":12277:12283  _owner */\n      dup5\n        /* \"contracts/test/TetherToken.sol\":12285:12293  _spender */\n      dup5\n        /* \"contracts/test/TetherToken.sol\":12236:12294  StandardToken(upgradedAddress).allowance(_owner, _spender) */\n      mstore(add(0x20, mload(0x40)), 0x0)\n      mload(0x40)\n      dup4\n      0xffffffff\n      and\n      0x100000000000000000000000000000000000000000000000000000000\n      mul\n      dup2\n      mstore\n      0x4\n      add\n      dup1\n      dup4\n      0xffffffffffffffffffffffffffffffffffffffff\n      and\n      0xffffffffffffffffffffffffffffffffffffffff\n      and\n      dup2\n      mstore\n      0x20\n      add\n      dup3\n      0xffffffffffffffffffffffffffffffffffffffff\n      and\n      0xffffffffffffffffffffffffffffffffffffffff\n      and\n      dup2\n      mstore\n      0x20\n      add\n      swap3\n      pop\n      pop\n      pop\n      0x20\n      mload(0x40)\n      dup1\n      dup4\n      sub\n      dup2\n      0x0\n      dup8\n      dup1\n      extcodesize\n      iszero\n      iszero\n      tag_222\n      jumpi\n      0x0\n      dup1\n      revert\n    tag_222:\n      sub(gas, 0x2c6)\n      call\n      iszero\n      iszero\n      tag_223\n      jumpi\n      0x0\n      dup1\n      revert\n    tag_223:\n      pop\n      pop\n      pop\n      mload(0x40)\n      dup1\n      mload\n      swap1\n      pop\n        /* \"contracts/test/TetherToken.sol\":12229:12294  return StandardToken(upgradedAddress).allowance(_owner, _spender) */\n      swap1\n      pop\n      jump(tag_220)\n        /* \"contracts/test/TetherToken.sol\":12199:12376  if (deprecated) {... */\n    tag_221:\n        /* \"contracts/test/TetherToken.sol\":12332:12365  super.allowance(_owner, _spender) */\n      tag_225\n        /* \"contracts/test/TetherToken.sol\":12348:12354  _owner */\n      dup4\n        /* \"contracts/test/TetherToken.sol\":12356:12364  _spender */\n      dup4\n        /* \"contracts/test/TetherToken.sol\":12332:12347  super.allowance */\n      tag_226\n        /* \"contracts/test/TetherToken.sol\":12332:12365  super.allowance(_owner, _spender) */\n      jump\t// in\n    tag_225:\n        /* \"contracts/test/TetherToken.sol\":12325:12365  return super.allowance(_owner, _spender) */\n      swap1\n      pop\n        /* \"contracts/test/TetherToken.sol\":12095:12382  function allowance(address _owner, address _spender) public constant returns (uint remaining) {... */\n    tag_220:\n      swap3\n      swap2\n      pop\n      pop\n      jump\t// out\n        /* \"contracts/test/TetherToken.sol\":3006:3037  uint public basisPointsRate = 0 */\n    tag_122:\n      sload(0x3)\n      dup2\n      jump\t// out\n        /* \"contracts/test/TetherToken.sol\":8413:8459  mapping (address => bool) public isBlackListed */\n    tag_125:\n      mstore(0x20, 0x6)\n      dup1\n      0x0\n      mstore\n      keccak256(0x0, 0x40)\n      0x0\n      swap2\n      pop\n      sload\n      swap1\n      0x100\n      exp\n      swap1\n      div\n      0xff\n      and\n      dup2\n      jump\t// out\n        /* \"contracts/test/TetherToken.sol\":8618:8775  function removeBlackList (address _clearedUser) public onlyOwner {... */\n    tag_128:\n        /* \"contracts/test/TetherToken.sol\":1511:1516  owner */\n      0x0\n      dup1\n      swap1\n      sload\n      swap1\n      0x100\n      exp\n      swap1\n      div\n      0xffffffffffffffffffffffffffffffffffffffff\n      and\n        /* \"contracts/test/TetherToken.sol\":1497:1516  msg.sender == owner */\n      0xffffffffffffffffffffffffffffffffffffffff\n      and\n        /* \"contracts/test/TetherToken.sol\":1497:1507  msg.sender */\n      caller\n        /* \"contracts/test/TetherToken.sol\":1497:1516  msg.sender == owner */\n      0xffffffffffffffffffffffffffffffffffffffff\n      and\n      eq\n        /* \"contracts/test/TetherToken.sol\":1489:1517  require(msg.sender == owner) */\n      iszero\n      iszero\n      tag_228\n      jumpi\n      0x0\n      dup1\n      revert\n    tag_228:\n        /* \"contracts/test/TetherToken.sol\":8723:8728  false */\n      0x0\n        /* \"contracts/test/TetherToken.sol\":8693:8706  isBlackListed */\n      0x6\n        /* \"contracts/test/TetherToken.sol\":8693:8720  isBlackListed[_clearedUser] */\n      0x0\n        /* \"contracts/test/TetherToken.sol\":8707:8719  _clearedUser */\n      dup4\n        /* \"contracts/test/TetherToken.sol\":8693:8720  isBlackListed[_clearedUser] */\n      0xffffffffffffffffffffffffffffffffffffffff\n      and\n      0xffffffffffffffffffffffffffffffffffffffff\n      and\n      dup2\n      mstore\n      0x20\n      add\n      swap1\n      dup2\n      mstore\n      0x20\n      add\n      0x0\n      keccak256\n      0x0\n        /* \"contracts/test/TetherToken.sol\":8693:8728  isBlackListed[_clearedUser] = false */\n      0x100\n      exp\n      dup2\n      sload\n      dup2\n      0xff\n      mul\n      not\n      and\n      swap1\n      dup4\n      iszero\n      iszero\n      mul\n      or\n      swap1\n      sstore\n      pop\n        /* \"contracts/test/TetherToken.sol\":8738:8768  RemovedBlackList(_clearedUser) */\n      0xd7e9ec6e6ecd65492dce6bf513cd6867560d49544421d0783ddf06e76c24470c\n        /* \"contracts/test/TetherToken.sol\":8755:8767  _clearedUser */\n      dup2\n        /* \"contracts/test/TetherToken.sol\":8738:8768  RemovedBlackList(_clearedUser) */\n      mload(0x40)\n      dup1\n      dup3\n      0xffffffffffffffffffffffffffffffffffffffff\n      and\n      0xffffffffffffffffffffffffffffffffffffffff\n      and\n      dup2\n      mstore\n      0x20\n      add\n      swap2\n      pop\n      pop\n      mload(0x40)\n      dup1\n      swap2\n      sub\n      swap1\n      log1\n        /* \"contracts/test/TetherToken.sol\":8618:8775  function removeBlackList (address _clearedUser) public onlyOwner {... */\n      pop\n      jump\t// out\n        /* \"contracts/test/TetherToken.sol\":4685:4727  uint public constant MAX_UINT = 2**256 - 1 */\n    tag_131:\n        /* \"contracts/test/TetherToken.sol\":4717:4727  2**256 - 1 */\n      0xffffffffffffffffffffffffffffffffffffffffffffffffffffffffffffffff\n        /* \"contracts/test/TetherToken.sol\":4685:4727  uint public constant MAX_UINT = 2**256 - 1 */\n      dup2\n      jump\t// out\n        /* \"contracts/test/TetherToken.sol\":1703:1850  function transferOwnership(address newOwner) public onlyOwner {... */\n    tag_134:\n        /* \"contracts/test/TetherToken.sol\":1511:1516  owner */\n      0x0\n      dup1\n      swap1\n      sload\n      swap1\n      0x100\n      exp\n      swap1\n      div\n      0xffffffffffffffffffffffffffffffffffffffff\n      and\n        /* \"contracts/test/TetherToken.sol\":1497:1516  msg.sender == owner */\n      0xffffffffffffffffffffffffffffffffffffffff\n      and\n        /* \"contracts/test/TetherToken.sol\":1497:1507  msg.sender */\n      caller\n        /* \"contracts/test/TetherToken.sol\":1497:1516  msg.sender == owner */\n      0xffffffffffffffffffffffffffffffffffffffff\n      and\n      eq\n        /* \"contracts/test/TetherToken.sol\":1489:1517  require(msg.sender == owner) */\n      iszero\n      iszero\n      tag_231\n      jumpi\n      0x0\n      dup1\n      revert\n    tag_231:\n        /* \"contracts/test/TetherToken.sol\":1799:1800  0 */\n      0x0\n        /* \"contracts/test/TetherToken.sol\":1779:1801  newOwner != address(0) */\n      0xffffffffffffffffffffffffffffffffffffffff\n      and\n        /* \"contracts/test/TetherToken.sol\":1779:1787  newOwner */\n      dup2\n        /* \"contracts/test/TetherToken.sol\":1779:1801  newOwner != address(0) */\n      0xffffffffffffffffffffffffffffffffffffffff\n      and\n      eq\n      iszero\n        /* \"contracts/test/TetherToken.sol\":1775:1844  if (newOwner != address(0)) {... */\n      iszero\n      tag_233\n      jumpi\n        /* \"contracts/test/TetherToken.sol\":1825:1833  newOwner */\n      dup1\n        /* \"contracts/test/TetherToken.sol\":1817:1822  owner */\n      0x0\n      dup1\n        /* \"contracts/test/TetherToken.sol\":1817:1833  owner = newOwner */\n      0x100\n      exp\n      dup2\n      sload\n      dup2\n      0xffffffffffffffffffffffffffffffffffffffff\n      mul\n      not\n      and\n      swap1\n      dup4\n      0xffffffffffffffffffffffffffffffffffffffff\n      and\n      mul\n      or\n      swap1\n      sstore\n      pop\n        /* \"contracts/test/TetherToken.sol\":1775:1844  if (newOwner != address(0)) {... */\n    tag_233:\n        /* \"contracts/test/TetherToken.sol\":1703:1850  function transferOwnership(address newOwner) public onlyOwner {... */\n      pop\n      jump\t// out\n        /* \"contracts/test/TetherToken.sol\":8781:9099  function destroyBlackFunds (address _blackListedUser) public onlyOwner {... */\n    tag_137:\n        /* \"contracts/test/TetherToken.sol\":8912:8927  uint dirtyFunds */\n      0x0\n        /* \"contracts/test/TetherToken.sol\":1511:1516  owner */\n      dup1\n      0x0\n      swap1\n      sload\n      swap1\n      0x100\n      exp\n      swap1\n      div\n      0xffffffffffffffffffffffffffffffffffffffff\n      and\n        /* \"contracts/test/TetherToken.sol\":1497:1516  msg.sender == owner */\n      0xffffffffffffffffffffffffffffffffffffffff\n      and\n        /* \"contracts/test/TetherToken.sol\":1497:1507  msg.sender */\n      caller\n        /* \"contracts/test/TetherToken.sol\":1497:1516  msg.sender == owner */\n      0xffffffffffffffffffffffffffffffffffffffff\n      and\n      eq\n        /* \"contracts/test/TetherToken.sol\":1489:1517  require(msg.sender == owner) */\n      iszero\n      iszero\n      tag_235\n      jumpi\n      0x0\n      dup1\n      revert\n    tag_235:\n        /* \"contracts/test/TetherToken.sol\":8870:8883  isBlackListed */\n      0x6\n        /* \"contracts/test/TetherToken.sol\":8870:8901  isBlackListed[_blackListedUser] */\n      0x0\n        /* \"contracts/test/TetherToken.sol\":8884:8900  _blackListedUser */\n      dup4\n        /* \"contracts/test/TetherToken.sol\":8870:8901  isBlackListed[_blackListedUser] */\n      0xffffffffffffffffffffffffffffffffffffffff\n      and\n      0xffffffffffffffffffffffffffffffffffffffff\n      and\n      dup2\n      mstore\n      0x20\n      add\n      swap1\n      dup2\n      mstore\n      0x20\n      add\n      0x0\n      keccak256\n      0x0\n      swap1\n      sload\n      swap1\n      0x100\n      exp\n      swap1\n      div\n      0xff\n      and\n        /* \"contracts/test/TetherToken.sol\":8862:8902  require(isBlackListed[_blackListedUser]) */\n      iszero\n      iszero\n      tag_237\n      jumpi\n      0x0\n      dup1\n      revert\n    tag_237:\n        /* \"contracts/test/TetherToken.sol\":8930:8957  balanceOf(_blackListedUser) */\n      tag_238\n        /* \"contracts/test/TetherToken.sol\":8940:8956  _blackListedUser */\n      dup3\n        /* \"contracts/test/TetherToken.sol\":8930:8939  balanceOf */\n      tag_88\n        /* \"contracts/test/TetherToken.sol\":8930:8957  balanceOf(_blackListedUser) */\n      jump\t// in\n    tag_238:\n        /* \"contracts/test/TetherToken.sol\":8912:8957  uint dirtyFunds = balanceOf(_blackListedUser) */\n      swap1\n      pop\n        /* \"contracts/test/TetherToken.sol\":8996:8997  0 */\n      0x0\n        /* \"contracts/test/TetherToken.sol\":8967:8975  balances */\n      0x2\n        /* \"contracts/test/TetherToken.sol\":8967:8993  balances[_blackListedUser] */\n      0x0\n        /* \"contracts/test/TetherToken.sol\":8976:8992  _blackListedUser */\n      dup5\n        /* \"contracts/test/TetherToken.sol\":8967:8993  balances[_blackListedUser] */\n      0xffffffffffffffffffffffffffffffffffffffff\n      and\n      0xffffffffffffffffffffffffffffffffffffffff\n      and\n      dup2\n      mstore\n      0x20\n      add\n      swap1\n      dup2\n      mstore\n      0x20\n      add\n      0x0\n      keccak256\n        /* \"contracts/test/TetherToken.sol\":8967:8997  balances[_blackListedUser] = 0 */\n      dup2\n      swap1\n      sstore\n      pop\n        /* \"contracts/test/TetherToken.sol\":9023:9033  dirtyFunds */\n      dup1\n        /* \"contracts/test/TetherToken.sol\":9007:9019  _totalSupply */\n      0x1\n      0x0\n        /* \"contracts/test/TetherToken.sol\":9007:9033  _totalSupply -= dirtyFunds */\n      dup3\n      dup3\n      sload\n      sub\n      swap3\n      pop\n      pop\n      dup2\n      swap1\n      sstore\n      pop\n        /* \"contracts/test/TetherToken.sol\":9043:9092  DestroyedBlackFunds(_blackListedUser, dirtyFunds) */\n      0x61e6e66b0d6339b2980aecc6ccc0039736791f0ccde9ed512e789a7fbdd698c6\n        /* \"contracts/test/TetherToken.sol\":9063:9079  _blackListedUser */\n      dup3\n        /* \"contracts/test/TetherToken.sol\":9081:9091  dirtyFunds */\n      dup3\n        /* \"contracts/test/TetherToken.sol\":9043:9092  DestroyedBlackFunds(_blackListedUser, dirtyFunds) */\n      mload(0x40)\n      dup1\n      dup4\n      0xffffffffffffffffffffffffffffffffffffffff\n      and\n      0xffffffffffffffffffffffffffffffffffffffff\n      and\n      dup2\n      mstore\n      0x20\n      add\n      dup3\n      dup2\n      mstore\n      0x20\n      add\n      swap3\n      pop\n      pop\n      pop\n      mload(0x40)\n      dup1\n      swap2\n      sub\n      swap1\n      log1\n        /* \"contracts/test/TetherToken.sol\":8781:9099  function destroyBlackFunds (address _blackListedUser) public onlyOwner {... */\n      pop\n      pop\n      jump\t// out\n        /* \"contracts/test/TetherToken.sol\":6129:6692  function approve(address _spender, uint _value) public onlyPayloadSize(2 * 32) {... */\n    tag_152:\n        /* \"contracts/test/TetherToken.sol\":6200:6206  2 * 32 */\n      0x40\n        /* \"contracts/test/TetherToken.sol\":3223:3224  4 */\n      0x4\n        /* \"contracts/test/TetherToken.sol\":3216:3220  size */\n      dup2\n        /* \"contracts/test/TetherToken.sol\":3216:3224  size + 4 */\n      add\n        /* \"contracts/test/TetherToken.sol\":3198:3206  msg.data */\n      0x0\n      calldatasize\n        /* \"contracts/test/TetherToken.sol\":3198:3213  msg.data.length */\n      swap1\n      pop\n        /* \"contracts/test/TetherToken.sol\":3198:3224  msg.data.length < size + 4 */\n      lt\n        /* \"contracts/test/TetherToken.sol\":3196:3225  !(msg.data.length < size + 4) */\n      iszero\n        /* \"contracts/test/TetherToken.sol\":3188:3226  require(!(msg.data.length < size + 4)) */\n      iszero\n      iszero\n      tag_240\n      jumpi\n      0x0\n      dup1\n      revert\n    tag_240:\n        /* \"contracts/test/TetherToken.sol\":6544:6545  0 */\n      0x0\n        /* \"contracts/test/TetherToken.sol\":6534:6540  _value */\n      dup3\n        /* \"contracts/test/TetherToken.sol\":6534:6545  _value != 0 */\n      eq\n      iszero\n        /* \"contracts/test/TetherToken.sol\":6533:6586  (_value != 0) && (allowed[msg.sender][_spender] != 0) */\n      dup1\n      iszero\n      tag_242\n      jumpi\n      pop\n        /* \"contracts/test/TetherToken.sol\":6584:6585  0 */\n      0x0\n        /* \"contracts/test/TetherToken.sol\":6551:6558  allowed */\n      0x5\n        /* \"contracts/test/TetherToken.sol\":6551:6570  allowed[msg.sender] */\n      0x0\n        /* \"contracts/test/TetherToken.sol\":6559:6569  msg.sender */\n      caller\n        /* \"contracts/test/TetherToken.sol\":6551:6570  allowed[msg.sender] */\n      0xffffffffffffffffffffffffffffffffffffffff\n      and\n      0xffffffffffffffffffffffffffffffffffffffff\n      and\n      dup2\n      mstore\n      0x20\n      add\n      swap1\n      dup2\n      mstore\n      0x20\n      add\n      0x0\n      keccak256\n        /* \"contracts/test/TetherToken.sol\":6551:6580  allowed[msg.sender][_spender] */\n      0x0\n        /* \"contracts/test/TetherToken.sol\":6571:6579  _spender */\n      dup6\n        /* \"contracts/test/TetherToken.sol\":6551:6580  allowed[msg.sender][_spender] */\n      0xffffffffffffffffffffffffffffffffffffffff\n      and\n      0xffffffffffffffffffffffffffffffffffffffff\n      and\n      dup2\n      mstore\n      0x20\n      add\n      swap1\n      dup2\n      mstore\n      0x20\n      add\n      0x0\n      keccak256\n      sload\n        /* \"contracts/test/TetherToken.sol\":6551:6585  allowed[msg.sender][_spender] != 0 */\n      eq\n      iszero\n        /* \"contracts/test/TetherToken.sol\":6533:6586  (_value != 0) && (allowed[msg.sender][_spender] != 0) */\n    tag_242:\n        /* \"contracts/test/TetherToken.sol\":6531:6587  !((_value != 0) && (allowed[msg.sender][_spender] != 0)) */\n      iszero\n        /* \"contracts/test/TetherToken.sol\":6523:6588  require(!((_value != 0) && (allowed[msg.sender][_spender] != 0))) */\n      iszero\n      iszero\n      tag_243\n      jumpi\n      0x0\n      dup1\n      revert\n    tag_243:\n        /* \"contracts/test/TetherToken.sol\":6631:6637  _value */\n      dup2\n        /* \"contracts/test/TetherToken.sol\":6599:6606  allowed */\n      0x5\n        /* \"contracts/test/TetherToken.sol\":6599:6618  allowed[msg.sender] */\n      0x0\n        /* \"contracts/test/TetherToken.sol\":6607:6617  msg.sender */\n      caller\n        /* \"contracts/test/TetherToken.sol\":6599:6618  allowed[msg.sender] */\n      0xffffffffffffffffffffffffffffffffffffffff\n      and\n      0xffffffffffffffffffffffffffffffffffffffff\n      and\n      dup2\n      mstore\n      0x20\n      add\n      swap1\n      dup2\n      mstore\n      0x20\n      add\n      0x0\n      keccak256\n        /* \"contracts/test/TetherToken.sol\":6599:6628  allowed[msg.sender][_spender] */\n      0x0\n        /* \"contracts/test/TetherToken.sol\":6619:6627  _spender */\n      dup6\n        /* \"contracts/test/TetherToken.sol\":6599:6628  allowed[msg.sender][_spender] */\n      0xffffffffffffffffffffffffffffffffffffffff\n      and\n      0xffffffffffffffffffffffffffffffffffffffff\n      and\n      dup2\n      mstore\n      0x20\n      add\n      swap1\n      dup2\n      mstore\n      0x20\n      add\n      0x0\n      keccak256\n        /* \"contracts/test/TetherToken.sol\":6599:6637  allowed[msg.sender][_spender] = _value */\n      dup2\n      swap1\n      sstore\n      pop\n        /* \"contracts/test/TetherToken.sol\":6668:6676  _spender */\n      dup3\n        /* \"contracts/test/TetherToken.sol\":6647:6685  Approval(msg.sender, _spender, _value) */\n      0xffffffffffffffffffffffffffffffffffffffff\n      and\n        /* \"contracts/test/TetherToken.sol\":6656:6666  msg.sender */\n      caller\n        /* \"contracts/test/TetherToken.sol\":6647:6685  Approval(msg.sender, _spender, _value) */\n      0xffffffffffffffffffffffffffffffffffffffff\n      and\n      0x8c5be1e5ebec7d5bd14f71427d1e84f3dd0314c0f7b2291e5b200ac8c7c3b925\n        /* \"contracts/test/TetherToken.sol\":6678:6684  _value */\n      dup5\n        /* \"contracts/test/TetherToken.sol\":6647:6685  Approval(msg.sender, _spender, _value) */\n      mload(0x40)\n      dup1\n      dup3\n      dup2\n      mstore\n      0x20\n      add\n      swap2\n      pop\n      pop\n      mload(0x40)\n      dup1\n      swap2\n      sub\n      swap1\n      log3\n        /* \"contracts/test/TetherToken.sol\":6129:6692  function approve(address _spender, uint _value) public onlyPayloadSize(2 * 32) {... */\n      pop\n      pop\n      pop\n      jump\t// out\n        /* \"contracts/test/TetherToken.sol\":5009:5889  function transferFrom(address _from, address _to, uint _value) public onlyPayloadSize(3 * 32) {... */\n    tag_170:\n        /* \"contracts/test/TetherToken.sol\":5113:5127  var _allowance */\n      0x0\n        /* \"contracts/test/TetherToken.sol\":5322:5330  uint fee */\n      dup1\n        /* \"contracts/test/TetherToken.sol\":5567:5582  uint sendAmount */\n      0x0\n        /* \"contracts/test/TetherToken.sol\":5095:5101  3 * 32 */\n      0x60\n        /* \"contracts/test/TetherToken.sol\":3223:3224  4 */\n      0x4\n        /* \"contracts/test/TetherToken.sol\":3216:3220  size */\n      dup2\n        /* \"contracts/test/TetherToken.sol\":3216:3224  size + 4 */\n      add\n        /* \"contracts/test/TetherToken.sol\":3198:3206  msg.data */\n      0x0\n      calldatasize\n        /* \"contracts/test/TetherToken.sol\":3198:3213  msg.data.length */\n      swap1\n      pop\n        /* \"contracts/test/TetherToken.sol\":3198:3224  msg.data.length < size + 4 */\n      lt\n        /* \"contracts/test/TetherToken.sol\":3196:3225  !(msg.data.length < size + 4) */\n      iszero\n        /* \"contracts/test/TetherToken.sol\":3188:3226  require(!(msg.data.length < size + 4)) */\n      iszero\n      iszero\n      tag_245\n      jumpi\n      0x0\n      dup1\n      revert\n    tag_245:\n        /* \"contracts/test/TetherToken.sol\":5130:5137  allowed */\n      0x5\n        /* \"contracts/test/TetherToken.sol\":5130:5144  allowed[_from] */\n      0x0\n        /* \"contracts/test/TetherToken.sol\":5138:5143  _from */\n      dup9\n        /* \"contracts/test/TetherToken.sol\":5130:5144  allowed[_from] */\n      0xffffffffffffffffffffffffffffffffffffffff\n      and\n      0xffffffffffffffffffffffffffffffffffffffff\n      and\n      dup2\n      mstore\n      0x20\n      add\n      swap1\n      dup2\n      mstore\n      0x20\n      add\n      0x0\n      keccak256\n        /* \"contracts/test/TetherToken.sol\":5130:5156  allowed[_from][msg.sender] */\n      0x0\n        /* \"contracts/test/TetherToken.sol\":5145:5155  msg.sender */\n      caller\n        /* \"contracts/test/TetherToken.sol\":5130:5156  allowed[_from][msg.sender] */\n      0xffffffffffffffffffffffffffffffffffffffff\n      and\n      0xffffffffffffffffffffffffffffffffffffffff\n      and\n      dup2\n      mstore\n      0x20\n      add\n      swap1\n      dup2\n      mstore\n      0x20\n      add\n      0x0\n      keccak256\n      sload\n        /* \"contracts/test/TetherToken.sol\":5113:5156  var _allowance = allowed[_from][msg.sender] */\n      swap4\n      pop\n        /* \"contracts/test/TetherToken.sol\":5333:5373  (_value.mul(basisPointsRate)).div(10000) */\n      tag_247\n        /* \"contracts/test/TetherToken.sol\":5367:5372  10000 */\n      0x2710\n        /* \"contracts/test/TetherToken.sol\":5334:5361  _value.mul(basisPointsRate) */\n      tag_248\n        /* \"contracts/test/TetherToken.sol\":5345:5360  basisPointsRate */\n      sload(0x3)\n        /* \"contracts/test/TetherToken.sol\":5334:5340  _value */\n      dup9\n        /* \"contracts/test/TetherToken.sol\":5334:5344  _value.mul */\n      tag_209\n      swap1\n        /* \"contracts/test/TetherToken.sol\":5334:5361  _value.mul(basisPointsRate) */\n      swap2\n      swap1\n      0xffffffff\n      and\n      jump\t// in\n    tag_248:\n        /* \"contracts/test/TetherToken.sol\":5333:5366  (_value.mul(basisPointsRate)).div */\n      tag_249\n      swap1\n        /* \"contracts/test/TetherToken.sol\":5333:5373  (_value.mul(basisPointsRate)).div(10000) */\n      swap2\n      swap1\n      0xffffffff\n      and\n      jump\t// in\n    tag_247:\n        /* \"contracts/test/TetherToken.sol\":5322:5373  uint fee = (_value.mul(basisPointsRate)).div(10000) */\n      swap3\n      pop\n        /* \"contracts/test/TetherToken.sol\":5393:5403  maximumFee */\n      sload(0x4)\n        /* \"contracts/test/TetherToken.sol\":5387:5390  fee */\n      dup4\n        /* \"contracts/test/TetherToken.sol\":5387:5403  fee > maximumFee */\n      gt\n        /* \"contracts/test/TetherToken.sol\":5383:5446  if (fee > maximumFee) {... */\n      iszero\n      tag_250\n      jumpi\n        /* \"contracts/test/TetherToken.sol\":5425:5435  maximumFee */\n      sload(0x4)\n        /* \"contracts/test/TetherToken.sol\":5419:5435  fee = maximumFee */\n      swap3\n      pop\n        /* \"contracts/test/TetherToken.sol\":5383:5446  if (fee > maximumFee) {... */\n    tag_250:\n        /* \"contracts/test/TetherToken.sol\":4717:4727  2**256 - 1 */\n      0xffffffffffffffffffffffffffffffffffffffffffffffffffffffffffffffff\n        /* \"contracts/test/TetherToken.sol\":5459:5469  _allowance */\n      dup5\n        /* \"contracts/test/TetherToken.sol\":5459:5480  _allowance < MAX_UINT */\n      lt\n        /* \"contracts/test/TetherToken.sol\":5455:5558  if (_allowance < MAX_UINT) {... */\n      iszero\n      tag_251\n      jumpi\n        /* \"contracts/test/TetherToken.sol\":5525:5547  _allowance.sub(_value) */\n      tag_252\n        /* \"contracts/test/TetherToken.sol\":5540:5546  _value */\n      dup6\n        /* \"contracts/test/TetherToken.sol\":5525:5535  _allowance */\n      dup6\n        /* \"contracts/test/TetherToken.sol\":5525:5539  _allowance.sub */\n      tag_253\n      swap1\n        /* \"contracts/test/TetherToken.sol\":5525:5547  _allowance.sub(_value) */\n      swap2\n      swap1\n      0xffffffff\n      and\n      jump\t// in\n    tag_252:\n        /* \"contracts/test/TetherToken.sol\":5496:5503  allowed */\n      0x5\n        /* \"contracts/test/TetherToken.sol\":5496:5510  allowed[_from] */\n      0x0\n        /* \"contracts/test/TetherToken.sol\":5504:5509  _from */\n      dup10\n        /* \"contracts/test/TetherToken.sol\":5496:5510  allowed[_from] */\n      0xffffffffffffffffffffffffffffffffffffffff\n      and\n      0xffffffffffffffffffffffffffffffffffffffff\n      and\n      dup2\n      mstore\n      0x20\n      add\n      swap1\n      dup2\n      mstore\n      0x20\n      add\n      0x0\n      keccak256\n        /* \"contracts/test/TetherToken.sol\":5496:5522  allowed[_from][msg.sender] */\n      0x0\n        /* \"contracts/test/TetherToken.sol\":5511:5521  msg.sender */\n      caller\n        /* \"contracts/test/TetherToken.sol\":5496:5522  allowed[_from][msg.sender] */\n      0xffffffffffffffffffffffffffffffffffffffff\n      and\n      0xffffffffffffffffffffffffffffffffffffffff\n      and\n      dup2\n      mstore\n      0x20\n      add\n      swap1\n      dup2\n      mstore\n      0x20\n      add\n      0x0\n      keccak256\n        /* \"contracts/test/TetherToken.sol\":5496:5547  allowed[_from][msg.sender] = _allowance.sub(_value) */\n      dup2\n      swap1\n      sstore\n      pop\n        /* \"contracts/test/TetherToken.sol\":5455:5558  if (_allowance < MAX_UINT) {... */\n    tag_251:\n        /* \"contracts/test/TetherToken.sol\":5585:5600  _value.sub(fee) */\n      tag_254\n        /* \"contracts/test/TetherToken.sol\":5596:5599  fee */\n      dup4\n        /* \"contracts/test/TetherToken.sol\":5585:5591  _value */\n      dup7\n        /* \"contracts/test/TetherToken.sol\":5585:5595  _value.sub */\n      tag_253\n      swap1\n        /* \"contracts/test/TetherToken.sol\":5585:5600  _value.sub(fee) */\n      swap2\n      swap1\n      0xffffffff\n      and\n      jump\t// in\n    tag_254:\n        /* \"contracts/test/TetherToken.sol\":5567:5600  uint sendAmount = _value.sub(fee) */\n      swap2\n      pop\n        /* \"contracts/test/TetherToken.sol\":5628:5655  balances[_from].sub(_value) */\n      tag_255\n        /* \"contracts/test/TetherToken.sol\":5648:5654  _value */\n      dup6\n        /* \"contracts/test/TetherToken.sol\":5628:5636  balances */\n      0x2\n        /* \"contracts/test/TetherToken.sol\":5628:5643  balances[_from] */\n      0x0\n        /* \"contracts/test/TetherToken.sol\":5637:5642  _from */\n      dup11\n        /* \"contracts/test/TetherToken.sol\":5628:5643  balances[_from] */\n      0xffffffffffffffffffffffffffffffffffffffff\n      and\n      0xffffffffffffffffffffffffffffffffffffffff\n      and\n      dup2\n      mstore\n      0x20\n      add\n      swap1\n      dup2\n      mstore\n      0x20\n      add\n      0x0\n      keccak256\n      sload\n        /* \"contracts/test/TetherToken.sol\":5628:5647  balances[_from].sub */\n      tag_253\n      swap1\n        /* \"contracts/test/TetherToken.sol\":5628:5655  balances[_from].sub(_value) */\n      swap2\n      swap1\n      0xffffffff\n      and\n      jump\t// in\n    tag_255:\n        /* \"contracts/test/TetherToken.sol\":5610:5618  balances */\n      0x2\n        /* \"contracts/test/TetherToken.sol\":5610:5625  balances[_from] */\n      0x0\n        /* \"contracts/test/TetherToken.sol\":5619:5624  _from */\n      dup10\n        /* \"contracts/test/TetherToken.sol\":5610:5625  balances[_from] */\n      0xffffffffffffffffffffffffffffffffffffffff\n      and\n      0xffffffffffffffffffffffffffffffffffffffff\n      and\n      dup2\n      mstore\n      0x20\n      add\n      swap1\n      dup2\n      mstore\n      0x20\n      add\n      0x0\n      keccak256\n        /* \"contracts/test/TetherToken.sol\":5610:5655  balances[_from] = balances[_from].sub(_value) */\n      dup2\n      swap1\n      sstore\n      pop\n        /* \"contracts/test/TetherToken.sol\":5681:5710  balances[_to].add(sendAmount) */\n      tag_256\n        /* \"contracts/test/TetherToken.sol\":5699:5709  sendAmount */\n      dup3\n        /* \"contracts/test/TetherToken.sol\":5681:5689  balances */\n      0x2\n        /* \"contracts/test/TetherToken.sol\":5681:5694  balances[_to] */\n      0x0\n        /* \"contracts/test/TetherToken.sol\":5690:5693  _to */\n      dup10\n        /* \"contracts/test/TetherToken.sol\":5681:5694  balances[_to] */\n      0xffffffffffffffffffffffffffffffffffffffff\n      and\n      0xffffffffffffffffffffffffffffffffffffffff\n      and\n      dup2\n      mstore\n      0x20\n      add\n      swap1\n      dup2\n      mstore\n      0x20\n      add\n      0x0\n      keccak256\n      sload\n        /* \"contracts/test/TetherToken.sol\":5681:5698  balances[_to].add */\n      tag_257\n      swap1\n        /* \"contracts/test/TetherToken.sol\":5681:5710  balances[_to].add(sendAmount) */\n      swap2\n      swap1\n      0xffffffff\n      and\n      jump\t// in\n    tag_256:\n        /* \"contracts/test/TetherToken.sol\":5665:5673  balances */\n      0x2\n        /* \"contracts/test/TetherToken.sol\":5665:5678  balances[_to] */\n      0x0\n        /* \"contracts/test/TetherToken.sol\":5674:5677  _to */\n      dup9\n        /* \"contracts/test/TetherToken.sol\":5665:5678  balances[_to] */\n      0xffffffffffffffffffffffffffffffffffffffff\n      and\n      0xffffffffffffffffffffffffffffffffffffffff\n      and\n      dup2\n      mstore\n      0x20\n      add\n      swap1\n      dup2\n      mstore\n      0x20\n      add\n      0x0\n      keccak256\n        /* \"contracts/test/TetherToken.sol\":5665:5710  balances[_to] = balances[_to].add(sendAmount) */\n      dup2\n      swap1\n      sstore\n      pop\n        /* \"contracts/test/TetherToken.sol\":5730:5731  0 */\n      0x0\n        /* \"contracts/test/TetherToken.sol\":5724:5727  fee */\n      dup4\n        /* \"contracts/test/TetherToken.sol\":5724:5731  fee > 0 */\n      gt\n        /* \"contracts/test/TetherToken.sol\":5720:5841  if (fee > 0) {... */\n      iszero\n      tag_258\n      jumpi\n        /* \"contracts/test/TetherToken.sol\":5765:5789  balances[owner].add(fee) */\n      tag_259\n        /* \"contracts/test/TetherToken.sol\":5785:5788  fee */\n      dup4\n        /* \"contracts/test/TetherToken.sol\":5765:5773  balances */\n      0x2\n        /* \"contracts/test/TetherToken.sol\":5765:5780  balances[owner] */\n      0x0\n        /* \"contracts/test/TetherToken.sol\":5774:5779  owner */\n      dup1\n      0x0\n      swap1\n      sload\n      swap1\n      0x100\n      exp\n      swap1\n      div\n      0xffffffffffffffffffffffffffffffffffffffff\n      and\n        /* \"contracts/test/TetherToken.sol\":5765:5780  balances[owner] */\n      0xffffffffffffffffffffffffffffffffffffffff\n      and\n      0xffffffffffffffffffffffffffffffffffffffff\n      and\n      dup2\n      mstore\n      0x20\n      add\n      swap1\n      dup2\n      mstore\n      0x20\n      add\n      0x0\n      keccak256\n      sload\n        /* \"contracts/test/TetherToken.sol\":5765:5784  balances[owner].add */\n      tag_257\n      swap1\n        /* \"contracts/test/TetherToken.sol\":5765:5789  balances[owner].add(fee) */\n      swap2\n      swap1\n      0xffffffff\n      and\n      jump\t// in\n    tag_259:\n        /* \"contracts/test/TetherToken.sol\":5747:5755  balances */\n      0x2\n        /* \"contracts/test/TetherToken.sol\":5747:5762  balances[owner] */\n      0x0\n        /* \"contracts/test/TetherToken.sol\":5756:5761  owner */\n      dup1\n      0x0\n      swap1\n      sload\n      swap1\n      0x100\n      exp\n      swap1\n      div\n      0xffffffffffffffffffffffffffffffffffffffff\n      and\n        /* \"contracts/test/TetherToken.sol\":5747:5762  balances[owner] */\n      0xffffffffffffffffffffffffffffffffffffffff\n      and\n      0xffffffffffffffffffffffffffffffffffffffff\n      and\n      dup2\n      mstore\n      0x20\n      add\n      swap1\n      dup2\n      mstore\n      0x20\n      add\n      0x0\n      keccak256\n        /* \"contracts/test/TetherToken.sol\":5747:5789  balances[owner] = balances[owner].add(fee) */\n      dup2\n      swap1\n      sstore\n      pop\n        /* \"contracts/test/TetherToken.sol\":5819:5824  owner */\n      0x0\n      dup1\n      swap1\n      sload\n      swap1\n      0x100\n      exp\n      swap1\n      div\n      0xffffffffffffffffffffffffffffffffffffffff\n      and\n        /* \"contracts/test/TetherToken.sol\":5803:5830  Transfer(_from, owner, fee) */\n      0xffffffffffffffffffffffffffffffffffffffff\n      and\n        /* \"contracts/test/TetherToken.sol\":5812:5817  _from */\n      dup8\n        /* \"contracts/test/TetherToken.sol\":5803:5830  Transfer(_from, owner, fee) */\n      0xffffffffffffffffffffffffffffffffffffffff\n      and\n      0xddf252ad1be2c89b69c2b068fc378daa952ba7f163c4a11628f55a4df523b3ef\n        /* \"contracts/test/TetherToken.sol\":5826:5829  fee */\n      dup6\n        /* \"contracts/test/TetherToken.sol\":5803:5830  Transfer(_from, owner, fee) */\n      mload(0x40)\n      dup1\n      dup3\n      dup2\n      mstore\n      0x20\n      add\n      swap2\n      pop\n      pop\n      mload(0x40)\n      dup1\n      swap2\n      sub\n      swap1\n      log3\n        /* \"contracts/test/TetherToken.sol\":5720:5841  if (fee > 0) {... */\n    tag_258:\n        /* \"contracts/test/TetherToken.sol\":5866:5869  _to */\n      dup6\n        /* \"contracts/test/TetherToken.sol\":5850:5882  Transfer(_from, _to, sendAmount) */\n      0xffffffffffffffffffffffffffffffffffffffff\n      and\n        /* \"contracts/test/TetherToken.sol\":5859:5864  _from */\n      dup8\n        /* \"contracts/test/TetherToken.sol\":5850:5882  Transfer(_from, _to, sendAmount) */\n      0xffffffffffffffffffffffffffffffffffffffff\n      and\n      0xddf252ad1be2c89b69c2b068fc378daa952ba7f163c4a11628f55a4df523b3ef\n        /* \"contracts/test/TetherToken.sol\":5871:5881  sendAmount */\n      dup5\n        /* \"contracts/test/TetherToken.sol\":5850:5882  Transfer(_from, _to, sendAmount) */\n      mload(0x40)\n      dup1\n      dup3\n      dup2\n      mstore\n      0x20\n      add\n      swap2\n      pop\n      pop\n      mload(0x40)\n      dup1\n      swap2\n      sub\n      swap1\n      log3\n        /* \"contracts/test/TetherToken.sol\":5009:5889  function transferFrom(address _from, address _to, uint _value) public onlyPayloadSize(3 * 32) {... */\n      pop\n      pop\n      pop\n      pop\n      pop\n      pop\n      pop\n      jump\t// out\n        /* \"contracts/test/TetherToken.sol\":4181:4295  function balanceOf(address _owner) public constant returns (uint balance) {... */\n    tag_183:\n        /* \"contracts/test/TetherToken.sol\":4241:4253  uint balance */\n      0x0\n        /* \"contracts/test/TetherToken.sol\":4272:4280  balances */\n      0x2\n        /* \"contracts/test/TetherToken.sol\":4272:4288  balances[_owner] */\n      0x0\n        /* \"contracts/test/TetherToken.sol\":4281:4287  _owner */\n      dup4\n        /* \"contracts/test/TetherToken.sol\":4272:4288  balances[_owner] */\n      0xffffffffffffffffffffffffffffffffffffffff\n      and\n      0xffffffffffffffffffffffffffffffffffffffff\n      and\n      dup2\n      mstore\n      0x20\n      add\n      swap1\n      dup2\n      mstore\n      0x20\n      add\n      0x0\n      keccak256\n      sload\n        /* \"contracts/test/TetherToken.sol\":4265:4288  return balances[_owner] */\n      swap1\n      pop\n        /* \"contracts/test/TetherToken.sol\":4181:4295  function balanceOf(address _owner) public constant returns (uint balance) {... */\n      swap2\n      swap1\n      pop\n      jump\t// out\n        /* \"contracts/test/TetherToken.sol\":3410:3970  function transfer(address _to, uint _value) public onlyPayloadSize(2 * 32) {... */\n    tag_202:\n        /* \"contracts/test/TetherToken.sol\":3495:3503  uint fee */\n      0x0\n        /* \"contracts/test/TetherToken.sol\":3628:3643  uint sendAmount */\n      dup1\n        /* \"contracts/test/TetherToken.sol\":3477:3483  2 * 32 */\n      0x40\n        /* \"contracts/test/TetherToken.sol\":3223:3224  4 */\n      0x4\n        /* \"contracts/test/TetherToken.sol\":3216:3220  size */\n      dup2\n        /* \"contracts/test/TetherToken.sol\":3216:3224  size + 4 */\n      add\n        /* \"contracts/test/TetherToken.sol\":3198:3206  msg.data */\n      0x0\n      calldatasize\n        /* \"contracts/test/TetherToken.sol\":3198:3213  msg.data.length */\n      swap1\n      pop\n        /* \"contracts/test/TetherToken.sol\":3198:3224  msg.data.length < size + 4 */\n      lt\n        /* \"contracts/test/TetherToken.sol\":3196:3225  !(msg.data.length < size + 4) */\n      iszero\n        /* \"contracts/test/TetherToken.sol\":3188:3226  require(!(msg.data.length < size + 4)) */\n      iszero\n      iszero\n      tag_262\n      jumpi\n      0x0\n      dup1\n      revert\n    tag_262:\n        /* \"contracts/test/TetherToken.sol\":3506:3546  (_value.mul(basisPointsRate)).div(10000) */\n      tag_264\n        /* \"contracts/test/TetherToken.sol\":3540:3545  10000 */\n      0x2710\n        /* \"contracts/test/TetherToken.sol\":3507:3534  _value.mul(basisPointsRate) */\n      tag_265\n        /* \"contracts/test/TetherToken.sol\":3518:3533  basisPointsRate */\n      sload(0x3)\n        /* \"contracts/test/TetherToken.sol\":3507:3513  _value */\n      dup8\n        /* \"contracts/test/TetherToken.sol\":3507:3517  _value.mul */\n      tag_209\n      swap1\n        /* \"contracts/test/TetherToken.sol\":3507:3534  _value.mul(basisPointsRate) */\n      swap2\n      swap1\n      0xffffffff\n      and\n      jump\t// in\n    tag_265:\n        /* \"contracts/test/TetherToken.sol\":3506:3539  (_value.mul(basisPointsRate)).div */\n      tag_249\n      swap1\n        /* \"contracts/test/TetherToken.sol\":3506:3546  (_value.mul(basisPointsRate)).div(10000) */\n      swap2\n      swap1\n      0xffffffff\n      and\n      jump\t// in\n    tag_264:\n        /* \"contracts/test/TetherToken.sol\":3495:3546  uint fee = (_value.mul(basisPointsRate)).div(10000) */\n      swap3\n      pop\n        /* \"contracts/test/TetherToken.sol\":3566:3576  maximumFee */\n      sload(0x4)\n        /* \"contracts/test/TetherToken.sol\":3560:3563  fee */\n      dup4\n        /* \"contracts/test/TetherToken.sol\":3560:3576  fee > maximumFee */\n      gt\n        /* \"contracts/test/TetherToken.sol\":3556:3619  if (fee > maximumFee) {... */\n      iszero\n      tag_266\n      jumpi\n        /* \"contracts/test/TetherToken.sol\":3598:3608  maximumFee */\n      sload(0x4)\n        /* \"contracts/test/TetherToken.sol\":3592:3608  fee = maximumFee */\n      swap3\n      pop\n        /* \"contracts/test/TetherToken.sol\":3556:3619  if (fee > maximumFee) {... */\n    tag_266:\n        /* \"contracts/test/TetherToken.sol\":3646:3661  _value.sub(fee) */\n      tag_267\n        /* \"contracts/test/TetherToken.sol\":3657:3660  fee */\n      dup4\n        /* \"contracts/test/TetherToken.sol\":3646:3652  _value */\n      dup6\n        /* \"contracts/test/TetherToken.sol\":3646:3656  _value.sub */\n      tag_253\n      swap1\n        /* \"contracts/test/TetherToken.sol\":3646:3661  _value.sub(fee) */\n      swap2\n      swap1\n      0xffffffff\n      and\n      jump\t// in\n    tag_267:\n        /* \"contracts/test/TetherToken.sol\":3628:3661  uint sendAmount = _value.sub(fee) */\n      swap2\n      pop\n        /* \"contracts/test/TetherToken.sol\":3694:3726  balances[msg.sender].sub(_value) */\n      tag_268\n        /* \"contracts/test/TetherToken.sol\":3719:3725  _value */\n      dup5\n        /* \"contracts/test/TetherToken.sol\":3694:3702  balances */\n      0x2\n        /* \"contracts/test/TetherToken.sol\":3694:3714  balances[msg.sender] */\n      0x0\n        /* \"contracts/test/TetherToken.sol\":3703:3713  msg.sender */\n      caller\n        /* \"contracts/test/TetherToken.sol\":3694:3714  balances[msg.sender] */\n      0xffffffffffffffffffffffffffffffffffffffff\n      and\n      0xffffffffffffffffffffffffffffffffffffffff\n      and\n      dup2\n      mstore\n      0x20\n      add\n      swap1\n      dup2\n      mstore\n      0x20\n      add\n      0x0\n      keccak256\n      sload\n        /* \"contracts/test/TetherToken.sol\":3694:3718  balances[msg.sender].sub */\n      tag_253\n      swap1\n        /* \"contracts/test/TetherToken.sol\":3694:3726  balances[msg.sender].sub(_value) */\n      swap2\n      swap1\n      0xffffffff\n      and\n      jump\t// in\n    tag_268:\n        /* \"contracts/test/TetherToken.sol\":3671:3679  balances */\n      0x2\n        /* \"contracts/test/TetherToken.sol\":3671:3691  balances[msg.sender] */\n      0x0\n        /* \"contracts/test/TetherToken.sol\":3680:3690  msg.sender */\n      caller\n        /* \"contracts/test/TetherToken.sol\":3671:3691  balances[msg.sender] */\n      0xffffffffffffffffffffffffffffffffffffffff\n      and\n      0xffffffffffffffffffffffffffffffffffffffff\n      and\n      dup2\n      mstore\n      0x20\n      add\n      swap1\n      dup2\n      mstore\n      0x20\n      add\n      0x0\n      keccak256\n        /* \"contracts/test/TetherToken.sol\":3671:3726  balances[msg.sender] = balances[msg.sender].sub(_value) */\n      dup2\n      swap1\n      sstore\n      pop\n        /* \"contracts/test/TetherToken.sol\":3752:3781  balances[_to].add(sendAmount) */\n      tag_269\n        /* \"contracts/test/TetherToken.sol\":3770:3780  sendAmount */\n      dup3\n        /* \"contracts/test/TetherToken.sol\":3752:3760  balances */\n      0x2\n        /* \"contracts/test/TetherToken.sol\":3752:3765  balances[_to] */\n      0x0\n        /* \"contracts/test/TetherToken.sol\":3761:3764  _to */\n      dup9\n        /* \"contracts/test/TetherToken.sol\":3752:3765  balances[_to] */\n      0xffffffffffffffffffffffffffffffffffffffff\n      and\n      0xffffffffffffffffffffffffffffffffffffffff\n      and\n      dup2\n      mstore\n      0x20\n      add\n      swap1\n      dup2\n      mstore\n      0x20\n      add\n      0x0\n      keccak256\n      sload\n        /* \"contracts/test/TetherToken.sol\":3752:3769  balances[_to].add */\n      tag_257\n      swap1\n        /* \"contracts/test/TetherToken.sol\":3752:3781  balances[_to].add(sendAmount) */\n      swap2\n      swap1\n      0xffffffff\n      and\n      jump\t// in\n    tag_269:\n        /* \"contracts/test/TetherToken.sol\":3736:3744  balances */\n      0x2\n        /* \"contracts/test/TetherToken.sol\":3736:3749  balances[_to] */\n      0x0\n        /* \"contracts/test/TetherToken.sol\":3745:3748  _to */\n      dup8\n        /* \"contracts/test/TetherToken.sol\":3736:3749  balances[_to] */\n      0xffffffffffffffffffffffffffffffffffffffff\n      and\n      0xffffffffffffffffffffffffffffffffffffffff\n      and\n      dup2\n      mstore\n      0x20\n      add\n      swap1\n      dup2\n      mstore\n      0x20\n      add\n      0x0\n      keccak256\n        /* \"contracts/test/TetherToken.sol\":3736:3781  balances[_to] = balances[_to].add(sendAmount) */\n      dup2\n      swap1\n      sstore\n      pop\n        /* \"contracts/test/TetherToken.sol\":3801:3802  0 */\n      0x0\n        /* \"contracts/test/TetherToken.sol\":3795:3798  fee */\n      dup4\n        /* \"contracts/test/TetherToken.sol\":3795:3802  fee > 0 */\n      gt\n        /* \"contracts/test/TetherToken.sol\":3791:3917  if (fee > 0) {... */\n      iszero\n      tag_270\n      jumpi\n        /* \"contracts/test/TetherToken.sol\":3836:3860  balances[owner].add(fee) */\n      tag_271\n        /* \"contracts/test/TetherToken.sol\":3856:3859  fee */\n      dup4\n        /* \"contracts/test/TetherToken.sol\":3836:3844  balances */\n      0x2\n        /* \"contracts/test/TetherToken.sol\":3836:3851  balances[owner] */\n      0x0\n        /* \"contracts/test/TetherToken.sol\":3845:3850  owner */\n      dup1\n      0x0\n      swap1\n      sload\n      swap1\n      0x100\n      exp\n      swap1\n      div\n      0xffffffffffffffffffffffffffffffffffffffff\n      and\n        /* \"contracts/test/TetherToken.sol\":3836:3851  balances[owner] */\n      0xffffffffffffffffffffffffffffffffffffffff\n      and\n      0xffffffffffffffffffffffffffffffffffffffff\n      and\n      dup2\n      mstore\n      0x20\n      add\n      swap1\n      dup2\n      mstore\n      0x20\n      add\n      0x0\n      keccak256\n      sload\n        /* \"contracts/test/TetherToken.sol\":3836:3855  balances[owner].add */\n      tag_257\n      swap1\n        /* \"contracts/test/TetherToken.sol\":3836:3860  balances[owner].add(fee) */\n      swap2\n      swap1\n      0xffffffff\n      and\n      jump\t// in\n    tag_271:\n        /* \"contracts/test/TetherToken.sol\":3818:3826  balances */\n      0x2\n        /* \"contracts/test/TetherToken.sol\":3818:3833  balances[owner] */\n      0x0\n        /* \"contracts/test/TetherToken.sol\":3827:3832  owner */\n      dup1\n      0x0\n      swap1\n      sload\n      swap1\n      0x100\n      exp\n      swap1\n      div\n      0xffffffffffffffffffffffffffffffffffffffff\n      and\n        /* \"contracts/test/TetherToken.sol\":3818:3833  balances[owner] */\n      0xffffffffffffffffffffffffffffffffffffffff\n      and\n      0xffffffffffffffffffffffffffffffffffffffff\n      and\n      dup2\n      mstore\n      0x20\n      add\n      swap1\n      dup2\n      mstore\n      0x20\n      add\n      0x0\n      keccak256\n        /* \"contracts/test/TetherToken.sol\":3818:3860  balances[owner] = balances[owner].add(fee) */\n      dup2\n      swap1\n      sstore\n      pop\n        /* \"contracts/test/TetherToken.sol\":3895:3900  owner */\n      0x0\n      dup1\n      swap1\n      sload\n      swap1\n      0x100\n      exp\n      swap1\n      div\n      0xffffffffffffffffffffffffffffffffffffffff\n      and\n        /* \"contracts/test/TetherToken.sol\":3874:3906  Transfer(msg.sender, owner, fee) */\n      0xffffffffffffffffffffffffffffffffffffffff\n      and\n        /* \"contracts/test/TetherToken.sol\":3883:3893  msg.sender */\n      caller\n        /* \"contracts/test/TetherToken.sol\":3874:3906  Transfer(msg.sender, owner, fee) */\n      0xffffffffffffffffffffffffffffffffffffffff\n      and\n      0xddf252ad1be2c89b69c2b068fc378daa952ba7f163c4a11628f55a4df523b3ef\n        /* \"contracts/test/TetherToken.sol\":3902:3905  fee */\n      dup6\n        /* \"contracts/test/TetherToken.sol\":3874:3906  Transfer(msg.sender, owner, fee) */\n      mload(0x40)\n      dup1\n      dup3\n      dup2\n      mstore\n      0x20\n      add\n      swap2\n      pop\n      pop\n      mload(0x40)\n      dup1\n      swap2\n      sub\n      swap1\n      log3\n        /* \"contracts/test/TetherToken.sol\":3791:3917  if (fee > 0) {... */\n    tag_270:\n        /* \"contracts/test/TetherToken.sol\":3947:3950  _to */\n      dup5\n        /* \"contracts/test/TetherToken.sol\":3926:3963  Transfer(msg.sender, _to, sendAmount) */\n      0xffffffffffffffffffffffffffffffffffffffff\n      and\n        /* \"contracts/test/TetherToken.sol\":3935:3945  msg.sender */\n      caller\n        /* \"contracts/test/TetherToken.sol\":3926:3963  Transfer(msg.sender, _to, sendAmount) */\n      0xffffffffffffffffffffffffffffffffffffffff\n      and\n      0xddf252ad1be2c89b69c2b068fc378daa952ba7f163c4a11628f55a4df523b3ef\n        /* \"contracts/test/TetherToken.sol\":3952:3962  sendAmount */\n      dup5\n        /* \"contracts/test/TetherToken.sol\":3926:3963  Transfer(msg.sender, _to, sendAmount) */\n      mload(0x40)\n      dup1\n      dup3\n      dup2\n      mstore\n      0x20\n      add\n      swap2\n      pop\n      pop\n      mload(0x40)\n      dup1\n      swap2\n      sub\n      swap1\n      log3\n        /* \"contracts/test/TetherToken.sol\":3410:3970  function transfer(address _to, uint _value) public onlyPayloadSize(2 * 32) {... */\n      pop\n      pop\n      pop\n      pop\n      pop\n      jump\t// out\n        /* \"contracts/test/TetherToken.sol\":171:372  function mul(uint256 a, uint256 b) internal pure returns (uint256) {... */\n    tag_209:\n        /* \"contracts/test/TetherToken.sol\":229:236  uint256 */\n      0x0\n        /* \"contracts/test/TetherToken.sol\":302:311  uint256 c */\n      dup1\n        /* \"contracts/test/TetherToken.sol\":257:258  0 */\n      0x0\n        /* \"contracts/test/TetherToken.sol\":252:253  a */\n      dup5\n        /* \"contracts/test/TetherToken.sol\":252:258  a == 0 */\n      eq\n        /* \"contracts/test/TetherToken.sol\":248:293  if (a == 0) {... */\n      iszero\n      tag_273\n      jumpi\n        /* \"contracts/test/TetherToken.sol\":281:282  0 */\n      0x0\n        /* \"contracts/test/TetherToken.sol\":274:282  return 0 */\n      swap2\n      pop\n      jump(tag_272)\n        /* \"contracts/test/TetherToken.sol\":248:293  if (a == 0) {... */\n    tag_273:\n        /* \"contracts/test/TetherToken.sol\":318:319  b */\n      dup3\n        /* \"contracts/test/TetherToken.sol\":314:315  a */\n      dup5\n        /* \"contracts/test/TetherToken.sol\":314:319  a * b */\n      mul\n        /* \"contracts/test/TetherToken.sol\":302:319  uint256 c = a * b */\n      swap1\n      pop\n        /* \"contracts/test/TetherToken.sol\":345:346  b */\n      dup3\n        /* \"contracts/test/TetherToken.sol\":340:341  a */\n      dup5\n        /* \"contracts/test/TetherToken.sol\":336:337  c */\n      dup3\n        /* \"contracts/test/TetherToken.sol\":336:341  c / a */\n      dup2\n      iszero\n      iszero\n      tag_274\n      jumpi\n      invalid\n    tag_274:\n      div\n        /* \"contracts/test/TetherToken.sol\":336:346  c / a == b */\n      eq\n        /* \"contracts/test/TetherToken.sol\":329:347  assert(c / a == b) */\n      iszero\n      iszero\n      tag_275\n      jumpi\n      invalid\n    tag_275:\n        /* \"contracts/test/TetherToken.sol\":364:365  c */\n      dup1\n        /* \"contracts/test/TetherToken.sol\":357:365  return c */\n      swap2\n      pop\n        /* \"contracts/test/TetherToken.sol\":171:372  function mul(uint256 a, uint256 b) internal pure returns (uint256) {... */\n    tag_272:\n      pop\n      swap3\n      swap2\n      pop\n      pop\n      jump\t// out\n        /* \"contracts/test/TetherToken.sol\":7017:7160  function allowance(address _owner, address _spender) public constant returns (uint remaining) {... */\n    tag_226:\n        /* \"contracts/test/TetherToken.sol\":7095:7109  uint remaining */\n      0x0\n        /* \"contracts/test/TetherToken.sol\":7128:7135  allowed */\n      0x5\n        /* \"contracts/test/TetherToken.sol\":7128:7143  allowed[_owner] */\n      0x0\n        /* \"contracts/test/TetherToken.sol\":7136:7142  _owner */\n      dup5\n        /* \"contracts/test/TetherToken.sol\":7128:7143  allowed[_owner] */\n      0xffffffffffffffffffffffffffffffffffffffff\n      and\n      0xffffffffffffffffffffffffffffffffffffffff\n      and\n      dup2\n      mstore\n      0x20\n      add\n      swap1\n      dup2\n      mstore\n      0x20\n      add\n      0x0\n      keccak256\n        /* \"contracts/test/TetherToken.sol\":7128:7153  allowed[_owner][_spender] */\n      0x0\n        /* \"contracts/test/TetherToken.sol\":7144:7152  _spender */\n      dup4\n        /* \"contracts/test/TetherToken.sol\":7128:7153  allowed[_owner][_spender] */\n      0xffffffffffffffffffffffffffffffffffffffff\n      and\n      0xffffffffffffffffffffffffffffffffffffffff\n      and\n      dup2\n      mstore\n      0x20\n      add\n      swap1\n      dup2\n      mstore\n      0x20\n      add\n      0x0\n      keccak256\n      sload\n        /* \"contracts/test/TetherToken.sol\":7121:7153  return allowed[_owner][_spender] */\n      swap1\n      pop\n        /* \"contracts/test/TetherToken.sol\":7017:7160  function allowance(address _owner, address _spender) public constant returns (uint remaining) {... */\n      swap3\n      swap2\n      pop\n      pop\n      jump\t// out\n        /* \"contracts/test/TetherToken.sol\":378:661  function div(uint256 a, uint256 b) internal pure returns (uint256) {... */\n    tag_249:\n        /* \"contracts/test/TetherToken.sol\":436:443  uint256 */\n      0x0\n        /* \"contracts/test/TetherToken.sol\":533:542  uint256 c */\n      dup1\n        /* \"contracts/test/TetherToken.sol\":549:550  b */\n      dup3\n        /* \"contracts/test/TetherToken.sol\":545:546  a */\n      dup5\n        /* \"contracts/test/TetherToken.sol\":545:550  a / b */\n      dup2\n      iszero\n      iszero\n      tag_278\n      jumpi\n      invalid\n    tag_278:\n      div\n        /* \"contracts/test/TetherToken.sol\":533:550  uint256 c = a / b */\n      swap1\n      pop\n        /* \"contracts/test/TetherToken.sol\":653:654  c */\n      dup1\n        /* \"contracts/test/TetherToken.sol\":646:654  return c */\n      swap2\n      pop\n        /* \"contracts/test/TetherToken.sol\":378:661  function div(uint256 a, uint256 b) internal pure returns (uint256) {... */\n      pop\n      swap3\n      swap2\n      pop\n      pop\n      jump\t// out\n        /* \"contracts/test/TetherToken.sol\":667:787  function sub(uint256 a, uint256 b) internal pure returns (uint256) {... */\n    tag_253:\n        /* \"contracts/test/TetherToken.sol\":725:732  uint256 */\n      0x0\n        /* \"contracts/test/TetherToken.sol\":756:757  a */\n      dup3\n        /* \"contracts/test/TetherToken.sol\":751:752  b */\n      dup3\n        /* \"contracts/test/TetherToken.sol\":751:757  b <= a */\n      gt\n      iszero\n        /* \"contracts/test/TetherToken.sol\":744:758  assert(b <= a) */\n      iszero\n      iszero\n      tag_280\n      jumpi\n      invalid\n    tag_280:\n        /* \"contracts/test/TetherToken.sol\":779:780  b */\n      dup2\n        /* \"contracts/test/TetherToken.sol\":775:776  a */\n      dup4\n        /* \"contracts/test/TetherToken.sol\":775:780  a - b */\n      sub\n        /* \"contracts/test/TetherToken.sol\":768:780  return a - b */\n      swap1\n      pop\n        /* \"contracts/test/TetherToken.sol\":667:787  function sub(uint256 a, uint256 b) internal pure returns (uint256) {... */\n      swap3\n      swap2\n      pop\n      pop\n      jump\t// out\n        /* \"contracts/test/TetherToken.sol\":793:936  function add(uint256 a, uint256 b) internal pure returns (uint256) {... */\n    tag_257:\n        /* \"contracts/test/TetherToken.sol\":851:858  uint256 */\n      0x0\n        /* \"contracts/test/TetherToken.sol\":870:879  uint256 c */\n      dup1\n        /* \"contracts/test/TetherToken.sol\":886:887  b */\n      dup3\n        /* \"contracts/test/TetherToken.sol\":882:883  a */\n      dup5\n        /* \"contracts/test/TetherToken.sol\":882:887  a + b */\n      add\n        /* \"contracts/test/TetherToken.sol\":870:887  uint256 c = a + b */\n      swap1\n      pop\n        /* \"contracts/test/TetherToken.sol\":909:910  a */\n      dup4\n        /* \"contracts/test/TetherToken.sol\":904:905  c */\n      dup2\n        /* \"contracts/test/TetherToken.sol\":904:910  c >= a */\n      lt\n      iszero\n        /* \"contracts/test/TetherToken.sol\":897:911  assert(c >= a) */\n      iszero\n      iszero\n      tag_282\n      jumpi\n      invalid\n    tag_282:\n        /* \"contracts/test/TetherToken.sol\":928:929  c */\n      dup1\n        /* \"contracts/test/TetherToken.sol\":921:929  return c */\n      swap2\n      pop\n        /* \"contracts/test/TetherToken.sol\":793:936  function add(uint256 a, uint256 b) internal pure returns (uint256) {... */\n      pop\n      swap3\n      swap2\n      pop\n      pop\n      jump\t// out\n\n    auxdata: 0xa165627a7a72305820e1102019e31e3e2e3f96210f7695ac4ab6166b170eb07282a4b703efd392f2460029\n}\n",
        "bytecode": {
          "linkReferences": {},
          "object": "606060405260008060146101000a81548160ff0219169083151502179055506000600355600060045534156200003457600080fd5b60405162002d7a38038062002d7a83398101604052808051906020019091908051820191906020018051820191906020018051906020019091905050336000806101000a81548173ffffffffffffffffffffffffffffffffffffffff021916908373ffffffffffffffffffffffffffffffffffffffff160217905550836001819055508260079080519060200190620000cf9291906200017a565b508160089080519060200190620000e89291906200017a565b508060098190555083600260008060009054906101000a900473ffffffffffffffffffffffffffffffffffffffff1673ffffffffffffffffffffffffffffffffffffffff1673ffffffffffffffffffffffffffffffffffffffff168152602001908152602001600020819055506000600a60146101000a81548160ff0219169083151502179055505050505062000229565b828054600181600116156101000203166002900490600052602060002090601f016020900481019282601f10620001bd57805160ff1916838001178555620001ee565b82800160010185558215620001ee579182015b82811115620001ed578251825591602001919060010190620001d0565b5b509050620001fd919062000201565b5090565b6200022691905b808211156200022257600081600090555060010162000208565b5090565b90565b612b4180620002396000396000f30060606040523615610194576000357c0100000000000000000000000000000000000000000000000000000000900463ffffffff16806306fdde03146101995780630753c30c14610227578063095ea7b3146102605780630e136b19146102a25780630ecb93c0146102cf57806318160ddd1461030857806323b872dd1461033157806326976e3f1461039257806327e235e3146103e7578063313ce56714610434578063353907141461045d5780633eaaf86b146104865780633f4ba83a146104af57806359bf1abe146104c45780635c658165146105155780635c975abb1461058157806370a08231146105ae5780638456cb59146105fb578063893d20e8146106105780638da5cb5b1461066557806395d89b41146106ba578063a9059cbb14610748578063c0324c771461078a578063cc872b66146107b6578063db006a75146107d9578063dd62ed3e146107fc578063dd644f7214610868578063e47d606014610891578063e4997dc5146108e2578063e5b5019a1461091b578063f2fde38b14610944578063f3bdc2281461097d575b600080fd5b34156101a457600080fd5b6101ac6109b6565b6040518080602001828103825283818151815260200191508051906020019080838360005b838110156101ec5780820151818401526020810190506101d1565b50505050905090810190601f1680156102195780820380516001836020036101000a031916815260200191505b509250505060405180910390f35b341561023257600080fd5b61025e600480803573ffffffffffffffffffffffffffffffffffffffff16906020019091905050610a54565b005b341561026b57600080fd5b6102a0600480803573ffffffffffffffffffffffffffffffffffffffff16906020019091908035906020019091905050610b71565b005b34156102ad57600080fd5b6102b5610cbf565b604051808215151515815260200191505060405180910390f35b34156102da57600080fd5b610306600480803573ffffffffffffffffffffffffffffffffffffffff16906020019091905050610cd2565b005b341561031357600080fd5b61031b610deb565b6040518082815260200191505060405180910390f35b341561033c57600080fd5b610390600480803573ffffffffffffffffffffffffffffffffffffffff1690602001909190803573ffffffffffffffffffffffffffffffffffffffff16906020019091908035906020019091905050610ebb565b005b341561039d57600080fd5b6103a561109b565b604051808273ffffffffffffffffffffffffffffffffffffffff1673ffffffffffffffffffffffffffffffffffffffff16815260200191505060405180910390f35b34156103f257600080fd5b61041e600480803573ffffffffffffffffffffffffffffffffffffffff169060200190919050506110c1565b6040518082815260200191505060405180910390f35b341561043f57600080fd5b6104476110d9565b6040518082815260200191505060405180910390f35b341561046857600080fd5b6104706110df565b6040518082815260200191505060405180910390f35b341561049157600080fd5b6104996110e5565b6040518082815260200191505060405180910390f35b34156104ba57600080fd5b6104c26110eb565b005b34156104cf57600080fd5b6104fb600480803573ffffffffffffffffffffffffffffffffffffffff169060200190919050506111a9565b604051808215151515815260200191505060405180910390f35b341561052057600080fd5b61056b600480803573ffffffffffffffffffffffffffffffffffffffff1690602001909190803573ffffffffffffffffffffffffffffffffffffffff169060200190919050506111ff565b6040518082815260200191505060405180910390f35b341561058c57600080fd5b610594611224565b604051808215151515815260200191505060405180910390f35b34156105b957600080fd5b6105e5600480803573ffffffffffffffffffffffffffffffffffffffff16906020019091905050611237565b6040518082815260200191505060405180910390f35b341561060657600080fd5b61060e611346565b005b341561061b57600080fd5b610623611406565b604051808273ffffffffffffffffffffffffffffffffffffffff1673ffffffffffffffffffffffffffffffffffffffff16815260200191505060405180910390f35b341561067057600080fd5b61067861142f565b604051808273ffffffffffffffffffffffffffffffffffffffff1673ffffffffffffffffffffffffffffffffffffffff16815260200191505060405180910390f35b34156106c557600080fd5b6106cd611454565b6040518080602001828103825283818151815260200191508051906020019080838360005b8381101561070d5780820151818401526020810190506106f2565b50505050905090810190601f16801561073a5780820380516001836020036101000a031916815260200191505b509250505060405180910390f35b341561075357600080fd5b610788600480803573ffffffffffffffffffffffffffffffffffffffff169060200190919080359060200190919050506114f2565b005b341561079557600080fd5b6107b4600480803590602001909190803590602001909190505061169c565b005b34156107c157600080fd5b6107d76004808035906020019091905050611781565b005b34156107e457600080fd5b6107fa6004808035906020019091905050611978565b005b341561080757600080fd5b610852600480803573ffffffffffffffffffffffffffffffffffffffff1690602001909190803573ffffffffffffffffffffffffffffffffffffffff16906020019091905050611b0b565b6040518082815260200191505060405180910390f35b341561087357600080fd5b61087b611c50565b6040518082815260200191505060405180910390f35b341561089c57600080fd5b6108c8600480803573ffffffffffffffffffffffffffffffffffffffff16906020019091905050611c56565b604051808215151515815260200191505060405180910390f35b34156108ed57600080fd5b610919600480803573ffffffffffffffffffffffffffffffffffffffff16906020019091905050611c76565b005b341561092657600080fd5b61092e611d8f565b6040518082815260200191505060405180910390f35b341561094f57600080fd5b61097b600480803573ffffffffffffffffffffffffffffffffffffffff16906020019091905050611db3565b005b341561098857600080fd5b6109b4600480803573ffffffffffffffffffffffffffffffffffffffff16906020019091905050611e88565b005b60078054600181600116156101000203166002900480601f016020809104026020016040519081016040528092919081815260200182805460018160011615610100020316600290048015610a4c5780601f10610a2157610100808354040283529160200191610a4c565b820191906000526020600020905b815481529060010190602001808311610a2f57829003601f168201915b505050505081565b6000809054906101000a900473ffffffffffffffffffffffffffffffffffffffff1673ffffffffffffffffffffffffffffffffffffffff163373ffffffffffffffffffffffffffffffffffffffff16141515610aaf57600080fd5b6001600a60146101000a81548160ff02191690831515021790555080600a60006101000a81548173ffffffffffffffffffffffffffffffffffffffff021916908373ffffffffffffffffffffffffffffffffffffffff1602179055507fcc358699805e9a8b7f77b522628c7cb9abd07d9efb86b6fb616af1609036a99e81604051808273ffffffffffffffffffffffffffffffffffffffff1673ffffffffffffffffffffffffffffffffffffffff16815260200191505060405180910390a150565b604060048101600036905010151515610b8957600080fd5b600a60149054906101000a900460ff1615610caf57600a60009054906101000a900473ffffffffffffffffffffffffffffffffffffffff1673ffffffffffffffffffffffffffffffffffffffff1663aee92d333385856040518463ffffffff167c0100000000000000000000000000000000000000000000000000000000028152600401808473ffffffffffffffffffffffffffffffffffffffff1673ffffffffffffffffffffffffffffffffffffffff1681526020018373ffffffffffffffffffffffffffffffffffffffff1673ffffffffffffffffffffffffffffffffffffffff1681526020018281526020019350505050600060405180830381600087803b1515610c9657600080fd5b6102c65a03f11515610ca757600080fd5b505050610cba565b610cb9838361200c565b5b505050565b600a60149054906101000a900460ff1681565b6000809054906101000a900473ffffffffffffffffffffffffffffffffffffffff1673ffffffffffffffffffffffffffffffffffffffff163373ffffffffffffffffffffffffffffffffffffffff16141515610d2d57600080fd5b6001600660008373ffffffffffffffffffffffffffffffffffffffff1673ffffffffffffffffffffffffffffffffffffffff16815260200190815260200160002060006101000a81548160ff0219169083151502179055507f42e160154868087d6bfdc0ca23d96a1c1cfa32f1b72ba9ba27b69b98a0d819dc81604051808273ffffffffffffffffffffffffffffffffffffffff1673ffffffffffffffffffffffffffffffffffffffff16815260200191505060405180910390a150565b6000600a60149054906101000a900460ff1615610eb257600a60009054906101000a900473ffffffffffffffffffffffffffffffffffffffff1673ffffffffffffffffffffffffffffffffffffffff166318160ddd6000604051602001526040518163ffffffff167c0100000000000000000000000000000000000000000000000000000000028152600401602060405180830381600087803b1515610e9057600080fd5b6102c65a03f11515610ea157600080fd5b505050604051805190509050610eb8565b60015490505b90565b600060149054906101000a900460ff16151515610ed757600080fd5b600660008473ffffffffffffffffffffffffffffffffffffffff1673ffffffffffffffffffffffffffffffffffffffff16815260200190815260200160002060009054906101000a900460ff16151515610f3057600080fd5b600a60149054906101000a900460ff161561108a57600a60009054906101000a900473ffffffffffffffffffffffffffffffffffffffff1673ffffffffffffffffffffffffffffffffffffffff16638b477adb338585856040518563ffffffff167c0100000000000000000000000000000000000000000000000000000000028152600401808573ffffffffffffffffffffffffffffffffffffffff1673ffffffffffffffffffffffffffffffffffffffff1681526020018473ffffffffffffffffffffffffffffffffffffffff1673ffffffffffffffffffffffffffffffffffffffff1681526020018373ffffffffffffffffffffffffffffffffffffffff1673ffffffffffffffffffffffffffffffffffffffff168152602001828152602001945050505050600060405180830381600087803b151561107157600080fd5b6102c65a03f1151561108257600080fd5b505050611096565b6110958383836121a9565b5b505050565b600a60009054906101000a900473ffffffffffffffffffffffffffffffffffffffff1681565b60026020528060005260406000206000915090505481565b60095481565b60045481565b60015481565b6000809054906101000a900473ffffffffffffffffffffffffffffffffffffffff1673ffffffffffffffffffffffffffffffffffffffff163373ffffffffffffffffffffffffffffffffffffffff1614151561114657600080fd5b600060149054906101000a900460ff16151561116157600080fd5b60008060146101000a81548160ff0219169083151502179055507f7805862f689e2f13df9f062ff482ad3ad112aca9e0847911ed832e158c525b3360405160405180910390a1565b6000600660008373ffffffffffffffffffffffffffffffffffffffff1673ffffffffffffffffffffffffffffffffffffffff16815260200190815260200160002060009054906101000a900460ff169050919050565b6005602052816000526040600020602052806000526040600020600091509150505481565b600060149054906101000a900460ff1681565b6000600a60149054906101000a900460ff161561133557600a60009054906101000a900473ffffffffffffffffffffffffffffffffffffffff1673ffffffffffffffffffffffffffffffffffffffff166370a08231836000604051602001526040518263ffffffff167c0100000000000000000000000000000000000000000000000000000000028152600401808273ffffffffffffffffffffffffffffffffffffffff1673ffffffffffffffffffffffffffffffffffffffff168152602001915050602060405180830381600087803b151561131357600080fd5b6102c65a03f1151561132457600080fd5b505050604051805190509050611341565b61133e82612650565b90505b919050565b6000809054906101000a900473ffffffffffffffffffffffffffffffffffffffff1673ffffffffffffffffffffffffffffffffffffffff163373ffffffffffffffffffffffffffffffffffffffff161415156113a157600080fd5b600060149054906101000a900460ff161515156113bd57600080fd5b6001600060146101000a81548160ff0219169083151502179055507f6985a02210a168e66602d3235cb6db0e70f92b3ba4d376a33c0f3d9434bff62560405160405180910390a1565b60008060009054906101000a900473ffffffffffffffffffffffffffffffffffffffff16905090565b6000809054906101000a900473ffffffffffffffffffffffffffffffffffffffff1681565b60088054600181600116156101000203166002900480601f0160208091040260200160405190810160405280929190818152602001828054600181600116156101000203166002900480156114ea5780601f106114bf576101008083540402835291602001916114ea565b820191906000526020600020905b8154815290600101906020018083116114cd57829003601f168201915b505050505081565b600060149054906101000a900460ff1615151561150e57600080fd5b600660003373ffffffffffffffffffffffffffffffffffffffff1673ffffffffffffffffffffffffffffffffffffffff16815260200190815260200160002060009054906101000a900460ff1615151561156757600080fd5b600a60149054906101000a900460ff161561168d57600a60009054906101000a900473ffffffffffffffffffffffffffffffffffffffff1673ffffffffffffffffffffffffffffffffffffffff16636e18980a3384846040518463ffffffff167c0100000000000000000000000000000000000000000000000000000000028152600401808473ffffffffffffffffffffffffffffffffffffffff1673ffffffffffffffffffffffffffffffffffffffff1681526020018373ffffffffffffffffffffffffffffffffffffffff1673ffffffffffffffffffffffffffffffffffffffff1681526020018281526020019350505050600060405180830381600087803b151561167457600080fd5b6102c65a03f1151561168557600080fd5b505050611698565b6116978282612699565b5b5050565b6000809054906101000a900473ffffffffffffffffffffffffffffffffffffffff1673ffffffffffffffffffffffffffffffffffffffff163373ffffffffffffffffffffffffffffffffffffffff161415156116f757600080fd5b60148210151561170657600080fd5b60328110151561171557600080fd5b81600381905550611734600954600a0a82612a0190919063ffffffff16565b6004819055507fb044a1e409eac5c48e5af22d4af52670dd1a99059537a78b31b48c6500a6354e600354600454604051808381526020018281526020019250505060405180910390a15050565b6000809054906101000a900473ffffffffffffffffffffffffffffffffffffffff1673ffffffffffffffffffffffffffffffffffffffff163373ffffffffffffffffffffffffffffffffffffffff161415156117dc57600080fd5b60015481600154011115156117f057600080fd5b600260008060009054906101000a900473ffffffffffffffffffffffffffffffffffffffff1673ffffffffffffffffffffffffffffffffffffffff1673ffffffffffffffffffffffffffffffffffffffff1681526020019081526020016000205481600260008060009054906101000a900473ffffffffffffffffffffffffffffffffffffffff1673ffffffffffffffffffffffffffffffffffffffff1673ffffffffffffffffffffffffffffffffffffffff16815260200190815260200160002054011115156118c057600080fd5b80600260008060009054906101000a900473ffffffffffffffffffffffffffffffffffffffff1673ffffffffffffffffffffffffffffffffffffffff1673ffffffffffffffffffffffffffffffffffffffff16815260200190815260200160002060008282540192505081905550806001600082825401925050819055507fcb8241adb0c3fdb35b70c24ce35c5eb0c17af7431c99f827d44a445ca624176a816040518082815260200191505060405180910390a150565b6000809054906101000a900473ffffffffffffffffffffffffffffffffffffffff1673ffffffffffffffffffffffffffffffffffffffff163373ffffffffffffffffffffffffffffffffffffffff161415156119d357600080fd5b80600154101515156119e457600080fd5b80600260008060009054906101000a900473ffffffffffffffffffffffffffffffffffffffff1673ffffffffffffffffffffffffffffffffffffffff1673ffffffffffffffffffffffffffffffffffffffff1681526020019081526020016000205410151515611a5357600080fd5b8060016000828254039250508190555080600260008060009054906101000a900473ffffffffffffffffffffffffffffffffffffffff1673ffffffffffffffffffffffffffffffffffffffff1673ffffffffffffffffffffffffffffffffffffffff168152602001908152602001600020600082825403925050819055507f702d5967f45f6513a38ffc42d6ba9bf230bd40e8f53b16363c7eb4fd2deb9a44816040518082815260200191505060405180910390a150565b6000600a60149054906101000a900460ff1615611c3d57600a60009054906101000a900473ffffffffffffffffffffffffffffffffffffffff1673ffffffffffffffffffffffffffffffffffffffff1663dd62ed3e84846000604051602001526040518363ffffffff167c0100000000000000000000000000000000000000000000000000000000028152600401808373ffffffffffffffffffffffffffffffffffffffff1673ffffffffffffffffffffffffffffffffffffffff1681526020018273ffffffffffffffffffffffffffffffffffffffff1673ffffffffffffffffffffffffffffffffffffffff16815260200192505050602060405180830381600087803b1515611c1b57600080fd5b6102c65a03f11515611c2c57600080fd5b505050604051805190509050611c4a565b611c478383612a3c565b90505b92915050565b60035481565b60066020528060005260406000206000915054906101000a900460ff1681565b6000809054906101000a900473ffffffffffffffffffffffffffffffffffffffff1673ffffffffffffffffffffffffffffffffffffffff163373ffffffffffffffffffffffffffffffffffffffff16141515611cd157600080fd5b6000600660008373ffffffffffffffffffffffffffffffffffffffff1673ffffffffffffffffffffffffffffffffffffffff16815260200190815260200160002060006101000a81548160ff0219169083151502179055507fd7e9ec6e6ecd65492dce6bf513cd6867560d49544421d0783ddf06e76c24470c81604051808273ffffffffffffffffffffffffffffffffffffffff1673ffffffffffffffffffffffffffffffffffffffff16815260200191505060405180910390a150565b7fffffffffffffffffffffffffffffffffffffffffffffffffffffffffffffffff81565b6000809054906101000a900473ffffffffffffffffffffffffffffffffffffffff1673ffffffffffffffffffffffffffffffffffffffff163373ffffffffffffffffffffffffffffffffffffffff16141515611e0e57600080fd5b600073ffffffffffffffffffffffffffffffffffffffff168173ffffffffffffffffffffffffffffffffffffffff16141515611e8557806000806101000a81548173ffffffffffffffffffffffffffffffffffffffff021916908373ffffffffffffffffffffffffffffffffffffffff1602179055505b50565b60008060009054906101000a900473ffffffffffffffffffffffffffffffffffffffff1673ffffffffffffffffffffffffffffffffffffffff163373ffffffffffffffffffffffffffffffffffffffff16141515611ee557600080fd5b600660008373ffffffffffffffffffffffffffffffffffffffff1673ffffffffffffffffffffffffffffffffffffffff16815260200190815260200160002060009054906101000a900460ff161515611f3d57600080fd5b611f4682611237565b90506000600260008473ffffffffffffffffffffffffffffffffffffffff1673ffffffffffffffffffffffffffffffffffffffff16815260200190815260200160002081905550806001600082825403925050819055507f61e6e66b0d6339b2980aecc6ccc0039736791f0ccde9ed512e789a7fbdd698c68282604051808373ffffffffffffffffffffffffffffffffffffffff1673ffffffffffffffffffffffffffffffffffffffff1681526020018281526020019250505060405180910390a15050565b60406004810160003690501015151561202457600080fd5b600082141580156120b257506000600560003373ffffffffffffffffffffffffffffffffffffffff1673ffffffffffffffffffffffffffffffffffffffff16815260200190815260200160002060008573ffffffffffffffffffffffffffffffffffffffff1673ffffffffffffffffffffffffffffffffffffffff1681526020019081526020016000205414155b1515156120be57600080fd5b81600560003373ffffffffffffffffffffffffffffffffffffffff1673ffffffffffffffffffffffffffffffffffffffff16815260200190815260200160002060008573ffffffffffffffffffffffffffffffffffffffff1673ffffffffffffffffffffffffffffffffffffffff168152602001908152602001600020819055508273ffffffffffffffffffffffffffffffffffffffff163373ffffffffffffffffffffffffffffffffffffffff167f8c5be1e5ebec7d5bd14f71427d1e84f3dd0314c0f7b2291e5b200ac8c7c3b925846040518082815260200191505060405180910390a3505050565b60008060006060600481016000369050101515156121c657600080fd5b600560008873ffffffffffffffffffffffffffffffffffffffff1673ffffffffffffffffffffffffffffffffffffffff16815260200190815260200160002060003373ffffffffffffffffffffffffffffffffffffffff1673ffffffffffffffffffffffffffffffffffffffff16815260200190815260200160002054935061226e61271061226060035488612a0190919063ffffffff16565b612ac390919063ffffffff16565b92506004548311156122805760045492505b7fffffffffffffffffffffffffffffffffffffffffffffffffffffffffffffffff84101561233c576122bb8585612ade90919063ffffffff16565b600560008973ffffffffffffffffffffffffffffffffffffffff1673ffffffffffffffffffffffffffffffffffffffff16815260200190815260200160002060003373ffffffffffffffffffffffffffffffffffffffff1673ffffffffffffffffffffffffffffffffffffffff168152602001908152602001600020819055505b61234f8386612ade90919063ffffffff16565b91506123a385600260008a73ffffffffffffffffffffffffffffffffffffffff1673ffffffffffffffffffffffffffffffffffffffff16815260200190815260200160002054612ade90919063ffffffff16565b600260008973ffffffffffffffffffffffffffffffffffffffff1673ffffffffffffffffffffffffffffffffffffffff1681526020019081526020016000208190555061243882600260008973ffffffffffffffffffffffffffffffffffffffff1673ffffffffffffffffffffffffffffffffffffffff16815260200190815260200160002054612af790919063ffffffff16565b600260008873ffffffffffffffffffffffffffffffffffffffff1673ffffffffffffffffffffffffffffffffffffffff1681526020019081526020016000208190555060008311156125e2576124f783600260008060009054906101000a900473ffffffffffffffffffffffffffffffffffffffff1673ffffffffffffffffffffffffffffffffffffffff1673ffffffffffffffffffffffffffffffffffffffff16815260200190815260200160002054612af790919063ffffffff16565b600260008060009054906101000a900473ffffffffffffffffffffffffffffffffffffffff1673ffffffffffffffffffffffffffffffffffffffff1673ffffffffffffffffffffffffffffffffffffffff168152602001908152602001600020819055506000809054906101000a900473ffffffffffffffffffffffffffffffffffffffff1673ffffffffffffffffffffffffffffffffffffffff168773ffffffffffffffffffffffffffffffffffffffff167fddf252ad1be2c89b69c2b068fc378daa952ba7f163c4a11628f55a4df523b3ef856040518082815260200191505060405180910390a35b8573ffffffffffffffffffffffffffffffffffffffff168773ffffffffffffffffffffffffffffffffffffffff167fddf252ad1be2c89b69c2b068fc378daa952ba7f163c4a11628f55a4df523b3ef846040518082815260200191505060405180910390a350505050505050565b6000600260008373ffffffffffffffffffffffffffffffffffffffff1673ffffffffffffffffffffffffffffffffffffffff168152602001908152602001600020549050919050565b6000806040600481016000369050101515156126b457600080fd5b6126dd6127106126cf60035487612a0190919063ffffffff16565b612ac390919063ffffffff16565b92506004548311156126ef5760045492505b6127028385612ade90919063ffffffff16565b915061275684600260003373ffffffffffffffffffffffffffffffffffffffff1673ffffffffffffffffffffffffffffffffffffffff16815260200190815260200160002054612ade90919063ffffffff16565b600260003373ffffffffffffffffffffffffffffffffffffffff1673ffffffffffffffffffffffffffffffffffffffff168152602001908152602001600020819055506127eb82600260008873ffffffffffffffffffffffffffffffffffffffff1673ffffffffffffffffffffffffffffffffffffffff16815260200190815260200160002054612af790919063ffffffff16565b600260008773ffffffffffffffffffffffffffffffffffffffff1673ffffffffffffffffffffffffffffffffffffffff168152602001908152602001600020819055506000831115612995576128aa83600260008060009054906101000a900473ffffffffffffffffffffffffffffffffffffffff1673ffffffffffffffffffffffffffffffffffffffff1673ffffffffffffffffffffffffffffffffffffffff16815260200190815260200160002054612af790919063ffffffff16565b600260008060009054906101000a900473ffffffffffffffffffffffffffffffffffffffff1673ffffffffffffffffffffffffffffffffffffffff1673ffffffffffffffffffffffffffffffffffffffff168152602001908152602001600020819055506000809054906101000a900473ffffffffffffffffffffffffffffffffffffffff1673ffffffffffffffffffffffffffffffffffffffff163373ffffffffffffffffffffffffffffffffffffffff167fddf252ad1be2c89b69c2b068fc378daa952ba7f163c4a11628f55a4df523b3ef856040518082815260200191505060405180910390a35b8473ffffffffffffffffffffffffffffffffffffffff163373ffffffffffffffffffffffffffffffffffffffff167fddf252ad1be2c89b69c2b068fc378daa952ba7f163c4a11628f55a4df523b3ef846040518082815260200191505060405180910390a35050505050565b6000806000841415612a165760009150612a35565b8284029050828482811515612a2757fe5b04141515612a3157fe5b8091505b5092915050565b6000600560008473ffffffffffffffffffffffffffffffffffffffff1673ffffffffffffffffffffffffffffffffffffffff16815260200190815260200160002060008373ffffffffffffffffffffffffffffffffffffffff1673ffffffffffffffffffffffffffffffffffffffff16815260200190815260200160002054905092915050565b6000808284811515612ad157fe5b0490508091505092915050565b6000828211151515612aec57fe5b818303905092915050565b6000808284019050838110151515612b0b57fe5b80915050929150505600a165627a7a72305820e1102019e31e3e2e3f96210f7695ac4ab6166b170eb07282a4b703efd392f2460029",
          "opcodes": "PUSH1 0x60 PUSH1 0x40 MSTORE PUSH1 0x0 DUP1 PUSH1 0x14 PUSH2 0x100 EXP DUP2 SLOAD DUP2 PUSH1 0xFF MUL NOT AND SWAP1 DUP4 ISZERO ISZERO MUL OR SWAP1 SSTORE POP PUSH1 0x0 PUSH1 0x3 SSTORE PUSH1 0x0 PUSH1 0x4 SSTORE CALLVALUE ISZERO PUSH3 0x34 JUMPI PUSH1 0x0 DUP1 REVERT JUMPDEST PUSH1 0x40 MLOAD PUSH3 0x2D7A CODESIZE SUB DUP1 PUSH3 0x2D7A DUP4 CODECOPY DUP2 ADD PUSH1 0x40 MSTORE DUP1 DUP1 MLOAD SWAP1 PUSH1 0x20 ADD SWAP1 SWAP2 SWAP1 DUP1 MLOAD DUP3 ADD SWAP2 SWAP1 PUSH1 0x20 ADD DUP1 MLOAD DUP3 ADD SWAP2 SWAP1 PUSH1 0x20 ADD DUP1 MLOAD SWAP1 PUSH1 0x20 ADD SWAP1 SWAP2 SWAP1 POP POP CALLER PUSH1 0x0 DUP1 PUSH2 0x100 EXP DUP2 SLOAD DUP2 PUSH20 0xFFFFFFFFFFFFFFFFFFFFFFFFFFFFFFFFFFFFFFFF MUL NOT AND SWAP1 DUP4 PUSH20 0xFFFFFFFFFFFFFFFFFFFFFFFFFFFFFFFFFFFFFFFF AND MUL OR SWAP1 SSTORE POP DUP4 PUSH1 0x1 DUP2 SWAP1 SSTORE POP DUP3 PUSH1 0x7 SWAP1 DUP1 MLOAD SWAP1 PUSH1 0x20 ADD SWAP1 PUSH3 0xCF SWAP3 SWAP2 SWAP1 PUSH3 0x17A JUMP JUMPDEST POP DUP2 PUSH1 0x8 SWAP1 DUP1 MLOAD SWAP1 PUSH1 0x20 ADD SWAP1 PUSH3 0xE8 SWAP3 SWAP2 SWAP1 PUSH3 0x17A JUMP JUMPDEST POP DUP1 PUSH1 0x9 DUP2 SWAP1 SSTORE POP DUP4 PUSH1 0x2 PUSH1 0x0 DUP1 PUSH1 0x0 SWAP1 SLOAD SWAP1 PUSH2 0x100 EXP SWAP1 DIV PUSH20 0xFFFFFFFFFFFFFFFFFFFFFFFFFFFFFFFFFFFFFFFF AND PUSH20 0xFFFFFFFFFFFFFFFFFFFFFFFFFFFFFFFFFFFFFFFF AND PUSH20 0xFFFFFFFFFFFFFFFFFFFFFFFFFFFFFFFFFFFFFFFF AND DUP2 MSTORE PUSH1 0x20 ADD SWAP1 DUP2 MSTORE PUSH1 0x20 ADD PUSH1 0x0 KECCAK256 DUP2 SWAP1 SSTORE POP PUSH1 0x0 PUSH1 0xA PUSH1 0x14 PUSH2 0x100 EXP DUP2 SLOAD DUP2 PUSH1 0xFF MUL NOT AND SWAP1 DUP4 ISZERO ISZERO MUL OR SWAP1 SSTORE POP POP POP POP POP PUSH3 0x229 JUMP JUMPDEST DUP3 DUP1 SLOAD PUSH1 0x1 DUP2 PUSH1 0x1 AND ISZERO PUSH2 0x100 MUL SUB AND PUSH1 0x2 SWAP1 DIV SWAP1 PUSH1 0x0 MSTORE PUSH1 0x20 PUSH1 0x0 KECCAK256 SWAP1 PUSH1 0x1F ADD PUSH1 0x20 SWAP1 DIV DUP2 ADD SWAP3 DUP3 PUSH1 0x1F LT PUSH3 0x1BD JUMPI DUP1 MLOAD PUSH1 0xFF NOT AND DUP4 DUP1 ADD OR DUP6 SSTORE PUSH3 0x1EE JUMP JUMPDEST DUP3 DUP1 ADD PUSH1 0x1 ADD DUP6 SSTORE DUP3 ISZERO PUSH3 0x1EE JUMPI SWAP2 DUP3 ADD JUMPDEST DUP3 DUP2 GT ISZERO PUSH3 0x1ED JUMPI DUP3 MLOAD DUP3 SSTORE SWAP2 PUSH1 0x20 ADD SWAP2 SWAP1 PUSH1 0x1 ADD SWAP1 PUSH3 0x1D0 JUMP JUMPDEST JUMPDEST POP SWAP1 POP PUSH3 0x1FD SWAP2 SWAP1 PUSH3 0x201 JUMP JUMPDEST POP SWAP1 JUMP JUMPDEST PUSH3 0x226 SWAP2 SWAP1 JUMPDEST DUP1 DUP3 GT ISZERO PUSH3 0x222 JUMPI PUSH1 0x0 DUP2 PUSH1 0x0 SWAP1 SSTORE POP PUSH1 0x1 ADD PUSH3 0x208 JUMP JUMPDEST POP SWAP1 JUMP JUMPDEST SWAP1 JUMP JUMPDEST PUSH2 0x2B41 DUP1 PUSH3 0x239 PUSH1 0x0 CODECOPY PUSH1 0x0 RETURN STOP PUSH1 0x60 PUSH1 0x40 MSTORE CALLDATASIZE ISZERO PUSH2 0x194 JUMPI PUSH1 0x0 CALLDATALOAD PUSH29 0x100000000000000000000000000000000000000000000000000000000 SWAP1 DIV PUSH4 0xFFFFFFFF AND DUP1 PUSH4 0x6FDDE03 EQ PUSH2 0x199 JUMPI DUP1 PUSH4 0x753C30C EQ PUSH2 0x227 JUMPI DUP1 PUSH4 0x95EA7B3 EQ PUSH2 0x260 JUMPI DUP1 PUSH4 0xE136B19 EQ PUSH2 0x2A2 JUMPI DUP1 PUSH4 0xECB93C0 EQ PUSH2 0x2CF JUMPI DUP1 PUSH4 0x18160DDD EQ PUSH2 0x308 JUMPI DUP1 PUSH4 0x23B872DD EQ PUSH2 0x331 JUMPI DUP1 PUSH4 0x26976E3F EQ PUSH2 0x392 JUMPI DUP1 PUSH4 0x27E235E3 EQ PUSH2 0x3E7 JUMPI DUP1 PUSH4 0x313CE567 EQ PUSH2 0x434 JUMPI DUP1 PUSH4 0x35390714 EQ PUSH2 0x45D JUMPI DUP1 PUSH4 0x3EAAF86B EQ PUSH2 0x486 JUMPI DUP1 PUSH4 0x3F4BA83A EQ PUSH2 0x4AF JUMPI DUP1 PUSH4 0x59BF1ABE EQ PUSH2 0x4C4 JUMPI DUP1 PUSH4 0x5C658165 EQ PUSH2 0x515 JUMPI DUP1 PUSH4 0x5C975ABB EQ PUSH2 0x581 JUMPI DUP1 PUSH4 0x70A08231 EQ PUSH2 0x5AE JUMPI DUP1 PUSH4 0x8456CB59 EQ PUSH2 0x5FB JUMPI DUP1 PUSH4 0x893D20E8 EQ PUSH2 0x610 JUMPI DUP1 PUSH4 0x8DA5CB5B EQ PUSH2 0x665 JUMPI DUP1 PUSH4 0x95D89B41 EQ PUSH2 0x6BA JUMPI DUP1 PUSH4 0xA9059CBB EQ PUSH2 0x748 JUMPI DUP1 PUSH4 0xC0324C77 EQ PUSH2 0x78A JUMPI DUP1 PUSH4 0xCC872B66 EQ PUSH2 0x7B6 JUMPI DUP1 PUSH4 0xDB006A75 EQ PUSH2 0x7D9 JUMPI DUP1 PUSH4 0xDD62ED3E EQ PUSH2 0x7FC JUMPI DUP1 PUSH4 0xDD644F72 EQ PUSH2 0x868 JUMPI DUP1 PUSH4 0xE47D6060 EQ PUSH2 0x891 JUMPI DUP1 PUSH4 0xE4997DC5 EQ PUSH2 0x8E2 JUMPI DUP1 PUSH4 0xE5B5019A EQ PUSH2 0x91B JUMPI DUP1 PUSH4 0xF2FDE38B EQ PUSH2 0x944 JUMPI DUP1 PUSH4 0xF3BDC228 EQ PUSH2 0x97D JUMPI JUMPDEST PUSH1 0x0 DUP1 REVERT JUMPDEST CALLVALUE ISZERO PUSH2 0x1A4 JUMPI PUSH1 0x0 DUP1 REVERT JUMPDEST PUSH2 0x1AC PUSH2 0x9B6 JUMP JUMPDEST PUSH1 0x40 MLOAD DUP1 DUP1 PUSH1 0x20 ADD DUP3 DUP2 SUB DUP3 MSTORE DUP4 DUP2 DUP2 MLOAD DUP2 MSTORE PUSH1 0x20 ADD SWAP2 POP DUP1 MLOAD SWAP1 PUSH1 0x20 ADD SWAP1 DUP1 DUP4 DUP4 PUSH1 0x0 JUMPDEST DUP4 DUP2 LT ISZERO PUSH2 0x1EC JUMPI DUP1 DUP3 ADD MLOAD DUP2 DUP5 ADD MSTORE PUSH1 0x20 DUP2 ADD SWAP1 POP PUSH2 0x1D1 JUMP JUMPDEST POP POP POP POP SWAP1 POP SWAP1 DUP2 ADD SWAP1 PUSH1 0x1F AND DUP1 ISZERO PUSH2 0x219 JUMPI DUP1 DUP3 SUB DUP1 MLOAD PUSH1 0x1 DUP4 PUSH1 0x20 SUB PUSH2 0x100 EXP SUB NOT AND DUP2 MSTORE PUSH1 0x20 ADD SWAP2 POP JUMPDEST POP SWAP3 POP POP POP PUSH1 0x40 MLOAD DUP1 SWAP2 SUB SWAP1 RETURN JUMPDEST CALLVALUE ISZERO PUSH2 0x232 JUMPI PUSH1 0x0 DUP1 REVERT JUMPDEST PUSH2 0x25E PUSH1 0x4 DUP1 DUP1 CALLDATALOAD PUSH20 0xFFFFFFFFFFFFFFFFFFFFFFFFFFFFFFFFFFFFFFFF AND SWAP1 PUSH1 0x20 ADD SWAP1 SWAP2 SWAP1 POP POP PUSH2 0xA54 JUMP JUMPDEST STOP JUMPDEST CALLVALUE ISZERO PUSH2 0x26B JUMPI PUSH1 0x0 DUP1 REVERT JUMPDEST PUSH2 0x2A0 PUSH1 0x4 DUP1 DUP1 CALLDATALOAD PUSH20 0xFFFFFFFFFFFFFFFFFFFFFFFFFFFFFFFFFFFFFFFF AND SWAP1 PUSH1 0x20 ADD SWAP1 SWAP2 SWAP1 DUP1 CALLDATALOAD SWAP1 PUSH1 0x20 ADD SWAP1 SWAP2 SWAP1 POP POP PUSH2 0xB71 JUMP JUMPDEST STOP JUMPDEST CALLVALUE ISZERO PUSH2 0x2AD JUMPI PUSH1 0x0 DUP1 REVERT JUMPDEST PUSH2 0x2B5 PUSH2 0xCBF JUMP JUMPDEST PUSH1 0x40 MLOAD DUP1 DUP3 ISZERO ISZERO ISZERO ISZERO DUP2 MSTORE PUSH1 0x20 ADD SWAP2 POP POP PUSH1 0x40 MLOAD DUP1 SWAP2 SUB SWAP1 RETURN JUMPDEST CALLVALUE ISZERO PUSH2 0x2DA JUMPI PUSH1 0x0 DUP1 REVERT JUMPDEST PUSH2 0x306 PUSH1 0x4 DUP1 DUP1 CALLDATALOAD PUSH20 0xFFFFFFFFFFFFFFFFFFFFFFFFFFFFFFFFFFFFFFFF AND SWAP1 PUSH1 0x20 ADD SWAP1 SWAP2 SWAP1 POP POP PUSH2 0xCD2 JUMP JUMPDEST STOP JUMPDEST CALLVALUE ISZERO PUSH2 0x313 JUMPI PUSH1 0x0 DUP1 REVERT JUMPDEST PUSH2 0x31B PUSH2 0xDEB JUMP JUMPDEST PUSH1 0x40 MLOAD DUP1 DUP3 DUP2 MSTORE PUSH1 0x20 ADD SWAP2 POP POP PUSH1 0x40 MLOAD DUP1 SWAP2 SUB SWAP1 RETURN JUMPDEST CALLVALUE ISZERO PUSH2 0x33C JUMPI PUSH1 0x0 DUP1 REVERT JUMPDEST PUSH2 0x390 PUSH1 0x4 DUP1 DUP1 CALLDATALOAD PUSH20 0xFFFFFFFFFFFFFFFFFFFFFFFFFFFFFFFFFFFFFFFF AND SWAP1 PUSH1 0x20 ADD SWAP1 SWAP2 SWAP1 DUP1 CALLDATALOAD PUSH20 0xFFFFFFFFFFFFFFFFFFFFFFFFFFFFFFFFFFFFFFFF AND SWAP1 PUSH1 0x20 ADD SWAP1 SWAP2 SWAP1 DUP1 CALLDATALOAD SWAP1 PUSH1 0x20 ADD SWAP1 SWAP2 SWAP1 POP POP PUSH2 0xEBB JUMP JUMPDEST STOP JUMPDEST CALLVALUE ISZERO PUSH2 0x39D JUMPI PUSH1 0x0 DUP1 REVERT JUMPDEST PUSH2 0x3A5 PUSH2 0x109B JUMP JUMPDEST PUSH1 0x40 MLOAD DUP1 DUP3 PUSH20 0xFFFFFFFFFFFFFFFFFFFFFFFFFFFFFFFFFFFFFFFF AND PUSH20 0xFFFFFFFFFFFFFFFFFFFFFFFFFFFFFFFFFFFFFFFF AND DUP2 MSTORE PUSH1 0x20 ADD SWAP2 POP POP PUSH1 0x40 MLOAD DUP1 SWAP2 SUB SWAP1 RETURN JUMPDEST CALLVALUE ISZERO PUSH2 0x3F2 JUMPI PUSH1 0x0 DUP1 REVERT JUMPDEST PUSH2 0x41E PUSH1 0x4 DUP1 DUP1 CALLDATALOAD PUSH20 0xFFFFFFFFFFFFFFFFFFFFFFFFFFFFFFFFFFFFFFFF AND SWAP1 PUSH1 0x20 ADD SWAP1 SWAP2 SWAP1 POP POP PUSH2 0x10C1 JUMP JUMPDEST PUSH1 0x40 MLOAD DUP1 DUP3 DUP2 MSTORE PUSH1 0x20 ADD SWAP2 POP POP PUSH1 0x40 MLOAD DUP1 SWAP2 SUB SWAP1 RETURN JUMPDEST CALLVALUE ISZERO PUSH2 0x43F JUMPI PUSH1 0x0 DUP1 REVERT JUMPDEST PUSH2 0x447 PUSH2 0x10D9 JUMP JUMPDEST PUSH1 0x40 MLOAD DUP1 DUP3 DUP2 MSTORE PUSH1 0x20 ADD SWAP2 POP POP PUSH1 0x40 MLOAD DUP1 SWAP2 SUB SWAP1 RETURN JUMPDEST CALLVALUE ISZERO PUSH2 0x468 JUMPI PUSH1 0x0 DUP1 REVERT JUMPDEST PUSH2 0x470 PUSH2 0x10DF JUMP JUMPDEST PUSH1 0x40 MLOAD DUP1 DUP3 DUP2 MSTORE PUSH1 0x20 ADD SWAP2 POP POP PUSH1 0x40 MLOAD DUP1 SWAP2 SUB SWAP1 RETURN JUMPDEST CALLVALUE ISZERO PUSH2 0x491 JUMPI PUSH1 0x0 DUP1 REVERT JUMPDEST PUSH2 0x499 PUSH2 0x10E5 JUMP JUMPDEST PUSH1 0x40 MLOAD DUP1 DUP3 DUP2 MSTORE PUSH1 0x20 ADD SWAP2 POP POP PUSH1 0x40 MLOAD DUP1 SWAP2 SUB SWAP1 RETURN JUMPDEST CALLVALUE ISZERO PUSH2 0x4BA JUMPI PUSH1 0x0 DUP1 REVERT JUMPDEST PUSH2 0x4C2 PUSH2 0x10EB JUMP JUMPDEST STOP JUMPDEST CALLVALUE ISZERO PUSH2 0x4CF JUMPI PUSH1 0x0 DUP1 REVERT JUMPDEST PUSH2 0x4FB PUSH1 0x4 DUP1 DUP1 CALLDATALOAD PUSH20 0xFFFFFFFFFFFFFFFFFFFFFFFFFFFFFFFFFFFFFFFF AND SWAP1 PUSH1 0x20 ADD SWAP1 SWAP2 SWAP1 POP POP PUSH2 0x11A9 JUMP JUMPDEST PUSH1 0x40 MLOAD DUP1 DUP3 ISZERO ISZERO ISZERO ISZERO DUP2 MSTORE PUSH1 0x20 ADD SWAP2 POP POP PUSH1 0x40 MLOAD DUP1 SWAP2 SUB SWAP1 RETURN JUMPDEST CALLVALUE ISZERO PUSH2 0x520 JUMPI PUSH1 0x0 DUP1 REVERT JUMPDEST PUSH2 0x56B PUSH1 0x4 DUP1 DUP1 CALLDATALOAD PUSH20 0xFFFFFFFFFFFFFFFFFFFFFFFFFFFFFFFFFFFFFFFF AND SWAP1 PUSH1 0x20 ADD SWAP1 SWAP2 SWAP1 DUP1 CALLDATALOAD PUSH20 0xFFFFFFFFFFFFFFFFFFFFFFFFFFFFFFFFFFFFFFFF AND SWAP1 PUSH1 0x20 ADD SWAP1 SWAP2 SWAP1 POP POP PUSH2 0x11FF JUMP JUMPDEST PUSH1 0x40 MLOAD DUP1 DUP3 DUP2 MSTORE PUSH1 0x20 ADD SWAP2 POP POP PUSH1 0x40 MLOAD DUP1 SWAP2 SUB SWAP1 RETURN JUMPDEST CALLVALUE ISZERO PUSH2 0x58C JUMPI PUSH1 0x0 DUP1 REVERT JUMPDEST PUSH2 0x594 PUSH2 0x1224 JUMP JUMPDEST PUSH1 0x40 MLOAD DUP1 DUP3 ISZERO ISZERO ISZERO ISZERO DUP2 MSTORE PUSH1 0x20 ADD SWAP2 POP POP PUSH1 0x40 MLOAD DUP1 SWAP2 SUB SWAP1 RETURN JUMPDEST CALLVALUE ISZERO PUSH2 0x5B9 JUMPI PUSH1 0x0 DUP1 REVERT JUMPDEST PUSH2 0x5E5 PUSH1 0x4 DUP1 DUP1 CALLDATALOAD PUSH20 0xFFFFFFFFFFFFFFFFFFFFFFFFFFFFFFFFFFFFFFFF AND SWAP1 PUSH1 0x20 ADD SWAP1 SWAP2 SWAP1 POP POP PUSH2 0x1237 JUMP JUMPDEST PUSH1 0x40 MLOAD DUP1 DUP3 DUP2 MSTORE PUSH1 0x20 ADD SWAP2 POP POP PUSH1 0x40 MLOAD DUP1 SWAP2 SUB SWAP1 RETURN JUMPDEST CALLVALUE ISZERO PUSH2 0x606 JUMPI PUSH1 0x0 DUP1 REVERT JUMPDEST PUSH2 0x60E PUSH2 0x1346 JUMP JUMPDEST STOP JUMPDEST CALLVALUE ISZERO PUSH2 0x61B JUMPI PUSH1 0x0 DUP1 REVERT JUMPDEST PUSH2 0x623 PUSH2 0x1406 JUMP JUMPDEST PUSH1 0x40 MLOAD DUP1 DUP3 PUSH20 0xFFFFFFFFFFFFFFFFFFFFFFFFFFFFFFFFFFFFFFFF AND PUSH20 0xFFFFFFFFFFFFFFFFFFFFFFFFFFFFFFFFFFFFFFFF AND DUP2 MSTORE PUSH1 0x20 ADD SWAP2 POP POP PUSH1 0x40 MLOAD DUP1 SWAP2 SUB SWAP1 RETURN JUMPDEST CALLVALUE ISZERO PUSH2 0x670 JUMPI PUSH1 0x0 DUP1 REVERT JUMPDEST PUSH2 0x678 PUSH2 0x142F JUMP JUMPDEST PUSH1 0x40 MLOAD DUP1 DUP3 PUSH20 0xFFFFFFFFFFFFFFFFFFFFFFFFFFFFFFFFFFFFFFFF AND PUSH20 0xFFFFFFFFFFFFFFFFFFFFFFFFFFFFFFFFFFFFFFFF AND DUP2 MSTORE PUSH1 0x20 ADD SWAP2 POP POP PUSH1 0x40 MLOAD DUP1 SWAP2 SUB SWAP1 RETURN JUMPDEST CALLVALUE ISZERO PUSH2 0x6C5 JUMPI PUSH1 0x0 DUP1 REVERT JUMPDEST PUSH2 0x6CD PUSH2 0x1454 JUMP JUMPDEST PUSH1 0x40 MLOAD DUP1 DUP1 PUSH1 0x20 ADD DUP3 DUP2 SUB DUP3 MSTORE DUP4 DUP2 DUP2 MLOAD DUP2 MSTORE PUSH1 0x20 ADD SWAP2 POP DUP1 MLOAD SWAP1 PUSH1 0x20 ADD SWAP1 DUP1 DUP4 DUP4 PUSH1 0x0 JUMPDEST DUP4 DUP2 LT ISZERO PUSH2 0x70D JUMPI DUP1 DUP3 ADD MLOAD DUP2 DUP5 ADD MSTORE PUSH1 0x20 DUP2 ADD SWAP1 POP PUSH2 0x6F2 JUMP JUMPDEST POP POP POP POP SWAP1 POP SWAP1 DUP2 ADD SWAP1 PUSH1 0x1F AND DUP1 ISZERO PUSH2 0x73A JUMPI DUP1 DUP3 SUB DUP1 MLOAD PUSH1 0x1 DUP4 PUSH1 0x20 SUB PUSH2 0x100 EXP SUB NOT AND DUP2 MSTORE PUSH1 0x20 ADD SWAP2 POP JUMPDEST POP SWAP3 POP POP POP PUSH1 0x40 MLOAD DUP1 SWAP2 SUB SWAP1 RETURN JUMPDEST CALLVALUE ISZERO PUSH2 0x753 JUMPI PUSH1 0x0 DUP1 REVERT JUMPDEST PUSH2 0x788 PUSH1 0x4 DUP1 DUP1 CALLDATALOAD PUSH20 0xFFFFFFFFFFFFFFFFFFFFFFFFFFFFFFFFFFFFFFFF AND SWAP1 PUSH1 0x20 ADD SWAP1 SWAP2 SWAP1 DUP1 CALLDATALOAD SWAP1 PUSH1 0x20 ADD SWAP1 SWAP2 SWAP1 POP POP PUSH2 0x14F2 JUMP JUMPDEST STOP JUMPDEST CALLVALUE ISZERO PUSH2 0x795 JUMPI PUSH1 0x0 DUP1 REVERT JUMPDEST PUSH2 0x7B4 PUSH1 0x4 DUP1 DUP1 CALLDATALOAD SWAP1 PUSH1 0x20 ADD SWAP1 SWAP2 SWAP1 DUP1 CALLDATALOAD SWAP1 PUSH1 0x20 ADD SWAP1 SWAP2 SWAP1 POP POP PUSH2 0x169C JUMP JUMPDEST STOP JUMPDEST CALLVALUE ISZERO PUSH2 0x7C1 JUMPI PUSH1 0x0 DUP1 REVERT JUMPDEST PUSH2 0x7D7 PUSH1 0x4 DUP1 DUP1 CALLDATALOAD SWAP1 PUSH1 0x20 ADD SWAP1 SWAP2 SWAP1 POP POP PUSH2 0x1781 JUMP JUMPDEST STOP JUMPDEST CALLVALUE ISZERO PUSH2 0x7E4 JUMPI PUSH1 0x0 DUP1 REVERT JUMPDEST PUSH2 0x7FA PUSH1 0x4 DUP1 DUP1 CALLDATALOAD SWAP1 PUSH1 0x20 ADD SWAP1 SWAP2 SWAP1 POP POP PUSH2 0x1978 JUMP JUMPDEST STOP JUMPDEST CALLVALUE ISZERO PUSH2 0x807 JUMPI PUSH1 0x0 DUP1 REVERT JUMPDEST PUSH2 0x852 PUSH1 0x4 DUP1 DUP1 CALLDATALOAD PUSH20 0xFFFFFFFFFFFFFFFFFFFFFFFFFFFFFFFFFFFFFFFF AND SWAP1 PUSH1 0x20 ADD SWAP1 SWAP2 SWAP1 DUP1 CALLDATALOAD PUSH20 0xFFFFFFFFFFFFFFFFFFFFFFFFFFFFFFFFFFFFFFFF AND SWAP1 PUSH1 0x20 ADD SWAP1 SWAP2 SWAP1 POP POP PUSH2 0x1B0B JUMP JUMPDEST PUSH1 0x40 MLOAD DUP1 DUP3 DUP2 MSTORE PUSH1 0x20 ADD SWAP2 POP POP PUSH1 0x40 MLOAD DUP1 SWAP2 SUB SWAP1 RETURN JUMPDEST CALLVALUE ISZERO PUSH2 0x873 JUMPI PUSH1 0x0 DUP1 REVERT JUMPDEST PUSH2 0x87B PUSH2 0x1C50 JUMP JUMPDEST PUSH1 0x40 MLOAD DUP1 DUP3 DUP2 MSTORE PUSH1 0x20 ADD SWAP2 POP POP PUSH1 0x40 MLOAD DUP1 SWAP2 SUB SWAP1 RETURN JUMPDEST CALLVALUE ISZERO PUSH2 0x89C JUMPI PUSH1 0x0 DUP1 REVERT JUMPDEST PUSH2 0x8C8 PUSH1 0x4 DUP1 DUP1 CALLDATALOAD PUSH20 0xFFFFFFFFFFFFFFFFFFFFFFFFFFFFFFFFFFFFFFFF AND SWAP1 PUSH1 0x20 ADD SWAP1 SWAP2 SWAP1 POP POP PUSH2 0x1C56 JUMP JUMPDEST PUSH1 0x40 MLOAD DUP1 DUP3 ISZERO ISZERO ISZERO ISZERO DUP2 MSTORE PUSH1 0x20 ADD SWAP2 POP POP PUSH1 0x40 MLOAD DUP1 SWAP2 SUB SWAP1 RETURN JUMPDEST CALLVALUE ISZERO PUSH2 0x8ED JUMPI PUSH1 0x0 DUP1 REVERT JUMPDEST PUSH2 0x919 PUSH1 0x4 DUP1 DUP1 CALLDATALOAD PUSH20 0xFFFFFFFFFFFFFFFFFFFFFFFFFFFFFFFFFFFFFFFF AND SWAP1 PUSH1 0x20 ADD SWAP1 SWAP2 SWAP1 POP POP PUSH2 0x1C76 JUMP JUMPDEST STOP JUMPDEST CALLVALUE ISZERO PUSH2 0x926 JUMPI PUSH1 0x0 DUP1 REVERT JUMPDEST PUSH2 0x92E PUSH2 0x1D8F JUMP JUMPDEST PUSH1 0x40 MLOAD DUP1 DUP3 DUP2 MSTORE PUSH1 0x20 ADD SWAP2 POP POP PUSH1 0x40 MLOAD DUP1 SWAP2 SUB SWAP1 RETURN JUMPDEST CALLVALUE ISZERO PUSH2 0x94F JUMPI PUSH1 0x0 DUP1 REVERT JUMPDEST PUSH2 0x97B PUSH1 0x4 DUP1 DUP1 CALLDATALOAD PUSH20 0xFFFFFFFFFFFFFFFFFFFFFFFFFFFFFFFFFFFFFFFF AND SWAP1 PUSH1 0x20 ADD SWAP1 SWAP2 SWAP1 POP POP PUSH2 0x1DB3 JUMP JUMPDEST STOP JUMPDEST CALLVALUE ISZERO PUSH2 0x988 JUMPI PUSH1 0x0 DUP1 REVERT JUMPDEST PUSH2 0x9B4 PUSH1 0x4 DUP1 DUP1 CALLDATALOAD PUSH20 0xFFFFFFFFFFFFFFFFFFFFFFFFFFFFFFFFFFFFFFFF AND SWAP1 PUSH1 0x20 ADD SWAP1 SWAP2 SWAP1 POP POP PUSH2 0x1E88 JUMP JUMPDEST STOP JUMPDEST PUSH1 0x7 DUP1 SLOAD PUSH1 0x1 DUP2 PUSH1 0x1 AND ISZERO PUSH2 0x100 MUL SUB AND PUSH1 0x2 SWAP1 DIV DUP1 PUSH1 0x1F ADD PUSH1 0x20 DUP1 SWAP2 DIV MUL PUSH1 0x20 ADD PUSH1 0x40 MLOAD SWAP1 DUP2 ADD PUSH1 0x40 MSTORE DUP1 SWAP3 SWAP2 SWAP1 DUP2 DUP2 MSTORE PUSH1 0x20 ADD DUP3 DUP1 SLOAD PUSH1 0x1 DUP2 PUSH1 0x1 AND ISZERO PUSH2 0x100 MUL SUB AND PUSH1 0x2 SWAP1 DIV DUP1 ISZERO PUSH2 0xA4C JUMPI DUP1 PUSH1 0x1F LT PUSH2 0xA21 JUMPI PUSH2 0x100 DUP1 DUP4 SLOAD DIV MUL DUP4 MSTORE SWAP2 PUSH1 0x20 ADD SWAP2 PUSH2 0xA4C JUMP JUMPDEST DUP3 ADD SWAP2 SWAP1 PUSH1 0x0 MSTORE PUSH1 0x20 PUSH1 0x0 KECCAK256 SWAP1 JUMPDEST DUP2 SLOAD DUP2 MSTORE SWAP1 PUSH1 0x1 ADD SWAP1 PUSH1 0x20 ADD DUP1 DUP4 GT PUSH2 0xA2F JUMPI DUP3 SWAP1 SUB PUSH1 0x1F AND DUP3 ADD SWAP2 JUMPDEST POP POP POP POP POP DUP2 JUMP JUMPDEST PUSH1 0x0 DUP1 SWAP1 SLOAD SWAP1 PUSH2 0x100 EXP SWAP1 DIV PUSH20 0xFFFFFFFFFFFFFFFFFFFFFFFFFFFFFFFFFFFFFFFF AND PUSH20 0xFFFFFFFFFFFFFFFFFFFFFFFFFFFFFFFFFFFFFFFF AND CALLER PUSH20 0xFFFFFFFFFFFFFFFFFFFFFFFFFFFFFFFFFFFFFFFF AND EQ ISZERO ISZERO PUSH2 0xAAF JUMPI PUSH1 0x0 DUP1 REVERT JUMPDEST PUSH1 0x1 PUSH1 0xA PUSH1 0x14 PUSH2 0x100 EXP DUP2 SLOAD DUP2 PUSH1 0xFF MUL NOT AND SWAP1 DUP4 ISZERO ISZERO MUL OR SWAP1 SSTORE POP DUP1 PUSH1 0xA PUSH1 0x0 PUSH2 0x100 EXP DUP2 SLOAD DUP2 PUSH20 0xFFFFFFFFFFFFFFFFFFFFFFFFFFFFFFFFFFFFFFFF MUL NOT AND SWAP1 DUP4 PUSH20 0xFFFFFFFFFFFFFFFFFFFFFFFFFFFFFFFFFFFFFFFF AND MUL OR SWAP1 SSTORE POP PUSH32 0xCC358699805E9A8B7F77B522628C7CB9ABD07D9EFB86B6FB616AF1609036A99E DUP2 PUSH1 0x40 MLOAD DUP1 DUP3 PUSH20 0xFFFFFFFFFFFFFFFFFFFFFFFFFFFFFFFFFFFFFFFF AND PUSH20 0xFFFFFFFFFFFFFFFFFFFFFFFFFFFFFFFFFFFFFFFF AND DUP2 MSTORE PUSH1 0x20 ADD SWAP2 POP POP PUSH1 0x40 MLOAD DUP1 SWAP2 SUB SWAP1 LOG1 POP JUMP JUMPDEST PUSH1 0x40 PUSH1 0x4 DUP2 ADD PUSH1 0x0 CALLDATASIZE SWAP1 POP LT ISZERO ISZERO ISZERO PUSH2 0xB89 JUMPI PUSH1 0x0 DUP1 REVERT JUMPDEST PUSH1 0xA PUSH1 0x14 SWAP1 SLOAD SWAP1 PUSH2 0x100 EXP SWAP1 DIV PUSH1 0xFF AND ISZERO PUSH2 0xCAF JUMPI PUSH1 0xA PUSH1 0x0 SWAP1 SLOAD SWAP1 PUSH2 0x100 EXP SWAP1 DIV PUSH20 0xFFFFFFFFFFFFFFFFFFFFFFFFFFFFFFFFFFFFFFFF AND PUSH20 0xFFFFFFFFFFFFFFFFFFFFFFFFFFFFFFFFFFFFFFFF AND PUSH4 0xAEE92D33 CALLER DUP6 DUP6 PUSH1 0x40 MLOAD DUP5 PUSH4 0xFFFFFFFF AND PUSH29 0x100000000000000000000000000000000000000000000000000000000 MUL DUP2 MSTORE PUSH1 0x4 ADD DUP1 DUP5 PUSH20 0xFFFFFFFFFFFFFFFFFFFFFFFFFFFFFFFFFFFFFFFF AND PUSH20 0xFFFFFFFFFFFFFFFFFFFFFFFFFFFFFFFFFFFFFFFF AND DUP2 MSTORE PUSH1 0x20 ADD DUP4 PUSH20 0xFFFFFFFFFFFFFFFFFFFFFFFFFFFFFFFFFFFFFFFF AND PUSH20 0xFFFFFFFFFFFFFFFFFFFFFFFFFFFFFFFFFFFFFFFF AND DUP2 MSTORE PUSH1 0x20 ADD DUP3 DUP2 MSTORE PUSH1 0x20 ADD SWAP4 POP POP POP POP PUSH1 0x0 PUSH1 0x40 MLOAD DUP1 DUP4 SUB DUP2 PUSH1 0x0 DUP8 DUP1 EXTCODESIZE ISZERO ISZERO PUSH2 0xC96 JUMPI PUSH1 0x0 DUP1 REVERT JUMPDEST PUSH2 0x2C6 GAS SUB CALL ISZERO ISZERO PUSH2 0xCA7 JUMPI PUSH1 0x0 DUP1 REVERT JUMPDEST POP POP POP PUSH2 0xCBA JUMP JUMPDEST PUSH2 0xCB9 DUP4 DUP4 PUSH2 0x200C JUMP JUMPDEST JUMPDEST POP POP POP JUMP JUMPDEST PUSH1 0xA PUSH1 0x14 SWAP1 SLOAD SWAP1 PUSH2 0x100 EXP SWAP1 DIV PUSH1 0xFF AND DUP2 JUMP JUMPDEST PUSH1 0x0 DUP1 SWAP1 SLOAD SWAP1 PUSH2 0x100 EXP SWAP1 DIV PUSH20 0xFFFFFFFFFFFFFFFFFFFFFFFFFFFFFFFFFFFFFFFF AND PUSH20 0xFFFFFFFFFFFFFFFFFFFFFFFFFFFFFFFFFFFFFFFF AND CALLER PUSH20 0xFFFFFFFFFFFFFFFFFFFFFFFFFFFFFFFFFFFFFFFF AND EQ ISZERO ISZERO PUSH2 0xD2D JUMPI PUSH1 0x0 DUP1 REVERT JUMPDEST PUSH1 0x1 PUSH1 0x6 PUSH1 0x0 DUP4 PUSH20 0xFFFFFFFFFFFFFFFFFFFFFFFFFFFFFFFFFFFFFFFF AND PUSH20 0xFFFFFFFFFFFFFFFFFFFFFFFFFFFFFFFFFFFFFFFF AND DUP2 MSTORE PUSH1 0x20 ADD SWAP1 DUP2 MSTORE PUSH1 0x20 ADD PUSH1 0x0 KECCAK256 PUSH1 0x0 PUSH2 0x100 EXP DUP2 SLOAD DUP2 PUSH1 0xFF MUL NOT AND SWAP1 DUP4 ISZERO ISZERO MUL OR SWAP1 SSTORE POP PUSH32 0x42E160154868087D6BFDC0CA23D96A1C1CFA32F1B72BA9BA27B69B98A0D819DC DUP2 PUSH1 0x40 MLOAD DUP1 DUP3 PUSH20 0xFFFFFFFFFFFFFFFFFFFFFFFFFFFFFFFFFFFFFFFF AND PUSH20 0xFFFFFFFFFFFFFFFFFFFFFFFFFFFFFFFFFFFFFFFF AND DUP2 MSTORE PUSH1 0x20 ADD SWAP2 POP POP PUSH1 0x40 MLOAD DUP1 SWAP2 SUB SWAP1 LOG1 POP JUMP JUMPDEST PUSH1 0x0 PUSH1 0xA PUSH1 0x14 SWAP1 SLOAD SWAP1 PUSH2 0x100 EXP SWAP1 DIV PUSH1 0xFF AND ISZERO PUSH2 0xEB2 JUMPI PUSH1 0xA PUSH1 0x0 SWAP1 SLOAD SWAP1 PUSH2 0x100 EXP SWAP1 DIV PUSH20 0xFFFFFFFFFFFFFFFFFFFFFFFFFFFFFFFFFFFFFFFF AND PUSH20 0xFFFFFFFFFFFFFFFFFFFFFFFFFFFFFFFFFFFFFFFF AND PUSH4 0x18160DDD PUSH1 0x0 PUSH1 0x40 MLOAD PUSH1 0x20 ADD MSTORE PUSH1 0x40 MLOAD DUP2 PUSH4 0xFFFFFFFF AND PUSH29 0x100000000000000000000000000000000000000000000000000000000 MUL DUP2 MSTORE PUSH1 0x4 ADD PUSH1 0x20 PUSH1 0x40 MLOAD DUP1 DUP4 SUB DUP2 PUSH1 0x0 DUP8 DUP1 EXTCODESIZE ISZERO ISZERO PUSH2 0xE90 JUMPI PUSH1 0x0 DUP1 REVERT JUMPDEST PUSH2 0x2C6 GAS SUB CALL ISZERO ISZERO PUSH2 0xEA1 JUMPI PUSH1 0x0 DUP1 REVERT JUMPDEST POP POP POP PUSH1 0x40 MLOAD DUP1 MLOAD SWAP1 POP SWAP1 POP PUSH2 0xEB8 JUMP JUMPDEST PUSH1 0x1 SLOAD SWAP1 POP JUMPDEST SWAP1 JUMP JUMPDEST PUSH1 0x0 PUSH1 0x14 SWAP1 SLOAD SWAP1 PUSH2 0x100 EXP SWAP1 DIV PUSH1 0xFF AND ISZERO ISZERO ISZERO PUSH2 0xED7 JUMPI PUSH1 0x0 DUP1 REVERT JUMPDEST PUSH1 0x6 PUSH1 0x0 DUP5 PUSH20 0xFFFFFFFFFFFFFFFFFFFFFFFFFFFFFFFFFFFFFFFF AND PUSH20 0xFFFFFFFFFFFFFFFFFFFFFFFFFFFFFFFFFFFFFFFF AND DUP2 MSTORE PUSH1 0x20 ADD SWAP1 DUP2 MSTORE PUSH1 0x20 ADD PUSH1 0x0 KECCAK256 PUSH1 0x0 SWAP1 SLOAD SWAP1 PUSH2 0x100 EXP SWAP1 DIV PUSH1 0xFF AND ISZERO ISZERO ISZERO PUSH2 0xF30 JUMPI PUSH1 0x0 DUP1 REVERT JUMPDEST PUSH1 0xA PUSH1 0x14 SWAP1 SLOAD SWAP1 PUSH2 0x100 EXP SWAP1 DIV PUSH1 0xFF AND ISZERO PUSH2 0x108A JUMPI PUSH1 0xA PUSH1 0x0 SWAP1 SLOAD SWAP1 PUSH2 0x100 EXP SWAP1 DIV PUSH20 0xFFFFFFFFFFFFFFFFFFFFFFFFFFFFFFFFFFFFFFFF AND PUSH20 0xFFFFFFFFFFFFFFFFFFFFFFFFFFFFFFFFFFFFFFFF AND PUSH4 0x8B477ADB CALLER DUP6 DUP6 DUP6 PUSH1 0x40 MLOAD DUP6 PUSH4 0xFFFFFFFF AND PUSH29 0x100000000000000000000000000000000000000000000000000000000 MUL DUP2 MSTORE PUSH1 0x4 ADD DUP1 DUP6 PUSH20 0xFFFFFFFFFFFFFFFFFFFFFFFFFFFFFFFFFFFFFFFF AND PUSH20 0xFFFFFFFFFFFFFFFFFFFFFFFFFFFFFFFFFFFFFFFF AND DUP2 MSTORE PUSH1 0x20 ADD DUP5 PUSH20 0xFFFFFFFFFFFFFFFFFFFFFFFFFFFFFFFFFFFFFFFF AND PUSH20 0xFFFFFFFFFFFFFFFFFFFFFFFFFFFFFFFFFFFFFFFF AND DUP2 MSTORE PUSH1 0x20 ADD DUP4 PUSH20 0xFFFFFFFFFFFFFFFFFFFFFFFFFFFFFFFFFFFFFFFF AND PUSH20 0xFFFFFFFFFFFFFFFFFFFFFFFFFFFFFFFFFFFFFFFF AND DUP2 MSTORE PUSH1 0x20 ADD DUP3 DUP2 MSTORE PUSH1 0x20 ADD SWAP5 POP POP POP POP POP PUSH1 0x0 PUSH1 0x40 MLOAD DUP1 DUP4 SUB DUP2 PUSH1 0x0 DUP8 DUP1 EXTCODESIZE ISZERO ISZERO PUSH2 0x1071 JUMPI PUSH1 0x0 DUP1 REVERT JUMPDEST PUSH2 0x2C6 GAS SUB CALL ISZERO ISZERO PUSH2 0x1082 JUMPI PUSH1 0x0 DUP1 REVERT JUMPDEST POP POP POP PUSH2 0x1096 JUMP JUMPDEST PUSH2 0x1095 DUP4 DUP4 DUP4 PUSH2 0x21A9 JUMP JUMPDEST JUMPDEST POP POP POP JUMP JUMPDEST PUSH1 0xA PUSH1 0x0 SWAP1 SLOAD SWAP1 PUSH2 0x100 EXP SWAP1 DIV PUSH20 0xFFFFFFFFFFFFFFFFFFFFFFFFFFFFFFFFFFFFFFFF AND DUP2 JUMP JUMPDEST PUSH1 0x2 PUSH1 0x20 MSTORE DUP1 PUSH1 0x0 MSTORE PUSH1 0x40 PUSH1 0x0 KECCAK256 PUSH1 0x0 SWAP2 POP SWAP1 POP SLOAD DUP2 JUMP JUMPDEST PUSH1 0x9 SLOAD DUP2 JUMP JUMPDEST PUSH1 0x4 SLOAD DUP2 JUMP JUMPDEST PUSH1 0x1 SLOAD DUP2 JUMP JUMPDEST PUSH1 0x0 DUP1 SWAP1 SLOAD SWAP1 PUSH2 0x100 EXP SWAP1 DIV PUSH20 0xFFFFFFFFFFFFFFFFFFFFFFFFFFFFFFFFFFFFFFFF AND PUSH20 0xFFFFFFFFFFFFFFFFFFFFFFFFFFFFFFFFFFFFFFFF AND CALLER PUSH20 0xFFFFFFFFFFFFFFFFFFFFFFFFFFFFFFFFFFFFFFFF AND EQ ISZERO ISZERO PUSH2 0x1146 JUMPI PUSH1 0x0 DUP1 REVERT JUMPDEST PUSH1 0x0 PUSH1 0x14 SWAP1 SLOAD SWAP1 PUSH2 0x100 EXP SWAP1 DIV PUSH1 0xFF AND ISZERO ISZERO PUSH2 0x1161 JUMPI PUSH1 0x0 DUP1 REVERT JUMPDEST PUSH1 0x0 DUP1 PUSH1 0x14 PUSH2 0x100 EXP DUP2 SLOAD DUP2 PUSH1 0xFF MUL NOT AND SWAP1 DUP4 ISZERO ISZERO MUL OR SWAP1 SSTORE POP PUSH32 0x7805862F689E2F13DF9F062FF482AD3AD112ACA9E0847911ED832E158C525B33 PUSH1 0x40 MLOAD PUSH1 0x40 MLOAD DUP1 SWAP2 SUB SWAP1 LOG1 JUMP JUMPDEST PUSH1 0x0 PUSH1 0x6 PUSH1 0x0 DUP4 PUSH20 0xFFFFFFFFFFFFFFFFFFFFFFFFFFFFFFFFFFFFFFFF AND PUSH20 0xFFFFFFFFFFFFFFFFFFFFFFFFFFFFFFFFFFFFFFFF AND DUP2 MSTORE PUSH1 0x20 ADD SWAP1 DUP2 MSTORE PUSH1 0x20 ADD PUSH1 0x0 KECCAK256 PUSH1 0x0 SWAP1 SLOAD SWAP1 PUSH2 0x100 EXP SWAP1 DIV PUSH1 0xFF AND SWAP1 POP SWAP2 SWAP1 POP JUMP JUMPDEST PUSH1 0x5 PUSH1 0x20 MSTORE DUP2 PUSH1 0x0 MSTORE PUSH1 0x40 PUSH1 0x0 KECCAK256 PUSH1 0x20 MSTORE DUP1 PUSH1 0x0 MSTORE PUSH1 0x40 PUSH1 0x0 KECCAK256 PUSH1 0x0 SWAP2 POP SWAP2 POP POP SLOAD DUP2 JUMP JUMPDEST PUSH1 0x0 PUSH1 0x14 SWAP1 SLOAD SWAP1 PUSH2 0x100 EXP SWAP1 DIV PUSH1 0xFF AND DUP2 JUMP JUMPDEST PUSH1 0x0 PUSH1 0xA PUSH1 0x14 SWAP1 SLOAD SWAP1 PUSH2 0x100 EXP SWAP1 DIV PUSH1 0xFF AND ISZERO PUSH2 0x1335 JUMPI PUSH1 0xA PUSH1 0x0 SWAP1 SLOAD SWAP1 PUSH2 0x100 EXP SWAP1 DIV PUSH20 0xFFFFFFFFFFFFFFFFFFFFFFFFFFFFFFFFFFFFFFFF AND PUSH20 0xFFFFFFFFFFFFFFFFFFFFFFFFFFFFFFFFFFFFFFFF AND PUSH4 0x70A08231 DUP4 PUSH1 0x0 PUSH1 0x40 MLOAD PUSH1 0x20 ADD MSTORE PUSH1 0x40 MLOAD DUP3 PUSH4 0xFFFFFFFF AND PUSH29 0x100000000000000000000000000000000000000000000000000000000 MUL DUP2 MSTORE PUSH1 0x4 ADD DUP1 DUP3 PUSH20 0xFFFFFFFFFFFFFFFFFFFFFFFFFFFFFFFFFFFFFFFF AND PUSH20 0xFFFFFFFFFFFFFFFFFFFFFFFFFFFFFFFFFFFFFFFF AND DUP2 MSTORE PUSH1 0x20 ADD SWAP2 POP POP PUSH1 0x20 PUSH1 0x40 MLOAD DUP1 DUP4 SUB DUP2 PUSH1 0x0 DUP8 DUP1 EXTCODESIZE ISZERO ISZERO PUSH2 0x1313 JUMPI PUSH1 0x0 DUP1 REVERT JUMPDEST PUSH2 0x2C6 GAS SUB CALL ISZERO ISZERO PUSH2 0x1324 JUMPI PUSH1 0x0 DUP1 REVERT JUMPDEST POP POP POP PUSH1 0x40 MLOAD DUP1 MLOAD SWAP1 POP SWAP1 POP PUSH2 0x1341 JUMP JUMPDEST PUSH2 0x133E DUP3 PUSH2 0x2650 JUMP JUMPDEST SWAP1 POP JUMPDEST SWAP2 SWAP1 POP JUMP JUMPDEST PUSH1 0x0 DUP1 SWAP1 SLOAD SWAP1 PUSH2 0x100 EXP SWAP1 DIV PUSH20 0xFFFFFFFFFFFFFFFFFFFFFFFFFFFFFFFFFFFFFFFF AND PUSH20 0xFFFFFFFFFFFFFFFFFFFFFFFFFFFFFFFFFFFFFFFF AND CALLER PUSH20 0xFFFFFFFFFFFFFFFFFFFFFFFFFFFFFFFFFFFFFFFF AND EQ ISZERO ISZERO PUSH2 0x13A1 JUMPI PUSH1 0x0 DUP1 REVERT JUMPDEST PUSH1 0x0 PUSH1 0x14 SWAP1 SLOAD SWAP1 PUSH2 0x100 EXP SWAP1 DIV PUSH1 0xFF AND ISZERO ISZERO ISZERO PUSH2 0x13BD JUMPI PUSH1 0x0 DUP1 REVERT JUMPDEST PUSH1 0x1 PUSH1 0x0 PUSH1 0x14 PUSH2 0x100 EXP DUP2 SLOAD DUP2 PUSH1 0xFF MUL NOT AND SWAP1 DUP4 ISZERO ISZERO MUL OR SWAP1 SSTORE POP PUSH32 0x6985A02210A168E66602D3235CB6DB0E70F92B3BA4D376A33C0F3D9434BFF625 PUSH1 0x40 MLOAD PUSH1 0x40 MLOAD DUP1 SWAP2 SUB SWAP1 LOG1 JUMP JUMPDEST PUSH1 0x0 DUP1 PUSH1 0x0 SWAP1 SLOAD SWAP1 PUSH2 0x100 EXP SWAP1 DIV PUSH20 0xFFFFFFFFFFFFFFFFFFFFFFFFFFFFFFFFFFFFFFFF AND SWAP1 POP SWAP1 JUMP JUMPDEST PUSH1 0x0 DUP1 SWAP1 SLOAD SWAP1 PUSH2 0x100 EXP SWAP1 DIV PUSH20 0xFFFFFFFFFFFFFFFFFFFFFFFFFFFFFFFFFFFFFFFF AND DUP2 JUMP JUMPDEST PUSH1 0x8 DUP1 SLOAD PUSH1 0x1 DUP2 PUSH1 0x1 AND ISZERO PUSH2 0x100 MUL SUB AND PUSH1 0x2 SWAP1 DIV DUP1 PUSH1 0x1F ADD PUSH1 0x20 DUP1 SWAP2 DIV MUL PUSH1 0x20 ADD PUSH1 0x40 MLOAD SWAP1 DUP2 ADD PUSH1 0x40 MSTORE DUP1 SWAP3 SWAP2 SWAP1 DUP2 DUP2 MSTORE PUSH1 0x20 ADD DUP3 DUP1 SLOAD PUSH1 0x1 DUP2 PUSH1 0x1 AND ISZERO PUSH2 0x100 MUL SUB AND PUSH1 0x2 SWAP1 DIV DUP1 ISZERO PUSH2 0x14EA JUMPI DUP1 PUSH1 0x1F LT PUSH2 0x14BF JUMPI PUSH2 0x100 DUP1 DUP4 SLOAD DIV MUL DUP4 MSTORE SWAP2 PUSH1 0x20 ADD SWAP2 PUSH2 0x14EA JUMP JUMPDEST DUP3 ADD SWAP2 SWAP1 PUSH1 0x0 MSTORE PUSH1 0x20 PUSH1 0x0 KECCAK256 SWAP1 JUMPDEST DUP2 SLOAD DUP2 MSTORE SWAP1 PUSH1 0x1 ADD SWAP1 PUSH1 0x20 ADD DUP1 DUP4 GT PUSH2 0x14CD JUMPI DUP3 SWAP1 SUB PUSH1 0x1F AND DUP3 ADD SWAP2 JUMPDEST POP POP POP POP POP DUP2 JUMP JUMPDEST PUSH1 0x0 PUSH1 0x14 SWAP1 SLOAD SWAP1 PUSH2 0x100 EXP SWAP1 DIV PUSH1 0xFF AND ISZERO ISZERO ISZERO PUSH2 0x150E JUMPI PUSH1 0x0 DUP1 REVERT JUMPDEST PUSH1 0x6 PUSH1 0x0 CALLER PUSH20 0xFFFFFFFFFFFFFFFFFFFFFFFFFFFFFFFFFFFFFFFF AND PUSH20 0xFFFFFFFFFFFFFFFFFFFFFFFFFFFFFFFFFFFFFFFF AND DUP2 MSTORE PUSH1 0x20 ADD SWAP1 DUP2 MSTORE PUSH1 0x20 ADD PUSH1 0x0 KECCAK256 PUSH1 0x0 SWAP1 SLOAD SWAP1 PUSH2 0x100 EXP SWAP1 DIV PUSH1 0xFF AND ISZERO ISZERO ISZERO PUSH2 0x1567 JUMPI PUSH1 0x0 DUP1 REVERT JUMPDEST PUSH1 0xA PUSH1 0x14 SWAP1 SLOAD SWAP1 PUSH2 0x100 EXP SWAP1 DIV PUSH1 0xFF AND ISZERO PUSH2 0x168D JUMPI PUSH1 0xA PUSH1 0x0 SWAP1 SLOAD SWAP1 PUSH2 0x100 EXP SWAP1 DIV PUSH20 0xFFFFFFFFFFFFFFFFFFFFFFFFFFFFFFFFFFFFFFFF AND PUSH20 0xFFFFFFFFFFFFFFFFFFFFFFFFFFFFFFFFFFFFFFFF AND PUSH4 0x6E18980A CALLER DUP5 DUP5 PUSH1 0x40 MLOAD DUP5 PUSH4 0xFFFFFFFF AND PUSH29 0x100000000000000000000000000000000000000000000000000000000 MUL DUP2 MSTORE PUSH1 0x4 ADD DUP1 DUP5 PUSH20 0xFFFFFFFFFFFFFFFFFFFFFFFFFFFFFFFFFFFFFFFF AND PUSH20 0xFFFFFFFFFFFFFFFFFFFFFFFFFFFFFFFFFFFFFFFF AND DUP2 MSTORE PUSH1 0x20 ADD DUP4 PUSH20 0xFFFFFFFFFFFFFFFFFFFFFFFFFFFFFFFFFFFFFFFF AND PUSH20 0xFFFFFFFFFFFFFFFFFFFFFFFFFFFFFFFFFFFFFFFF AND DUP2 MSTORE PUSH1 0x20 ADD DUP3 DUP2 MSTORE PUSH1 0x20 ADD SWAP4 POP POP POP POP PUSH1 0x0 PUSH1 0x40 MLOAD DUP1 DUP4 SUB DUP2 PUSH1 0x0 DUP8 DUP1 EXTCODESIZE ISZERO ISZERO PUSH2 0x1674 JUMPI PUSH1 0x0 DUP1 REVERT JUMPDEST PUSH2 0x2C6 GAS SUB CALL ISZERO ISZERO PUSH2 0x1685 JUMPI PUSH1 0x0 DUP1 REVERT JUMPDEST POP POP POP PUSH2 0x1698 JUMP JUMPDEST PUSH2 0x1697 DUP3 DUP3 PUSH2 0x2699 JUMP JUMPDEST JUMPDEST POP POP JUMP JUMPDEST PUSH1 0x0 DUP1 SWAP1 SLOAD SWAP1 PUSH2 0x100 EXP SWAP1 DIV PUSH20 0xFFFFFFFFFFFFFFFFFFFFFFFFFFFFFFFFFFFFFFFF AND PUSH20 0xFFFFFFFFFFFFFFFFFFFFFFFFFFFFFFFFFFFFFFFF AND CALLER PUSH20 0xFFFFFFFFFFFFFFFFFFFFFFFFFFFFFFFFFFFFFFFF AND EQ ISZERO ISZERO PUSH2 0x16F7 JUMPI PUSH1 0x0 DUP1 REVERT JUMPDEST PUSH1 0x14 DUP3 LT ISZERO ISZERO PUSH2 0x1706 JUMPI PUSH1 0x0 DUP1 REVERT JUMPDEST PUSH1 0x32 DUP2 LT ISZERO ISZERO PUSH2 0x1715 JUMPI PUSH1 0x0 DUP1 REVERT JUMPDEST DUP2 PUSH1 0x3 DUP2 SWAP1 SSTORE POP PUSH2 0x1734 PUSH1 0x9 SLOAD PUSH1 0xA EXP DUP3 PUSH2 0x2A01 SWAP1 SWAP2 SWAP1 PUSH4 0xFFFFFFFF AND JUMP JUMPDEST PUSH1 0x4 DUP2 SWAP1 SSTORE POP PUSH32 0xB044A1E409EAC5C48E5AF22D4AF52670DD1A99059537A78B31B48C6500A6354E PUSH1 0x3 SLOAD PUSH1 0x4 SLOAD PUSH1 0x40 MLOAD DUP1 DUP4 DUP2 MSTORE PUSH1 0x20 ADD DUP3 DUP2 MSTORE PUSH1 0x20 ADD SWAP3 POP POP POP PUSH1 0x40 MLOAD DUP1 SWAP2 SUB SWAP1 LOG1 POP POP JUMP JUMPDEST PUSH1 0x0 DUP1 SWAP1 SLOAD SWAP1 PUSH2 0x100 EXP SWAP1 DIV PUSH20 0xFFFFFFFFFFFFFFFFFFFFFFFFFFFFFFFFFFFFFFFF AND PUSH20 0xFFFFFFFFFFFFFFFFFFFFFFFFFFFFFFFFFFFFFFFF AND CALLER PUSH20 0xFFFFFFFFFFFFFFFFFFFFFFFFFFFFFFFFFFFFFFFF AND EQ ISZERO ISZERO PUSH2 0x17DC JUMPI PUSH1 0x0 DUP1 REVERT JUMPDEST PUSH1 0x1 SLOAD DUP2 PUSH1 0x1 SLOAD ADD GT ISZERO ISZERO PUSH2 0x17F0 JUMPI PUSH1 0x0 DUP1 REVERT JUMPDEST PUSH1 0x2 PUSH1 0x0 DUP1 PUSH1 0x0 SWAP1 SLOAD SWAP1 PUSH2 0x100 EXP SWAP1 DIV PUSH20 0xFFFFFFFFFFFFFFFFFFFFFFFFFFFFFFFFFFFFFFFF AND PUSH20 0xFFFFFFFFFFFFFFFFFFFFFFFFFFFFFFFFFFFFFFFF AND PUSH20 0xFFFFFFFFFFFFFFFFFFFFFFFFFFFFFFFFFFFFFFFF AND DUP2 MSTORE PUSH1 0x20 ADD SWAP1 DUP2 MSTORE PUSH1 0x20 ADD PUSH1 0x0 KECCAK256 SLOAD DUP2 PUSH1 0x2 PUSH1 0x0 DUP1 PUSH1 0x0 SWAP1 SLOAD SWAP1 PUSH2 0x100 EXP SWAP1 DIV PUSH20 0xFFFFFFFFFFFFFFFFFFFFFFFFFFFFFFFFFFFFFFFF AND PUSH20 0xFFFFFFFFFFFFFFFFFFFFFFFFFFFFFFFFFFFFFFFF AND PUSH20 0xFFFFFFFFFFFFFFFFFFFFFFFFFFFFFFFFFFFFFFFF AND DUP2 MSTORE PUSH1 0x20 ADD SWAP1 DUP2 MSTORE PUSH1 0x20 ADD PUSH1 0x0 KECCAK256 SLOAD ADD GT ISZERO ISZERO PUSH2 0x18C0 JUMPI PUSH1 0x0 DUP1 REVERT JUMPDEST DUP1 PUSH1 0x2 PUSH1 0x0 DUP1 PUSH1 0x0 SWAP1 SLOAD SWAP1 PUSH2 0x100 EXP SWAP1 DIV PUSH20 0xFFFFFFFFFFFFFFFFFFFFFFFFFFFFFFFFFFFFFFFF AND PUSH20 0xFFFFFFFFFFFFFFFFFFFFFFFFFFFFFFFFFFFFFFFF AND PUSH20 0xFFFFFFFFFFFFFFFFFFFFFFFFFFFFFFFFFFFFFFFF AND DUP2 MSTORE PUSH1 0x20 ADD SWAP1 DUP2 MSTORE PUSH1 0x20 ADD PUSH1 0x0 KECCAK256 PUSH1 0x0 DUP3 DUP3 SLOAD ADD SWAP3 POP POP DUP2 SWAP1 SSTORE POP DUP1 PUSH1 0x1 PUSH1 0x0 DUP3 DUP3 SLOAD ADD SWAP3 POP POP DUP2 SWAP1 SSTORE POP PUSH32 0xCB8241ADB0C3FDB35B70C24CE35C5EB0C17AF7431C99F827D44A445CA624176A DUP2 PUSH1 0x40 MLOAD DUP1 DUP3 DUP2 MSTORE PUSH1 0x20 ADD SWAP2 POP POP PUSH1 0x40 MLOAD DUP1 SWAP2 SUB SWAP1 LOG1 POP JUMP JUMPDEST PUSH1 0x0 DUP1 SWAP1 SLOAD SWAP1 PUSH2 0x100 EXP SWAP1 DIV PUSH20 0xFFFFFFFFFFFFFFFFFFFFFFFFFFFFFFFFFFFFFFFF AND PUSH20 0xFFFFFFFFFFFFFFFFFFFFFFFFFFFFFFFFFFFFFFFF AND CALLER PUSH20 0xFFFFFFFFFFFFFFFFFFFFFFFFFFFFFFFFFFFFFFFF AND EQ ISZERO ISZERO PUSH2 0x19D3 JUMPI PUSH1 0x0 DUP1 REVERT JUMPDEST DUP1 PUSH1 0x1 SLOAD LT ISZERO ISZERO ISZERO PUSH2 0x19E4 JUMPI PUSH1 0x0 DUP1 REVERT JUMPDEST DUP1 PUSH1 0x2 PUSH1 0x0 DUP1 PUSH1 0x0 SWAP1 SLOAD SWAP1 PUSH2 0x100 EXP SWAP1 DIV PUSH20 0xFFFFFFFFFFFFFFFFFFFFFFFFFFFFFFFFFFFFFFFF AND PUSH20 0xFFFFFFFFFFFFFFFFFFFFFFFFFFFFFFFFFFFFFFFF AND PUSH20 0xFFFFFFFFFFFFFFFFFFFFFFFFFFFFFFFFFFFFFFFF AND DUP2 MSTORE PUSH1 0x20 ADD SWAP1 DUP2 MSTORE PUSH1 0x20 ADD PUSH1 0x0 KECCAK256 SLOAD LT ISZERO ISZERO ISZERO PUSH2 0x1A53 JUMPI PUSH1 0x0 DUP1 REVERT JUMPDEST DUP1 PUSH1 0x1 PUSH1 0x0 DUP3 DUP3 SLOAD SUB SWAP3 POP POP DUP2 SWAP1 SSTORE POP DUP1 PUSH1 0x2 PUSH1 0x0 DUP1 PUSH1 0x0 SWAP1 SLOAD SWAP1 PUSH2 0x100 EXP SWAP1 DIV PUSH20 0xFFFFFFFFFFFFFFFFFFFFFFFFFFFFFFFFFFFFFFFF AND PUSH20 0xFFFFFFFFFFFFFFFFFFFFFFFFFFFFFFFFFFFFFFFF AND PUSH20 0xFFFFFFFFFFFFFFFFFFFFFFFFFFFFFFFFFFFFFFFF AND DUP2 MSTORE PUSH1 0x20 ADD SWAP1 DUP2 MSTORE PUSH1 0x20 ADD PUSH1 0x0 KECCAK256 PUSH1 0x0 DUP3 DUP3 SLOAD SUB SWAP3 POP POP DUP2 SWAP1 SSTORE POP PUSH32 0x702D5967F45F6513A38FFC42D6BA9BF230BD40E8F53B16363C7EB4FD2DEB9A44 DUP2 PUSH1 0x40 MLOAD DUP1 DUP3 DUP2 MSTORE PUSH1 0x20 ADD SWAP2 POP POP PUSH1 0x40 MLOAD DUP1 SWAP2 SUB SWAP1 LOG1 POP JUMP JUMPDEST PUSH1 0x0 PUSH1 0xA PUSH1 0x14 SWAP1 SLOAD SWAP1 PUSH2 0x100 EXP SWAP1 DIV PUSH1 0xFF AND ISZERO PUSH2 0x1C3D JUMPI PUSH1 0xA PUSH1 0x0 SWAP1 SLOAD SWAP1 PUSH2 0x100 EXP SWAP1 DIV PUSH20 0xFFFFFFFFFFFFFFFFFFFFFFFFFFFFFFFFFFFFFFFF AND PUSH20 0xFFFFFFFFFFFFFFFFFFFFFFFFFFFFFFFFFFFFFFFF AND PUSH4 0xDD62ED3E DUP5 DUP5 PUSH1 0x0 PUSH1 0x40 MLOAD PUSH1 0x20 ADD MSTORE PUSH1 0x40 MLOAD DUP4 PUSH4 0xFFFFFFFF AND PUSH29 0x100000000000000000000000000000000000000000000000000000000 MUL DUP2 MSTORE PUSH1 0x4 ADD DUP1 DUP4 PUSH20 0xFFFFFFFFFFFFFFFFFFFFFFFFFFFFFFFFFFFFFFFF AND PUSH20 0xFFFFFFFFFFFFFFFFFFFFFFFFFFFFFFFFFFFFFFFF AND DUP2 MSTORE PUSH1 0x20 ADD DUP3 PUSH20 0xFFFFFFFFFFFFFFFFFFFFFFFFFFFFFFFFFFFFFFFF AND PUSH20 0xFFFFFFFFFFFFFFFFFFFFFFFFFFFFFFFFFFFFFFFF AND DUP2 MSTORE PUSH1 0x20 ADD SWAP3 POP POP POP PUSH1 0x20 PUSH1 0x40 MLOAD DUP1 DUP4 SUB DUP2 PUSH1 0x0 DUP8 DUP1 EXTCODESIZE ISZERO ISZERO PUSH2 0x1C1B JUMPI PUSH1 0x0 DUP1 REVERT JUMPDEST PUSH2 0x2C6 GAS SUB CALL ISZERO ISZERO PUSH2 0x1C2C JUMPI PUSH1 0x0 DUP1 REVERT JUMPDEST POP POP POP PUSH1 0x40 MLOAD DUP1 MLOAD SWAP1 POP SWAP1 POP PUSH2 0x1C4A JUMP JUMPDEST PUSH2 0x1C47 DUP4 DUP4 PUSH2 0x2A3C JUMP JUMPDEST SWAP1 POP JUMPDEST SWAP3 SWAP2 POP POP JUMP JUMPDEST PUSH1 0x3 SLOAD DUP2 JUMP JUMPDEST PUSH1 0x6 PUSH1 0x20 MSTORE DUP1 PUSH1 0x0 MSTORE PUSH1 0x40 PUSH1 0x0 KECCAK256 PUSH1 0x0 SWAP2 POP SLOAD SWAP1 PUSH2 0x100 EXP SWAP1 DIV PUSH1 0xFF AND DUP2 JUMP JUMPDEST PUSH1 0x0 DUP1 SWAP1 SLOAD SWAP1 PUSH2 0x100 EXP SWAP1 DIV PUSH20 0xFFFFFFFFFFFFFFFFFFFFFFFFFFFFFFFFFFFFFFFF AND PUSH20 0xFFFFFFFFFFFFFFFFFFFFFFFFFFFFFFFFFFFFFFFF AND CALLER PUSH20 0xFFFFFFFFFFFFFFFFFFFFFFFFFFFFFFFFFFFFFFFF AND EQ ISZERO ISZERO PUSH2 0x1CD1 JUMPI PUSH1 0x0 DUP1 REVERT JUMPDEST PUSH1 0x0 PUSH1 0x6 PUSH1 0x0 DUP4 PUSH20 0xFFFFFFFFFFFFFFFFFFFFFFFFFFFFFFFFFFFFFFFF AND PUSH20 0xFFFFFFFFFFFFFFFFFFFFFFFFFFFFFFFFFFFFFFFF AND DUP2 MSTORE PUSH1 0x20 ADD SWAP1 DUP2 MSTORE PUSH1 0x20 ADD PUSH1 0x0 KECCAK256 PUSH1 0x0 PUSH2 0x100 EXP DUP2 SLOAD DUP2 PUSH1 0xFF MUL NOT AND SWAP1 DUP4 ISZERO ISZERO MUL OR SWAP1 SSTORE POP PUSH32 0xD7E9EC6E6ECD65492DCE6BF513CD6867560D49544421D0783DDF06E76C24470C DUP2 PUSH1 0x40 MLOAD DUP1 DUP3 PUSH20 0xFFFFFFFFFFFFFFFFFFFFFFFFFFFFFFFFFFFFFFFF AND PUSH20 0xFFFFFFFFFFFFFFFFFFFFFFFFFFFFFFFFFFFFFFFF AND DUP2 MSTORE PUSH1 0x20 ADD SWAP2 POP POP PUSH1 0x40 MLOAD DUP1 SWAP2 SUB SWAP1 LOG1 POP JUMP JUMPDEST PUSH32 0xFFFFFFFFFFFFFFFFFFFFFFFFFFFFFFFFFFFFFFFFFFFFFFFFFFFFFFFFFFFFFFFF DUP2 JUMP JUMPDEST PUSH1 0x0 DUP1 SWAP1 SLOAD SWAP1 PUSH2 0x100 EXP SWAP1 DIV PUSH20 0xFFFFFFFFFFFFFFFFFFFFFFFFFFFFFFFFFFFFFFFF AND PUSH20 0xFFFFFFFFFFFFFFFFFFFFFFFFFFFFFFFFFFFFFFFF AND CALLER PUSH20 0xFFFFFFFFFFFFFFFFFFFFFFFFFFFFFFFFFFFFFFFF AND EQ ISZERO ISZERO PUSH2 0x1E0E JUMPI PUSH1 0x0 DUP1 REVERT JUMPDEST PUSH1 0x0 PUSH20 0xFFFFFFFFFFFFFFFFFFFFFFFFFFFFFFFFFFFFFFFF AND DUP2 PUSH20 0xFFFFFFFFFFFFFFFFFFFFFFFFFFFFFFFFFFFFFFFF AND EQ ISZERO ISZERO PUSH2 0x1E85 JUMPI DUP1 PUSH1 0x0 DUP1 PUSH2 0x100 EXP DUP2 SLOAD DUP2 PUSH20 0xFFFFFFFFFFFFFFFFFFFFFFFFFFFFFFFFFFFFFFFF MUL NOT AND SWAP1 DUP4 PUSH20 0xFFFFFFFFFFFFFFFFFFFFFFFFFFFFFFFFFFFFFFFF AND MUL OR SWAP1 SSTORE POP JUMPDEST POP JUMP JUMPDEST PUSH1 0x0 DUP1 PUSH1 0x0 SWAP1 SLOAD SWAP1 PUSH2 0x100 EXP SWAP1 DIV PUSH20 0xFFFFFFFFFFFFFFFFFFFFFFFFFFFFFFFFFFFFFFFF AND PUSH20 0xFFFFFFFFFFFFFFFFFFFFFFFFFFFFFFFFFFFFFFFF AND CALLER PUSH20 0xFFFFFFFFFFFFFFFFFFFFFFFFFFFFFFFFFFFFFFFF AND EQ ISZERO ISZERO PUSH2 0x1EE5 JUMPI PUSH1 0x0 DUP1 REVERT JUMPDEST PUSH1 0x6 PUSH1 0x0 DUP4 PUSH20 0xFFFFFFFFFFFFFFFFFFFFFFFFFFFFFFFFFFFFFFFF AND PUSH20 0xFFFFFFFFFFFFFFFFFFFFFFFFFFFFFFFFFFFFFFFF AND DUP2 MSTORE PUSH1 0x20 ADD SWAP1 DUP2 MSTORE PUSH1 0x20 ADD PUSH1 0x0 KECCAK256 PUSH1 0x0 SWAP1 SLOAD SWAP1 PUSH2 0x100 EXP SWAP1 DIV PUSH1 0xFF AND ISZERO ISZERO PUSH2 0x1F3D JUMPI PUSH1 0x0 DUP1 REVERT JUMPDEST PUSH2 0x1F46 DUP3 PUSH2 0x1237 JUMP JUMPDEST SWAP1 POP PUSH1 0x0 PUSH1 0x2 PUSH1 0x0 DUP5 PUSH20 0xFFFFFFFFFFFFFFFFFFFFFFFFFFFFFFFFFFFFFFFF AND PUSH20 0xFFFFFFFFFFFFFFFFFFFFFFFFFFFFFFFFFFFFFFFF AND DUP2 MSTORE PUSH1 0x20 ADD SWAP1 DUP2 MSTORE PUSH1 0x20 ADD PUSH1 0x0 KECCAK256 DUP2 SWAP1 SSTORE POP DUP1 PUSH1 0x1 PUSH1 0x0 DUP3 DUP3 SLOAD SUB SWAP3 POP POP DUP2 SWAP1 SSTORE POP PUSH32 0x61E6E66B0D6339B2980AECC6CCC0039736791F0CCDE9ED512E789A7FBDD698C6 DUP3 DUP3 PUSH1 0x40 MLOAD DUP1 DUP4 PUSH20 0xFFFFFFFFFFFFFFFFFFFFFFFFFFFFFFFFFFFFFFFF AND PUSH20 0xFFFFFFFFFFFFFFFFFFFFFFFFFFFFFFFFFFFFFFFF AND DUP2 MSTORE PUSH1 0x20 ADD DUP3 DUP2 MSTORE PUSH1 0x20 ADD SWAP3 POP POP POP PUSH1 0x40 MLOAD DUP1 SWAP2 SUB SWAP1 LOG1 POP POP JUMP JUMPDEST PUSH1 0x40 PUSH1 0x4 DUP2 ADD PUSH1 0x0 CALLDATASIZE SWAP1 POP LT ISZERO ISZERO ISZERO PUSH2 0x2024 JUMPI PUSH1 0x0 DUP1 REVERT JUMPDEST PUSH1 0x0 DUP3 EQ ISZERO DUP1 ISZERO PUSH2 0x20B2 JUMPI POP PUSH1 0x0 PUSH1 0x5 PUSH1 0x0 CALLER PUSH20 0xFFFFFFFFFFFFFFFFFFFFFFFFFFFFFFFFFFFFFFFF AND PUSH20 0xFFFFFFFFFFFFFFFFFFFFFFFFFFFFFFFFFFFFFFFF AND DUP2 MSTORE PUSH1 0x20 ADD SWAP1 DUP2 MSTORE PUSH1 0x20 ADD PUSH1 0x0 KECCAK256 PUSH1 0x0 DUP6 PUSH20 0xFFFFFFFFFFFFFFFFFFFFFFFFFFFFFFFFFFFFFFFF AND PUSH20 0xFFFFFFFFFFFFFFFFFFFFFFFFFFFFFFFFFFFFFFFF AND DUP2 MSTORE PUSH1 0x20 ADD SWAP1 DUP2 MSTORE PUSH1 0x20 ADD PUSH1 0x0 KECCAK256 SLOAD EQ ISZERO JUMPDEST ISZERO ISZERO ISZERO PUSH2 0x20BE JUMPI PUSH1 0x0 DUP1 REVERT JUMPDEST DUP2 PUSH1 0x5 PUSH1 0x0 CALLER PUSH20 0xFFFFFFFFFFFFFFFFFFFFFFFFFFFFFFFFFFFFFFFF AND PUSH20 0xFFFFFFFFFFFFFFFFFFFFFFFFFFFFFFFFFFFFFFFF AND DUP2 MSTORE PUSH1 0x20 ADD SWAP1 DUP2 MSTORE PUSH1 0x20 ADD PUSH1 0x0 KECCAK256 PUSH1 0x0 DUP6 PUSH20 0xFFFFFFFFFFFFFFFFFFFFFFFFFFFFFFFFFFFFFFFF AND PUSH20 0xFFFFFFFFFFFFFFFFFFFFFFFFFFFFFFFFFFFFFFFF AND DUP2 MSTORE PUSH1 0x20 ADD SWAP1 DUP2 MSTORE PUSH1 0x20 ADD PUSH1 0x0 KECCAK256 DUP2 SWAP1 SSTORE POP DUP3 PUSH20 0xFFFFFFFFFFFFFFFFFFFFFFFFFFFFFFFFFFFFFFFF AND CALLER PUSH20 0xFFFFFFFFFFFFFFFFFFFFFFFFFFFFFFFFFFFFFFFF AND PUSH32 0x8C5BE1E5EBEC7D5BD14F71427D1E84F3DD0314C0F7B2291E5B200AC8C7C3B925 DUP5 PUSH1 0x40 MLOAD DUP1 DUP3 DUP2 MSTORE PUSH1 0x20 ADD SWAP2 POP POP PUSH1 0x40 MLOAD DUP1 SWAP2 SUB SWAP1 LOG3 POP POP POP JUMP JUMPDEST PUSH1 0x0 DUP1 PUSH1 0x0 PUSH1 0x60 PUSH1 0x4 DUP2 ADD PUSH1 0x0 CALLDATASIZE SWAP1 POP LT ISZERO ISZERO ISZERO PUSH2 0x21C6 JUMPI PUSH1 0x0 DUP1 REVERT JUMPDEST PUSH1 0x5 PUSH1 0x0 DUP9 PUSH20 0xFFFFFFFFFFFFFFFFFFFFFFFFFFFFFFFFFFFFFFFF AND PUSH20 0xFFFFFFFFFFFFFFFFFFFFFFFFFFFFFFFFFFFFFFFF AND DUP2 MSTORE PUSH1 0x20 ADD SWAP1 DUP2 MSTORE PUSH1 0x20 ADD PUSH1 0x0 KECCAK256 PUSH1 0x0 CALLER PUSH20 0xFFFFFFFFFFFFFFFFFFFFFFFFFFFFFFFFFFFFFFFF AND PUSH20 0xFFFFFFFFFFFFFFFFFFFFFFFFFFFFFFFFFFFFFFFF AND DUP2 MSTORE PUSH1 0x20 ADD SWAP1 DUP2 MSTORE PUSH1 0x20 ADD PUSH1 0x0 KECCAK256 SLOAD SWAP4 POP PUSH2 0x226E PUSH2 0x2710 PUSH2 0x2260 PUSH1 0x3 SLOAD DUP9 PUSH2 0x2A01 SWAP1 SWAP2 SWAP1 PUSH4 0xFFFFFFFF AND JUMP JUMPDEST PUSH2 0x2AC3 SWAP1 SWAP2 SWAP1 PUSH4 0xFFFFFFFF AND JUMP JUMPDEST SWAP3 POP PUSH1 0x4 SLOAD DUP4 GT ISZERO PUSH2 0x2280 JUMPI PUSH1 0x4 SLOAD SWAP3 POP JUMPDEST PUSH32 0xFFFFFFFFFFFFFFFFFFFFFFFFFFFFFFFFFFFFFFFFFFFFFFFFFFFFFFFFFFFFFFFF DUP5 LT ISZERO PUSH2 0x233C JUMPI PUSH2 0x22BB DUP6 DUP6 PUSH2 0x2ADE SWAP1 SWAP2 SWAP1 PUSH4 0xFFFFFFFF AND JUMP JUMPDEST PUSH1 0x5 PUSH1 0x0 DUP10 PUSH20 0xFFFFFFFFFFFFFFFFFFFFFFFFFFFFFFFFFFFFFFFF AND PUSH20 0xFFFFFFFFFFFFFFFFFFFFFFFFFFFFFFFFFFFFFFFF AND DUP2 MSTORE PUSH1 0x20 ADD SWAP1 DUP2 MSTORE PUSH1 0x20 ADD PUSH1 0x0 KECCAK256 PUSH1 0x0 CALLER PUSH20 0xFFFFFFFFFFFFFFFFFFFFFFFFFFFFFFFFFFFFFFFF AND PUSH20 0xFFFFFFFFFFFFFFFFFFFFFFFFFFFFFFFFFFFFFFFF AND DUP2 MSTORE PUSH1 0x20 ADD SWAP1 DUP2 MSTORE PUSH1 0x20 ADD PUSH1 0x0 KECCAK256 DUP2 SWAP1 SSTORE POP JUMPDEST PUSH2 0x234F DUP4 DUP7 PUSH2 0x2ADE SWAP1 SWAP2 SWAP1 PUSH4 0xFFFFFFFF AND JUMP JUMPDEST SWAP2 POP PUSH2 0x23A3 DUP6 PUSH1 0x2 PUSH1 0x0 DUP11 PUSH20 0xFFFFFFFFFFFFFFFFFFFFFFFFFFFFFFFFFFFFFFFF AND PUSH20 0xFFFFFFFFFFFFFFFFFFFFFFFFFFFFFFFFFFFFFFFF AND DUP2 MSTORE PUSH1 0x20 ADD SWAP1 DUP2 MSTORE PUSH1 0x20 ADD PUSH1 0x0 KECCAK256 SLOAD PUSH2 0x2ADE SWAP1 SWAP2 SWAP1 PUSH4 0xFFFFFFFF AND JUMP JUMPDEST PUSH1 0x2 PUSH1 0x0 DUP10 PUSH20 0xFFFFFFFFFFFFFFFFFFFFFFFFFFFFFFFFFFFFFFFF AND PUSH20 0xFFFFFFFFFFFFFFFFFFFFFFFFFFFFFFFFFFFFFFFF AND DUP2 MSTORE PUSH1 0x20 ADD SWAP1 DUP2 MSTORE PUSH1 0x20 ADD PUSH1 0x0 KECCAK256 DUP2 SWAP1 SSTORE POP PUSH2 0x2438 DUP3 PUSH1 0x2 PUSH1 0x0 DUP10 PUSH20 0xFFFFFFFFFFFFFFFFFFFFFFFFFFFFFFFFFFFFFFFF AND PUSH20 0xFFFFFFFFFFFFFFFFFFFFFFFFFFFFFFFFFFFFFFFF AND DUP2 MSTORE PUSH1 0x20 ADD SWAP1 DUP2 MSTORE PUSH1 0x20 ADD PUSH1 0x0 KECCAK256 SLOAD PUSH2 0x2AF7 SWAP1 SWAP2 SWAP1 PUSH4 0xFFFFFFFF AND JUMP JUMPDEST PUSH1 0x2 PUSH1 0x0 DUP9 PUSH20 0xFFFFFFFFFFFFFFFFFFFFFFFFFFFFFFFFFFFFFFFF AND PUSH20 0xFFFFFFFFFFFFFFFFFFFFFFFFFFFFFFFFFFFFFFFF AND DUP2 MSTORE PUSH1 0x20 ADD SWAP1 DUP2 MSTORE PUSH1 0x20 ADD PUSH1 0x0 KECCAK256 DUP2 SWAP1 SSTORE POP PUSH1 0x0 DUP4 GT ISZERO PUSH2 0x25E2 JUMPI PUSH2 0x24F7 DUP4 PUSH1 0x2 PUSH1 0x0 DUP1 PUSH1 0x0 SWAP1 SLOAD SWAP1 PUSH2 0x100 EXP SWAP1 DIV PUSH20 0xFFFFFFFFFFFFFFFFFFFFFFFFFFFFFFFFFFFFFFFF AND PUSH20 0xFFFFFFFFFFFFFFFFFFFFFFFFFFFFFFFFFFFFFFFF AND PUSH20 0xFFFFFFFFFFFFFFFFFFFFFFFFFFFFFFFFFFFFFFFF AND DUP2 MSTORE PUSH1 0x20 ADD SWAP1 DUP2 MSTORE PUSH1 0x20 ADD PUSH1 0x0 KECCAK256 SLOAD PUSH2 0x2AF7 SWAP1 SWAP2 SWAP1 PUSH4 0xFFFFFFFF AND JUMP JUMPDEST PUSH1 0x2 PUSH1 0x0 DUP1 PUSH1 0x0 SWAP1 SLOAD SWAP1 PUSH2 0x100 EXP SWAP1 DIV PUSH20 0xFFFFFFFFFFFFFFFFFFFFFFFFFFFFFFFFFFFFFFFF AND PUSH20 0xFFFFFFFFFFFFFFFFFFFFFFFFFFFFFFFFFFFFFFFF AND PUSH20 0xFFFFFFFFFFFFFFFFFFFFFFFFFFFFFFFFFFFFFFFF AND DUP2 MSTORE PUSH1 0x20 ADD SWAP1 DUP2 MSTORE PUSH1 0x20 ADD PUSH1 0x0 KECCAK256 DUP2 SWAP1 SSTORE POP PUSH1 0x0 DUP1 SWAP1 SLOAD SWAP1 PUSH2 0x100 EXP SWAP1 DIV PUSH20 0xFFFFFFFFFFFFFFFFFFFFFFFFFFFFFFFFFFFFFFFF AND PUSH20 0xFFFFFFFFFFFFFFFFFFFFFFFFFFFFFFFFFFFFFFFF AND DUP8 PUSH20 0xFFFFFFFFFFFFFFFFFFFFFFFFFFFFFFFFFFFFFFFF AND PUSH32 0xDDF252AD1BE2C89B69C2B068FC378DAA952BA7F163C4A11628F55A4DF523B3EF DUP6 PUSH1 0x40 MLOAD DUP1 DUP3 DUP2 MSTORE PUSH1 0x20 ADD SWAP2 POP POP PUSH1 0x40 MLOAD DUP1 SWAP2 SUB SWAP1 LOG3 JUMPDEST DUP6 PUSH20 0xFFFFFFFFFFFFFFFFFFFFFFFFFFFFFFFFFFFFFFFF AND DUP8 PUSH20 0xFFFFFFFFFFFFFFFFFFFFFFFFFFFFFFFFFFFFFFFF AND PUSH32 0xDDF252AD1BE2C89B69C2B068FC378DAA952BA7F163C4A11628F55A4DF523B3EF DUP5 PUSH1 0x40 MLOAD DUP1 DUP3 DUP2 MSTORE PUSH1 0x20 ADD SWAP2 POP POP PUSH1 0x40 MLOAD DUP1 SWAP2 SUB SWAP1 LOG3 POP POP POP POP POP POP POP JUMP JUMPDEST PUSH1 0x0 PUSH1 0x2 PUSH1 0x0 DUP4 PUSH20 0xFFFFFFFFFFFFFFFFFFFFFFFFFFFFFFFFFFFFFFFF AND PUSH20 0xFFFFFFFFFFFFFFFFFFFFFFFFFFFFFFFFFFFFFFFF AND DUP2 MSTORE PUSH1 0x20 ADD SWAP1 DUP2 MSTORE PUSH1 0x20 ADD PUSH1 0x0 KECCAK256 SLOAD SWAP1 POP SWAP2 SWAP1 POP JUMP JUMPDEST PUSH1 0x0 DUP1 PUSH1 0x40 PUSH1 0x4 DUP2 ADD PUSH1 0x0 CALLDATASIZE SWAP1 POP LT ISZERO ISZERO ISZERO PUSH2 0x26B4 JUMPI PUSH1 0x0 DUP1 REVERT JUMPDEST PUSH2 0x26DD PUSH2 0x2710 PUSH2 0x26CF PUSH1 0x3 SLOAD DUP8 PUSH2 0x2A01 SWAP1 SWAP2 SWAP1 PUSH4 0xFFFFFFFF AND JUMP JUMPDEST PUSH2 0x2AC3 SWAP1 SWAP2 SWAP1 PUSH4 0xFFFFFFFF AND JUMP JUMPDEST SWAP3 POP PUSH1 0x4 SLOAD DUP4 GT ISZERO PUSH2 0x26EF JUMPI PUSH1 0x4 SLOAD SWAP3 POP JUMPDEST PUSH2 0x2702 DUP4 DUP6 PUSH2 0x2ADE SWAP1 SWAP2 SWAP1 PUSH4 0xFFFFFFFF AND JUMP JUMPDEST SWAP2 POP PUSH2 0x2756 DUP5 PUSH1 0x2 PUSH1 0x0 CALLER PUSH20 0xFFFFFFFFFFFFFFFFFFFFFFFFFFFFFFFFFFFFFFFF AND PUSH20 0xFFFFFFFFFFFFFFFFFFFFFFFFFFFFFFFFFFFFFFFF AND DUP2 MSTORE PUSH1 0x20 ADD SWAP1 DUP2 MSTORE PUSH1 0x20 ADD PUSH1 0x0 KECCAK256 SLOAD PUSH2 0x2ADE SWAP1 SWAP2 SWAP1 PUSH4 0xFFFFFFFF AND JUMP JUMPDEST PUSH1 0x2 PUSH1 0x0 CALLER PUSH20 0xFFFFFFFFFFFFFFFFFFFFFFFFFFFFFFFFFFFFFFFF AND PUSH20 0xFFFFFFFFFFFFFFFFFFFFFFFFFFFFFFFFFFFFFFFF AND DUP2 MSTORE PUSH1 0x20 ADD SWAP1 DUP2 MSTORE PUSH1 0x20 ADD PUSH1 0x0 KECCAK256 DUP2 SWAP1 SSTORE POP PUSH2 0x27EB DUP3 PUSH1 0x2 PUSH1 0x0 DUP9 PUSH20 0xFFFFFFFFFFFFFFFFFFFFFFFFFFFFFFFFFFFFFFFF AND PUSH20 0xFFFFFFFFFFFFFFFFFFFFFFFFFFFFFFFFFFFFFFFF AND DUP2 MSTORE PUSH1 0x20 ADD SWAP1 DUP2 MSTORE PUSH1 0x20 ADD PUSH1 0x0 KECCAK256 SLOAD PUSH2 0x2AF7 SWAP1 SWAP2 SWAP1 PUSH4 0xFFFFFFFF AND JUMP JUMPDEST PUSH1 0x2 PUSH1 0x0 DUP8 PUSH20 0xFFFFFFFFFFFFFFFFFFFFFFFFFFFFFFFFFFFFFFFF AND PUSH20 0xFFFFFFFFFFFFFFFFFFFFFFFFFFFFFFFFFFFFFFFF AND DUP2 MSTORE PUSH1 0x20 ADD SWAP1 DUP2 MSTORE PUSH1 0x20 ADD PUSH1 0x0 KECCAK256 DUP2 SWAP1 SSTORE POP PUSH1 0x0 DUP4 GT ISZERO PUSH2 0x2995 JUMPI PUSH2 0x28AA DUP4 PUSH1 0x2 PUSH1 0x0 DUP1 PUSH1 0x0 SWAP1 SLOAD SWAP1 PUSH2 0x100 EXP SWAP1 DIV PUSH20 0xFFFFFFFFFFFFFFFFFFFFFFFFFFFFFFFFFFFFFFFF AND PUSH20 0xFFFFFFFFFFFFFFFFFFFFFFFFFFFFFFFFFFFFFFFF AND PUSH20 0xFFFFFFFFFFFFFFFFFFFFFFFFFFFFFFFFFFFFFFFF AND DUP2 MSTORE PUSH1 0x20 ADD SWAP1 DUP2 MSTORE PUSH1 0x20 ADD PUSH1 0x0 KECCAK256 SLOAD PUSH2 0x2AF7 SWAP1 SWAP2 SWAP1 PUSH4 0xFFFFFFFF AND JUMP JUMPDEST PUSH1 0x2 PUSH1 0x0 DUP1 PUSH1 0x0 SWAP1 SLOAD SWAP1 PUSH2 0x100 EXP SWAP1 DIV PUSH20 0xFFFFFFFFFFFFFFFFFFFFFFFFFFFFFFFFFFFFFFFF AND PUSH20 0xFFFFFFFFFFFFFFFFFFFFFFFFFFFFFFFFFFFFFFFF AND PUSH20 0xFFFFFFFFFFFFFFFFFFFFFFFFFFFFFFFFFFFFFFFF AND DUP2 MSTORE PUSH1 0x20 ADD SWAP1 DUP2 MSTORE PUSH1 0x20 ADD PUSH1 0x0 KECCAK256 DUP2 SWAP1 SSTORE POP PUSH1 0x0 DUP1 SWAP1 SLOAD SWAP1 PUSH2 0x100 EXP SWAP1 DIV PUSH20 0xFFFFFFFFFFFFFFFFFFFFFFFFFFFFFFFFFFFFFFFF AND PUSH20 0xFFFFFFFFFFFFFFFFFFFFFFFFFFFFFFFFFFFFFFFF AND CALLER PUSH20 0xFFFFFFFFFFFFFFFFFFFFFFFFFFFFFFFFFFFFFFFF AND PUSH32 0xDDF252AD1BE2C89B69C2B068FC378DAA952BA7F163C4A11628F55A4DF523B3EF DUP6 PUSH1 0x40 MLOAD DUP1 DUP3 DUP2 MSTORE PUSH1 0x20 ADD SWAP2 POP POP PUSH1 0x40 MLOAD DUP1 SWAP2 SUB SWAP1 LOG3 JUMPDEST DUP5 PUSH20 0xFFFFFFFFFFFFFFFFFFFFFFFFFFFFFFFFFFFFFFFF AND CALLER PUSH20 0xFFFFFFFFFFFFFFFFFFFFFFFFFFFFFFFFFFFFFFFF AND PUSH32 0xDDF252AD1BE2C89B69C2B068FC378DAA952BA7F163C4A11628F55A4DF523B3EF DUP5 PUSH1 0x40 MLOAD DUP1 DUP3 DUP2 MSTORE PUSH1 0x20 ADD SWAP2 POP POP PUSH1 0x40 MLOAD DUP1 SWAP2 SUB SWAP1 LOG3 POP POP POP POP POP JUMP JUMPDEST PUSH1 0x0 DUP1 PUSH1 0x0 DUP5 EQ ISZERO PUSH2 0x2A16 JUMPI PUSH1 0x0 SWAP2 POP PUSH2 0x2A35 JUMP JUMPDEST DUP3 DUP5 MUL SWAP1 POP DUP3 DUP5 DUP3 DUP2 ISZERO ISZERO PUSH2 0x2A27 JUMPI INVALID JUMPDEST DIV EQ ISZERO ISZERO PUSH2 0x2A31 JUMPI INVALID JUMPDEST DUP1 SWAP2 POP JUMPDEST POP SWAP3 SWAP2 POP POP JUMP JUMPDEST PUSH1 0x0 PUSH1 0x5 PUSH1 0x0 DUP5 PUSH20 0xFFFFFFFFFFFFFFFFFFFFFFFFFFFFFFFFFFFFFFFF AND PUSH20 0xFFFFFFFFFFFFFFFFFFFFFFFFFFFFFFFFFFFFFFFF AND DUP2 MSTORE PUSH1 0x20 ADD SWAP1 DUP2 MSTORE PUSH1 0x20 ADD PUSH1 0x0 KECCAK256 PUSH1 0x0 DUP4 PUSH20 0xFFFFFFFFFFFFFFFFFFFFFFFFFFFFFFFFFFFFFFFF AND PUSH20 0xFFFFFFFFFFFFFFFFFFFFFFFFFFFFFFFFFFFFFFFF AND DUP2 MSTORE PUSH1 0x20 ADD SWAP1 DUP2 MSTORE PUSH1 0x20 ADD PUSH1 0x0 KECCAK256 SLOAD SWAP1 POP SWAP3 SWAP2 POP POP JUMP JUMPDEST PUSH1 0x0 DUP1 DUP3 DUP5 DUP2 ISZERO ISZERO PUSH2 0x2AD1 JUMPI INVALID JUMPDEST DIV SWAP1 POP DUP1 SWAP2 POP POP SWAP3 SWAP2 POP POP JUMP JUMPDEST PUSH1 0x0 DUP3 DUP3 GT ISZERO ISZERO ISZERO PUSH2 0x2AEC JUMPI INVALID JUMPDEST DUP2 DUP4 SUB SWAP1 POP SWAP3 SWAP2 POP POP JUMP JUMPDEST PUSH1 0x0 DUP1 DUP3 DUP5 ADD SWAP1 POP DUP4 DUP2 LT ISZERO ISZERO ISZERO PUSH2 0x2B0B JUMPI INVALID JUMPDEST DUP1 SWAP2 POP POP SWAP3 SWAP2 POP POP JUMP STOP LOG1 PUSH6 0x627A7A723058 KECCAK256 0xe1 LT KECCAK256 NOT 0xe3 0x1e RETURNDATACOPY 0x2e 0x3f SWAP7 0x21 0xf PUSH23 0x95AC4AB6166B170EB07282A4B703EFD392F24600290000 "
        },
        "gasEstimates": {
          "creation": {
            "codeDepositCost": "2214600",
            "executionCost": "infinite",
            "totalCost": "infinite"
          },
          "external": {
            "MAX_UINT()": "821",
            "_totalSupply()": "625",
            "addBlackList(address)": "21964",
            "allowance(address,address)": "infinite",
            "allowed(address,address)": "902",
            "approve(address,uint256)": "infinite",
            "balanceOf(address)": "infinite",
            "balances(address)": "675",
            "basisPointsRate()": "955",
            "decimals()": "581",
            "deprecate(address)": "42125",
            "deprecated()": "547",
            "destroyBlackFunds(address)": "infinite",
            "getBlackListStatus(address)": "860",
            "getOwner()": "835",
            "isBlackListed(address)": "1130",
            "issue(uint256)": "44321",
            "maximumFee()": "603",
            "name()": "infinite",
            "owner()": "849",
            "pause()": "22181",
            "paused()": "811",
            "redeem(uint256)": "43611",
            "removeBlackList(address)": "22492",
            "setParams(uint256,uint256)": "infinite",
            "symbol()": "infinite",
            "totalSupply()": "infinite",
            "transfer(address,uint256)": "infinite",
            "transferFrom(address,address,uint256)": "infinite",
            "transferOwnership(address)": "21411",
            "unpause()": "22068",
            "upgradedAddress()": "585"
          }
        },
        "methodIdentifiers": {
          "MAX_UINT()": "e5b5019a",
          "_totalSupply()": "3eaaf86b",
          "addBlackList(address)": "0ecb93c0",
          "allowance(address,address)": "dd62ed3e",
          "allowed(address,address)": "5c658165",
          "approve(address,uint256)": "095ea7b3",
          "balanceOf(address)": "70a08231",
          "balances(address)": "27e235e3",
          "basisPointsRate()": "dd644f72",
          "decimals()": "313ce567",
          "deprecate(address)": "0753c30c",
          "deprecated()": "0e136b19",
          "destroyBlackFunds(address)": "f3bdc228",
          "getBlackListStatus(address)": "59bf1abe",
          "getOwner()": "893d20e8",
          "isBlackListed(address)": "e47d6060",
          "issue(uint256)": "cc872b66",
          "maximumFee()": "35390714",
          "name()": "06fdde03",
          "owner()": "8da5cb5b",
          "pause()": "8456cb59",
          "paused()": "5c975abb",
          "redeem(uint256)": "db006a75",
          "removeBlackList(address)": "e4997dc5",
          "setParams(uint256,uint256)": "c0324c77",
          "symbol()": "95d89b41",
          "totalSupply()": "18160ddd",
          "transfer(address,uint256)": "a9059cbb",
          "transferFrom(address,address,uint256)": "23b872dd",
          "transferOwnership(address)": "f2fde38b",
          "unpause()": "3f4ba83a",
          "upgradedAddress()": "26976e3f"
        }
      },
      "userdoc": {
        "methods": {
          "getBlackListStatus(address)": {
            "notice": "//// Getters to allow the same blacklist to be used also by other contracts (including upgraded Tether) ///////"
          }
        }
      }
    }
  }
}