{
  "_format": "hh-sol-artifact-1",
  "contractName": "TokenVesting",
  "sourceName": "contracts/TokenVesting.sol",
  "abi": [
    {
      "inputs": [
        {
          "internalType": "address",
          "name": "hsf_",
          "type": "address"
        },
        {
          "internalType": "address",
          "name": "recipient_",
          "type": "address"
        },
        {
          "internalType": "uint256",
          "name": "vestingAmount_",
          "type": "uint256"
        },
        {
          "internalType": "uint256",
          "name": "vestingBegin_",
          "type": "uint256"
        },
        {
          "internalType": "uint256",
          "name": "vestingCliff_",
          "type": "uint256"
        },
        {
          "internalType": "uint256",
          "name": "vestingEnd_",
          "type": "uint256"
        }
      ],
      "stateMutability": "nonpayable",
      "type": "constructor"
    },
    {
      "anonymous": false,
      "inputs": [
        {
          "indexed": false,
          "internalType": "uint256",
          "name": "amount",
          "type": "uint256"
        }
      ],
      "name": "TokenClaimed",
      "type": "event"
    },
    {
      "inputs": [],
      "name": "claim",
      "outputs": [],
      "stateMutability": "nonpayable",
      "type": "function"
    },
    {
      "inputs": [],
      "name": "hsf",
      "outputs": [
        {
          "internalType": "address",
          "name": "",
          "type": "address"
        }
      ],
      "stateMutability": "view",
      "type": "function"
    },
    {
      "inputs": [],
      "name": "lastUpdate",
      "outputs": [
        {
          "internalType": "uint256",
          "name": "",
          "type": "uint256"
        }
      ],
      "stateMutability": "view",
      "type": "function"
    },
    {
      "inputs": [],
      "name": "recipient",
      "outputs": [
        {
          "internalType": "address",
          "name": "",
          "type": "address"
        }
      ],
      "stateMutability": "view",
      "type": "function"
    },
    {
      "inputs": [
        {
          "internalType": "address",
          "name": "recipient_",
          "type": "address"
        }
      ],
      "name": "setRecipient",
      "outputs": [],
      "stateMutability": "nonpayable",
      "type": "function"
    },
    {
      "inputs": [],
      "name": "vestingAmount",
      "outputs": [
        {
          "internalType": "uint256",
          "name": "",
          "type": "uint256"
        }
      ],
      "stateMutability": "view",
      "type": "function"
    },
    {
      "inputs": [],
      "name": "vestingBegin",
      "outputs": [
        {
          "internalType": "uint256",
          "name": "",
          "type": "uint256"
        }
      ],
      "stateMutability": "view",
      "type": "function"
    },
    {
      "inputs": [],
      "name": "vestingCliff",
      "outputs": [
        {
          "internalType": "uint256",
          "name": "",
          "type": "uint256"
        }
      ],
      "stateMutability": "view",
      "type": "function"
    },
    {
      "inputs": [],
      "name": "vestingEnd",
      "outputs": [
        {
          "internalType": "uint256",
          "name": "",
          "type": "uint256"
        }
      ],
      "stateMutability": "view",
      "type": "function"
    }
  ],
  "bytecode": "0x608060405234801561001057600080fd5b5060405161078f38038061078f83398101604081905261002f916101d0565b4283101561009f5760405162461bcd60e51b815260206004820152603260248201527f546f6b656e56657374696e673a3a636f6e7374727563746f723a2076657374696044820152716e6720626567696e20746f6f206561726c7960701b60648201526084015b60405180910390fd5b828210156101055760405162461bcd60e51b815260206004820152602d60248201527f546f6b656e56657374696e673a3a636f6e7374727563746f723a20636c69666660448201526c20697320746f6f206561726c7960981b6064820152608401610096565b8181116101685760405162461bcd60e51b815260206004820152602b60248201527f546f6b656e56657374696e673a3a636f6e7374727563746f723a20656e64206960448201526a7320746f6f206561726c7960a81b6064820152608401610096565b600080546001600160a01b039788166001600160a01b03199182161790915560018054969097169516949094179094556002919091556003819055600492909255600555600655610228565b80516001600160a01b03811681146101cb57600080fd5b919050565b60008060008060008060c087890312156101e957600080fd5b6101f2876101b4565b9550610200602088016101b4565b945060408701519350606087015192506080870151915060a087015190509295509295509295565b610558806102376000396000f3fe608060405234801561001057600080fd5b50600436106100a25760003560e01c806366d003ac11610076578063c04637111161005b578063c046371114610127578063e29bc68b14610130578063f3640e741461013957600080fd5b806366d003ac1461010b57806384a1931f1461011e57600080fd5b8062728f76146100a75780633bbed4a0146100c357806344288f81146100d85780634e71d92d14610103575b600080fd5b6100b060025481565b6040519081526020015b60405180910390f35b6100d66100d1366004610450565b610142565b005b6000546100eb906001600160a01b031681565b6040516001600160a01b0390911681526020016100ba565b6100d6610201565b6001546100eb906001600160a01b031681565b6100b060055481565b6100b060065481565b6100b060035481565b6100b060045481565b6001546001600160a01b031633146101c75760405162461bcd60e51b815260206004820152602860248201527f546f6b656e56657374696e673a3a736574526563697069656e743a20756e617560448201527f74686f72697a656400000000000000000000000000000000000000000000000060648201526084015b60405180910390fd5b600180547fffffffffffffffffffffffff0000000000000000000000000000000000000000166001600160a01b0392909216919091179055565b6004544210156102795760405162461bcd60e51b815260206004820152602160248201527f546f6b656e56657374696e673a3a636c61696d3a206e6f742074696d6520796560448201527f740000000000000000000000000000000000000000000000000000000000000060648201526084016101be565b6000600554421061031f576000546040517f70a082310000000000000000000000000000000000000000000000000000000081523060048201526001600160a01b03909116906370a082319060240160206040518083038186803b1580156102e057600080fd5b505afa1580156102f4573d6000803e3d6000fd5b505050506040513d601f19601f82011682018060405250810190610318919061049b565b9050610359565b61035260035460055461033291906104f5565b61034c6006544261034391906104f5565b60025490610431565b90610444565b4260065590505b6000546001546040517fa9059cbb0000000000000000000000000000000000000000000000000000000081526001600160a01b0391821660048201526024810184905291169063a9059cbb90604401602060405180830381600087803b1580156103c257600080fd5b505af11580156103d6573d6000803e3d6000fd5b505050506040513d601f19601f820116820180604052508101906103fa9190610479565b506040518181527f97212d5af6cf1ddbeedea7e5f9a18970d2dde6bcc4583898856a241144c4877f9060200160405180910390a150565b600061043d82846104d6565b9392505050565b600061043d82846104b4565b60006020828403121561046257600080fd5b81356001600160a01b038116811461043d57600080fd5b60006020828403121561048b57600080fd5b8151801515811461043d57600080fd5b6000602082840312156104ad57600080fd5b5051919050565b6000826104d157634e487b7160e01b600052601260045260246000fd5b500490565b60008160001904831182151516156104f0576104f061050c565b500290565b6000828210156105075761050761050c565b500390565b634e487b7160e01b600052601160045260246000fdfea2646970667358221220009cf1a3e0cc7d9f6abf0a4a9d0c89f54ba8d8bc668828a8ebc6fa08f6bf453a64736f6c63430008070033",
  "linkReferences": {},
  "deployedLinkReferences": {}
}