{
  "_format": "hh-sol-artifact-1",
  "contractName": "HillstoneFinance",
  "sourceName": "contracts/HillstoneFinance.sol",
  "abi": [
    {
      "inputs": [],
      "stateMutability": "nonpayable",
      "type": "constructor"
    },
    {
      "anonymous": false,
      "inputs": [
        {
          "indexed": false,
          "internalType": "address",
          "name": "_user",
          "type": "address"
        }
      ],
      "name": "AddedBlackList",
      "type": "event"
    },
    {
      "anonymous": false,
      "inputs": [
        {
          "indexed": true,
          "internalType": "address",
          "name": "owner",
          "type": "address"
        },
        {
          "indexed": true,
          "internalType": "address",
          "name": "spender",
          "type": "address"
        },
        {
          "indexed": false,
          "internalType": "uint256",
          "name": "value",
          "type": "uint256"
        }
      ],
      "name": "Approval",
      "type": "event"
    },
    {
      "anonymous": false,
      "inputs": [
        {
          "indexed": true,
          "internalType": "address",
          "name": "previousOwner",
          "type": "address"
        },
        {
          "indexed": true,
          "internalType": "address",
          "name": "newOwner",
          "type": "address"
        }
      ],
      "name": "OwnershipTransferred",
      "type": "event"
    },
    {
      "anonymous": false,
      "inputs": [
        {
          "indexed": false,
          "internalType": "address",
          "name": "_user",
          "type": "address"
        }
      ],
      "name": "RemovedBlackList",
      "type": "event"
    },
    {
      "anonymous": false,
      "inputs": [
        {
          "indexed": true,
          "internalType": "address",
          "name": "from",
          "type": "address"
        },
        {
          "indexed": true,
          "internalType": "address",
          "name": "to",
          "type": "address"
        },
        {
          "indexed": false,
          "internalType": "uint256",
          "name": "value",
          "type": "uint256"
        }
      ],
      "name": "Transfer",
      "type": "event"
    },
    {
      "inputs": [
        {
          "internalType": "address",
          "name": "_addr",
          "type": "address"
        }
      ],
      "name": "addBlackList",
      "outputs": [],
      "stateMutability": "nonpayable",
      "type": "function"
    },
    {
      "inputs": [
        {
          "internalType": "address",
          "name": "owner",
          "type": "address"
        },
        {
          "internalType": "address",
          "name": "spender",
          "type": "address"
        }
      ],
      "name": "allowance",
      "outputs": [
        {
          "internalType": "uint256",
          "name": "",
          "type": "uint256"
        }
      ],
      "stateMutability": "view",
      "type": "function"
    },
    {
      "inputs": [
        {
          "internalType": "address",
          "name": "spender",
          "type": "address"
        },
        {
          "internalType": "uint256",
          "name": "amount",
          "type": "uint256"
        }
      ],
      "name": "approve",
      "outputs": [
        {
          "internalType": "bool",
          "name": "",
          "type": "bool"
        }
      ],
      "stateMutability": "nonpayable",
      "type": "function"
    },
    {
      "inputs": [
        {
          "internalType": "address",
          "name": "account",
          "type": "address"
        }
      ],
      "name": "balanceOf",
      "outputs": [
        {
          "internalType": "uint256",
          "name": "",
          "type": "uint256"
        }
      ],
      "stateMutability": "view",
      "type": "function"
    },
    {
      "inputs": [],
      "name": "decimals",
      "outputs": [
        {
          "internalType": "uint8",
          "name": "",
          "type": "uint8"
        }
      ],
      "stateMutability": "view",
      "type": "function"
    },
    {
      "inputs": [
        {
          "internalType": "address",
          "name": "spender",
          "type": "address"
        },
        {
          "internalType": "uint256",
          "name": "subtractedValue",
          "type": "uint256"
        }
      ],
      "name": "decreaseAllowance",
      "outputs": [
        {
          "internalType": "bool",
          "name": "",
          "type": "bool"
        }
      ],
      "stateMutability": "nonpayable",
      "type": "function"
    },
    {
      "inputs": [
        {
          "internalType": "address",
          "name": "_addr",
          "type": "address"
        }
      ],
      "name": "getBlackListStatus",
      "outputs": [
        {
          "internalType": "bool",
          "name": "",
          "type": "bool"
        }
      ],
      "stateMutability": "view",
      "type": "function"
    },
    {
      "inputs": [
        {
          "internalType": "address",
          "name": "spender",
          "type": "address"
        },
        {
          "internalType": "uint256",
          "name": "addedValue",
          "type": "uint256"
        }
      ],
      "name": "increaseAllowance",
      "outputs": [
        {
          "internalType": "bool",
          "name": "",
          "type": "bool"
        }
      ],
      "stateMutability": "nonpayable",
      "type": "function"
    },
    {
      "inputs": [
        {
          "internalType": "address",
          "name": "",
          "type": "address"
        }
      ],
      "name": "isBlackListed",
      "outputs": [
        {
          "internalType": "bool",
          "name": "",
          "type": "bool"
        }
      ],
      "stateMutability": "view",
      "type": "function"
    },
    {
      "inputs": [],
      "name": "name",
      "outputs": [
        {
          "internalType": "string",
          "name": "",
          "type": "string"
        }
      ],
      "stateMutability": "view",
      "type": "function"
    },
    {
      "inputs": [],
      "name": "owner",
      "outputs": [
        {
          "internalType": "address",
          "name": "",
          "type": "address"
        }
      ],
      "stateMutability": "view",
      "type": "function"
    },
    {
      "inputs": [
        {
          "internalType": "address",
          "name": "_addr",
          "type": "address"
        }
      ],
      "name": "removeBlackList",
      "outputs": [],
      "stateMutability": "nonpayable",
      "type": "function"
    },
    {
      "inputs": [],
      "name": "renounceOwnership",
      "outputs": [],
      "stateMutability": "nonpayable",
      "type": "function"
    },
    {
      "inputs": [],
      "name": "symbol",
      "outputs": [
        {
          "internalType": "string",
          "name": "",
          "type": "string"
        }
      ],
      "stateMutability": "view",
      "type": "function"
    },
    {
      "inputs": [],
      "name": "totalSupply",
      "outputs": [
        {
          "internalType": "uint256",
          "name": "",
          "type": "uint256"
        }
      ],
      "stateMutability": "view",
      "type": "function"
    },
    {
      "inputs": [
        {
          "internalType": "address",
          "name": "_to",
          "type": "address"
        },
        {
          "internalType": "uint256",
          "name": "_value",
          "type": "uint256"
        }
      ],
      "name": "transfer",
      "outputs": [
        {
          "internalType": "bool",
          "name": "success",
          "type": "bool"
        }
      ],
      "stateMutability": "nonpayable",
      "type": "function"
    },
    {
      "inputs": [
        {
          "internalType": "address",
          "name": "_from",
          "type": "address"
        },
        {
          "internalType": "address",
          "name": "_to",
          "type": "address"
        },
        {
          "internalType": "uint256",
          "name": "_value",
          "type": "uint256"
        }
      ],
      "name": "transferFrom",
      "outputs": [
        {
          "internalType": "bool",
          "name": "success",
          "type": "bool"
        }
      ],
      "stateMutability": "nonpayable",
      "type": "function"
    },
    {
      "inputs": [
        {
          "internalType": "address",
          "name": "newOwner",
          "type": "address"
        }
      ],
      "name": "transferOwnership",
      "outputs": [],
      "stateMutability": "nonpayable",
      "type": "function"
    }
  ],
  "bytecode": "0x60806040523480156200001157600080fd5b506040518060400160405280601181526020017048696c6c73746f6e652e46696e616e636560781b815250604051806040016040528060038152602001622429a360e91b81525060006200006a6200010560201b60201c565b600080546001600160a01b0319166001600160a01b0383169081178255604051929350917f8be0079c531659141344cd1fd0a4f28419497f9722a3daafe3b4186f6b6457e0908290a3508151620000c9906004906020850190620001f1565b508051620000df906005906020840190620001f1565b505050620000ff336a52b7d2dcc80cd2e40000006200010960201b60201c565b620002fb565b3390565b6001600160a01b038216620001645760405162461bcd60e51b815260206004820152601f60248201527f45524332303a206d696e7420746f20746865207a65726f206164647265737300604482015260640160405180910390fd5b806003600082825462000178919062000297565b90915550506001600160a01b03821660009081526001602052604081208054839290620001a790849062000297565b90915550506040518181526001600160a01b038316906000907fddf252ad1be2c89b69c2b068fc378daa952ba7f163c4a11628f55a4df523b3ef9060200160405180910390a35050565b828054620001ff90620002be565b90600052602060002090601f0160209004810192826200022357600085556200026e565b82601f106200023e57805160ff19168380011785556200026e565b828001600101855582156200026e579182015b828111156200026e57825182559160200191906001019062000251565b506200027c92915062000280565b5090565b5b808211156200027c576000815560010162000281565b60008219821115620002b957634e487b7160e01b600052601160045260246000fd5b500190565b600181811c90821680620002d357607f821691505b60208210811415620002f557634e487b7160e01b600052602260045260246000fd5b50919050565b610f51806200030b6000396000f3fe608060405234801561001057600080fd5b50600436106101365760003560e01c8063715018a6116100b2578063a9059cbb11610081578063e47d606011610066578063e47d6060146102b7578063e4997dc5146102da578063f2fde38b146102ed57600080fd5b8063a9059cbb1461026b578063dd62ed3e1461027e57600080fd5b8063715018a61461022d5780638da5cb5b1461023557806395d89b4114610250578063a457c2d71461025857600080fd5b806323b872dd1161010957806339509351116100ee57806339509351146101c557806359bf1abe146101d857806370a082311461020457600080fd5b806323b872dd146101a3578063313ce567146101b657600080fd5b806306fdde031461013b578063095ea7b3146101595780630ecb93c01461017c57806318160ddd14610191575b600080fd5b610143610300565b6040516101509190610e46565b60405180910390f35b61016c610167366004610e1c565b610392565b6040519015158152602001610150565b61018f61018a366004610d92565b6103a8565b005b6003545b604051908152602001610150565b61016c6101b1366004610de0565b610462565b60405160128152602001610150565b61016c6101d3366004610e1c565b610504565b61016c6101e6366004610d92565b6001600160a01b031660009081526006602052604090205460ff1690565b610195610212366004610d92565b6001600160a01b031660009081526001602052604090205490565b61018f610540565b6000546040516001600160a01b039091168152602001610150565b6101436105f1565b61016c610266366004610e1c565b610600565b61016c610279366004610e1c565b6106b3565b61019561028c366004610dad565b6001600160a01b03918216600090815260026020908152604080832093909416825291909152205490565b61016c6102c5366004610d92565b60066020526000908152604090205460ff1681565b61018f6102e8366004610d92565b61074a565b61018f6102fb366004610d92565b6107f5565b60606004805461030f90610eca565b80601f016020809104026020016040519081016040528092919081815260200182805461033b90610eca565b80156103885780601f1061035d57610100808354040283529160200191610388565b820191906000526020600020905b81548152906001019060200180831161036b57829003601f168201915b5050505050905090565b600061039f338484610933565b50600192915050565b6000546001600160a01b031633146104075760405162461bcd60e51b815260206004820181905260248201527f4f776e61626c653a2063616c6c6572206973206e6f7420746865206f776e657260448201526064015b60405180910390fd5b6001600160a01b038116600081815260066020908152604091829020805460ff1916600117905590519182527f42e160154868087d6bfdc0ca23d96a1c1cfa32f1b72ba9ba27b69b98a0d819dc91015b60405180910390a150565b6001600160a01b03831660009081526006602052604081205460ff16156104f15760405162461bcd60e51b815260206004820152603e60248201527f4853462f7472616e7366657246726f6d3a2053686f756c64206e6f742074726160448201527f6e736665722066726f6d20626c61636b6c69737465642061646472657373000060648201526084016103fe565b6104fc848484610a8b565b949350505050565b3360008181526002602090815260408083206001600160a01b0387168452909152812054909161039f91859061053b908690610e9b565b610933565b6000546001600160a01b0316331461059a5760405162461bcd60e51b815260206004820181905260248201527f4f776e61626c653a2063616c6c6572206973206e6f7420746865206f776e657260448201526064016103fe565b600080546040516001600160a01b03909116907f8be0079c531659141344cd1fd0a4f28419497f9722a3daafe3b4186f6b6457e0908390a36000805473ffffffffffffffffffffffffffffffffffffffff19169055565b60606005805461030f90610eca565b3360009081526002602090815260408083206001600160a01b03861684529091528120548281101561069a5760405162461bcd60e51b815260206004820152602560248201527f45524332303a2064656372656173656420616c6c6f77616e63652062656c6f7760448201527f207a65726f00000000000000000000000000000000000000000000000000000060648201526084016103fe565b6106a9338561053b8685610eb3565b5060019392505050565b3360009081526006602052604081205460ff16156107395760405162461bcd60e51b815260206004820152603a60248201527f4853462f7472616e736665723a2053686f756c64206e6f74207472616e73666560448201527f722066726f6d20626c61636b6c6973746564206164647265737300000000000060648201526084016103fe565b6107438383610b4c565b9392505050565b6000546001600160a01b031633146107a45760405162461bcd60e51b815260206004820181905260248201527f4f776e61626c653a2063616c6c6572206973206e6f7420746865206f776e657260448201526064016103fe565b6001600160a01b038116600081815260066020908152604091829020805460ff1916905590519182527fd7e9ec6e6ecd65492dce6bf513cd6867560d49544421d0783ddf06e76c24470c9101610457565b6000546001600160a01b0316331461084f5760405162461bcd60e51b815260206004820181905260248201527f4f776e61626c653a2063616c6c6572206973206e6f7420746865206f776e657260448201526064016103fe565b6001600160a01b0381166108cb5760405162461bcd60e51b815260206004820152602660248201527f4f776e61626c653a206e6577206f776e657220697320746865207a65726f206160448201527f646472657373000000000000000000000000000000000000000000000000000060648201526084016103fe565b600080546040516001600160a01b03808516939216917f8be0079c531659141344cd1fd0a4f28419497f9722a3daafe3b4186f6b6457e091a36000805473ffffffffffffffffffffffffffffffffffffffff19166001600160a01b0392909216919091179055565b6001600160a01b0383166109ae5760405162461bcd60e51b8152602060048201526024808201527f45524332303a20617070726f76652066726f6d20746865207a65726f2061646460448201527f726573730000000000000000000000000000000000000000000000000000000060648201526084016103fe565b6001600160a01b038216610a2a5760405162461bcd60e51b815260206004820152602260248201527f45524332303a20617070726f766520746f20746865207a65726f20616464726560448201527f737300000000000000000000000000000000000000000000000000000000000060648201526084016103fe565b6001600160a01b0383811660008181526002602090815260408083209487168084529482529182902085905590518481527f8c5be1e5ebec7d5bd14f71427d1e84f3dd0314c0f7b2291e5b200ac8c7c3b925910160405180910390a3505050565b6000610a98848484610b55565b6001600160a01b038416600090815260026020908152604080832033845290915290205482811015610b325760405162461bcd60e51b815260206004820152602860248201527f45524332303a207472616e7366657220616d6f756e742065786365656473206160448201527f6c6c6f77616e636500000000000000000000000000000000000000000000000060648201526084016103fe565b610b41853361053b8685610eb3565b506001949350505050565b600061039f3384845b6001600160a01b038316610bd15760405162461bcd60e51b815260206004820152602560248201527f45524332303a207472616e736665722066726f6d20746865207a65726f20616460448201527f647265737300000000000000000000000000000000000000000000000000000060648201526084016103fe565b6001600160a01b038216610c4d5760405162461bcd60e51b815260206004820152602360248201527f45524332303a207472616e7366657220746f20746865207a65726f206164647260448201527f657373000000000000000000000000000000000000000000000000000000000060648201526084016103fe565b6001600160a01b03831660009081526001602052604090205481811015610cdc5760405162461bcd60e51b815260206004820152602660248201527f45524332303a207472616e7366657220616d6f756e742065786365656473206260448201527f616c616e6365000000000000000000000000000000000000000000000000000060648201526084016103fe565b610ce68282610eb3565b6001600160a01b038086166000908152600160205260408082209390935590851681529081208054849290610d1c908490610e9b565b92505081905550826001600160a01b0316846001600160a01b03167fddf252ad1be2c89b69c2b068fc378daa952ba7f163c4a11628f55a4df523b3ef84604051610d6891815260200190565b60405180910390a350505050565b80356001600160a01b0381168114610d8d57600080fd5b919050565b600060208284031215610da457600080fd5b61074382610d76565b60008060408385031215610dc057600080fd5b610dc983610d76565b9150610dd760208401610d76565b90509250929050565b600080600060608486031215610df557600080fd5b610dfe84610d76565b9250610e0c60208501610d76565b9150604084013590509250925092565b60008060408385031215610e2f57600080fd5b610e3883610d76565b946020939093013593505050565b600060208083528351808285015260005b81811015610e7357858101830151858201604001528201610e57565b81811115610e85576000604083870101525b50601f01601f1916929092016040019392505050565b60008219821115610eae57610eae610f05565b500190565b600082821015610ec557610ec5610f05565b500390565b600181811c90821680610ede57607f821691505b60208210811415610eff57634e487b7160e01b600052602260045260246000fd5b50919050565b634e487b7160e01b600052601160045260246000fdfea2646970667358221220bde38cccb28a925d25c6108b33527c4bee25c2335fd31f2c10514a6d62847ad364736f6c63430008070033",
  "linkReferences": {},
  "deployedLinkReferences": {}
}