{
  "_format": "hh-sol-artifact-1",
  "contractName": "HillstoneFinance",
  "sourceName": "contracts/HillstoneFinance.sol",
  "abi": [
    {
      "inputs": [],
      "stateMutability": "nonpayable",
      "type": "constructor"
    },
    {
      "anonymous": false,
      "inputs": [
        {
          "indexed": false,
          "internalType": "address",
          "name": "_user",
          "type": "address"
        }
      ],
      "name": "AddedBlackList",
      "type": "event"
    },
    {
      "anonymous": false,
      "inputs": [
        {
          "indexed": true,
          "internalType": "address",
          "name": "owner",
          "type": "address"
        },
        {
          "indexed": true,
          "internalType": "address",
          "name": "spender",
          "type": "address"
        },
        {
          "indexed": false,
          "internalType": "uint256",
          "name": "value",
          "type": "uint256"
        }
      ],
      "name": "Approval",
      "type": "event"
    },
    {
      "anonymous": false,
      "inputs": [
        {
          "indexed": true,
          "internalType": "address",
          "name": "previousOwner",
          "type": "address"
        },
        {
          "indexed": true,
          "internalType": "address",
          "name": "newOwner",
          "type": "address"
        }
      ],
      "name": "OwnershipTransferred",
      "type": "event"
    },
    {
      "anonymous": false,
      "inputs": [
        {
          "indexed": false,
          "internalType": "address",
          "name": "_user",
          "type": "address"
        }
      ],
      "name": "RemovedBlackList",
      "type": "event"
    },
    {
      "anonymous": false,
      "inputs": [
        {
          "indexed": false,
          "internalType": "address",
          "name": "_blackListedUser",
          "type": "address"
        },
        {
          "indexed": false,
          "internalType": "uint256",
          "name": "_balance",
          "type": "uint256"
        }
      ],
      "name": "RetrievedBlackFunds",
      "type": "event"
    },
    {
      "anonymous": false,
      "inputs": [
        {
          "indexed": true,
          "internalType": "address",
          "name": "from",
          "type": "address"
        },
        {
          "indexed": true,
          "internalType": "address",
          "name": "to",
          "type": "address"
        },
        {
          "indexed": false,
          "internalType": "uint256",
          "name": "value",
          "type": "uint256"
        }
      ],
      "name": "Transfer",
      "type": "event"
    },
    {
      "inputs": [
        {
          "internalType": "address",
          "name": "_addr",
          "type": "address"
        }
      ],
      "name": "addBlackList",
      "outputs": [],
      "stateMutability": "nonpayable",
      "type": "function"
    },
    {
      "inputs": [
        {
          "internalType": "address",
          "name": "owner",
          "type": "address"
        },
        {
          "internalType": "address",
          "name": "spender",
          "type": "address"
        }
      ],
      "name": "allowance",
      "outputs": [
        {
          "internalType": "uint256",
          "name": "",
          "type": "uint256"
        }
      ],
      "stateMutability": "view",
      "type": "function"
    },
    {
      "inputs": [
        {
          "internalType": "address",
          "name": "spender",
          "type": "address"
        },
        {
          "internalType": "uint256",
          "name": "amount",
          "type": "uint256"
        }
      ],
      "name": "approve",
      "outputs": [
        {
          "internalType": "bool",
          "name": "",
          "type": "bool"
        }
      ],
      "stateMutability": "nonpayable",
      "type": "function"
    },
    {
      "inputs": [
        {
          "internalType": "address",
          "name": "account",
          "type": "address"
        }
      ],
      "name": "balanceOf",
      "outputs": [
        {
          "internalType": "uint256",
          "name": "",
          "type": "uint256"
        }
      ],
      "stateMutability": "view",
      "type": "function"
    },
    {
      "inputs": [],
      "name": "decimals",
      "outputs": [
        {
          "internalType": "uint8",
          "name": "",
          "type": "uint8"
        }
      ],
      "stateMutability": "view",
      "type": "function"
    },
    {
      "inputs": [
        {
          "internalType": "address",
          "name": "spender",
          "type": "address"
        },
        {
          "internalType": "uint256",
          "name": "subtractedValue",
          "type": "uint256"
        }
      ],
      "name": "decreaseAllowance",
      "outputs": [
        {
          "internalType": "bool",
          "name": "",
          "type": "bool"
        }
      ],
      "stateMutability": "nonpayable",
      "type": "function"
    },
    {
      "inputs": [
        {
          "internalType": "address",
          "name": "_addr",
          "type": "address"
        }
      ],
      "name": "getBlackListStatus",
      "outputs": [
        {
          "internalType": "bool",
          "name": "",
          "type": "bool"
        }
      ],
      "stateMutability": "view",
      "type": "function"
    },
    {
      "inputs": [
        {
          "internalType": "address",
          "name": "spender",
          "type": "address"
        },
        {
          "internalType": "uint256",
          "name": "addedValue",
          "type": "uint256"
        }
      ],
      "name": "increaseAllowance",
      "outputs": [
        {
          "internalType": "bool",
          "name": "",
          "type": "bool"
        }
      ],
      "stateMutability": "nonpayable",
      "type": "function"
    },
    {
      "inputs": [
        {
          "internalType": "address",
          "name": "",
          "type": "address"
        }
      ],
      "name": "isBlackListed",
      "outputs": [
        {
          "internalType": "bool",
          "name": "",
          "type": "bool"
        }
      ],
      "stateMutability": "view",
      "type": "function"
    },
    {
      "inputs": [],
      "name": "name",
      "outputs": [
        {
          "internalType": "string",
          "name": "",
          "type": "string"
        }
      ],
      "stateMutability": "view",
      "type": "function"
    },
    {
      "inputs": [],
      "name": "owner",
      "outputs": [
        {
          "internalType": "address",
          "name": "",
          "type": "address"
        }
      ],
      "stateMutability": "view",
      "type": "function"
    },
    {
      "inputs": [
        {
          "internalType": "address",
          "name": "_addr",
          "type": "address"
        }
      ],
      "name": "removeBlackList",
      "outputs": [],
      "stateMutability": "nonpayable",
      "type": "function"
    },
    {
      "inputs": [],
      "name": "renounceOwnership",
      "outputs": [],
      "stateMutability": "nonpayable",
      "type": "function"
    },
    {
      "inputs": [
        {
          "internalType": "address",
          "name": "_blackListedUser",
          "type": "address"
        }
      ],
      "name": "retrieveBlackFunds",
      "outputs": [],
      "stateMutability": "nonpayable",
      "type": "function"
    },
    {
      "inputs": [],
      "name": "symbol",
      "outputs": [
        {
          "internalType": "string",
          "name": "",
          "type": "string"
        }
      ],
      "stateMutability": "view",
      "type": "function"
    },
    {
      "inputs": [],
      "name": "totalSupply",
      "outputs": [
        {
          "internalType": "uint256",
          "name": "",
          "type": "uint256"
        }
      ],
      "stateMutability": "view",
      "type": "function"
    },
    {
      "inputs": [
        {
          "internalType": "address",
          "name": "_to",
          "type": "address"
        },
        {
          "internalType": "uint256",
          "name": "_value",
          "type": "uint256"
        }
      ],
      "name": "transfer",
      "outputs": [
        {
          "internalType": "bool",
          "name": "success",
          "type": "bool"
        }
      ],
      "stateMutability": "nonpayable",
      "type": "function"
    },
    {
      "inputs": [
        {
          "internalType": "address",
          "name": "_from",
          "type": "address"
        },
        {
          "internalType": "address",
          "name": "_to",
          "type": "address"
        },
        {
          "internalType": "uint256",
          "name": "_value",
          "type": "uint256"
        }
      ],
      "name": "transferFrom",
      "outputs": [
        {
          "internalType": "bool",
          "name": "success",
          "type": "bool"
        }
      ],
      "stateMutability": "nonpayable",
      "type": "function"
    },
    {
      "inputs": [
        {
          "internalType": "address",
          "name": "newOwner",
          "type": "address"
        }
      ],
      "name": "transferOwnership",
      "outputs": [],
      "stateMutability": "nonpayable",
      "type": "function"
    }
  ],
  "bytecode": "0x60806040523480156200001157600080fd5b506040518060400160405280601181526020017048696c6c73746f6e652e46696e616e636560781b815250604051806040016040528060038152602001622429a360e91b81525060006200006a6200010560201b60201c565b600080546001600160a01b0319166001600160a01b0383169081178255604051929350917f8be0079c531659141344cd1fd0a4f28419497f9722a3daafe3b4186f6b6457e0908290a3508151620000c9906004906020850190620001e2565b508051620000df906005906020840190620001e2565b505050620000ff336a52b7d2dcc80cd2e40000006200010960201b60201c565b6200032a565b3390565b6001600160a01b0382166200013b5760405162461bcd60e51b8152600401620001329062000288565b60405180910390fd5b6200014960008383620001dd565b80600360008282546200015d9190620002c8565b90915550506001600160a01b038216600090815260016020526040812080548392906200018c908490620002c8565b90915550506040516001600160a01b038316906000907fddf252ad1be2c89b69c2b068fc378daa952ba7f163c4a11628f55a4df523b3ef90620001d1908590620002bf565b60405180910390a35050565b505050565b828054620001f090620002ed565b90600052602060002090601f0160209004810192826200021457600085556200025f565b82601f106200022f57805160ff19168380011785556200025f565b828001600101855582156200025f579182015b828111156200025f57825182559160200191906001019062000242565b506200026d92915062000271565b5090565b5b808211156200026d576000815560010162000272565b6020808252601f908201527f45524332303a206d696e7420746f20746865207a65726f206164647265737300604082015260600190565b90815260200190565b60008219821115620002e857634e487b7160e01b81526011600452602481fd5b500190565b6002810460018216806200030257607f821691505b602082108114156200032457634e487b7160e01b600052602260045260246000fd5b50919050565b611044806200033a6000396000f3fe608060405234801561001057600080fd5b50600436106101215760003560e01c8063715018a6116100ad578063d10ba42211610071578063d10ba4221461023a578063dd62ed3e1461024d578063e47d606014610260578063e4997dc514610273578063f2fde38b1461028657610121565b8063715018a6146101ef5780638da5cb5b146101f757806395d89b411461020c578063a457c2d714610214578063a9059cbb1461022757610121565b806323b872dd116100f457806323b872dd1461018e578063313ce567146101a157806339509351146101b657806359bf1abe146101c957806370a08231146101dc57610121565b806306fdde0314610126578063095ea7b3146101445780630ecb93c01461016457806318160ddd14610179575b600080fd5b61012e610299565b60405161013b9190610c0e565b60405180910390f35b610157610152366004610bad565b61032b565b60405161013b9190610c03565b610177610172366004610b26565b610348565b005b6101816103ee565b60405161013b9190610f77565b61015761019c366004610b72565b6103f4565b6101a9610440565b60405161013b9190610f80565b6101576101c4366004610bad565b610445565b6101576101d7366004610b26565b610499565b6101816101ea366004610b26565b6104bb565b6101776104d6565b6101ff61055f565b60405161013b9190610bd6565b61012e61056e565b610157610222366004610bad565b61057d565b610157610235366004610bad565b6105f8565b610177610248366004610b26565b610639565b61018161025b366004610b40565b6106f9565b61015761026e366004610b26565b610724565b610177610281366004610b26565b610739565b610177610294366004610b26565b6107c8565b6060600480546102a890610fbd565b80601f01602080910402602001604051908101604052809291908181526020018280546102d490610fbd565b80156103215780601f106102f657610100808354040283529160200191610321565b820191906000526020600020905b81548152906001019060200180831161030457829003601f168201915b5050505050905090565b600061033f610338610888565b848461088c565b50600192915050565b610350610888565b6001600160a01b031661036161055f565b6001600160a01b0316146103905760405162461bcd60e51b815260040161038790610dba565b60405180910390fd5b6001600160a01b03811660009081526006602052604090819020805460ff19166001179055517f42e160154868087d6bfdc0ca23d96a1c1cfa32f1b72ba9ba27b69b98a0d819dc906103e3908390610bd6565b60405180910390a150565b60035490565b6001600160a01b03831660009081526006602052604081205460ff161561042d5760405162461bcd60e51b815260040161038790610e78565b610438848484610940565b949350505050565b601290565b600061033f610452610888565b848460026000610460610888565b6001600160a01b03908116825260208083019390935260409182016000908120918b16815292529020546104949190610f8e565b61088c565b6001600160a01b03811660009081526006602052604090205460ff165b919050565b6001600160a01b031660009081526001602052604090205490565b6104de610888565b6001600160a01b03166104ef61055f565b6001600160a01b0316146105155760405162461bcd60e51b815260040161038790610dba565b600080546040516001600160a01b03909116907f8be0079c531659141344cd1fd0a4f28419497f9722a3daafe3b4186f6b6457e0908390a3600080546001600160a01b0319169055565b6000546001600160a01b031690565b6060600580546102a890610fbd565b6000806002600061058c610888565b6001600160a01b03908116825260208083019390935260409182016000908120918816815292529020549050828110156105d85760405162461bcd60e51b815260040161038790610f32565b6105ee6105e3610888565b856104948685610fa6565b5060019392505050565b3360009081526006602052604081205460ff16156106285760405162461bcd60e51b815260040161038790610ed5565b61063283836109d2565b9392505050565b610641610888565b6001600160a01b031661065261055f565b6001600160a01b0316146106785760405162461bcd60e51b815260040161038790610dba565b6001600160a01b03811660009081526006602052604090205460ff1661069d57600080fd5b60006106a8826104bb565b90506106bc826106b661055f565b836109e2565b7f7b8638011a0aa8dee7e4d148890183f633657fac31b85d9783d8684a2786935582826040516106ed929190610bea565b60405180910390a15050565b6001600160a01b03918216600090815260026020908152604080832093909416825291909152205490565b60066020526000908152604090205460ff1681565b610741610888565b6001600160a01b031661075261055f565b6001600160a01b0316146107785760405162461bcd60e51b815260040161038790610dba565b6001600160a01b03811660009081526006602052604090819020805460ff19169055517fd7e9ec6e6ecd65492dce6bf513cd6867560d49544421d0783ddf06e76c24470c906103e3908390610bd6565b6107d0610888565b6001600160a01b03166107e161055f565b6001600160a01b0316146108075760405162461bcd60e51b815260040161038790610dba565b6001600160a01b03811661082d5760405162461bcd60e51b815260040161038790610ca4565b600080546040516001600160a01b03808516939216917f8be0079c531659141344cd1fd0a4f28419497f9722a3daafe3b4186f6b6457e091a3600080546001600160a01b0319166001600160a01b0392909216919091179055565b3390565b6001600160a01b0383166108b25760405162461bcd60e51b815260040161038790610e34565b6001600160a01b0382166108d85760405162461bcd60e51b815260040161038790610cea565b6001600160a01b0380841660008181526002602090815260408083209487168084529490915290819020849055517f8c5be1e5ebec7d5bd14f71427d1e84f3dd0314c0f7b2291e5b200ac8c7c3b92590610933908590610f77565b60405180910390a3505050565b600061094d8484846109e2565b6001600160a01b03841660009081526002602052604081208161096e610888565b6001600160a01b03166001600160a01b03168152602001908152602001600020549050828110156109b15760405162461bcd60e51b815260040161038790610d72565b6109c7856109bd610888565b6104948685610fa6565b506001949350505050565b600061033f6109df610888565b84845b6001600160a01b038316610a085760405162461bcd60e51b815260040161038790610def565b6001600160a01b038216610a2e5760405162461bcd60e51b815260040161038790610c61565b610a39838383610b0a565b6001600160a01b03831660009081526001602052604090205481811015610a725760405162461bcd60e51b815260040161038790610d2c565b610a7c8282610fa6565b6001600160a01b038086166000908152600160205260408082209390935590851681529081208054849290610ab2908490610f8e565b92505081905550826001600160a01b0316846001600160a01b03167fddf252ad1be2c89b69c2b068fc378daa952ba7f163c4a11628f55a4df523b3ef84604051610afc9190610f77565b60405180910390a350505050565b505050565b80356001600160a01b03811681146104b657600080fd5b600060208284031215610b37578081fd5b61063282610b0f565b60008060408385031215610b52578081fd5b610b5b83610b0f565b9150610b6960208401610b0f565b90509250929050565b600080600060608486031215610b86578081fd5b610b8f84610b0f565b9250610b9d60208501610b0f565b9150604084013590509250925092565b60008060408385031215610bbf578182fd5b610bc883610b0f565b946020939093013593505050565b6001600160a01b0391909116815260200190565b6001600160a01b03929092168252602082015260400190565b901515815260200190565b6000602080835283518082850152825b81811015610c3a57858101830151858201604001528201610c1e565b81811115610c4b5783604083870101525b50601f01601f1916929092016040019392505050565b60208082526023908201527f45524332303a207472616e7366657220746f20746865207a65726f206164647260408201526265737360e81b606082015260800190565b60208082526026908201527f4f776e61626c653a206e6577206f776e657220697320746865207a65726f206160408201526564647265737360d01b606082015260800190565b60208082526022908201527f45524332303a20617070726f766520746f20746865207a65726f206164647265604082015261737360f01b606082015260800190565b60208082526026908201527f45524332303a207472616e7366657220616d6f756e7420657863656564732062604082015265616c616e636560d01b606082015260800190565b60208082526028908201527f45524332303a207472616e7366657220616d6f756e74206578636565647320616040820152676c6c6f77616e636560c01b606082015260800190565b6020808252818101527f4f776e61626c653a2063616c6c6572206973206e6f7420746865206f776e6572604082015260600190565b60208082526025908201527f45524332303a207472616e736665722066726f6d20746865207a65726f206164604082015264647265737360d81b606082015260800190565b60208082526024908201527f45524332303a20617070726f76652066726f6d20746865207a65726f206164646040820152637265737360e01b606082015260800190565b6020808252603e908201527f4853462f7472616e7366657246726f6d3a2053686f756c64206e6f742074726160408201527f6e736665722066726f6d20626c61636b6c697374656420616464726573730000606082015260800190565b6020808252603a908201527f4853462f7472616e736665723a2053686f756c64206e6f74207472616e73666560408201527f722066726f6d20626c61636b6c69737465642061646472657373000000000000606082015260800190565b60208082526025908201527f45524332303a2064656372656173656420616c6c6f77616e63652062656c6f77604082015264207a65726f60d81b606082015260800190565b90815260200190565b60ff91909116815260200190565b60008219821115610fa157610fa1610ff8565b500190565b600082821015610fb857610fb8610ff8565b500390565b600281046001821680610fd157607f821691505b60208210811415610ff257634e487b7160e01b600052602260045260246000fd5b50919050565b634e487b7160e01b600052601160045260246000fdfea2646970667358221220ab3674fa2dd040bd52a94eb6ed61fd3a60653886c2a9cd3b50316186bd3a441064736f6c63430008000033",
  "linkReferences": {},
  "deployedLinkReferences": {}
}