{
  "_format": "hh-sol-artifact-1",
  "contractName": "InvestorV1PoolDeployer",
  "sourceName": "contracts/InvestorV1PoolDeployer.sol",
  "abi": [
    {
      "inputs": [],
      "name": "parameter1",
      "outputs": [
        {
          "internalType": "address",
          "name": "factory",
          "type": "address"
        },
        {
          "internalType": "address",
          "name": "operator",
          "type": "address"
        },
        {
          "internalType": "string",
          "name": "name",
          "type": "string"
        },
        {
          "internalType": "uint256",
          "name": "maxCapacity",
          "type": "uint256"
        },
        {
          "internalType": "uint256",
          "name": "minCapacity",
          "type": "uint256"
        }
      ],
      "stateMutability": "view",
      "type": "function"
    },
    {
      "inputs": [],
      "name": "parameter2",
      "outputs": [
        {
          "internalType": "uint256",
          "name": "oraclePrice",
          "type": "uint256"
        },
        {
          "internalType": "uint256",
          "name": "startTime",
          "type": "uint256"
        },
        {
          "internalType": "uint256",
          "name": "stageTime",
          "type": "uint256"
        },
        {
          "internalType": "uint256",
          "name": "endTime",
          "type": "uint256"
        },
        {
          "internalType": "uint24",
          "name": "fee",
          "type": "uint24"
        },
        {
          "internalType": "uint24",
          "name": "interestRate",
          "type": "uint24"
        }
      ],
      "stateMutability": "view",
      "type": "function"
    }
  ],
  "bytecode": "0x608060405234801561001057600080fd5b50610291806100206000396000f3fe608060405234801561001057600080fd5b50600436106100365760003560e01c806310e187711461003b578063857eee1b1461009f575b600080fd5b600554600654600754600854600954610065949392919062ffffff80821691630100000090041686565b60408051968752602087019590955293850192909252606084015262ffffff90811660808401521660a082015260c0015b60405180910390f35b6100a76100b8565b604051610096959493929190610179565b600080546001546002805473ffffffffffffffffffffffffffffffffffffffff9384169492909316926100ea90610207565b80601f016020809104026020016040519081016040528092919081815260200182805461011690610207565b80156101635780601f1061013857610100808354040283529160200191610163565b820191906000526020600020905b81548152906001019060200180831161014657829003601f168201915b5050505050908060030154908060040154905085565b600073ffffffffffffffffffffffffffffffffffffffff808816835260208188168185015260a06040850152865191508160a085015260005b828110156101ce5787810182015185820160c0015281016101b2565b828111156101e057600060c084870101525b5050606083019490945250608081019190915260c0601f909201601f191601019392505050565b600181811c9082168061021b57607f821691505b60208210811415610255577f4e487b7100000000000000000000000000000000000000000000000000000000600052602260045260246000fd5b5091905056fea26469706673582212200cb2b28194bd7b18fa18afd84b84e1e8d88c288cb484438ddce5fcdeea5a632164736f6c63430008070033",
  "linkReferences": {},
  "deployedLinkReferences": {}
}