{
  "address": "0x33e2790c7FE3663784997D695C75A86A154E81EB",
  "abi": [
    {
      "inputs": [
        {
          "internalType": "address",
          "name": "hsf_",
          "type": "address"
        },
        {
          "internalType": "address",
          "name": "recipient_",
          "type": "address"
        },
        {
          "internalType": "uint256",
          "name": "vestingAmount_",
          "type": "uint256"
        },
        {
          "internalType": "uint256",
          "name": "vestingBegin_",
          "type": "uint256"
        },
        {
          "internalType": "uint256",
          "name": "vestingCliff_",
          "type": "uint256"
        },
        {
          "internalType": "uint256",
          "name": "vestingEnd_",
          "type": "uint256"
        }
      ],
      "stateMutability": "nonpayable",
      "type": "constructor"
    },
    {
      "anonymous": false,
      "inputs": [
        {
          "indexed": false,
          "internalType": "uint256",
          "name": "amount",
          "type": "uint256"
        }
      ],
      "name": "TokenClaimed",
      "type": "event"
    },
    {
      "inputs": [],
      "name": "claim",
      "outputs": [],
      "stateMutability": "nonpayable",
      "type": "function"
    },
    {
      "inputs": [],
      "name": "hsf",
      "outputs": [
        {
          "internalType": "address",
          "name": "",
          "type": "address"
        }
      ],
      "stateMutability": "view",
      "type": "function"
    },
    {
      "inputs": [],
      "name": "lastUpdate",
      "outputs": [
        {
          "internalType": "uint256",
          "name": "",
          "type": "uint256"
        }
      ],
      "stateMutability": "view",
      "type": "function"
    },
    {
      "inputs": [],
      "name": "recipient",
      "outputs": [
        {
          "internalType": "address",
          "name": "",
          "type": "address"
        }
      ],
      "stateMutability": "view",
      "type": "function"
    },
    {
      "inputs": [
        {
          "internalType": "address",
          "name": "recipient_",
          "type": "address"
        }
      ],
      "name": "setRecipient",
      "outputs": [],
      "stateMutability": "nonpayable",
      "type": "function"
    },
    {
      "inputs": [],
      "name": "vestingAmount",
      "outputs": [
        {
          "internalType": "uint256",
          "name": "",
          "type": "uint256"
        }
      ],
      "stateMutability": "view",
      "type": "function"
    },
    {
      "inputs": [],
      "name": "vestingBegin",
      "outputs": [
        {
          "internalType": "uint256",
          "name": "",
          "type": "uint256"
        }
      ],
      "stateMutability": "view",
      "type": "function"
    },
    {
      "inputs": [],
      "name": "vestingCliff",
      "outputs": [
        {
          "internalType": "uint256",
          "name": "",
          "type": "uint256"
        }
      ],
      "stateMutability": "view",
      "type": "function"
    },
    {
      "inputs": [],
      "name": "vestingEnd",
      "outputs": [
        {
          "internalType": "uint256",
          "name": "",
          "type": "uint256"
        }
      ],
      "stateMutability": "view",
      "type": "function"
    }
  ],
  "transactionHash": "0xb9507f5a24e91a02ddfeb5fc197c2eac01bf1c58c6895a398981925b9aba1538",
  "args": [
    "0xba6b0dbb2ba8daa8f5d6817946393aef8d3a4487",
    "0x531994a404cAFAbA3100e299E4b9DC476F2047Bd",
    "5000000000000000000000000",
    1692370800,
    1692370800,
    1744988400
  ],
  "solcInputHash": "88e3ee8caa9eddd2b888a142f4ac43f9",
  "bytecode": "0x608060405234801561001057600080fd5b5060405161070438038061070483398101604081905261002f916101d0565b4283101561009f5760405162461bcd60e51b815260206004820152603260248201527f546f6b656e56657374696e673a3a636f6e7374727563746f723a2076657374696044820152716e6720626567696e20746f6f206561726c7960701b60648201526084015b60405180910390fd5b828210156101055760405162461bcd60e51b815260206004820152602d60248201527f546f6b656e56657374696e673a3a636f6e7374727563746f723a20636c69666660448201526c20697320746f6f206561726c7960981b6064820152608401610096565b8181116101685760405162461bcd60e51b815260206004820152602b60248201527f546f6b656e56657374696e673a3a636f6e7374727563746f723a20656e64206960448201526a7320746f6f206561726c7960a81b6064820152608401610096565b600080546001600160a01b039788166001600160a01b03199182161790915560018054969097169516949094179094556002919091556003819055600492909255600555600655610228565b80516001600160a01b03811681146101cb57600080fd5b919050565b60008060008060008060c087890312156101e957600080fd5b6101f2876101b4565b9550610200602088016101b4565b945060408701519350606087015192506080870151915060a087015190509295509295509295565b6104cd806102376000396000f3fe608060405234801561001057600080fd5b50600436106100925760003560e01c806366d003ac1161006657806366d003ac146100fb57806384a1931f1461010e578063c046371114610117578063e29bc68b14610120578063f3640e741461012957600080fd5b8062728f76146100975780633bbed4a0146100b357806344288f81146100c85780634e71d92d146100f3575b600080fd5b6100a060025481565b6040519081526020015b60405180910390f35b6100c66100c13660046103c5565b610132565b005b6000546100db906001600160a01b031681565b6040516001600160a01b0390911681526020016100aa565b6100c66101c4565b6001546100db906001600160a01b031681565b6100a060055481565b6100a060065481565b6100a060035481565b6100a060045481565b6001546001600160a01b031633146101a25760405162461bcd60e51b815260206004820152602860248201527f546f6b656e56657374696e673a3a736574526563697069656e743a20756e61756044820152671d1a1bdc9a5e995960c21b60648201526084015b60405180910390fd5b600180546001600160a01b0319166001600160a01b0392909216919091179055565b6004544210156102205760405162461bcd60e51b815260206004820152602160248201527f546f6b656e56657374696e673a3a636c61696d3a206e6f742074696d652079656044820152601d60fa1b6064820152608401610199565b600060055442106102ad576000546040516370a0823160e01b81523060048201526001600160a01b03909116906370a082319060240160206040518083038186803b15801561026e57600080fd5b505afa158015610282573d6000803e3d6000fd5b505050506040513d601f19601f820116820180604052508101906102a69190610410565b90506102e7565b6102e06003546005546102c0919061046a565b6102da600654426102d1919061046a565b600254906103a6565b906103b9565b4260065590505b60005460015460405163a9059cbb60e01b81526001600160a01b0391821660048201526024810184905291169063a9059cbb90604401602060405180830381600087803b15801561033757600080fd5b505af115801561034b573d6000803e3d6000fd5b505050506040513d601f19601f8201168201806040525081019061036f91906103ee565b506040518181527f97212d5af6cf1ddbeedea7e5f9a18970d2dde6bcc4583898856a241144c4877f9060200160405180910390a150565b60006103b2828461044b565b9392505050565b60006103b28284610429565b6000602082840312156103d757600080fd5b81356001600160a01b03811681146103b257600080fd5b60006020828403121561040057600080fd5b815180151581146103b257600080fd5b60006020828403121561042257600080fd5b5051919050565b60008261044657634e487b7160e01b600052601260045260246000fd5b500490565b600081600019048311821515161561046557610465610481565b500290565b60008282101561047c5761047c610481565b500390565b634e487b7160e01b600052601160045260246000fdfea264697066735822122077b6114fb5e42cda0a81e176d7e209d5801e7c9cdca73cdf32298717d57a810f64736f6c63430008070033",
  "devdoc": {
    "kind": "dev",
    "methods": {},
    "version": 1
  },
  "userdoc": {
    "kind": "user",
    "methods": {},
    "version": 1
  },
  "storageLayout": {
    "storage": [
      {
        "astId": 1213,
        "contract": "contracts/TokenVesting.sol:TokenVesting",
        "label": "hsf",
        "offset": 0,
        "slot": "0",
        "type": "t_address"
      },
      {
        "astId": 1215,
        "contract": "contracts/TokenVesting.sol:TokenVesting",
        "label": "recipient",
        "offset": 0,
        "slot": "1",
        "type": "t_address"
      },
      {
        "astId": 1217,
        "contract": "contracts/TokenVesting.sol:TokenVesting",
        "label": "vestingAmount",
        "offset": 0,
        "slot": "2",
        "type": "t_uint256"
      },
      {
        "astId": 1219,
        "contract": "contracts/TokenVesting.sol:TokenVesting",
        "label": "vestingBegin",
        "offset": 0,
        "slot": "3",
        "type": "t_uint256"
      },
      {
        "astId": 1221,
        "contract": "contracts/TokenVesting.sol:TokenVesting",
        "label": "vestingCliff",
        "offset": 0,
        "slot": "4",
        "type": "t_uint256"
      },
      {
        "astId": 1223,
        "contract": "contracts/TokenVesting.sol:TokenVesting",
        "label": "vestingEnd",
        "offset": 0,
        "slot": "5",
        "type": "t_uint256"
      },
      {
        "astId": 1225,
        "contract": "contracts/TokenVesting.sol:TokenVesting",
        "label": "lastUpdate",
        "offset": 0,
        "slot": "6",
        "type": "t_uint256"
      }
    ],
    "types": {
      "t_address": {
        "encoding": "inplace",
        "label": "address",
        "numberOfBytes": "20"
      },
      "t_uint256": {
        "encoding": "inplace",
        "label": "uint256",
        "numberOfBytes": "32"
      }
    }
  }
}